{
	"contracts/DonationPlatformUpgradeableV1.sol": {
		"DonationPlatformUpgradeableV1": {
			"abi": [
				{
					"inputs": [
						{
							"internalType": "address",
							"name": "target",
							"type": "address"
						}
					],
					"name": "AddressEmptyCode",
					"type": "error"
				},
				{
					"inputs": [
						{
							"internalType": "address",
							"name": "implementation",
							"type": "address"
						}
					],
					"name": "ERC1967InvalidImplementation",
					"type": "error"
				},
				{
					"inputs": [],
					"name": "ERC1967NonPayable",
					"type": "error"
				},
				{
					"inputs": [],
					"name": "FailedCall",
					"type": "error"
				},
				{
					"inputs": [],
					"name": "InvalidInitialization",
					"type": "error"
				},
				{
					"inputs": [],
					"name": "NotInitializing",
					"type": "error"
				},
				{
					"inputs": [
						{
							"internalType": "address",
							"name": "owner",
							"type": "address"
						}
					],
					"name": "OwnableInvalidOwner",
					"type": "error"
				},
				{
					"inputs": [
						{
							"internalType": "address",
							"name": "account",
							"type": "address"
						}
					],
					"name": "OwnableUnauthorizedAccount",
					"type": "error"
				},
				{
					"inputs": [],
					"name": "UUPSUnauthorizedCallContext",
					"type": "error"
				},
				{
					"inputs": [
						{
							"internalType": "bytes32",
							"name": "slot",
							"type": "bytes32"
						}
					],
					"name": "UUPSUnsupportedProxiableUUID",
					"type": "error"
				},
				{
					"anonymous": false,
					"inputs": [
						{
							"indexed": true,
							"internalType": "address",
							"name": "donor",
							"type": "address"
						},
						{
							"indexed": false,
							"internalType": "uint256",
							"name": "amountWei",
							"type": "uint256"
						}
					],
					"name": "Donated",
					"type": "event"
				},
				{
					"anonymous": false,
					"inputs": [
						{
							"indexed": false,
							"internalType": "uint64",
							"name": "version",
							"type": "uint64"
						}
					],
					"name": "Initialized",
					"type": "event"
				},
				{
					"anonymous": false,
					"inputs": [
						{
							"indexed": true,
							"internalType": "address",
							"name": "previousOwner",
							"type": "address"
						},
						{
							"indexed": true,
							"internalType": "address",
							"name": "newOwner",
							"type": "address"
						}
					],
					"name": "OwnershipTransferred",
					"type": "event"
				},
				{
					"anonymous": false,
					"inputs": [
						{
							"indexed": true,
							"internalType": "address",
							"name": "implementation",
							"type": "address"
						}
					],
					"name": "Upgraded",
					"type": "event"
				},
				{
					"anonymous": false,
					"inputs": [
						{
							"indexed": true,
							"internalType": "address",
							"name": "to",
							"type": "address"
						},
						{
							"indexed": false,
							"internalType": "uint256",
							"name": "amountWei",
							"type": "uint256"
						}
					],
					"name": "Withdrawn",
					"type": "event"
				},
				{
					"inputs": [],
					"name": "UPGRADE_INTERFACE_VERSION",
					"outputs": [
						{
							"internalType": "string",
							"name": "",
							"type": "string"
						}
					],
					"stateMutability": "view",
					"type": "function"
				},
				{
					"inputs": [],
					"name": "donate",
					"outputs": [],
					"stateMutability": "payable",
					"type": "function"
				},
				{
					"inputs": [
						{
							"internalType": "address",
							"name": "",
							"type": "address"
						}
					],
					"name": "donatedBy",
					"outputs": [
						{
							"internalType": "uint256",
							"name": "",
							"type": "uint256"
						}
					],
					"stateMutability": "view",
					"type": "function"
				},
				{
					"inputs": [
						{
							"internalType": "uint256",
							"name": "_minDonationWei",
							"type": "uint256"
						}
					],
					"name": "initialize",
					"outputs": [],
					"stateMutability": "nonpayable",
					"type": "function"
				},
				{
					"inputs": [],
					"name": "minDonationWei",
					"outputs": [
						{
							"internalType": "uint256",
							"name": "",
							"type": "uint256"
						}
					],
					"stateMutability": "view",
					"type": "function"
				},
				{
					"inputs": [],
					"name": "owner",
					"outputs": [
						{
							"internalType": "address",
							"name": "",
							"type": "address"
						}
					],
					"stateMutability": "view",
					"type": "function"
				},
				{
					"inputs": [],
					"name": "proxiableUUID",
					"outputs": [
						{
							"internalType": "bytes32",
							"name": "",
							"type": "bytes32"
						}
					],
					"stateMutability": "view",
					"type": "function"
				},
				{
					"inputs": [],
					"name": "renounceOwnership",
					"outputs": [],
					"stateMutability": "nonpayable",
					"type": "function"
				},
				{
					"inputs": [],
					"name": "totalDonated",
					"outputs": [
						{
							"internalType": "uint256",
							"name": "",
							"type": "uint256"
						}
					],
					"stateMutability": "view",
					"type": "function"
				},
				{
					"inputs": [
						{
							"internalType": "address",
							"name": "newOwner",
							"type": "address"
						}
					],
					"name": "transferOwnership",
					"outputs": [],
					"stateMutability": "nonpayable",
					"type": "function"
				},
				{
					"inputs": [
						{
							"internalType": "address",
							"name": "newImplementation",
							"type": "address"
						},
						{
							"internalType": "bytes",
							"name": "data",
							"type": "bytes"
						}
					],
					"name": "upgradeToAndCall",
					"outputs": [],
					"stateMutability": "payable",
					"type": "function"
				},
				{
					"inputs": [
						{
							"internalType": "address payable",
							"name": "to",
							"type": "address"
						},
						{
							"internalType": "uint256",
							"name": "amountWei",
							"type": "uint256"
						}
					],
					"name": "withdraw",
					"outputs": [],
					"stateMutability": "nonpayable",
					"type": "function"
				}
			],
			"devdoc": {
				"details": "First version of an upgradeable donation platform",
				"errors": {
					"AddressEmptyCode(address)": [
						{
							"details": "There's no code at `target` (it is not a contract)."
						}
					],
					"ERC1967InvalidImplementation(address)": [
						{
							"details": "The `implementation` of the proxy is invalid."
						}
					],
					"ERC1967NonPayable()": [
						{
							"details": "An upgrade function sees `msg.value > 0` that may be lost."
						}
					],
					"FailedCall()": [
						{
							"details": "A call to an address target failed. The target may have reverted."
						}
					],
					"InvalidInitialization()": [
						{
							"details": "The contract is already initialized."
						}
					],
					"NotInitializing()": [
						{
							"details": "The contract is not initializing."
						}
					],
					"OwnableInvalidOwner(address)": [
						{
							"details": "The owner is not a valid owner account. (eg. `address(0)`)"
						}
					],
					"OwnableUnauthorizedAccount(address)": [
						{
							"details": "The caller account is not authorized to perform an operation."
						}
					],
					"UUPSUnauthorizedCallContext()": [
						{
							"details": "The call is from an unauthorized context."
						}
					],
					"UUPSUnsupportedProxiableUUID(bytes32)": [
						{
							"details": "The storage `slot` is unsupported as a UUID."
						}
					]
				},
				"events": {
					"Initialized(uint64)": {
						"details": "Triggered when the contract has been initialized or reinitialized."
					},
					"Upgraded(address)": {
						"details": "Emitted when the implementation is upgraded."
					}
				},
				"kind": "dev",
				"methods": {
					"owner()": {
						"details": "Returns the address of the current owner."
					},
					"proxiableUUID()": {
						"details": "Implementation of the ERC-1822 {proxiableUUID} function. This returns the storage slot used by the implementation. It is used to validate the implementation's compatibility when performing an upgrade. IMPORTANT: A proxy pointing at a proxiable contract should not be considered proxiable itself, because this risks bricking a proxy that upgrades to it, by delegating to itself until out of gas. Thus it is critical that this function revert if invoked through a proxy. This is guaranteed by the `notDelegated` modifier."
					},
					"renounceOwnership()": {
						"details": "Leaves the contract without owner. It will not be possible to call `onlyOwner` functions. Can only be called by the current owner. NOTE: Renouncing ownership will leave the contract without an owner, thereby disabling any functionality that is only available to the owner."
					},
					"transferOwnership(address)": {
						"details": "Transfers ownership of the contract to a new account (`newOwner`). Can only be called by the current owner."
					},
					"upgradeToAndCall(address,bytes)": {
						"custom:oz-upgrades-unsafe-allow-reachable": "delegatecall",
						"details": "Upgrade the implementation of the proxy to `newImplementation`, and subsequently execute the function call encoded in `data`. Calls {_authorizeUpgrade}. Emits an {Upgraded} event."
					}
				},
				"title": "DonationPlatformUpgradeableV1",
				"version": 1
			},
			"evm": {
				"assembly": "    /* \"contracts/DonationPlatformUpgradeableV1.sol\":483:2499  contract DonationPlatformUpgradeableV1 is... */\n  mstore(0x40, 0xa0)\n    /* \"@openzeppelin/contracts-upgradeable/proxy/utils/UUPSUpgradeable.sol\":1171:1175  this */\n  address\n    /* \"@openzeppelin/contracts-upgradeable/proxy/utils/UUPSUpgradeable.sol\":1128:1176  address private immutable __self = address(this) */\n  0xffffffffffffffffffffffffffffffffffffffff\n  and\n  0x80\n  swap1\n  0xffffffffffffffffffffffffffffffffffffffff\n  and\n  dup2\n  mstore\n  pop\n    /* \"contracts/DonationPlatformUpgradeableV1.sol\":483:2499  contract DonationPlatformUpgradeableV1 is... */\n  callvalue\n  dup1\n  iszero\n  tag_1\n  jumpi\n  0x00\n  dup1\n  revert\ntag_1:\n  pop\n  mload(0x80)\n  codecopy(0x00, dataOffset(sub_0), dataSize(sub_0))\n  0x00\n  assignImmutable(\"0x4ce4dab4689da140a0c12de1a6af6b8f679594aeb723205f513e052d27f5b26f\")\n  return(0x00, dataSize(sub_0))\nstop\n\nsub_0: assembly {\n        /* \"contracts/DonationPlatformUpgradeableV1.sol\":483:2499  contract DonationPlatformUpgradeableV1 is... */\n      mstore(0x40, 0x80)\n      jumpi(tag_1, lt(calldatasize, 0x04))\n      shr(0xe0, calldataload(0x00))\n      dup1\n      0xcdaa6b2c\n      gt\n      tag_14\n      jumpi\n      dup1\n      0xcdaa6b2c\n      eq\n      tag_8\n      jumpi\n      dup1\n      0xecf20921\n      eq\n      tag_9\n      jumpi\n      dup1\n      0xed88c68e\n      eq\n      tag_10\n      jumpi\n      dup1\n      0xf2fde38b\n      eq\n      tag_11\n      jumpi\n      dup1\n      0xf3fef3a3\n      eq\n      tag_12\n      jumpi\n      dup1\n      0xfe4b84df\n      eq\n      tag_13\n      jumpi\n      jump(tag_1)\n    tag_14:\n      dup1\n      0xb37044\n      eq\n      tag_2\n      jumpi\n      dup1\n      0x4f1ef286\n      eq\n      tag_3\n      jumpi\n      dup1\n      0x52d1902d\n      eq\n      tag_4\n      jumpi\n      dup1\n      0x715018a6\n      eq\n      tag_5\n      jumpi\n      dup1\n      0x8da5cb5b\n      eq\n      tag_6\n      jumpi\n      dup1\n      0xad3cb1cc\n      eq\n      tag_7\n      jumpi\n    tag_1:\n      0x00\n      dup1\n      revert\n        /* \"contracts/DonationPlatformUpgradeableV1.sol\":756:783  uint256 public totalDonated */\n    tag_2:\n      callvalue\n      dup1\n      iszero\n      tag_15\n      jumpi\n      0x00\n      dup1\n      revert\n    tag_15:\n      pop\n      tag_16\n      tag_17\n      jump\t// in\n    tag_16:\n      mload(0x40)\n      tag_18\n      swap2\n      swap1\n      tag_19\n      jump\t// in\n    tag_18:\n      mload(0x40)\n      dup1\n      swap2\n      sub\n      swap1\n      return\n        /* \"@openzeppelin/contracts-upgradeable/proxy/utils/UUPSUpgradeable.sol\":4161:4375  function upgradeToAndCall(address newImplementation, bytes memory data) public payable virtual onlyProxy {... */\n    tag_3:\n      tag_20\n      0x04\n      dup1\n      calldatasize\n      sub\n      dup2\n      add\n      swap1\n      tag_21\n      swap2\n      swap1\n      tag_22\n      jump\t// in\n    tag_21:\n      tag_23\n      jump\t// in\n    tag_20:\n      stop\n        /* \"@openzeppelin/contracts-upgradeable/proxy/utils/UUPSUpgradeable.sol\":3708:3842  function proxiableUUID() external view virtual notDelegated returns (bytes32) {... */\n    tag_4:\n      callvalue\n      dup1\n      iszero\n      tag_24\n      jumpi\n      0x00\n      dup1\n      revert\n    tag_24:\n      pop\n      tag_25\n      tag_26\n      jump\t// in\n    tag_25:\n      mload(0x40)\n      tag_27\n      swap2\n      swap1\n      tag_28\n      jump\t// in\n    tag_27:\n      mload(0x40)\n      dup1\n      swap2\n      sub\n      swap1\n      return\n        /* \"@openzeppelin/contracts-upgradeable/access/OwnableUpgradeable.sol\":3155:3256  function renounceOwnership() public virtual onlyOwner {... */\n    tag_5:\n      callvalue\n      dup1\n      iszero\n      tag_29\n      jumpi\n      0x00\n      dup1\n      revert\n    tag_29:\n      pop\n      tag_30\n      tag_31\n      jump\t// in\n    tag_30:\n      stop\n        /* \"@openzeppelin/contracts-upgradeable/access/OwnableUpgradeable.sol\":2441:2585  function owner() public view virtual returns (address) {... */\n    tag_6:\n      callvalue\n      dup1\n      iszero\n      tag_32\n      jumpi\n      0x00\n      dup1\n      revert\n    tag_32:\n      pop\n      tag_33\n      tag_34\n      jump\t// in\n    tag_33:\n      mload(0x40)\n      tag_35\n      swap2\n      swap1\n      tag_36\n      jump\t// in\n    tag_35:\n      mload(0x40)\n      dup1\n      swap2\n      sub\n      swap1\n      return\n        /* \"@openzeppelin/contracts-upgradeable/proxy/utils/UUPSUpgradeable.sol\":1819:1877  string public constant UPGRADE_INTERFACE_VERSION = \"5.0.0\" */\n    tag_7:\n      callvalue\n      dup1\n      iszero\n      tag_37\n      jumpi\n      0x00\n      dup1\n      revert\n    tag_37:\n      pop\n      tag_38\n      tag_39\n      jump\t// in\n    tag_38:\n      mload(0x40)\n      tag_40\n      swap2\n      swap1\n      tag_41\n      jump\t// in\n    tag_40:\n      mload(0x40)\n      dup1\n      swap2\n      sub\n      swap1\n      return\n        /* \"contracts/DonationPlatformUpgradeableV1.sol\":790:834  mapping(address => uint256) public donatedBy */\n    tag_8:\n      callvalue\n      dup1\n      iszero\n      tag_42\n      jumpi\n      0x00\n      dup1\n      revert\n    tag_42:\n      pop\n      tag_43\n      0x04\n      dup1\n      calldatasize\n      sub\n      dup2\n      add\n      swap1\n      tag_44\n      swap2\n      swap1\n      tag_45\n      jump\t// in\n    tag_44:\n      tag_46\n      jump\t// in\n    tag_43:\n      mload(0x40)\n      tag_47\n      swap2\n      swap1\n      tag_19\n      jump\t// in\n    tag_47:\n      mload(0x40)\n      dup1\n      swap2\n      sub\n      swap1\n      return\n        /* \"contracts/DonationPlatformUpgradeableV1.sol\":721:750  uint256 public minDonationWei */\n    tag_9:\n      callvalue\n      dup1\n      iszero\n      tag_48\n      jumpi\n      0x00\n      dup1\n      revert\n    tag_48:\n      pop\n      tag_49\n      tag_50\n      jump\t// in\n    tag_49:\n      mload(0x40)\n      tag_51\n      swap2\n      swap1\n      tag_19\n      jump\t// in\n    tag_51:\n      mload(0x40)\n      dup1\n      swap2\n      sub\n      swap1\n      return\n        /* \"contracts/DonationPlatformUpgradeableV1.sol\":1521:1757  function donate() external payable {... */\n    tag_10:\n      tag_52\n      tag_53\n      jump\t// in\n    tag_52:\n      stop\n        /* \"@openzeppelin/contracts-upgradeable/access/OwnableUpgradeable.sol\":3405:3620  function transferOwnership(address newOwner) public virtual onlyOwner {... */\n    tag_11:\n      callvalue\n      dup1\n      iszero\n      tag_54\n      jumpi\n      0x00\n      dup1\n      revert\n    tag_54:\n      pop\n      tag_55\n      0x04\n      dup1\n      calldatasize\n      sub\n      dup2\n      add\n      swap1\n      tag_56\n      swap2\n      swap1\n      tag_45\n      jump\t// in\n    tag_56:\n      tag_57\n      jump\t// in\n    tag_55:\n      stop\n        /* \"contracts/DonationPlatformUpgradeableV1.sol\":1848:2287  function withdraw(address payable to, uint256 amountWei)... */\n    tag_12:\n      callvalue\n      dup1\n      iszero\n      tag_58\n      jumpi\n      0x00\n      dup1\n      revert\n    tag_58:\n      pop\n      tag_59\n      0x04\n      dup1\n      calldatasize\n      sub\n      dup2\n      add\n      swap1\n      tag_60\n      swap2\n      swap1\n      tag_61\n      jump\t// in\n    tag_60:\n      tag_62\n      jump\t// in\n    tag_59:\n      stop\n        /* \"contracts/DonationPlatformUpgradeableV1.sol\":1145:1430  function initialize(uint256 _minDonationWei) public initializer {... */\n    tag_13:\n      callvalue\n      dup1\n      iszero\n      tag_63\n      jumpi\n      0x00\n      dup1\n      revert\n    tag_63:\n      pop\n      tag_64\n      0x04\n      dup1\n      calldatasize\n      sub\n      dup2\n      add\n      swap1\n      tag_65\n      swap2\n      swap1\n      tag_66\n      jump\t// in\n    tag_65:\n      tag_67\n      jump\t// in\n    tag_64:\n      stop\n        /* \"contracts/DonationPlatformUpgradeableV1.sol\":756:783  uint256 public totalDonated */\n    tag_17:\n      sload(0x33)\n      dup2\n      jump\t// out\n        /* \"@openzeppelin/contracts-upgradeable/proxy/utils/UUPSUpgradeable.sol\":4161:4375  function upgradeToAndCall(address newImplementation, bytes memory data) public payable virtual onlyProxy {... */\n    tag_23:\n        /* \"@openzeppelin/contracts-upgradeable/proxy/utils/UUPSUpgradeable.sol\":2655:2668  _checkProxy() */\n      tag_69\n        /* \"@openzeppelin/contracts-upgradeable/proxy/utils/UUPSUpgradeable.sol\":2655:2666  _checkProxy */\n      tag_70\n        /* \"@openzeppelin/contracts-upgradeable/proxy/utils/UUPSUpgradeable.sol\":2655:2668  _checkProxy() */\n      jump\t// in\n    tag_69:\n        /* \"@openzeppelin/contracts-upgradeable/proxy/utils/UUPSUpgradeable.sol\":4276:4312  _authorizeUpgrade(newImplementation) */\n      tag_72\n        /* \"@openzeppelin/contracts-upgradeable/proxy/utils/UUPSUpgradeable.sol\":4294:4311  newImplementation */\n      dup3\n        /* \"@openzeppelin/contracts-upgradeable/proxy/utils/UUPSUpgradeable.sol\":4276:4293  _authorizeUpgrade */\n      tag_73\n        /* \"@openzeppelin/contracts-upgradeable/proxy/utils/UUPSUpgradeable.sol\":4276:4312  _authorizeUpgrade(newImplementation) */\n      jump\t// in\n    tag_72:\n        /* \"@openzeppelin/contracts-upgradeable/proxy/utils/UUPSUpgradeable.sol\":4322:4368  _upgradeToAndCallUUPS(newImplementation, data) */\n      tag_74\n        /* \"@openzeppelin/contracts-upgradeable/proxy/utils/UUPSUpgradeable.sol\":4344:4361  newImplementation */\n      dup3\n        /* \"@openzeppelin/contracts-upgradeable/proxy/utils/UUPSUpgradeable.sol\":4363:4367  data */\n      dup3\n        /* \"@openzeppelin/contracts-upgradeable/proxy/utils/UUPSUpgradeable.sol\":4322:4343  _upgradeToAndCallUUPS */\n      tag_75\n        /* \"@openzeppelin/contracts-upgradeable/proxy/utils/UUPSUpgradeable.sol\":4322:4368  _upgradeToAndCallUUPS(newImplementation, data) */\n      jump\t// in\n    tag_74:\n        /* \"@openzeppelin/contracts-upgradeable/proxy/utils/UUPSUpgradeable.sol\":4161:4375  function upgradeToAndCall(address newImplementation, bytes memory data) public payable virtual onlyProxy {... */\n      pop\n      pop\n      jump\t// out\n        /* \"@openzeppelin/contracts-upgradeable/proxy/utils/UUPSUpgradeable.sol\":3708:3842  function proxiableUUID() external view virtual notDelegated returns (bytes32) {... */\n    tag_26:\n        /* \"@openzeppelin/contracts-upgradeable/proxy/utils/UUPSUpgradeable.sol\":3777:3784  bytes32 */\n      0x00\n        /* \"@openzeppelin/contracts-upgradeable/proxy/utils/UUPSUpgradeable.sol\":2926:2946  _checkNotDelegated() */\n      tag_77\n        /* \"@openzeppelin/contracts-upgradeable/proxy/utils/UUPSUpgradeable.sol\":2926:2944  _checkNotDelegated */\n      tag_78\n        /* \"@openzeppelin/contracts-upgradeable/proxy/utils/UUPSUpgradeable.sol\":2926:2946  _checkNotDelegated() */\n      jump\t// in\n    tag_77:\n        /* \"@openzeppelin/contracts/proxy/ERC1967/ERC1967Utils.sol\":811:877  0x360894a13ba1a3210667c828492db98dca3e2076cc3735a920a3ca505d382bbc */\n      0x360894a13ba1a3210667c828492db98dca3e2076cc3735a920a3ca505d382bbc\n        /* \"@openzeppelin/contracts-upgradeable/proxy/utils/UUPSUpgradeable.sol\":3803:3835  ERC1967Utils.IMPLEMENTATION_SLOT */\n      0x00\n      shl\n        /* \"@openzeppelin/contracts-upgradeable/proxy/utils/UUPSUpgradeable.sol\":3796:3835  return ERC1967Utils.IMPLEMENTATION_SLOT */\n      swap1\n      pop\n        /* \"@openzeppelin/contracts-upgradeable/proxy/utils/UUPSUpgradeable.sol\":3708:3842  function proxiableUUID() external view virtual notDelegated returns (bytes32) {... */\n      swap1\n      jump\t// out\n        /* \"@openzeppelin/contracts-upgradeable/access/OwnableUpgradeable.sol\":3155:3256  function renounceOwnership() public virtual onlyOwner {... */\n    tag_31:\n        /* \"@openzeppelin/contracts-upgradeable/access/OwnableUpgradeable.sol\":2334:2347  _checkOwner() */\n      tag_81\n        /* \"@openzeppelin/contracts-upgradeable/access/OwnableUpgradeable.sol\":2334:2345  _checkOwner */\n      tag_82\n        /* \"@openzeppelin/contracts-upgradeable/access/OwnableUpgradeable.sol\":2334:2347  _checkOwner() */\n      jump\t// in\n    tag_81:\n        /* \"@openzeppelin/contracts-upgradeable/access/OwnableUpgradeable.sol\":3219:3249  _transferOwnership(address(0)) */\n      tag_84\n        /* \"@openzeppelin/contracts-upgradeable/access/OwnableUpgradeable.sol\":3246:3247  0 */\n      0x00\n        /* \"@openzeppelin/contracts-upgradeable/access/OwnableUpgradeable.sol\":3219:3237  _transferOwnership */\n      tag_85\n        /* \"@openzeppelin/contracts-upgradeable/access/OwnableUpgradeable.sol\":3219:3249  _transferOwnership(address(0)) */\n      jump\t// in\n    tag_84:\n        /* \"@openzeppelin/contracts-upgradeable/access/OwnableUpgradeable.sol\":3155:3256  function renounceOwnership() public virtual onlyOwner {... */\n      jump\t// out\n        /* \"@openzeppelin/contracts-upgradeable/access/OwnableUpgradeable.sol\":2441:2585  function owner() public view virtual returns (address) {... */\n    tag_34:\n        /* \"@openzeppelin/contracts-upgradeable/access/OwnableUpgradeable.sol\":2487:2494  address */\n      0x00\n        /* \"@openzeppelin/contracts-upgradeable/access/OwnableUpgradeable.sol\":2506:2530  OwnableStorage storage $ */\n      dup1\n        /* \"@openzeppelin/contracts-upgradeable/access/OwnableUpgradeable.sol\":2533:2553  _getOwnableStorage() */\n      tag_87\n        /* \"@openzeppelin/contracts-upgradeable/access/OwnableUpgradeable.sol\":2533:2551  _getOwnableStorage */\n      tag_88\n        /* \"@openzeppelin/contracts-upgradeable/access/OwnableUpgradeable.sol\":2533:2553  _getOwnableStorage() */\n      jump\t// in\n    tag_87:\n        /* \"@openzeppelin/contracts-upgradeable/access/OwnableUpgradeable.sol\":2506:2553  OwnableStorage storage $ = _getOwnableStorage() */\n      swap1\n      pop\n        /* \"@openzeppelin/contracts-upgradeable/access/OwnableUpgradeable.sol\":2570:2571  $ */\n      dup1\n        /* \"@openzeppelin/contracts-upgradeable/access/OwnableUpgradeable.sol\":2570:2578  $._owner */\n      0x00\n      add\n      0x00\n      swap1\n      sload\n      swap1\n      0x0100\n      exp\n      swap1\n      div\n      0xffffffffffffffffffffffffffffffffffffffff\n      and\n        /* \"@openzeppelin/contracts-upgradeable/access/OwnableUpgradeable.sol\":2563:2578  return $._owner */\n      swap2\n      pop\n      pop\n        /* \"@openzeppelin/contracts-upgradeable/access/OwnableUpgradeable.sol\":2441:2585  function owner() public view virtual returns (address) {... */\n      swap1\n      jump\t// out\n        /* \"@openzeppelin/contracts-upgradeable/proxy/utils/UUPSUpgradeable.sol\":1819:1877  string public constant UPGRADE_INTERFACE_VERSION = \"5.0.0\" */\n    tag_39:\n      mload(0x40)\n      dup1\n      0x40\n      add\n      0x40\n      mstore\n      dup1\n      0x05\n      dup2\n      mstore\n      0x20\n      add\n      0x352e302e30000000000000000000000000000000000000000000000000000000\n      dup2\n      mstore\n      pop\n      dup2\n      jump\t// out\n        /* \"contracts/DonationPlatformUpgradeableV1.sol\":790:834  mapping(address => uint256) public donatedBy */\n    tag_46:\n      mstore(0x20, 0x34)\n      dup1\n      0x00\n      mstore\n      keccak256(0x00, 0x40)\n      0x00\n      swap2\n      pop\n      swap1\n      pop\n      sload\n      dup2\n      jump\t// out\n        /* \"contracts/DonationPlatformUpgradeableV1.sol\":721:750  uint256 public minDonationWei */\n    tag_50:\n      sload(0x32)\n      dup2\n      jump\t// out\n        /* \"contracts/DonationPlatformUpgradeableV1.sol\":1521:1757  function donate() external payable {... */\n    tag_53:\n        /* \"contracts/DonationPlatformUpgradeableV1.sol\":1587:1601  minDonationWei */\n      sload(0x32)\n        /* \"contracts/DonationPlatformUpgradeableV1.sol\":1574:1583  msg.value */\n      callvalue\n        /* \"contracts/DonationPlatformUpgradeableV1.sol\":1574:1601  msg.value >= minDonationWei */\n      lt\n      iszero\n        /* \"contracts/DonationPlatformUpgradeableV1.sol\":1566:1624  require(msg.value >= minDonationWei, \"Donation too small\") */\n      tag_90\n      jumpi\n      mload(0x40)\n      0x08c379a000000000000000000000000000000000000000000000000000000000\n      dup2\n      mstore\n      0x04\n      add\n      tag_91\n      swap1\n      tag_92\n      jump\t// in\n    tag_91:\n      mload(0x40)\n      dup1\n      swap2\n      sub\n      swap1\n      revert\n    tag_90:\n        /* \"contracts/DonationPlatformUpgradeableV1.sol\":1660:1669  msg.value */\n      callvalue\n        /* \"contracts/DonationPlatformUpgradeableV1.sol\":1635:1644  donatedBy */\n      0x34\n        /* \"contracts/DonationPlatformUpgradeableV1.sol\":1635:1656  donatedBy[msg.sender] */\n      0x00\n        /* \"contracts/DonationPlatformUpgradeableV1.sol\":1645:1655  msg.sender */\n      caller\n        /* \"contracts/DonationPlatformUpgradeableV1.sol\":1635:1656  donatedBy[msg.sender] */\n      0xffffffffffffffffffffffffffffffffffffffff\n      and\n      0xffffffffffffffffffffffffffffffffffffffff\n      and\n      dup2\n      mstore\n      0x20\n      add\n      swap1\n      dup2\n      mstore\n      0x20\n      add\n      0x00\n      keccak256\n      0x00\n        /* \"contracts/DonationPlatformUpgradeableV1.sol\":1635:1669  donatedBy[msg.sender] += msg.value */\n      dup3\n      dup3\n      sload\n      tag_93\n      swap2\n      swap1\n      tag_94\n      jump\t// in\n    tag_93:\n      swap3\n      pop\n      pop\n      dup2\n      swap1\n      sstore\n      pop\n        /* \"contracts/DonationPlatformUpgradeableV1.sol\":1695:1704  msg.value */\n      callvalue\n        /* \"contracts/DonationPlatformUpgradeableV1.sol\":1679:1691  totalDonated */\n      0x33\n      0x00\n        /* \"contracts/DonationPlatformUpgradeableV1.sol\":1679:1704  totalDonated += msg.value */\n      dup3\n      dup3\n      sload\n      tag_95\n      swap2\n      swap1\n      tag_94\n      jump\t// in\n    tag_95:\n      swap3\n      pop\n      pop\n      dup2\n      swap1\n      sstore\n      pop\n        /* \"contracts/DonationPlatformUpgradeableV1.sol\":1728:1738  msg.sender */\n      caller\n        /* \"contracts/DonationPlatformUpgradeableV1.sol\":1720:1750  Donated(msg.sender, msg.value) */\n      0xffffffffffffffffffffffffffffffffffffffff\n      and\n      0x2a01595cddf097c90216094025db714da3f4e5bd8877b56ba86a24ecead8e543\n        /* \"contracts/DonationPlatformUpgradeableV1.sol\":1740:1749  msg.value */\n      callvalue\n        /* \"contracts/DonationPlatformUpgradeableV1.sol\":1720:1750  Donated(msg.sender, msg.value) */\n      mload(0x40)\n      tag_96\n      swap2\n      swap1\n      tag_19\n      jump\t// in\n    tag_96:\n      mload(0x40)\n      dup1\n      swap2\n      sub\n      swap1\n      log2\n        /* \"contracts/DonationPlatformUpgradeableV1.sol\":1521:1757  function donate() external payable {... */\n      jump\t// out\n        /* \"@openzeppelin/contracts-upgradeable/access/OwnableUpgradeable.sol\":3405:3620  function transferOwnership(address newOwner) public virtual onlyOwner {... */\n    tag_57:\n        /* \"@openzeppelin/contracts-upgradeable/access/OwnableUpgradeable.sol\":2334:2347  _checkOwner() */\n      tag_98\n        /* \"@openzeppelin/contracts-upgradeable/access/OwnableUpgradeable.sol\":2334:2345  _checkOwner */\n      tag_82\n        /* \"@openzeppelin/contracts-upgradeable/access/OwnableUpgradeable.sol\":2334:2347  _checkOwner() */\n      jump\t// in\n    tag_98:\n        /* \"@openzeppelin/contracts-upgradeable/access/OwnableUpgradeable.sol\":3509:3510  0 */\n      0x00\n        /* \"@openzeppelin/contracts-upgradeable/access/OwnableUpgradeable.sol\":3489:3511  newOwner == address(0) */\n      0xffffffffffffffffffffffffffffffffffffffff\n      and\n        /* \"@openzeppelin/contracts-upgradeable/access/OwnableUpgradeable.sol\":3489:3497  newOwner */\n      dup2\n        /* \"@openzeppelin/contracts-upgradeable/access/OwnableUpgradeable.sol\":3489:3511  newOwner == address(0) */\n      0xffffffffffffffffffffffffffffffffffffffff\n      and\n      sub\n        /* \"@openzeppelin/contracts-upgradeable/access/OwnableUpgradeable.sol\":3485:3576  if (newOwner == address(0)) {... */\n      tag_100\n      jumpi\n        /* \"@openzeppelin/contracts-upgradeable/access/OwnableUpgradeable.sol\":3562:3563  0 */\n      0x00\n        /* \"@openzeppelin/contracts-upgradeable/access/OwnableUpgradeable.sol\":3534:3565  OwnableInvalidOwner(address(0)) */\n      mload(0x40)\n      0x1e4fbdf700000000000000000000000000000000000000000000000000000000\n      dup2\n      mstore\n      0x04\n      add\n      tag_101\n      swap2\n      swap1\n      tag_36\n      jump\t// in\n    tag_101:\n      mload(0x40)\n      dup1\n      swap2\n      sub\n      swap1\n      revert\n        /* \"@openzeppelin/contracts-upgradeable/access/OwnableUpgradeable.sol\":3485:3576  if (newOwner == address(0)) {... */\n    tag_100:\n        /* \"@openzeppelin/contracts-upgradeable/access/OwnableUpgradeable.sol\":3585:3613  _transferOwnership(newOwner) */\n      tag_102\n        /* \"@openzeppelin/contracts-upgradeable/access/OwnableUpgradeable.sol\":3604:3612  newOwner */\n      dup2\n        /* \"@openzeppelin/contracts-upgradeable/access/OwnableUpgradeable.sol\":3585:3603  _transferOwnership */\n      tag_85\n        /* \"@openzeppelin/contracts-upgradeable/access/OwnableUpgradeable.sol\":3585:3613  _transferOwnership(newOwner) */\n      jump\t// in\n    tag_102:\n        /* \"@openzeppelin/contracts-upgradeable/access/OwnableUpgradeable.sol\":3405:3620  function transferOwnership(address newOwner) public virtual onlyOwner {... */\n      pop\n      jump\t// out\n        /* \"contracts/DonationPlatformUpgradeableV1.sol\":1848:2287  function withdraw(address payable to, uint256 amountWei)... */\n    tag_62:\n        /* \"@openzeppelin/contracts-upgradeable/access/OwnableUpgradeable.sol\":2334:2347  _checkOwner() */\n      tag_104\n        /* \"@openzeppelin/contracts-upgradeable/access/OwnableUpgradeable.sol\":2334:2345  _checkOwner */\n      tag_82\n        /* \"@openzeppelin/contracts-upgradeable/access/OwnableUpgradeable.sol\":2334:2347  _checkOwner() */\n      jump\t// in\n    tag_104:\n        /* \"@openzeppelin/contracts-upgradeable/security/ReentrancyGuardUpgradeable.sol\":2526:2547  _nonReentrantBefore() */\n      tag_106\n        /* \"@openzeppelin/contracts-upgradeable/security/ReentrancyGuardUpgradeable.sol\":2526:2545  _nonReentrantBefore */\n      tag_107\n        /* \"@openzeppelin/contracts-upgradeable/security/ReentrancyGuardUpgradeable.sol\":2526:2547  _nonReentrantBefore() */\n      jump\t// in\n    tag_106:\n        /* \"contracts/DonationPlatformUpgradeableV1.sol\":1997:1998  0 */\n      0x00\n        /* \"contracts/DonationPlatformUpgradeableV1.sol\":1983:1999  to != address(0) */\n      0xffffffffffffffffffffffffffffffffffffffff\n      and\n        /* \"contracts/DonationPlatformUpgradeableV1.sol\":1983:1985  to */\n      dup3\n        /* \"contracts/DonationPlatformUpgradeableV1.sol\":1983:1999  to != address(0) */\n      0xffffffffffffffffffffffffffffffffffffffff\n      and\n      sub\n        /* \"contracts/DonationPlatformUpgradeableV1.sol\":1975:2021  require(to != address(0), \"Invalid recipient\") */\n      tag_109\n      jumpi\n      mload(0x40)\n      0x08c379a000000000000000000000000000000000000000000000000000000000\n      dup2\n      mstore\n      0x04\n      add\n      tag_110\n      swap1\n      tag_111\n      jump\t// in\n    tag_110:\n      mload(0x40)\n      dup1\n      swap2\n      sub\n      swap1\n      revert\n    tag_109:\n        /* \"contracts/DonationPlatformUpgradeableV1.sol\":2051:2052  0 */\n      0x00\n        /* \"contracts/DonationPlatformUpgradeableV1.sol\":2039:2048  amountWei */\n      dup2\n        /* \"contracts/DonationPlatformUpgradeableV1.sol\":2039:2052  amountWei > 0 */\n      gt\n        /* \"contracts/DonationPlatformUpgradeableV1.sol\":2031:2075  require(amountWei > 0, \"Amount must be > 0\") */\n      tag_112\n      jumpi\n      mload(0x40)\n      0x08c379a000000000000000000000000000000000000000000000000000000000\n      dup2\n      mstore\n      0x04\n      add\n      tag_113\n      swap1\n      tag_114\n      jump\t// in\n    tag_113:\n      mload(0x40)\n      dup1\n      swap2\n      sub\n      swap1\n      revert\n    tag_112:\n        /* \"contracts/DonationPlatformUpgradeableV1.sol\":2106:2127  address(this).balance */\n      selfbalance\n        /* \"contracts/DonationPlatformUpgradeableV1.sol\":2093:2102  amountWei */\n      dup2\n        /* \"contracts/DonationPlatformUpgradeableV1.sol\":2093:2127  amountWei <= address(this).balance */\n      gt\n      iszero\n        /* \"contracts/DonationPlatformUpgradeableV1.sol\":2085:2146  require(amountWei <= address(this).balance, \"Not enough ETH\") */\n      tag_115\n      jumpi\n      mload(0x40)\n      0x08c379a000000000000000000000000000000000000000000000000000000000\n      dup2\n      mstore\n      0x04\n      add\n      tag_116\n      swap1\n      tag_117\n      jump\t// in\n    tag_116:\n      mload(0x40)\n      dup1\n      swap2\n      sub\n      swap1\n      revert\n    tag_115:\n        /* \"contracts/DonationPlatformUpgradeableV1.sol\":2158:2165  bool ok */\n      0x00\n        /* \"contracts/DonationPlatformUpgradeableV1.sol\":2171:2173  to */\n      dup3\n        /* \"contracts/DonationPlatformUpgradeableV1.sol\":2171:2178  to.call */\n      0xffffffffffffffffffffffffffffffffffffffff\n      and\n        /* \"contracts/DonationPlatformUpgradeableV1.sol\":2186:2195  amountWei */\n      dup3\n        /* \"contracts/DonationPlatformUpgradeableV1.sol\":2171:2200  to.call{value: amountWei}(\"\") */\n      mload(0x40)\n      tag_118\n      swap1\n      tag_119\n      jump\t// in\n    tag_118:\n      0x00\n      mload(0x40)\n      dup1\n      dup4\n      sub\n      dup2\n      dup6\n      dup8\n      gas\n      call\n      swap3\n      pop\n      pop\n      pop\n      returndatasize\n      dup1\n      0x00\n      dup2\n      eq\n      tag_122\n      jumpi\n      mload(0x40)\n      swap2\n      pop\n      and(add(returndatasize, 0x3f), not(0x1f))\n      dup3\n      add\n      0x40\n      mstore\n      returndatasize\n      dup3\n      mstore\n      returndatasize\n      0x00\n      0x20\n      dup5\n      add\n      returndatacopy\n      jump(tag_121)\n    tag_122:\n      0x60\n      swap2\n      pop\n    tag_121:\n      pop\n        /* \"contracts/DonationPlatformUpgradeableV1.sol\":2157:2200  (bool ok, ) = to.call{value: amountWei}(\"\") */\n      pop\n      swap1\n      pop\n        /* \"contracts/DonationPlatformUpgradeableV1.sol\":2218:2220  ok */\n      dup1\n        /* \"contracts/DonationPlatformUpgradeableV1.sol\":2210:2240  require(ok, \"Transfer failed\") */\n      tag_123\n      jumpi\n      mload(0x40)\n      0x08c379a000000000000000000000000000000000000000000000000000000000\n      dup2\n      mstore\n      0x04\n      add\n      tag_124\n      swap1\n      tag_125\n      jump\t// in\n    tag_124:\n      mload(0x40)\n      dup1\n      swap2\n      sub\n      swap1\n      revert\n    tag_123:\n        /* \"contracts/DonationPlatformUpgradeableV1.sol\":2266:2268  to */\n      dup3\n        /* \"contracts/DonationPlatformUpgradeableV1.sol\":2256:2280  Withdrawn(to, amountWei) */\n      0xffffffffffffffffffffffffffffffffffffffff\n      and\n      0x7084f5476618d8e60b11ef0d7d3f06914655adb8793e28ff7f018d4c76d505d5\n        /* \"contracts/DonationPlatformUpgradeableV1.sol\":2270:2279  amountWei */\n      dup4\n        /* \"contracts/DonationPlatformUpgradeableV1.sol\":2256:2280  Withdrawn(to, amountWei) */\n      mload(0x40)\n      tag_126\n      swap2\n      swap1\n      tag_19\n      jump\t// in\n    tag_126:\n      mload(0x40)\n      dup1\n      swap2\n      sub\n      swap1\n      log2\n        /* \"contracts/DonationPlatformUpgradeableV1.sol\":1965:2287  {... */\n      pop\n        /* \"@openzeppelin/contracts-upgradeable/security/ReentrancyGuardUpgradeable.sol\":2568:2588  _nonReentrantAfter() */\n      tag_127\n        /* \"@openzeppelin/contracts-upgradeable/security/ReentrancyGuardUpgradeable.sol\":2568:2586  _nonReentrantAfter */\n      tag_128\n        /* \"@openzeppelin/contracts-upgradeable/security/ReentrancyGuardUpgradeable.sol\":2568:2588  _nonReentrantAfter() */\n      jump\t// in\n    tag_127:\n        /* \"contracts/DonationPlatformUpgradeableV1.sol\":1848:2287  function withdraw(address payable to, uint256 amountWei)... */\n      pop\n      pop\n      jump\t// out\n        /* \"contracts/DonationPlatformUpgradeableV1.sol\":1145:1430  function initialize(uint256 _minDonationWei) public initializer {... */\n    tag_67:\n        /* \"@openzeppelin/contracts-upgradeable/proxy/utils/Initializable.sol\":4158:4188  InitializableStorage storage $ */\n      0x00\n        /* \"@openzeppelin/contracts-upgradeable/proxy/utils/Initializable.sol\":4191:4217  _getInitializableStorage() */\n      tag_130\n        /* \"@openzeppelin/contracts-upgradeable/proxy/utils/Initializable.sol\":4191:4215  _getInitializableStorage */\n      tag_131\n        /* \"@openzeppelin/contracts-upgradeable/proxy/utils/Initializable.sol\":4191:4217  _getInitializableStorage() */\n      jump\t// in\n    tag_130:\n        /* \"@openzeppelin/contracts-upgradeable/proxy/utils/Initializable.sol\":4158:4217  InitializableStorage storage $ = _getInitializableStorage() */\n      swap1\n      pop\n        /* \"@openzeppelin/contracts-upgradeable/proxy/utils/Initializable.sol\":4279:4298  bool isTopLevelCall */\n      0x00\n        /* \"@openzeppelin/contracts-upgradeable/proxy/utils/Initializable.sol\":4302:4303  $ */\n      dup2\n        /* \"@openzeppelin/contracts-upgradeable/proxy/utils/Initializable.sol\":4302:4317  $._initializing */\n      0x00\n      add\n      0x08\n      swap1\n      sload\n      swap1\n      0x0100\n      exp\n      swap1\n      div\n      0xff\n      and\n        /* \"@openzeppelin/contracts-upgradeable/proxy/utils/Initializable.sol\":4301:4317  !$._initializing */\n      iszero\n        /* \"@openzeppelin/contracts-upgradeable/proxy/utils/Initializable.sol\":4279:4317  bool isTopLevelCall = !$._initializing */\n      swap1\n      pop\n        /* \"@openzeppelin/contracts-upgradeable/proxy/utils/Initializable.sol\":4327:4345  uint64 initialized */\n      0x00\n        /* \"@openzeppelin/contracts-upgradeable/proxy/utils/Initializable.sol\":4348:4349  $ */\n      dup3\n        /* \"@openzeppelin/contracts-upgradeable/proxy/utils/Initializable.sol\":4348:4362  $._initialized */\n      0x00\n      add\n      0x00\n      swap1\n      sload\n      swap1\n      0x0100\n      exp\n      swap1\n      div\n      0xffffffffffffffff\n      and\n        /* \"@openzeppelin/contracts-upgradeable/proxy/utils/Initializable.sol\":4327:4362  uint64 initialized = $._initialized */\n      swap1\n      pop\n        /* \"@openzeppelin/contracts-upgradeable/proxy/utils/Initializable.sol\":4704:4721  bool initialSetup */\n      0x00\n        /* \"@openzeppelin/contracts-upgradeable/proxy/utils/Initializable.sol\":4739:4740  0 */\n      dup1\n        /* \"@openzeppelin/contracts-upgradeable/proxy/utils/Initializable.sol\":4724:4735  initialized */\n      dup3\n        /* \"@openzeppelin/contracts-upgradeable/proxy/utils/Initializable.sol\":4724:4740  initialized == 0 */\n      0xffffffffffffffff\n      and\n      eq\n        /* \"@openzeppelin/contracts-upgradeable/proxy/utils/Initializable.sol\":4724:4758  initialized == 0 && isTopLevelCall */\n      dup1\n      iszero\n      tag_132\n      jumpi\n      pop\n        /* \"@openzeppelin/contracts-upgradeable/proxy/utils/Initializable.sol\":4744:4758  isTopLevelCall */\n      dup3\n        /* \"@openzeppelin/contracts-upgradeable/proxy/utils/Initializable.sol\":4724:4758  initialized == 0 && isTopLevelCall */\n    tag_132:\n        /* \"@openzeppelin/contracts-upgradeable/proxy/utils/Initializable.sol\":4704:4758  bool initialSetup = initialized == 0 && isTopLevelCall */\n      swap1\n      pop\n        /* \"@openzeppelin/contracts-upgradeable/proxy/utils/Initializable.sol\":4768:4785  bool construction */\n      0x00\n        /* \"@openzeppelin/contracts-upgradeable/proxy/utils/Initializable.sol\":4803:4804  1 */\n      0x01\n        /* \"@openzeppelin/contracts-upgradeable/proxy/utils/Initializable.sol\":4788:4799  initialized */\n      dup4\n        /* \"@openzeppelin/contracts-upgradeable/proxy/utils/Initializable.sol\":4788:4804  initialized == 1 */\n      0xffffffffffffffff\n      and\n      eq\n        /* \"@openzeppelin/contracts-upgradeable/proxy/utils/Initializable.sol\":4788:4838  initialized == 1 && address(this).code.length == 0 */\n      dup1\n      iszero\n      tag_133\n      jumpi\n      pop\n        /* \"@openzeppelin/contracts-upgradeable/proxy/utils/Initializable.sol\":4837:4838  0 */\n      0x00\n        /* \"@openzeppelin/contracts-upgradeable/proxy/utils/Initializable.sol\":4816:4820  this */\n      address\n        /* \"@openzeppelin/contracts-upgradeable/proxy/utils/Initializable.sol\":4808:4833  address(this).code.length */\n      0xffffffffffffffffffffffffffffffffffffffff\n      and\n      extcodesize\n        /* \"@openzeppelin/contracts-upgradeable/proxy/utils/Initializable.sol\":4808:4838  address(this).code.length == 0 */\n      eq\n        /* \"@openzeppelin/contracts-upgradeable/proxy/utils/Initializable.sol\":4788:4838  initialized == 1 && address(this).code.length == 0 */\n    tag_133:\n        /* \"@openzeppelin/contracts-upgradeable/proxy/utils/Initializable.sol\":4768:4838  bool construction = initialized == 1 && address(this).code.length == 0 */\n      swap1\n      pop\n        /* \"@openzeppelin/contracts-upgradeable/proxy/utils/Initializable.sol\":4854:4866  initialSetup */\n      dup2\n        /* \"@openzeppelin/contracts-upgradeable/proxy/utils/Initializable.sol\":4853:4866  !initialSetup */\n      iszero\n        /* \"@openzeppelin/contracts-upgradeable/proxy/utils/Initializable.sol\":4853:4883  !initialSetup && !construction */\n      dup1\n      iszero\n      tag_134\n      jumpi\n      pop\n        /* \"@openzeppelin/contracts-upgradeable/proxy/utils/Initializable.sol\":4871:4883  construction */\n      dup1\n        /* \"@openzeppelin/contracts-upgradeable/proxy/utils/Initializable.sol\":4870:4883  !construction */\n      iszero\n        /* \"@openzeppelin/contracts-upgradeable/proxy/utils/Initializable.sol\":4853:4883  !initialSetup && !construction */\n    tag_134:\n        /* \"@openzeppelin/contracts-upgradeable/proxy/utils/Initializable.sol\":4849:4940  if (!initialSetup && !construction) {... */\n      iszero\n      tag_135\n      jumpi\n        /* \"@openzeppelin/contracts-upgradeable/proxy/utils/Initializable.sol\":4906:4929  InvalidInitialization() */\n      mload(0x40)\n      0xf92ee8a900000000000000000000000000000000000000000000000000000000\n      dup2\n      mstore\n      0x04\n      add\n      mload(0x40)\n      dup1\n      swap2\n      sub\n      swap1\n      revert\n        /* \"@openzeppelin/contracts-upgradeable/proxy/utils/Initializable.sol\":4849:4940  if (!initialSetup && !construction) {... */\n    tag_135:\n        /* \"@openzeppelin/contracts-upgradeable/proxy/utils/Initializable.sol\":4966:4967  1 */\n      0x01\n        /* \"@openzeppelin/contracts-upgradeable/proxy/utils/Initializable.sol\":4949:4950  $ */\n      dup6\n        /* \"@openzeppelin/contracts-upgradeable/proxy/utils/Initializable.sol\":4949:4963  $._initialized */\n      0x00\n      add\n      0x00\n        /* \"@openzeppelin/contracts-upgradeable/proxy/utils/Initializable.sol\":4949:4967  $._initialized = 1 */\n      0x0100\n      exp\n      dup2\n      sload\n      dup2\n      0xffffffffffffffff\n      mul\n      not\n      and\n      swap1\n      dup4\n      0xffffffffffffffff\n      and\n      mul\n      or\n      swap1\n      sstore\n      pop\n        /* \"@openzeppelin/contracts-upgradeable/proxy/utils/Initializable.sol\":4981:4995  isTopLevelCall */\n      dup4\n        /* \"@openzeppelin/contracts-upgradeable/proxy/utils/Initializable.sol\":4977:5044  if (isTopLevelCall) {... */\n      iszero\n      tag_136\n      jumpi\n        /* \"@openzeppelin/contracts-upgradeable/proxy/utils/Initializable.sol\":5029:5033  true */\n      0x01\n        /* \"@openzeppelin/contracts-upgradeable/proxy/utils/Initializable.sol\":5011:5012  $ */\n      dup6\n        /* \"@openzeppelin/contracts-upgradeable/proxy/utils/Initializable.sol\":5011:5026  $._initializing */\n      0x00\n      add\n      0x08\n        /* \"@openzeppelin/contracts-upgradeable/proxy/utils/Initializable.sol\":5011:5033  $._initializing = true */\n      0x0100\n      exp\n      dup2\n      sload\n      dup2\n      0xff\n      mul\n      not\n      and\n      swap1\n      dup4\n      iszero\n      iszero\n      mul\n      or\n      swap1\n      sstore\n      pop\n        /* \"@openzeppelin/contracts-upgradeable/proxy/utils/Initializable.sol\":4977:5044  if (isTopLevelCall) {... */\n    tag_136:\n        /* \"contracts/DonationPlatformUpgradeableV1.sol\":1245:1246  0 */\n      0x00\n        /* \"contracts/DonationPlatformUpgradeableV1.sol\":1227:1242  _minDonationWei */\n      dup7\n        /* \"contracts/DonationPlatformUpgradeableV1.sol\":1227:1246  _minDonationWei > 0 */\n      gt\n        /* \"contracts/DonationPlatformUpgradeableV1.sol\":1219:1275  require(_minDonationWei > 0, \"Min donation must be > 0\") */\n      tag_138\n      jumpi\n      mload(0x40)\n      0x08c379a000000000000000000000000000000000000000000000000000000000\n      dup2\n      mstore\n      0x04\n      add\n      tag_139\n      swap1\n      tag_140\n      jump\t// in\n    tag_139:\n      mload(0x40)\n      dup1\n      swap2\n      sub\n      swap1\n      revert\n    tag_138:\n        /* \"contracts/DonationPlatformUpgradeableV1.sol\":1286:1312  __Ownable_init(msg.sender) */\n      tag_141\n        /* \"contracts/DonationPlatformUpgradeableV1.sol\":1301:1311  msg.sender */\n      caller\n        /* \"contracts/DonationPlatformUpgradeableV1.sol\":1286:1300  __Ownable_init */\n      tag_142\n        /* \"contracts/DonationPlatformUpgradeableV1.sol\":1286:1312  __Ownable_init(msg.sender) */\n      jump\t// in\n    tag_141:\n        /* \"contracts/DonationPlatformUpgradeableV1.sol\":1322:1346  __ReentrancyGuard_init() */\n      tag_143\n        /* \"contracts/DonationPlatformUpgradeableV1.sol\":1322:1344  __ReentrancyGuard_init */\n      tag_144\n        /* \"contracts/DonationPlatformUpgradeableV1.sol\":1322:1346  __ReentrancyGuard_init() */\n      jump\t// in\n    tag_143:\n        /* \"contracts/DonationPlatformUpgradeableV1.sol\":1356:1380  __UUPSUpgradeable_init() */\n      tag_145\n        /* \"contracts/DonationPlatformUpgradeableV1.sol\":1356:1378  __UUPSUpgradeable_init */\n      tag_146\n        /* \"contracts/DonationPlatformUpgradeableV1.sol\":1356:1380  __UUPSUpgradeable_init() */\n      jump\t// in\n    tag_145:\n        /* \"contracts/DonationPlatformUpgradeableV1.sol\":1408:1423  _minDonationWei */\n      dup6\n        /* \"contracts/DonationPlatformUpgradeableV1.sol\":1391:1405  minDonationWei */\n      0x32\n        /* \"contracts/DonationPlatformUpgradeableV1.sol\":1391:1423  minDonationWei = _minDonationWei */\n      dup2\n      swap1\n      sstore\n      pop\n        /* \"@openzeppelin/contracts-upgradeable/proxy/utils/Initializable.sol\":5068:5082  isTopLevelCall */\n      dup4\n        /* \"@openzeppelin/contracts-upgradeable/proxy/utils/Initializable.sol\":5064:5165  if (isTopLevelCall) {... */\n      iszero\n      tag_147\n      jumpi\n        /* \"@openzeppelin/contracts-upgradeable/proxy/utils/Initializable.sol\":5116:5121  false */\n      0x00\n        /* \"@openzeppelin/contracts-upgradeable/proxy/utils/Initializable.sol\":5098:5099  $ */\n      dup6\n        /* \"@openzeppelin/contracts-upgradeable/proxy/utils/Initializable.sol\":5098:5113  $._initializing */\n      0x00\n      add\n      0x08\n        /* \"@openzeppelin/contracts-upgradeable/proxy/utils/Initializable.sol\":5098:5121  $._initializing = false */\n      0x0100\n      exp\n      dup2\n      sload\n      dup2\n      0xff\n      mul\n      not\n      and\n      swap1\n      dup4\n      iszero\n      iszero\n      mul\n      or\n      swap1\n      sstore\n      pop\n        /* \"@openzeppelin/contracts-upgradeable/proxy/utils/Initializable.sol\":5140:5154  Initialized(1) */\n      0xc7f505b2f371ae2175ee4913f4499e1f2633a7b5936321eed1cdaeb6115181d2\n        /* \"@openzeppelin/contracts-upgradeable/proxy/utils/Initializable.sol\":5152:5153  1 */\n      0x01\n        /* \"@openzeppelin/contracts-upgradeable/proxy/utils/Initializable.sol\":5140:5154  Initialized(1) */\n      mload(0x40)\n      tag_148\n      swap2\n      swap1\n      tag_149\n      jump\t// in\n    tag_148:\n      mload(0x40)\n      dup1\n      swap2\n      sub\n      swap1\n      log1\n        /* \"@openzeppelin/contracts-upgradeable/proxy/utils/Initializable.sol\":5064:5165  if (isTopLevelCall) {... */\n    tag_147:\n        /* \"@openzeppelin/contracts-upgradeable/proxy/utils/Initializable.sol\":4092:5171  {... */\n      pop\n      pop\n      pop\n      pop\n      pop\n        /* \"contracts/DonationPlatformUpgradeableV1.sol\":1145:1430  function initialize(uint256 _minDonationWei) public initializer {... */\n      pop\n      jump\t// out\n        /* \"@openzeppelin/contracts-upgradeable/proxy/utils/UUPSUpgradeable.sol\":4578:4890  function _checkProxy() internal view virtual {... */\n    tag_70:\n        /* \"@openzeppelin/contracts-upgradeable/proxy/utils/UUPSUpgradeable.sol\":4667:4673  __self */\n      immutable(\"0x4ce4dab4689da140a0c12de1a6af6b8f679594aeb723205f513e052d27f5b26f\")\n        /* \"@openzeppelin/contracts-upgradeable/proxy/utils/UUPSUpgradeable.sol\":4650:4673  address(this) == __self */\n      0xffffffffffffffffffffffffffffffffffffffff\n      and\n        /* \"@openzeppelin/contracts-upgradeable/proxy/utils/UUPSUpgradeable.sol\":4658:4662  this */\n      address\n        /* \"@openzeppelin/contracts-upgradeable/proxy/utils/UUPSUpgradeable.sol\":4650:4673  address(this) == __self */\n      0xffffffffffffffffffffffffffffffffffffffff\n      and\n      eq\n        /* \"@openzeppelin/contracts-upgradeable/proxy/utils/UUPSUpgradeable.sol\":4650:4770  address(this) == __self || // Must be called through delegatecall... */\n      dup1\n      tag_151\n      jumpi\n      pop\n        /* \"@openzeppelin/contracts-upgradeable/proxy/utils/UUPSUpgradeable.sol\":4764:4770  __self */\n      immutable(\"0x4ce4dab4689da140a0c12de1a6af6b8f679594aeb723205f513e052d27f5b26f\")\n        /* \"@openzeppelin/contracts-upgradeable/proxy/utils/UUPSUpgradeable.sol\":4728:4770  ERC1967Utils.getImplementation() != __self */\n      0xffffffffffffffffffffffffffffffffffffffff\n      and\n        /* \"@openzeppelin/contracts-upgradeable/proxy/utils/UUPSUpgradeable.sol\":4728:4760  ERC1967Utils.getImplementation() */\n      tag_152\n        /* \"@openzeppelin/contracts-upgradeable/proxy/utils/UUPSUpgradeable.sol\":4728:4758  ERC1967Utils.getImplementation */\n      tag_153\n        /* \"@openzeppelin/contracts-upgradeable/proxy/utils/UUPSUpgradeable.sol\":4728:4760  ERC1967Utils.getImplementation() */\n      jump\t// in\n    tag_152:\n        /* \"@openzeppelin/contracts-upgradeable/proxy/utils/UUPSUpgradeable.sol\":4728:4770  ERC1967Utils.getImplementation() != __self */\n      0xffffffffffffffffffffffffffffffffffffffff\n      and\n      eq\n      iszero\n        /* \"@openzeppelin/contracts-upgradeable/proxy/utils/UUPSUpgradeable.sol\":4650:4770  address(this) == __self || // Must be called through delegatecall... */\n    tag_151:\n        /* \"@openzeppelin/contracts-upgradeable/proxy/utils/UUPSUpgradeable.sol\":4633:4884  if (... */\n      iszero\n      tag_154\n      jumpi\n        /* \"@openzeppelin/contracts-upgradeable/proxy/utils/UUPSUpgradeable.sol\":4844:4873  UUPSUnauthorizedCallContext() */\n      mload(0x40)\n      0xe07c8dba00000000000000000000000000000000000000000000000000000000\n      dup2\n      mstore\n      0x04\n      add\n      mload(0x40)\n      dup1\n      swap2\n      sub\n      swap1\n      revert\n        /* \"@openzeppelin/contracts-upgradeable/proxy/utils/UUPSUpgradeable.sol\":4633:4884  if (... */\n    tag_154:\n        /* \"@openzeppelin/contracts-upgradeable/proxy/utils/UUPSUpgradeable.sol\":4578:4890  function _checkProxy() internal view virtual {... */\n      jump\t// out\n        /* \"contracts/DonationPlatformUpgradeableV1.sol\":2385:2497  function _authorizeUpgrade(address newImplementation)... */\n    tag_73:\n        /* \"@openzeppelin/contracts-upgradeable/access/OwnableUpgradeable.sol\":2334:2347  _checkOwner() */\n      tag_156\n        /* \"@openzeppelin/contracts-upgradeable/access/OwnableUpgradeable.sol\":2334:2345  _checkOwner */\n      tag_82\n        /* \"@openzeppelin/contracts-upgradeable/access/OwnableUpgradeable.sol\":2334:2347  _checkOwner() */\n      jump\t// in\n    tag_156:\n        /* \"contracts/DonationPlatformUpgradeableV1.sol\":2385:2497  function _authorizeUpgrade(address newImplementation)... */\n      pop\n      jump\t// out\n        /* \"@openzeppelin/contracts-upgradeable/proxy/utils/UUPSUpgradeable.sol\":6032:6570  function _upgradeToAndCallUUPS(address newImplementation, bytes memory data) private {... */\n    tag_75:\n        /* \"@openzeppelin/contracts-upgradeable/proxy/utils/UUPSUpgradeable.sol\":6149:6166  newImplementation */\n      dup2\n        /* \"@openzeppelin/contracts-upgradeable/proxy/utils/UUPSUpgradeable.sol\":6131:6181  IERC1822Proxiable(newImplementation).proxiableUUID */\n      0xffffffffffffffffffffffffffffffffffffffff\n      and\n      0x52d1902d\n        /* \"@openzeppelin/contracts-upgradeable/proxy/utils/UUPSUpgradeable.sol\":6131:6183  IERC1822Proxiable(newImplementation).proxiableUUID() */\n      mload(0x40)\n      dup2\n      0xffffffff\n      and\n      0xe0\n      shl\n      dup2\n      mstore\n      0x04\n      add\n      0x20\n      mload(0x40)\n      dup1\n      dup4\n      sub\n      dup2\n      dup7\n      gas\n      staticcall\n      swap3\n      pop\n      pop\n      pop\n      dup1\n      iszero\n      tag_159\n      jumpi\n      pop\n      mload(0x40)\n      returndatasize\n      not(0x1f)\n      0x1f\n      dup3\n      add\n      and\n      dup3\n      add\n      dup1\n      0x40\n      mstore\n      pop\n      dup2\n      add\n      swap1\n      tag_160\n      swap2\n      swap1\n      tag_161\n      jump\t// in\n    tag_160:\n      0x01\n    tag_159:\n        /* \"@openzeppelin/contracts-upgradeable/proxy/utils/UUPSUpgradeable.sol\":6127:6564  try IERC1822Proxiable(newImplementation).proxiableUUID() returns (bytes32 slot) {... */\n      tag_162\n      jumpi\n        /* \"@openzeppelin/contracts-upgradeable/proxy/utils/UUPSUpgradeable.sol\":6535:6552  newImplementation */\n      dup2\n        /* \"@openzeppelin/contracts-upgradeable/proxy/utils/UUPSUpgradeable.sol\":6493:6553  ERC1967Utils.ERC1967InvalidImplementation(newImplementation) */\n      mload(0x40)\n      0x4c9c8ce300000000000000000000000000000000000000000000000000000000\n      dup2\n      mstore\n      0x04\n      add\n      tag_166\n      swap2\n      swap1\n      tag_36\n      jump\t// in\n    tag_166:\n      mload(0x40)\n      dup1\n      swap2\n      sub\n      swap1\n      revert\n        /* \"@openzeppelin/contracts-upgradeable/proxy/utils/UUPSUpgradeable.sol\":6127:6564  try IERC1822Proxiable(newImplementation).proxiableUUID() returns (bytes32 slot) {... */\n    tag_162:\n        /* \"@openzeppelin/contracts/proxy/ERC1967/ERC1967Utils.sol\":811:877  0x360894a13ba1a3210667c828492db98dca3e2076cc3735a920a3ca505d382bbc */\n      0x360894a13ba1a3210667c828492db98dca3e2076cc3735a920a3ca505d382bbc\n        /* \"@openzeppelin/contracts-upgradeable/proxy/utils/UUPSUpgradeable.sol\":6233:6265  ERC1967Utils.IMPLEMENTATION_SLOT */\n      0x00\n      shl\n        /* \"@openzeppelin/contracts-upgradeable/proxy/utils/UUPSUpgradeable.sol\":6225:6229  slot */\n      dup2\n        /* \"@openzeppelin/contracts-upgradeable/proxy/utils/UUPSUpgradeable.sol\":6225:6265  slot != ERC1967Utils.IMPLEMENTATION_SLOT */\n      eq\n        /* \"@openzeppelin/contracts-upgradeable/proxy/utils/UUPSUpgradeable.sol\":6221:6341  if (slot != ERC1967Utils.IMPLEMENTATION_SLOT) {... */\n      tag_168\n      jumpi\n        /* \"@openzeppelin/contracts-upgradeable/proxy/utils/UUPSUpgradeable.sol\":6321:6325  slot */\n      dup1\n        /* \"@openzeppelin/contracts-upgradeable/proxy/utils/UUPSUpgradeable.sol\":6292:6326  UUPSUnsupportedProxiableUUID(slot) */\n      mload(0x40)\n      0xaa1d49a400000000000000000000000000000000000000000000000000000000\n      dup2\n      mstore\n      0x04\n      add\n      tag_169\n      swap2\n      swap1\n      tag_28\n      jump\t// in\n    tag_169:\n      mload(0x40)\n      dup1\n      swap2\n      sub\n      swap1\n      revert\n        /* \"@openzeppelin/contracts-upgradeable/proxy/utils/UUPSUpgradeable.sol\":6221:6341  if (slot != ERC1967Utils.IMPLEMENTATION_SLOT) {... */\n    tag_168:\n        /* \"@openzeppelin/contracts-upgradeable/proxy/utils/UUPSUpgradeable.sol\":6354:6408  ERC1967Utils.upgradeToAndCall(newImplementation, data) */\n      tag_170\n        /* \"@openzeppelin/contracts-upgradeable/proxy/utils/UUPSUpgradeable.sol\":6384:6401  newImplementation */\n      dup4\n        /* \"@openzeppelin/contracts-upgradeable/proxy/utils/UUPSUpgradeable.sol\":6403:6407  data */\n      dup4\n        /* \"@openzeppelin/contracts-upgradeable/proxy/utils/UUPSUpgradeable.sol\":6354:6383  ERC1967Utils.upgradeToAndCall */\n      tag_171\n        /* \"@openzeppelin/contracts-upgradeable/proxy/utils/UUPSUpgradeable.sol\":6354:6408  ERC1967Utils.upgradeToAndCall(newImplementation, data) */\n      jump\t// in\n    tag_170:\n        /* \"@openzeppelin/contracts-upgradeable/proxy/utils/UUPSUpgradeable.sol\":6184:6419  returns (bytes32 slot) {... */\n      pop\n        /* \"@openzeppelin/contracts-upgradeable/proxy/utils/UUPSUpgradeable.sol\":6032:6570  function _upgradeToAndCallUUPS(address newImplementation, bytes memory data) private {... */\n      pop\n      pop\n      jump\t// out\n        /* \"@openzeppelin/contracts-upgradeable/proxy/utils/UUPSUpgradeable.sol\":5007:5220  function _checkNotDelegated() internal view virtual {... */\n    tag_78:\n        /* \"@openzeppelin/contracts-upgradeable/proxy/utils/UUPSUpgradeable.sol\":5090:5096  __self */\n      immutable(\"0x4ce4dab4689da140a0c12de1a6af6b8f679594aeb723205f513e052d27f5b26f\")\n        /* \"@openzeppelin/contracts-upgradeable/proxy/utils/UUPSUpgradeable.sol\":5073:5096  address(this) != __self */\n      0xffffffffffffffffffffffffffffffffffffffff\n      and\n        /* \"@openzeppelin/contracts-upgradeable/proxy/utils/UUPSUpgradeable.sol\":5081:5085  this */\n      address\n        /* \"@openzeppelin/contracts-upgradeable/proxy/utils/UUPSUpgradeable.sol\":5073:5096  address(this) != __self */\n      0xffffffffffffffffffffffffffffffffffffffff\n      and\n      eq\n        /* \"@openzeppelin/contracts-upgradeable/proxy/utils/UUPSUpgradeable.sol\":5069:5214  if (address(this) != __self) {... */\n      tag_173\n      jumpi\n        /* \"@openzeppelin/contracts-upgradeable/proxy/utils/UUPSUpgradeable.sol\":5174:5203  UUPSUnauthorizedCallContext() */\n      mload(0x40)\n      0xe07c8dba00000000000000000000000000000000000000000000000000000000\n      dup2\n      mstore\n      0x04\n      add\n      mload(0x40)\n      dup1\n      swap2\n      sub\n      swap1\n      revert\n        /* \"@openzeppelin/contracts-upgradeable/proxy/utils/UUPSUpgradeable.sol\":5069:5214  if (address(this) != __self) {... */\n    tag_173:\n        /* \"@openzeppelin/contracts-upgradeable/proxy/utils/UUPSUpgradeable.sol\":5007:5220  function _checkNotDelegated() internal view virtual {... */\n      jump\t// out\n        /* \"@openzeppelin/contracts-upgradeable/access/OwnableUpgradeable.sol\":2658:2820  function _checkOwner() internal view virtual {... */\n    tag_82:\n        /* \"@openzeppelin/contracts-upgradeable/access/OwnableUpgradeable.sol\":2728:2740  _msgSender() */\n      tag_175\n        /* \"@openzeppelin/contracts-upgradeable/access/OwnableUpgradeable.sol\":2728:2738  _msgSender */\n      tag_176\n        /* \"@openzeppelin/contracts-upgradeable/access/OwnableUpgradeable.sol\":2728:2740  _msgSender() */\n      jump\t// in\n    tag_175:\n        /* \"@openzeppelin/contracts-upgradeable/access/OwnableUpgradeable.sol\":2717:2740  owner() != _msgSender() */\n      0xffffffffffffffffffffffffffffffffffffffff\n      and\n        /* \"@openzeppelin/contracts-upgradeable/access/OwnableUpgradeable.sol\":2717:2724  owner() */\n      tag_177\n        /* \"@openzeppelin/contracts-upgradeable/access/OwnableUpgradeable.sol\":2717:2722  owner */\n      tag_34\n        /* \"@openzeppelin/contracts-upgradeable/access/OwnableUpgradeable.sol\":2717:2724  owner() */\n      jump\t// in\n    tag_177:\n        /* \"@openzeppelin/contracts-upgradeable/access/OwnableUpgradeable.sol\":2717:2740  owner() != _msgSender() */\n      0xffffffffffffffffffffffffffffffffffffffff\n      and\n      eq\n        /* \"@openzeppelin/contracts-upgradeable/access/OwnableUpgradeable.sol\":2713:2814  if (owner() != _msgSender()) {... */\n      tag_178\n      jumpi\n        /* \"@openzeppelin/contracts-upgradeable/access/OwnableUpgradeable.sol\":2790:2802  _msgSender() */\n      tag_179\n        /* \"@openzeppelin/contracts-upgradeable/access/OwnableUpgradeable.sol\":2790:2800  _msgSender */\n      tag_176\n        /* \"@openzeppelin/contracts-upgradeable/access/OwnableUpgradeable.sol\":2790:2802  _msgSender() */\n      jump\t// in\n    tag_179:\n        /* \"@openzeppelin/contracts-upgradeable/access/OwnableUpgradeable.sol\":2763:2803  OwnableUnauthorizedAccount(_msgSender()) */\n      mload(0x40)\n      0x118cdaa700000000000000000000000000000000000000000000000000000000\n      dup2\n      mstore\n      0x04\n      add\n      tag_180\n      swap2\n      swap1\n      tag_36\n      jump\t// in\n    tag_180:\n      mload(0x40)\n      dup1\n      swap2\n      sub\n      swap1\n      revert\n        /* \"@openzeppelin/contracts-upgradeable/access/OwnableUpgradeable.sol\":2713:2814  if (owner() != _msgSender()) {... */\n    tag_178:\n        /* \"@openzeppelin/contracts-upgradeable/access/OwnableUpgradeable.sol\":2658:2820  function _checkOwner() internal view virtual {... */\n      jump\t// out\n        /* \"@openzeppelin/contracts-upgradeable/access/OwnableUpgradeable.sol\":3774:4022  function _transferOwnership(address newOwner) internal virtual {... */\n    tag_85:\n        /* \"@openzeppelin/contracts-upgradeable/access/OwnableUpgradeable.sol\":3847:3871  OwnableStorage storage $ */\n      0x00\n        /* \"@openzeppelin/contracts-upgradeable/access/OwnableUpgradeable.sol\":3874:3894  _getOwnableStorage() */\n      tag_182\n        /* \"@openzeppelin/contracts-upgradeable/access/OwnableUpgradeable.sol\":3874:3892  _getOwnableStorage */\n      tag_88\n        /* \"@openzeppelin/contracts-upgradeable/access/OwnableUpgradeable.sol\":3874:3894  _getOwnableStorage() */\n      jump\t// in\n    tag_182:\n        /* \"@openzeppelin/contracts-upgradeable/access/OwnableUpgradeable.sol\":3847:3894  OwnableStorage storage $ = _getOwnableStorage() */\n      swap1\n      pop\n        /* \"@openzeppelin/contracts-upgradeable/access/OwnableUpgradeable.sol\":3904:3920  address oldOwner */\n      0x00\n        /* \"@openzeppelin/contracts-upgradeable/access/OwnableUpgradeable.sol\":3923:3924  $ */\n      dup2\n        /* \"@openzeppelin/contracts-upgradeable/access/OwnableUpgradeable.sol\":3923:3931  $._owner */\n      0x00\n      add\n      0x00\n      swap1\n      sload\n      swap1\n      0x0100\n      exp\n      swap1\n      div\n      0xffffffffffffffffffffffffffffffffffffffff\n      and\n        /* \"@openzeppelin/contracts-upgradeable/access/OwnableUpgradeable.sol\":3904:3931  address oldOwner = $._owner */\n      swap1\n      pop\n        /* \"@openzeppelin/contracts-upgradeable/access/OwnableUpgradeable.sol\":3952:3960  newOwner */\n      dup3\n        /* \"@openzeppelin/contracts-upgradeable/access/OwnableUpgradeable.sol\":3941:3942  $ */\n      dup3\n        /* \"@openzeppelin/contracts-upgradeable/access/OwnableUpgradeable.sol\":3941:3949  $._owner */\n      0x00\n      add\n      0x00\n        /* \"@openzeppelin/contracts-upgradeable/access/OwnableUpgradeable.sol\":3941:3960  $._owner = newOwner */\n      0x0100\n      exp\n      dup2\n      sload\n      dup2\n      0xffffffffffffffffffffffffffffffffffffffff\n      mul\n      not\n      and\n      swap1\n      dup4\n      0xffffffffffffffffffffffffffffffffffffffff\n      and\n      mul\n      or\n      swap1\n      sstore\n      pop\n        /* \"@openzeppelin/contracts-upgradeable/access/OwnableUpgradeable.sol\":4006:4014  newOwner */\n      dup3\n        /* \"@openzeppelin/contracts-upgradeable/access/OwnableUpgradeable.sol\":3975:4015  OwnershipTransferred(oldOwner, newOwner) */\n      0xffffffffffffffffffffffffffffffffffffffff\n      and\n        /* \"@openzeppelin/contracts-upgradeable/access/OwnableUpgradeable.sol\":3996:4004  oldOwner */\n      dup2\n        /* \"@openzeppelin/contracts-upgradeable/access/OwnableUpgradeable.sol\":3975:4015  OwnershipTransferred(oldOwner, newOwner) */\n      0xffffffffffffffffffffffffffffffffffffffff\n      and\n      0x8be0079c531659141344cd1fd0a4f28419497f9722a3daafe3b4186f6b6457e0\n      mload(0x40)\n      mload(0x40)\n      dup1\n      swap2\n      sub\n      swap1\n      log3\n        /* \"@openzeppelin/contracts-upgradeable/access/OwnableUpgradeable.sol\":3837:4022  {... */\n      pop\n      pop\n        /* \"@openzeppelin/contracts-upgradeable/access/OwnableUpgradeable.sol\":3774:4022  function _transferOwnership(address newOwner) internal virtual {... */\n      pop\n      jump\t// out\n        /* \"@openzeppelin/contracts-upgradeable/access/OwnableUpgradeable.sol\":1192:1351  function _getOwnableStorage() private pure returns (OwnableStorage storage $) {... */\n    tag_88:\n        /* \"@openzeppelin/contracts-upgradeable/access/OwnableUpgradeable.sol\":1244:1268  OwnableStorage storage $ */\n      0x00\n        /* \"@openzeppelin/contracts-upgradeable/access/OwnableUpgradeable.sol\":1313:1335  OwnableStorageLocation */\n      0x9016d09d72d40fdae2fd8ceac6b6234c7706214fd39c1cd1e609a0528c199300\n        /* \"@openzeppelin/contracts-upgradeable/access/OwnableUpgradeable.sol\":1303:1335  $.slot := OwnableStorageLocation */\n      swap1\n      pop\n        /* \"@openzeppelin/contracts-upgradeable/access/OwnableUpgradeable.sol\":1192:1351  function _getOwnableStorage() private pure returns (OwnableStorage storage $) {... */\n      swap1\n      jump\t// out\n        /* \"@openzeppelin/contracts-upgradeable/security/ReentrancyGuardUpgradeable.sol\":2601:2888  function _nonReentrantBefore() private {... */\n    tag_107:\n        /* \"@openzeppelin/contracts-upgradeable/security/ReentrancyGuardUpgradeable.sol\":1851:1852  2 */\n      0x02\n        /* \"@openzeppelin/contracts-upgradeable/security/ReentrancyGuardUpgradeable.sol\":2733:2740  _status */\n      sload(0x00)\n        /* \"@openzeppelin/contracts-upgradeable/security/ReentrancyGuardUpgradeable.sol\":2733:2752  _status != _ENTERED */\n      sub\n        /* \"@openzeppelin/contracts-upgradeable/security/ReentrancyGuardUpgradeable.sol\":2725:2788  require(_status != _ENTERED, \"ReentrancyGuard: reentrant call\") */\n      tag_185\n      jumpi\n      mload(0x40)\n      0x08c379a000000000000000000000000000000000000000000000000000000000\n      dup2\n      mstore\n      0x04\n      add\n      tag_186\n      swap1\n      tag_187\n      jump\t// in\n    tag_186:\n      mload(0x40)\n      dup1\n      swap2\n      sub\n      swap1\n      revert\n    tag_185:\n        /* \"@openzeppelin/contracts-upgradeable/security/ReentrancyGuardUpgradeable.sol\":1851:1852  2 */\n      0x02\n        /* \"@openzeppelin/contracts-upgradeable/security/ReentrancyGuardUpgradeable.sol\":2863:2870  _status */\n      0x00\n        /* \"@openzeppelin/contracts-upgradeable/security/ReentrancyGuardUpgradeable.sol\":2863:2881  _status = _ENTERED */\n      dup2\n      swap1\n      sstore\n      pop\n        /* \"@openzeppelin/contracts-upgradeable/security/ReentrancyGuardUpgradeable.sol\":2601:2888  function _nonReentrantBefore() private {... */\n      jump\t// out\n        /* \"@openzeppelin/contracts-upgradeable/security/ReentrancyGuardUpgradeable.sol\":2894:3103  function _nonReentrantAfter() private {... */\n    tag_128:\n        /* \"@openzeppelin/contracts-upgradeable/security/ReentrancyGuardUpgradeable.sol\":1808:1809  1 */\n      0x01\n        /* \"@openzeppelin/contracts-upgradeable/security/ReentrancyGuardUpgradeable.sol\":3074:3081  _status */\n      0x00\n        /* \"@openzeppelin/contracts-upgradeable/security/ReentrancyGuardUpgradeable.sol\":3074:3096  _status = _NOT_ENTERED */\n      dup2\n      swap1\n      sstore\n      pop\n        /* \"@openzeppelin/contracts-upgradeable/security/ReentrancyGuardUpgradeable.sol\":2894:3103  function _nonReentrantAfter() private {... */\n      jump\t// out\n        /* \"@openzeppelin/contracts-upgradeable/proxy/utils/Initializable.sol\":9071:9276  function _getInitializableStorage() private pure returns (InitializableStorage storage $) {... */\n    tag_131:\n        /* \"@openzeppelin/contracts-upgradeable/proxy/utils/Initializable.sol\":9129:9159  InitializableStorage storage $ */\n      0x00\n        /* \"@openzeppelin/contracts-upgradeable/proxy/utils/Initializable.sol\":9171:9183  bytes32 slot */\n      dup1\n        /* \"@openzeppelin/contracts-upgradeable/proxy/utils/Initializable.sol\":9186:9213  _initializableStorageSlot() */\n      tag_190\n        /* \"@openzeppelin/contracts-upgradeable/proxy/utils/Initializable.sol\":9186:9211  _initializableStorageSlot */\n      tag_191\n        /* \"@openzeppelin/contracts-upgradeable/proxy/utils/Initializable.sol\":9186:9213  _initializableStorageSlot() */\n      jump\t// in\n    tag_190:\n        /* \"@openzeppelin/contracts-upgradeable/proxy/utils/Initializable.sol\":9171:9213  bytes32 slot = _initializableStorageSlot() */\n      swap1\n      pop\n        /* \"@openzeppelin/contracts-upgradeable/proxy/utils/Initializable.sol\":9256:9260  slot */\n      dup1\n        /* \"@openzeppelin/contracts-upgradeable/proxy/utils/Initializable.sol\":9246:9260  $.slot := slot */\n      swap2\n      pop\n        /* \"@openzeppelin/contracts-upgradeable/proxy/utils/Initializable.sol\":9232:9270  {... */\n      pop\n        /* \"@openzeppelin/contracts-upgradeable/proxy/utils/Initializable.sol\":9071:9276  function _getInitializableStorage() private pure returns (InitializableStorage storage $) {... */\n      swap1\n      jump\t// out\n        /* \"@openzeppelin/contracts-upgradeable/access/OwnableUpgradeable.sol\":1847:1974  function __Ownable_init(address initialOwner) internal onlyInitializing {... */\n    tag_142:\n        /* \"@openzeppelin/contracts-upgradeable/proxy/utils/Initializable.sol\":6929:6949  _checkInitializing() */\n      tag_193\n        /* \"@openzeppelin/contracts-upgradeable/proxy/utils/Initializable.sol\":6929:6947  _checkInitializing */\n      tag_194\n        /* \"@openzeppelin/contracts-upgradeable/proxy/utils/Initializable.sol\":6929:6949  _checkInitializing() */\n      jump\t// in\n    tag_193:\n        /* \"@openzeppelin/contracts-upgradeable/access/OwnableUpgradeable.sol\":1929:1967  __Ownable_init_unchained(initialOwner) */\n      tag_196\n        /* \"@openzeppelin/contracts-upgradeable/access/OwnableUpgradeable.sol\":1954:1966  initialOwner */\n      dup2\n        /* \"@openzeppelin/contracts-upgradeable/access/OwnableUpgradeable.sol\":1929:1953  __Ownable_init_unchained */\n      tag_197\n        /* \"@openzeppelin/contracts-upgradeable/access/OwnableUpgradeable.sol\":1929:1967  __Ownable_init_unchained(initialOwner) */\n      jump\t// in\n    tag_196:\n        /* \"@openzeppelin/contracts-upgradeable/access/OwnableUpgradeable.sol\":1847:1974  function __Ownable_init(address initialOwner) internal onlyInitializing {... */\n      pop\n      jump\t// out\n        /* \"@openzeppelin/contracts-upgradeable/security/ReentrancyGuardUpgradeable.sol\":1889:2000  function __ReentrancyGuard_init() internal onlyInitializing {... */\n    tag_144:\n        /* \"@openzeppelin/contracts-upgradeable/proxy/utils/Initializable.sol\":6929:6949  _checkInitializing() */\n      tag_199\n        /* \"@openzeppelin/contracts-upgradeable/proxy/utils/Initializable.sol\":6929:6947  _checkInitializing */\n      tag_194\n        /* \"@openzeppelin/contracts-upgradeable/proxy/utils/Initializable.sol\":6929:6949  _checkInitializing() */\n      jump\t// in\n    tag_199:\n        /* \"@openzeppelin/contracts-upgradeable/security/ReentrancyGuardUpgradeable.sol\":1959:1993  __ReentrancyGuard_init_unchained() */\n      tag_201\n        /* \"@openzeppelin/contracts-upgradeable/security/ReentrancyGuardUpgradeable.sol\":1959:1991  __ReentrancyGuard_init_unchained */\n      tag_202\n        /* \"@openzeppelin/contracts-upgradeable/security/ReentrancyGuardUpgradeable.sol\":1959:1993  __ReentrancyGuard_init_unchained() */\n      jump\t// in\n    tag_201:\n        /* \"@openzeppelin/contracts-upgradeable/security/ReentrancyGuardUpgradeable.sol\":1889:2000  function __ReentrancyGuard_init() internal onlyInitializing {... */\n      jump\t// out\n        /* \"@openzeppelin/contracts-upgradeable/proxy/utils/UUPSUpgradeable.sol\":2970:3037  function __UUPSUpgradeable_init() internal onlyInitializing {... */\n    tag_146:\n        /* \"@openzeppelin/contracts-upgradeable/proxy/utils/Initializable.sol\":6929:6949  _checkInitializing() */\n      tag_204\n        /* \"@openzeppelin/contracts-upgradeable/proxy/utils/Initializable.sol\":6929:6947  _checkInitializing */\n      tag_194\n        /* \"@openzeppelin/contracts-upgradeable/proxy/utils/Initializable.sol\":6929:6949  _checkInitializing() */\n      jump\t// in\n    tag_204:\n        /* \"@openzeppelin/contracts-upgradeable/proxy/utils/UUPSUpgradeable.sol\":2970:3037  function __UUPSUpgradeable_init() internal onlyInitializing {... */\n      jump\t// out\n        /* \"@openzeppelin/contracts/proxy/ERC1967/ERC1967Utils.sol\":1441:1579  function getImplementation() internal view returns (address) {... */\n    tag_153:\n        /* \"@openzeppelin/contracts/proxy/ERC1967/ERC1967Utils.sol\":1493:1500  address */\n      0x00\n        /* \"@openzeppelin/contracts/proxy/ERC1967/ERC1967Utils.sol\":1519:1566  StorageSlot.getAddressSlot(IMPLEMENTATION_SLOT) */\n      tag_207\n        /* \"@openzeppelin/contracts/proxy/ERC1967/ERC1967Utils.sol\":811:877  0x360894a13ba1a3210667c828492db98dca3e2076cc3735a920a3ca505d382bbc */\n      0x360894a13ba1a3210667c828492db98dca3e2076cc3735a920a3ca505d382bbc\n        /* \"@openzeppelin/contracts/proxy/ERC1967/ERC1967Utils.sol\":1546:1565  IMPLEMENTATION_SLOT */\n      0x00\n      shl\n        /* \"@openzeppelin/contracts/proxy/ERC1967/ERC1967Utils.sol\":1519:1545  StorageSlot.getAddressSlot */\n      tag_208\n        /* \"@openzeppelin/contracts/proxy/ERC1967/ERC1967Utils.sol\":1519:1566  StorageSlot.getAddressSlot(IMPLEMENTATION_SLOT) */\n      jump\t// in\n    tag_207:\n        /* \"@openzeppelin/contracts/proxy/ERC1967/ERC1967Utils.sol\":1519:1572  StorageSlot.getAddressSlot(IMPLEMENTATION_SLOT).value */\n      0x00\n      add\n      0x00\n      swap1\n      sload\n      swap1\n      0x0100\n      exp\n      swap1\n      div\n      0xffffffffffffffffffffffffffffffffffffffff\n      and\n        /* \"@openzeppelin/contracts/proxy/ERC1967/ERC1967Utils.sol\":1512:1572  return StorageSlot.getAddressSlot(IMPLEMENTATION_SLOT).value */\n      swap1\n      pop\n        /* \"@openzeppelin/contracts/proxy/ERC1967/ERC1967Utils.sol\":1441:1579  function getImplementation() internal view returns (address) {... */\n      swap1\n      jump\t// out\n        /* \"@openzeppelin/contracts/proxy/ERC1967/ERC1967Utils.sol\":2264:2608  function upgradeToAndCall(address newImplementation, bytes memory data) internal {... */\n    tag_171:\n        /* \"@openzeppelin/contracts/proxy/ERC1967/ERC1967Utils.sol\":2355:2392  _setImplementation(newImplementation) */\n      tag_210\n        /* \"@openzeppelin/contracts/proxy/ERC1967/ERC1967Utils.sol\":2374:2391  newImplementation */\n      dup3\n        /* \"@openzeppelin/contracts/proxy/ERC1967/ERC1967Utils.sol\":2355:2373  _setImplementation */\n      tag_211\n        /* \"@openzeppelin/contracts/proxy/ERC1967/ERC1967Utils.sol\":2355:2392  _setImplementation(newImplementation) */\n      jump\t// in\n    tag_210:\n        /* \"@openzeppelin/contracts/proxy/ERC1967/ERC1967Utils.sol\":2425:2442  newImplementation */\n      dup2\n        /* \"@openzeppelin/contracts/proxy/ERC1967/ERC1967Utils.sol\":2407:2443  IERC1967.Upgraded(newImplementation) */\n      0xffffffffffffffffffffffffffffffffffffffff\n      and\n      0xbc7cd75a20ee27fd9adebab32041f755214dbc6bffa90cc0225b39da2e5c2d3b\n      mload(0x40)\n      mload(0x40)\n      dup1\n      swap2\n      sub\n      swap1\n      log2\n        /* \"@openzeppelin/contracts/proxy/ERC1967/ERC1967Utils.sol\":2472:2473  0 */\n      0x00\n        /* \"@openzeppelin/contracts/proxy/ERC1967/ERC1967Utils.sol\":2458:2462  data */\n      dup2\n        /* \"@openzeppelin/contracts/proxy/ERC1967/ERC1967Utils.sol\":2458:2469  data.length */\n      mload\n        /* \"@openzeppelin/contracts/proxy/ERC1967/ERC1967Utils.sol\":2458:2473  data.length > 0 */\n      gt\n        /* \"@openzeppelin/contracts/proxy/ERC1967/ERC1967Utils.sol\":2454:2602  if (data.length > 0) {... */\n      iszero\n      tag_212\n      jumpi\n        /* \"@openzeppelin/contracts/proxy/ERC1967/ERC1967Utils.sol\":2489:2542  Address.functionDelegateCall(newImplementation, data) */\n      tag_213\n        /* \"@openzeppelin/contracts/proxy/ERC1967/ERC1967Utils.sol\":2518:2535  newImplementation */\n      dup3\n        /* \"@openzeppelin/contracts/proxy/ERC1967/ERC1967Utils.sol\":2537:2541  data */\n      dup3\n        /* \"@openzeppelin/contracts/proxy/ERC1967/ERC1967Utils.sol\":2489:2517  Address.functionDelegateCall */\n      tag_214\n        /* \"@openzeppelin/contracts/proxy/ERC1967/ERC1967Utils.sol\":2489:2542  Address.functionDelegateCall(newImplementation, data) */\n      jump\t// in\n    tag_213:\n      pop\n        /* \"@openzeppelin/contracts/proxy/ERC1967/ERC1967Utils.sol\":2454:2602  if (data.length > 0) {... */\n      jump(tag_215)\n    tag_212:\n        /* \"@openzeppelin/contracts/proxy/ERC1967/ERC1967Utils.sol\":2573:2591  _checkNonPayable() */\n      tag_216\n        /* \"@openzeppelin/contracts/proxy/ERC1967/ERC1967Utils.sol\":2573:2589  _checkNonPayable */\n      tag_217\n        /* \"@openzeppelin/contracts/proxy/ERC1967/ERC1967Utils.sol\":2573:2591  _checkNonPayable() */\n      jump\t// in\n    tag_216:\n        /* \"@openzeppelin/contracts/proxy/ERC1967/ERC1967Utils.sol\":2454:2602  if (data.length > 0) {... */\n    tag_215:\n        /* \"@openzeppelin/contracts/proxy/ERC1967/ERC1967Utils.sol\":2264:2608  function upgradeToAndCall(address newImplementation, bytes memory data) internal {... */\n      pop\n      pop\n      jump\t// out\n        /* \"@openzeppelin/contracts-upgradeable/utils/ContextUpgradeable.sol\":887:983  function _msgSender() internal view virtual returns (address) {... */\n    tag_176:\n        /* \"@openzeppelin/contracts-upgradeable/utils/ContextUpgradeable.sol\":940:947  address */\n      0x00\n        /* \"@openzeppelin/contracts-upgradeable/utils/ContextUpgradeable.sol\":966:976  msg.sender */\n      caller\n        /* \"@openzeppelin/contracts-upgradeable/utils/ContextUpgradeable.sol\":959:976  return msg.sender */\n      swap1\n      pop\n        /* \"@openzeppelin/contracts-upgradeable/utils/ContextUpgradeable.sol\":887:983  function _msgSender() internal view virtual returns (address) {... */\n      swap1\n      jump\t// out\n        /* \"@openzeppelin/contracts-upgradeable/proxy/utils/Initializable.sol\":8819:8941  function _initializableStorageSlot() internal pure virtual returns (bytes32) {... */\n    tag_191:\n        /* \"@openzeppelin/contracts-upgradeable/proxy/utils/Initializable.sol\":8887:8894  bytes32 */\n      0x00\n        /* \"@openzeppelin/contracts-upgradeable/proxy/utils/Initializable.sol\":3147:3213  0xf0c57e16840df040f15088dc2f81fe391c3923bec73e23a9662efc9c229c6a00 */\n      0xf0c57e16840df040f15088dc2f81fe391c3923bec73e23a9662efc9c229c6a00\n        /* \"@openzeppelin/contracts-upgradeable/proxy/utils/Initializable.sol\":8913:8934  INITIALIZABLE_STORAGE */\n      0x00\n      shl\n        /* \"@openzeppelin/contracts-upgradeable/proxy/utils/Initializable.sol\":8906:8934  return INITIALIZABLE_STORAGE */\n      swap1\n      pop\n        /* \"@openzeppelin/contracts-upgradeable/proxy/utils/Initializable.sol\":8819:8941  function _initializableStorageSlot() internal pure virtual returns (bytes32) {... */\n      swap1\n      jump\t// out\n        /* \"@openzeppelin/contracts-upgradeable/proxy/utils/Initializable.sol\":7082:7223  function _checkInitializing() internal view virtual {... */\n    tag_194:\n        /* \"@openzeppelin/contracts-upgradeable/proxy/utils/Initializable.sol\":7149:7166  _isInitializing() */\n      tag_221\n        /* \"@openzeppelin/contracts-upgradeable/proxy/utils/Initializable.sol\":7149:7164  _isInitializing */\n      tag_222\n        /* \"@openzeppelin/contracts-upgradeable/proxy/utils/Initializable.sol\":7149:7166  _isInitializing() */\n      jump\t// in\n    tag_221:\n        /* \"@openzeppelin/contracts-upgradeable/proxy/utils/Initializable.sol\":7144:7217  if (!_isInitializing()) {... */\n      tag_223\n      jumpi\n        /* \"@openzeppelin/contracts-upgradeable/proxy/utils/Initializable.sol\":7189:7206  NotInitializing() */\n      mload(0x40)\n      0xd7e6bcf800000000000000000000000000000000000000000000000000000000\n      dup2\n      mstore\n      0x04\n      add\n      mload(0x40)\n      dup1\n      swap2\n      sub\n      swap1\n      revert\n        /* \"@openzeppelin/contracts-upgradeable/proxy/utils/Initializable.sol\":7144:7217  if (!_isInitializing()) {... */\n    tag_223:\n        /* \"@openzeppelin/contracts-upgradeable/proxy/utils/Initializable.sol\":7082:7223  function _checkInitializing() internal view virtual {... */\n      jump\t// out\n        /* \"@openzeppelin/contracts-upgradeable/access/OwnableUpgradeable.sol\":1980:2215  function __Ownable_init_unchained(address initialOwner) internal onlyInitializing {... */\n    tag_197:\n        /* \"@openzeppelin/contracts-upgradeable/proxy/utils/Initializable.sol\":6929:6949  _checkInitializing() */\n      tag_225\n        /* \"@openzeppelin/contracts-upgradeable/proxy/utils/Initializable.sol\":6929:6947  _checkInitializing */\n      tag_194\n        /* \"@openzeppelin/contracts-upgradeable/proxy/utils/Initializable.sol\":6929:6949  _checkInitializing() */\n      jump\t// in\n    tag_225:\n        /* \"@openzeppelin/contracts-upgradeable/access/OwnableUpgradeable.sol\":2100:2101  0 */\n      0x00\n        /* \"@openzeppelin/contracts-upgradeable/access/OwnableUpgradeable.sol\":2076:2102  initialOwner == address(0) */\n      0xffffffffffffffffffffffffffffffffffffffff\n      and\n        /* \"@openzeppelin/contracts-upgradeable/access/OwnableUpgradeable.sol\":2076:2088  initialOwner */\n      dup2\n        /* \"@openzeppelin/contracts-upgradeable/access/OwnableUpgradeable.sol\":2076:2102  initialOwner == address(0) */\n      0xffffffffffffffffffffffffffffffffffffffff\n      and\n      sub\n        /* \"@openzeppelin/contracts-upgradeable/access/OwnableUpgradeable.sol\":2072:2167  if (initialOwner == address(0)) {... */\n      tag_227\n      jumpi\n        /* \"@openzeppelin/contracts-upgradeable/access/OwnableUpgradeable.sol\":2153:2154  0 */\n      0x00\n        /* \"@openzeppelin/contracts-upgradeable/access/OwnableUpgradeable.sol\":2125:2156  OwnableInvalidOwner(address(0)) */\n      mload(0x40)\n      0x1e4fbdf700000000000000000000000000000000000000000000000000000000\n      dup2\n      mstore\n      0x04\n      add\n      tag_228\n      swap2\n      swap1\n      tag_36\n      jump\t// in\n    tag_228:\n      mload(0x40)\n      dup1\n      swap2\n      sub\n      swap1\n      revert\n        /* \"@openzeppelin/contracts-upgradeable/access/OwnableUpgradeable.sol\":2072:2167  if (initialOwner == address(0)) {... */\n    tag_227:\n        /* \"@openzeppelin/contracts-upgradeable/access/OwnableUpgradeable.sol\":2176:2208  _transferOwnership(initialOwner) */\n      tag_229\n        /* \"@openzeppelin/contracts-upgradeable/access/OwnableUpgradeable.sol\":2195:2207  initialOwner */\n      dup2\n        /* \"@openzeppelin/contracts-upgradeable/access/OwnableUpgradeable.sol\":2176:2194  _transferOwnership */\n      tag_85\n        /* \"@openzeppelin/contracts-upgradeable/access/OwnableUpgradeable.sol\":2176:2208  _transferOwnership(initialOwner) */\n      jump\t// in\n    tag_229:\n        /* \"@openzeppelin/contracts-upgradeable/access/OwnableUpgradeable.sol\":1980:2215  function __Ownable_init_unchained(address initialOwner) internal onlyInitializing {... */\n      pop\n      jump\t// out\n        /* \"@openzeppelin/contracts-upgradeable/security/ReentrancyGuardUpgradeable.sol\":2006:2115  function __ReentrancyGuard_init_unchained() internal onlyInitializing {... */\n    tag_202:\n        /* \"@openzeppelin/contracts-upgradeable/proxy/utils/Initializable.sol\":6929:6949  _checkInitializing() */\n      tag_231\n        /* \"@openzeppelin/contracts-upgradeable/proxy/utils/Initializable.sol\":6929:6947  _checkInitializing */\n      tag_194\n        /* \"@openzeppelin/contracts-upgradeable/proxy/utils/Initializable.sol\":6929:6949  _checkInitializing() */\n      jump\t// in\n    tag_231:\n        /* \"@openzeppelin/contracts-upgradeable/security/ReentrancyGuardUpgradeable.sol\":1808:1809  1 */\n      0x01\n        /* \"@openzeppelin/contracts-upgradeable/security/ReentrancyGuardUpgradeable.sol\":2086:2093  _status */\n      0x00\n        /* \"@openzeppelin/contracts-upgradeable/security/ReentrancyGuardUpgradeable.sol\":2086:2108  _status = _NOT_ENTERED */\n      dup2\n      swap1\n      sstore\n      pop\n        /* \"@openzeppelin/contracts-upgradeable/security/ReentrancyGuardUpgradeable.sol\":2006:2115  function __ReentrancyGuard_init_unchained() internal onlyInitializing {... */\n      jump\t// out\n        /* \"@openzeppelin/contracts/utils/StorageSlot.sol\":1899:2062  function getAddressSlot(bytes32 slot) internal pure returns (AddressSlot storage r) {... */\n    tag_208:\n        /* \"@openzeppelin/contracts/utils/StorageSlot.sol\":1960:1981  AddressSlot storage r */\n      0x00\n        /* \"@openzeppelin/contracts/utils/StorageSlot.sol\":2042:2046  slot */\n      dup2\n        /* \"@openzeppelin/contracts/utils/StorageSlot.sol\":2032:2046  r.slot := slot */\n      swap1\n      pop\n        /* \"@openzeppelin/contracts/utils/StorageSlot.sol\":1899:2062  function getAddressSlot(bytes32 slot) internal pure returns (AddressSlot storage r) {... */\n      swap2\n      swap1\n      pop\n      jump\t// out\n        /* \"@openzeppelin/contracts/proxy/ERC1967/ERC1967Utils.sol\":1671:1952  function _setImplementation(address newImplementation) private {... */\n    tag_211:\n        /* \"@openzeppelin/contracts/proxy/ERC1967/ERC1967Utils.sol\":1781:1782  0 */\n      0x00\n        /* \"@openzeppelin/contracts/proxy/ERC1967/ERC1967Utils.sol\":1748:1765  newImplementation */\n      dup2\n        /* \"@openzeppelin/contracts/proxy/ERC1967/ERC1967Utils.sol\":1748:1777  newImplementation.code.length */\n      0xffffffffffffffffffffffffffffffffffffffff\n      and\n      extcodesize\n        /* \"@openzeppelin/contracts/proxy/ERC1967/ERC1967Utils.sol\":1748:1782  newImplementation.code.length == 0 */\n      sub\n        /* \"@openzeppelin/contracts/proxy/ERC1967/ERC1967Utils.sol\":1744:1863  if (newImplementation.code.length == 0) {... */\n      tag_235\n      jumpi\n        /* \"@openzeppelin/contracts/proxy/ERC1967/ERC1967Utils.sol\":1834:1851  newImplementation */\n      dup1\n        /* \"@openzeppelin/contracts/proxy/ERC1967/ERC1967Utils.sol\":1805:1852  ERC1967InvalidImplementation(newImplementation) */\n      mload(0x40)\n      0x4c9c8ce300000000000000000000000000000000000000000000000000000000\n      dup2\n      mstore\n      0x04\n      add\n      tag_236\n      swap2\n      swap1\n      tag_36\n      jump\t// in\n    tag_236:\n      mload(0x40)\n      dup1\n      swap2\n      sub\n      swap1\n      revert\n        /* \"@openzeppelin/contracts/proxy/ERC1967/ERC1967Utils.sol\":1744:1863  if (newImplementation.code.length == 0) {... */\n    tag_235:\n        /* \"@openzeppelin/contracts/proxy/ERC1967/ERC1967Utils.sol\":1928:1945  newImplementation */\n      dup1\n        /* \"@openzeppelin/contracts/proxy/ERC1967/ERC1967Utils.sol\":1872:1919  StorageSlot.getAddressSlot(IMPLEMENTATION_SLOT) */\n      tag_237\n        /* \"@openzeppelin/contracts/proxy/ERC1967/ERC1967Utils.sol\":811:877  0x360894a13ba1a3210667c828492db98dca3e2076cc3735a920a3ca505d382bbc */\n      0x360894a13ba1a3210667c828492db98dca3e2076cc3735a920a3ca505d382bbc\n        /* \"@openzeppelin/contracts/proxy/ERC1967/ERC1967Utils.sol\":1899:1918  IMPLEMENTATION_SLOT */\n      0x00\n      shl\n        /* \"@openzeppelin/contracts/proxy/ERC1967/ERC1967Utils.sol\":1872:1898  StorageSlot.getAddressSlot */\n      tag_208\n        /* \"@openzeppelin/contracts/proxy/ERC1967/ERC1967Utils.sol\":1872:1919  StorageSlot.getAddressSlot(IMPLEMENTATION_SLOT) */\n      jump\t// in\n    tag_237:\n        /* \"@openzeppelin/contracts/proxy/ERC1967/ERC1967Utils.sol\":1872:1925  StorageSlot.getAddressSlot(IMPLEMENTATION_SLOT).value */\n      0x00\n      add\n      0x00\n        /* \"@openzeppelin/contracts/proxy/ERC1967/ERC1967Utils.sol\":1872:1945  StorageSlot.getAddressSlot(IMPLEMENTATION_SLOT).value = newImplementation */\n      0x0100\n      exp\n      dup2\n      sload\n      dup2\n      0xffffffffffffffffffffffffffffffffffffffff\n      mul\n      not\n      and\n      swap1\n      dup4\n      0xffffffffffffffffffffffffffffffffffffffff\n      and\n      mul\n      or\n      swap1\n      sstore\n      pop\n        /* \"@openzeppelin/contracts/proxy/ERC1967/ERC1967Utils.sol\":1671:1952  function _setImplementation(address newImplementation) private {... */\n      pop\n      jump\t// out\n        /* \"@openzeppelin/contracts/utils/Address.sol\":3916:4169  function functionDelegateCall(address target, bytes memory data) internal returns (bytes memory) {... */\n    tag_214:\n        /* \"@openzeppelin/contracts/utils/Address.sol\":3999:4011  bytes memory */\n      0x60\n        /* \"@openzeppelin/contracts/utils/Address.sol\":4024:4036  bool success */\n      0x00\n        /* \"@openzeppelin/contracts/utils/Address.sol\":4038:4061  bytes memory returndata */\n      dup1\n        /* \"@openzeppelin/contracts/utils/Address.sol\":4065:4071  target */\n      dup5\n        /* \"@openzeppelin/contracts/utils/Address.sol\":4065:4084  target.delegatecall */\n      0xffffffffffffffffffffffffffffffffffffffff\n      and\n        /* \"@openzeppelin/contracts/utils/Address.sol\":4085:4089  data */\n      dup5\n        /* \"@openzeppelin/contracts/utils/Address.sol\":4065:4090  target.delegatecall(data) */\n      mload(0x40)\n      tag_239\n      swap2\n      swap1\n      tag_240\n      jump\t// in\n    tag_239:\n      0x00\n      mload(0x40)\n      dup1\n      dup4\n      sub\n      dup2\n      dup6\n      gas\n      delegatecall\n      swap2\n      pop\n      pop\n      returndatasize\n      dup1\n      0x00\n      dup2\n      eq\n      tag_243\n      jumpi\n      mload(0x40)\n      swap2\n      pop\n      and(add(returndatasize, 0x3f), not(0x1f))\n      dup3\n      add\n      0x40\n      mstore\n      returndatasize\n      dup3\n      mstore\n      returndatasize\n      0x00\n      0x20\n      dup5\n      add\n      returndatacopy\n      jump(tag_242)\n    tag_243:\n      0x60\n      swap2\n      pop\n    tag_242:\n      pop\n        /* \"@openzeppelin/contracts/utils/Address.sol\":4023:4090  (bool success, bytes memory returndata) = target.delegatecall(data) */\n      swap2\n      pop\n      swap2\n      pop\n        /* \"@openzeppelin/contracts/utils/Address.sol\":4107:4162  verifyCallResultFromTarget(target, success, returndata) */\n      tag_244\n        /* \"@openzeppelin/contracts/utils/Address.sol\":4134:4140  target */\n      dup6\n        /* \"@openzeppelin/contracts/utils/Address.sol\":4142:4149  success */\n      dup4\n        /* \"@openzeppelin/contracts/utils/Address.sol\":4151:4161  returndata */\n      dup4\n        /* \"@openzeppelin/contracts/utils/Address.sol\":4107:4133  verifyCallResultFromTarget */\n      tag_245\n        /* \"@openzeppelin/contracts/utils/Address.sol\":4107:4162  verifyCallResultFromTarget(target, success, returndata) */\n      jump\t// in\n    tag_244:\n        /* \"@openzeppelin/contracts/utils/Address.sol\":4100:4162  return verifyCallResultFromTarget(target, success, returndata) */\n      swap3\n      pop\n      pop\n      pop\n        /* \"@openzeppelin/contracts/utils/Address.sol\":3916:4169  function functionDelegateCall(address target, bytes memory data) internal returns (bytes memory) {... */\n      swap3\n      swap2\n      pop\n      pop\n      jump\t// out\n        /* \"@openzeppelin/contracts/proxy/ERC1967/ERC1967Utils.sol\":6113:6235  function _checkNonPayable() private {... */\n    tag_217:\n        /* \"@openzeppelin/contracts/proxy/ERC1967/ERC1967Utils.sol\":6175:6176  0 */\n      0x00\n        /* \"@openzeppelin/contracts/proxy/ERC1967/ERC1967Utils.sol\":6163:6172  msg.value */\n      callvalue\n        /* \"@openzeppelin/contracts/proxy/ERC1967/ERC1967Utils.sol\":6163:6176  msg.value > 0 */\n      gt\n        /* \"@openzeppelin/contracts/proxy/ERC1967/ERC1967Utils.sol\":6159:6229  if (msg.value > 0) {... */\n      iszero\n      tag_247\n      jumpi\n        /* \"@openzeppelin/contracts/proxy/ERC1967/ERC1967Utils.sol\":6199:6218  ERC1967NonPayable() */\n      mload(0x40)\n      0xb398979f00000000000000000000000000000000000000000000000000000000\n      dup2\n      mstore\n      0x04\n      add\n      mload(0x40)\n      dup1\n      swap2\n      sub\n      swap1\n      revert\n        /* \"@openzeppelin/contracts/proxy/ERC1967/ERC1967Utils.sol\":6159:6229  if (msg.value > 0) {... */\n    tag_247:\n        /* \"@openzeppelin/contracts/proxy/ERC1967/ERC1967Utils.sol\":6113:6235  function _checkNonPayable() private {... */\n      jump\t// out\n        /* \"@openzeppelin/contracts-upgradeable/proxy/utils/Initializable.sol\":8485:8605  function _isInitializing() internal view returns (bool) {... */\n    tag_222:\n        /* \"@openzeppelin/contracts-upgradeable/proxy/utils/Initializable.sol\":8535:8539  bool */\n      0x00\n        /* \"@openzeppelin/contracts-upgradeable/proxy/utils/Initializable.sol\":8558:8584  _getInitializableStorage() */\n      tag_249\n        /* \"@openzeppelin/contracts-upgradeable/proxy/utils/Initializable.sol\":8558:8582  _getInitializableStorage */\n      tag_131\n        /* \"@openzeppelin/contracts-upgradeable/proxy/utils/Initializable.sol\":8558:8584  _getInitializableStorage() */\n      jump\t// in\n    tag_249:\n        /* \"@openzeppelin/contracts-upgradeable/proxy/utils/Initializable.sol\":8558:8598  _getInitializableStorage()._initializing */\n      0x00\n      add\n      0x08\n      swap1\n      sload\n      swap1\n      0x0100\n      exp\n      swap1\n      div\n      0xff\n      and\n        /* \"@openzeppelin/contracts-upgradeable/proxy/utils/Initializable.sol\":8551:8598  return _getInitializableStorage()._initializing */\n      swap1\n      pop\n        /* \"@openzeppelin/contracts-upgradeable/proxy/utils/Initializable.sol\":8485:8605  function _isInitializing() internal view returns (bool) {... */\n      swap1\n      jump\t// out\n        /* \"@openzeppelin/contracts/utils/Address.sol\":4437:5019  function verifyCallResultFromTarget(... */\n    tag_245:\n        /* \"@openzeppelin/contracts/utils/Address.sol\":4581:4593  bytes memory */\n      0x60\n        /* \"@openzeppelin/contracts/utils/Address.sol\":4610:4617  success */\n      dup3\n        /* \"@openzeppelin/contracts/utils/Address.sol\":4605:5013  if (!success) {... */\n      tag_251\n      jumpi\n        /* \"@openzeppelin/contracts/utils/Address.sol\":4633:4652  _revert(returndata) */\n      tag_252\n        /* \"@openzeppelin/contracts/utils/Address.sol\":4641:4651  returndata */\n      dup3\n        /* \"@openzeppelin/contracts/utils/Address.sol\":4633:4640  _revert */\n      tag_253\n        /* \"@openzeppelin/contracts/utils/Address.sol\":4633:4652  _revert(returndata) */\n      jump\t// in\n    tag_252:\n        /* \"@openzeppelin/contracts/utils/Address.sol\":4605:5013  if (!success) {... */\n      jump(tag_254)\n    tag_251:\n        /* \"@openzeppelin/contracts/utils/Address.sol\":4878:4879  0 */\n      0x00\n        /* \"@openzeppelin/contracts/utils/Address.sol\":4857:4867  returndata */\n      dup3\n        /* \"@openzeppelin/contracts/utils/Address.sol\":4857:4874  returndata.length */\n      mload\n        /* \"@openzeppelin/contracts/utils/Address.sol\":4857:4879  returndata.length == 0 */\n      eq\n        /* \"@openzeppelin/contracts/utils/Address.sol\":4857:4906  returndata.length == 0 && target.code.length == 0 */\n      dup1\n      iszero\n      tag_255\n      jumpi\n      pop\n        /* \"@openzeppelin/contracts/utils/Address.sol\":4905:4906  0 */\n      0x00\n        /* \"@openzeppelin/contracts/utils/Address.sol\":4883:4889  target */\n      dup5\n        /* \"@openzeppelin/contracts/utils/Address.sol\":4883:4901  target.code.length */\n      0xffffffffffffffffffffffffffffffffffffffff\n      and\n      extcodesize\n        /* \"@openzeppelin/contracts/utils/Address.sol\":4883:4906  target.code.length == 0 */\n      eq\n        /* \"@openzeppelin/contracts/utils/Address.sol\":4857:4906  returndata.length == 0 && target.code.length == 0 */\n    tag_255:\n        /* \"@openzeppelin/contracts/utils/Address.sol\":4853:4972  if (returndata.length == 0 && target.code.length == 0) {... */\n      iszero\n      tag_256\n      jumpi\n        /* \"@openzeppelin/contracts/utils/Address.sol\":4950:4956  target */\n      dup4\n        /* \"@openzeppelin/contracts/utils/Address.sol\":4933:4957  AddressEmptyCode(target) */\n      mload(0x40)\n      0x9996b31500000000000000000000000000000000000000000000000000000000\n      dup2\n      mstore\n      0x04\n      add\n      tag_257\n      swap2\n      swap1\n      tag_36\n      jump\t// in\n    tag_257:\n      mload(0x40)\n      dup1\n      swap2\n      sub\n      swap1\n      revert\n        /* \"@openzeppelin/contracts/utils/Address.sol\":4853:4972  if (returndata.length == 0 && target.code.length == 0) {... */\n    tag_256:\n        /* \"@openzeppelin/contracts/utils/Address.sol\":4992:5002  returndata */\n      dup2\n        /* \"@openzeppelin/contracts/utils/Address.sol\":4985:5002  return returndata */\n      swap1\n      pop\n      jump(tag_250)\n        /* \"@openzeppelin/contracts/utils/Address.sol\":4605:5013  if (!success) {... */\n    tag_254:\n        /* \"@openzeppelin/contracts/utils/Address.sol\":4437:5019  function verifyCallResultFromTarget(... */\n    tag_250:\n      swap4\n      swap3\n      pop\n      pop\n      pop\n      jump\t// out\n        /* \"@openzeppelin/contracts/utils/Address.sol\":5559:5993  function _revert(bytes memory returndata) private pure {... */\n    tag_253:\n        /* \"@openzeppelin/contracts/utils/Address.sol\":5710:5711  0 */\n      0x00\n        /* \"@openzeppelin/contracts/utils/Address.sol\":5690:5700  returndata */\n      dup2\n        /* \"@openzeppelin/contracts/utils/Address.sol\":5690:5707  returndata.length */\n      mload\n        /* \"@openzeppelin/contracts/utils/Address.sol\":5690:5711  returndata.length > 0 */\n      gt\n        /* \"@openzeppelin/contracts/utils/Address.sol\":5686:5987  if (returndata.length > 0) {... */\n      iszero\n      tag_259\n      jumpi\n        /* \"@openzeppelin/contracts/utils/Address.sol\":5894:5904  returndata */\n      dup1\n        /* \"@openzeppelin/contracts/utils/Address.sol\":5888:5905  mload(returndata) */\n      mload\n        /* \"@openzeppelin/contracts/utils/Address.sol\":5881:5885  0x20 */\n      0x20\n        /* \"@openzeppelin/contracts/utils/Address.sol\":5869:5879  returndata */\n      dup3\n        /* \"@openzeppelin/contracts/utils/Address.sol\":5865:5886  add(returndata, 0x20) */\n      add\n        /* \"@openzeppelin/contracts/utils/Address.sol\":5858:5906  revert(add(returndata, 0x20), mload(returndata)) */\n      revert\n        /* \"@openzeppelin/contracts/utils/Address.sol\":5686:5987  if (returndata.length > 0) {... */\n    tag_259:\n        /* \"@openzeppelin/contracts/utils/Address.sol\":5957:5976  Errors.FailedCall() */\n      mload(0x40)\n      0xd6bda27500000000000000000000000000000000000000000000000000000000\n      dup2\n      mstore\n      0x04\n      add\n      mload(0x40)\n      dup1\n      swap2\n      sub\n      swap1\n      revert\n        /* \"#utility.yul\":7:84   */\n    tag_261:\n        /* \"#utility.yul\":44:51   */\n      0x00\n        /* \"#utility.yul\":73:78   */\n      dup2\n        /* \"#utility.yul\":62:78   */\n      swap1\n      pop\n        /* \"#utility.yul\":7:84   */\n      swap2\n      swap1\n      pop\n      jump\t// out\n        /* \"#utility.yul\":90:208   */\n    tag_262:\n        /* \"#utility.yul\":177:201   */\n      tag_322\n        /* \"#utility.yul\":195:200   */\n      dup2\n        /* \"#utility.yul\":177:201   */\n      tag_261\n      jump\t// in\n    tag_322:\n        /* \"#utility.yul\":172:175   */\n      dup3\n        /* \"#utility.yul\":165:202   */\n      mstore\n        /* \"#utility.yul\":90:208   */\n      pop\n      pop\n      jump\t// out\n        /* \"#utility.yul\":214:436   */\n    tag_19:\n        /* \"#utility.yul\":307:311   */\n      0x00\n        /* \"#utility.yul\":345:347   */\n      0x20\n        /* \"#utility.yul\":334:343   */\n      dup3\n        /* \"#utility.yul\":330:348   */\n      add\n        /* \"#utility.yul\":322:348   */\n      swap1\n      pop\n        /* \"#utility.yul\":358:429   */\n      tag_324\n        /* \"#utility.yul\":426:427   */\n      0x00\n        /* \"#utility.yul\":415:424   */\n      dup4\n        /* \"#utility.yul\":411:428   */\n      add\n        /* \"#utility.yul\":402:408   */\n      dup5\n        /* \"#utility.yul\":358:429   */\n      tag_262\n      jump\t// in\n    tag_324:\n        /* \"#utility.yul\":214:436   */\n      swap3\n      swap2\n      pop\n      pop\n      jump\t// out\n        /* \"#utility.yul\":442:517   */\n    tag_263:\n        /* \"#utility.yul\":475:481   */\n      0x00\n        /* \"#utility.yul\":508:510   */\n      0x40\n        /* \"#utility.yul\":502:511   */\n      mload\n        /* \"#utility.yul\":492:511   */\n      swap1\n      pop\n        /* \"#utility.yul\":442:517   */\n      swap1\n      jump\t// out\n        /* \"#utility.yul\":523:640   */\n    tag_264:\n        /* \"#utility.yul\":632:633   */\n      0x00\n        /* \"#utility.yul\":629:630   */\n      dup1\n        /* \"#utility.yul\":622:634   */\n      revert\n        /* \"#utility.yul\":646:763   */\n    tag_265:\n        /* \"#utility.yul\":755:756   */\n      0x00\n        /* \"#utility.yul\":752:753   */\n      dup1\n        /* \"#utility.yul\":745:757   */\n      revert\n        /* \"#utility.yul\":769:895   */\n    tag_266:\n        /* \"#utility.yul\":806:813   */\n      0x00\n        /* \"#utility.yul\":846:888   */\n      0xffffffffffffffffffffffffffffffffffffffff\n        /* \"#utility.yul\":839:844   */\n      dup3\n        /* \"#utility.yul\":835:889   */\n      and\n        /* \"#utility.yul\":824:889   */\n      swap1\n      pop\n        /* \"#utility.yul\":769:895   */\n      swap2\n      swap1\n      pop\n      jump\t// out\n        /* \"#utility.yul\":901:997   */\n    tag_267:\n        /* \"#utility.yul\":938:945   */\n      0x00\n        /* \"#utility.yul\":967:991   */\n      tag_330\n        /* \"#utility.yul\":985:990   */\n      dup3\n        /* \"#utility.yul\":967:991   */\n      tag_266\n      jump\t// in\n    tag_330:\n        /* \"#utility.yul\":956:991   */\n      swap1\n      pop\n        /* \"#utility.yul\":901:997   */\n      swap2\n      swap1\n      pop\n      jump\t// out\n        /* \"#utility.yul\":1003:1125   */\n    tag_268:\n        /* \"#utility.yul\":1076:1100   */\n      tag_332\n        /* \"#utility.yul\":1094:1099   */\n      dup2\n        /* \"#utility.yul\":1076:1100   */\n      tag_267\n      jump\t// in\n    tag_332:\n        /* \"#utility.yul\":1069:1074   */\n      dup2\n        /* \"#utility.yul\":1066:1101   */\n      eq\n        /* \"#utility.yul\":1056:1119   */\n      tag_333\n      jumpi\n        /* \"#utility.yul\":1115:1116   */\n      0x00\n        /* \"#utility.yul\":1112:1113   */\n      dup1\n        /* \"#utility.yul\":1105:1117   */\n      revert\n        /* \"#utility.yul\":1056:1119   */\n    tag_333:\n        /* \"#utility.yul\":1003:1125   */\n      pop\n      jump\t// out\n        /* \"#utility.yul\":1131:1270   */\n    tag_269:\n        /* \"#utility.yul\":1177:1182   */\n      0x00\n        /* \"#utility.yul\":1215:1221   */\n      dup2\n        /* \"#utility.yul\":1202:1222   */\n      calldataload\n        /* \"#utility.yul\":1193:1222   */\n      swap1\n      pop\n        /* \"#utility.yul\":1231:1264   */\n      tag_335\n        /* \"#utility.yul\":1258:1263   */\n      dup2\n        /* \"#utility.yul\":1231:1264   */\n      tag_268\n      jump\t// in\n    tag_335:\n        /* \"#utility.yul\":1131:1270   */\n      swap3\n      swap2\n      pop\n      pop\n      jump\t// out\n        /* \"#utility.yul\":1276:1393   */\n    tag_270:\n        /* \"#utility.yul\":1385:1386   */\n      0x00\n        /* \"#utility.yul\":1382:1383   */\n      dup1\n        /* \"#utility.yul\":1375:1387   */\n      revert\n        /* \"#utility.yul\":1399:1516   */\n    tag_271:\n        /* \"#utility.yul\":1508:1509   */\n      0x00\n        /* \"#utility.yul\":1505:1506   */\n      dup1\n        /* \"#utility.yul\":1498:1510   */\n      revert\n        /* \"#utility.yul\":1522:1624   */\n    tag_272:\n        /* \"#utility.yul\":1563:1569   */\n      0x00\n        /* \"#utility.yul\":1614:1616   */\n      0x1f\n        /* \"#utility.yul\":1610:1617   */\n      not\n        /* \"#utility.yul\":1605:1607   */\n      0x1f\n        /* \"#utility.yul\":1598:1603   */\n      dup4\n        /* \"#utility.yul\":1594:1608   */\n      add\n        /* \"#utility.yul\":1590:1618   */\n      and\n        /* \"#utility.yul\":1580:1618   */\n      swap1\n      pop\n        /* \"#utility.yul\":1522:1624   */\n      swap2\n      swap1\n      pop\n      jump\t// out\n        /* \"#utility.yul\":1630:1810   */\n    tag_273:\n        /* \"#utility.yul\":1678:1755   */\n      0x4e487b7100000000000000000000000000000000000000000000000000000000\n        /* \"#utility.yul\":1675:1676   */\n      0x00\n        /* \"#utility.yul\":1668:1756   */\n      mstore\n        /* \"#utility.yul\":1775:1779   */\n      0x41\n        /* \"#utility.yul\":1772:1773   */\n      0x04\n        /* \"#utility.yul\":1765:1780   */\n      mstore\n        /* \"#utility.yul\":1799:1803   */\n      0x24\n        /* \"#utility.yul\":1796:1797   */\n      0x00\n        /* \"#utility.yul\":1789:1804   */\n      revert\n        /* \"#utility.yul\":1816:2097   */\n    tag_274:\n        /* \"#utility.yul\":1899:1926   */\n      tag_341\n        /* \"#utility.yul\":1921:1925   */\n      dup3\n        /* \"#utility.yul\":1899:1926   */\n      tag_272\n      jump\t// in\n    tag_341:\n        /* \"#utility.yul\":1891:1897   */\n      dup2\n        /* \"#utility.yul\":1887:1927   */\n      add\n        /* \"#utility.yul\":2029:2035   */\n      dup2\n        /* \"#utility.yul\":2017:2027   */\n      dup2\n        /* \"#utility.yul\":2014:2036   */\n      lt\n        /* \"#utility.yul\":1993:2011   */\n      0xffffffffffffffff\n        /* \"#utility.yul\":1981:1991   */\n      dup3\n        /* \"#utility.yul\":1978:2012   */\n      gt\n        /* \"#utility.yul\":1975:2037   */\n      or\n        /* \"#utility.yul\":1972:2060   */\n      iszero\n      tag_342\n      jumpi\n        /* \"#utility.yul\":2040:2058   */\n      tag_343\n      tag_273\n      jump\t// in\n    tag_343:\n        /* \"#utility.yul\":1972:2060   */\n    tag_342:\n        /* \"#utility.yul\":2080:2090   */\n      dup1\n        /* \"#utility.yul\":2076:2078   */\n      0x40\n        /* \"#utility.yul\":2069:2091   */\n      mstore\n        /* \"#utility.yul\":1859:2097   */\n      pop\n        /* \"#utility.yul\":1816:2097   */\n      pop\n      pop\n      jump\t// out\n        /* \"#utility.yul\":2103:2232   */\n    tag_275:\n        /* \"#utility.yul\":2137:2143   */\n      0x00\n        /* \"#utility.yul\":2164:2184   */\n      tag_345\n      tag_263\n      jump\t// in\n    tag_345:\n        /* \"#utility.yul\":2154:2184   */\n      swap1\n      pop\n        /* \"#utility.yul\":2193:2226   */\n      tag_346\n        /* \"#utility.yul\":2221:2225   */\n      dup3\n        /* \"#utility.yul\":2213:2219   */\n      dup3\n        /* \"#utility.yul\":2193:2226   */\n      tag_274\n      jump\t// in\n    tag_346:\n        /* \"#utility.yul\":2103:2232   */\n      swap2\n      swap1\n      pop\n      jump\t// out\n        /* \"#utility.yul\":2238:2545   */\n    tag_276:\n        /* \"#utility.yul\":2299:2303   */\n      0x00\n        /* \"#utility.yul\":2389:2407   */\n      0xffffffffffffffff\n        /* \"#utility.yul\":2381:2387   */\n      dup3\n        /* \"#utility.yul\":2378:2408   */\n      gt\n        /* \"#utility.yul\":2375:2431   */\n      iszero\n      tag_348\n      jumpi\n        /* \"#utility.yul\":2411:2429   */\n      tag_349\n      tag_273\n      jump\t// in\n    tag_349:\n        /* \"#utility.yul\":2375:2431   */\n    tag_348:\n        /* \"#utility.yul\":2449:2478   */\n      tag_350\n        /* \"#utility.yul\":2471:2477   */\n      dup3\n        /* \"#utility.yul\":2449:2478   */\n      tag_272\n      jump\t// in\n    tag_350:\n        /* \"#utility.yul\":2441:2478   */\n      swap1\n      pop\n        /* \"#utility.yul\":2533:2537   */\n      0x20\n        /* \"#utility.yul\":2527:2531   */\n      dup2\n        /* \"#utility.yul\":2523:2538   */\n      add\n        /* \"#utility.yul\":2515:2538   */\n      swap1\n      pop\n        /* \"#utility.yul\":2238:2545   */\n      swap2\n      swap1\n      pop\n      jump\t// out\n        /* \"#utility.yul\":2551:2697   */\n    tag_277:\n        /* \"#utility.yul\":2648:2654   */\n      dup3\n        /* \"#utility.yul\":2643:2646   */\n      dup2\n        /* \"#utility.yul\":2638:2641   */\n      dup4\n        /* \"#utility.yul\":2625:2655   */\n      calldatacopy\n        /* \"#utility.yul\":2689:2690   */\n      0x00\n        /* \"#utility.yul\":2680:2686   */\n      dup4\n        /* \"#utility.yul\":2675:2678   */\n      dup4\n        /* \"#utility.yul\":2671:2687   */\n      add\n        /* \"#utility.yul\":2664:2691   */\n      mstore\n        /* \"#utility.yul\":2551:2697   */\n      pop\n      pop\n      pop\n      jump\t// out\n        /* \"#utility.yul\":2703:3126   */\n    tag_278:\n        /* \"#utility.yul\":2780:2785   */\n      0x00\n        /* \"#utility.yul\":2805:2870   */\n      tag_353\n        /* \"#utility.yul\":2821:2869   */\n      tag_354\n        /* \"#utility.yul\":2862:2868   */\n      dup5\n        /* \"#utility.yul\":2821:2869   */\n      tag_276\n      jump\t// in\n    tag_354:\n        /* \"#utility.yul\":2805:2870   */\n      tag_275\n      jump\t// in\n    tag_353:\n        /* \"#utility.yul\":2796:2870   */\n      swap1\n      pop\n        /* \"#utility.yul\":2893:2899   */\n      dup3\n        /* \"#utility.yul\":2886:2891   */\n      dup2\n        /* \"#utility.yul\":2879:2900   */\n      mstore\n        /* \"#utility.yul\":2931:2935   */\n      0x20\n        /* \"#utility.yul\":2924:2929   */\n      dup2\n        /* \"#utility.yul\":2920:2936   */\n      add\n        /* \"#utility.yul\":2969:2972   */\n      dup5\n        /* \"#utility.yul\":2960:2966   */\n      dup5\n        /* \"#utility.yul\":2955:2958   */\n      dup5\n        /* \"#utility.yul\":2951:2967   */\n      add\n        /* \"#utility.yul\":2948:2973   */\n      gt\n        /* \"#utility.yul\":2945:3057   */\n      iszero\n      tag_355\n      jumpi\n        /* \"#utility.yul\":2976:3055   */\n      tag_356\n      tag_271\n      jump\t// in\n    tag_356:\n        /* \"#utility.yul\":2945:3057   */\n    tag_355:\n        /* \"#utility.yul\":3066:3120   */\n      tag_357\n        /* \"#utility.yul\":3113:3119   */\n      dup5\n        /* \"#utility.yul\":3108:3111   */\n      dup3\n        /* \"#utility.yul\":3103:3106   */\n      dup6\n        /* \"#utility.yul\":3066:3120   */\n      tag_277\n      jump\t// in\n    tag_357:\n        /* \"#utility.yul\":2786:3126   */\n      pop\n        /* \"#utility.yul\":2703:3126   */\n      swap4\n      swap3\n      pop\n      pop\n      pop\n      jump\t// out\n        /* \"#utility.yul\":3145:3483   */\n    tag_279:\n        /* \"#utility.yul\":3200:3205   */\n      0x00\n        /* \"#utility.yul\":3249:3252   */\n      dup3\n        /* \"#utility.yul\":3242:3246   */\n      0x1f\n        /* \"#utility.yul\":3234:3240   */\n      dup4\n        /* \"#utility.yul\":3230:3247   */\n      add\n        /* \"#utility.yul\":3226:3253   */\n      slt\n        /* \"#utility.yul\":3216:3338   */\n      tag_359\n      jumpi\n        /* \"#utility.yul\":3257:3336   */\n      tag_360\n      tag_270\n      jump\t// in\n    tag_360:\n        /* \"#utility.yul\":3216:3338   */\n    tag_359:\n        /* \"#utility.yul\":3374:3380   */\n      dup2\n        /* \"#utility.yul\":3361:3381   */\n      calldataload\n        /* \"#utility.yul\":3399:3477   */\n      tag_361\n        /* \"#utility.yul\":3473:3476   */\n      dup5\n        /* \"#utility.yul\":3465:3471   */\n      dup3\n        /* \"#utility.yul\":3458:3462   */\n      0x20\n        /* \"#utility.yul\":3450:3456   */\n      dup7\n        /* \"#utility.yul\":3446:3463   */\n      add\n        /* \"#utility.yul\":3399:3477   */\n      tag_278\n      jump\t// in\n    tag_361:\n        /* \"#utility.yul\":3390:3477   */\n      swap2\n      pop\n        /* \"#utility.yul\":3206:3483   */\n      pop\n        /* \"#utility.yul\":3145:3483   */\n      swap3\n      swap2\n      pop\n      pop\n      jump\t// out\n        /* \"#utility.yul\":3489:4141   */\n    tag_22:\n        /* \"#utility.yul\":3566:3572   */\n      0x00\n        /* \"#utility.yul\":3574:3580   */\n      dup1\n        /* \"#utility.yul\":3623:3625   */\n      0x40\n        /* \"#utility.yul\":3611:3620   */\n      dup4\n        /* \"#utility.yul\":3602:3609   */\n      dup6\n        /* \"#utility.yul\":3598:3621   */\n      sub\n        /* \"#utility.yul\":3594:3626   */\n      slt\n        /* \"#utility.yul\":3591:3710   */\n      iszero\n      tag_363\n      jumpi\n        /* \"#utility.yul\":3629:3708   */\n      tag_364\n      tag_264\n      jump\t// in\n    tag_364:\n        /* \"#utility.yul\":3591:3710   */\n    tag_363:\n        /* \"#utility.yul\":3749:3750   */\n      0x00\n        /* \"#utility.yul\":3774:3827   */\n      tag_365\n        /* \"#utility.yul\":3819:3826   */\n      dup6\n        /* \"#utility.yul\":3810:3816   */\n      dup3\n        /* \"#utility.yul\":3799:3808   */\n      dup7\n        /* \"#utility.yul\":3795:3817   */\n      add\n        /* \"#utility.yul\":3774:3827   */\n      tag_269\n      jump\t// in\n    tag_365:\n        /* \"#utility.yul\":3764:3827   */\n      swap3\n      pop\n        /* \"#utility.yul\":3720:3837   */\n      pop\n        /* \"#utility.yul\":3904:3906   */\n      0x20\n        /* \"#utility.yul\":3893:3902   */\n      dup4\n        /* \"#utility.yul\":3889:3907   */\n      add\n        /* \"#utility.yul\":3876:3908   */\n      calldataload\n        /* \"#utility.yul\":3935:3953   */\n      0xffffffffffffffff\n        /* \"#utility.yul\":3927:3933   */\n      dup2\n        /* \"#utility.yul\":3924:3954   */\n      gt\n        /* \"#utility.yul\":3921:4038   */\n      iszero\n      tag_366\n      jumpi\n        /* \"#utility.yul\":3957:4036   */\n      tag_367\n      tag_265\n      jump\t// in\n    tag_367:\n        /* \"#utility.yul\":3921:4038   */\n    tag_366:\n        /* \"#utility.yul\":4062:4124   */\n      tag_368\n        /* \"#utility.yul\":4116:4123   */\n      dup6\n        /* \"#utility.yul\":4107:4113   */\n      dup3\n        /* \"#utility.yul\":4096:4105   */\n      dup7\n        /* \"#utility.yul\":4092:4114   */\n      add\n        /* \"#utility.yul\":4062:4124   */\n      tag_279\n      jump\t// in\n    tag_368:\n        /* \"#utility.yul\":4052:4124   */\n      swap2\n      pop\n        /* \"#utility.yul\":3847:4134   */\n      pop\n        /* \"#utility.yul\":3489:4141   */\n      swap3\n      pop\n      swap3\n      swap1\n      pop\n      jump\t// out\n        /* \"#utility.yul\":4147:4224   */\n    tag_280:\n        /* \"#utility.yul\":4184:4191   */\n      0x00\n        /* \"#utility.yul\":4213:4218   */\n      dup2\n        /* \"#utility.yul\":4202:4218   */\n      swap1\n      pop\n        /* \"#utility.yul\":4147:4224   */\n      swap2\n      swap1\n      pop\n      jump\t// out\n        /* \"#utility.yul\":4230:4348   */\n    tag_281:\n        /* \"#utility.yul\":4317:4341   */\n      tag_371\n        /* \"#utility.yul\":4335:4340   */\n      dup2\n        /* \"#utility.yul\":4317:4341   */\n      tag_280\n      jump\t// in\n    tag_371:\n        /* \"#utility.yul\":4312:4315   */\n      dup3\n        /* \"#utility.yul\":4305:4342   */\n      mstore\n        /* \"#utility.yul\":4230:4348   */\n      pop\n      pop\n      jump\t// out\n        /* \"#utility.yul\":4354:4576   */\n    tag_28:\n        /* \"#utility.yul\":4447:4451   */\n      0x00\n        /* \"#utility.yul\":4485:4487   */\n      0x20\n        /* \"#utility.yul\":4474:4483   */\n      dup3\n        /* \"#utility.yul\":4470:4488   */\n      add\n        /* \"#utility.yul\":4462:4488   */\n      swap1\n      pop\n        /* \"#utility.yul\":4498:4569   */\n      tag_373\n        /* \"#utility.yul\":4566:4567   */\n      0x00\n        /* \"#utility.yul\":4555:4564   */\n      dup4\n        /* \"#utility.yul\":4551:4568   */\n      add\n        /* \"#utility.yul\":4542:4548   */\n      dup5\n        /* \"#utility.yul\":4498:4569   */\n      tag_281\n      jump\t// in\n    tag_373:\n        /* \"#utility.yul\":4354:4576   */\n      swap3\n      swap2\n      pop\n      pop\n      jump\t// out\n        /* \"#utility.yul\":4582:4700   */\n    tag_282:\n        /* \"#utility.yul\":4669:4693   */\n      tag_375\n        /* \"#utility.yul\":4687:4692   */\n      dup2\n        /* \"#utility.yul\":4669:4693   */\n      tag_267\n      jump\t// in\n    tag_375:\n        /* \"#utility.yul\":4664:4667   */\n      dup3\n        /* \"#utility.yul\":4657:4694   */\n      mstore\n        /* \"#utility.yul\":4582:4700   */\n      pop\n      pop\n      jump\t// out\n        /* \"#utility.yul\":4706:4928   */\n    tag_36:\n        /* \"#utility.yul\":4799:4803   */\n      0x00\n        /* \"#utility.yul\":4837:4839   */\n      0x20\n        /* \"#utility.yul\":4826:4835   */\n      dup3\n        /* \"#utility.yul\":4822:4840   */\n      add\n        /* \"#utility.yul\":4814:4840   */\n      swap1\n      pop\n        /* \"#utility.yul\":4850:4921   */\n      tag_377\n        /* \"#utility.yul\":4918:4919   */\n      0x00\n        /* \"#utility.yul\":4907:4916   */\n      dup4\n        /* \"#utility.yul\":4903:4920   */\n      add\n        /* \"#utility.yul\":4894:4900   */\n      dup5\n        /* \"#utility.yul\":4850:4921   */\n      tag_282\n      jump\t// in\n    tag_377:\n        /* \"#utility.yul\":4706:4928   */\n      swap3\n      swap2\n      pop\n      pop\n      jump\t// out\n        /* \"#utility.yul\":4934:5033   */\n    tag_283:\n        /* \"#utility.yul\":4986:4992   */\n      0x00\n        /* \"#utility.yul\":5020:5025   */\n      dup2\n        /* \"#utility.yul\":5014:5026   */\n      mload\n        /* \"#utility.yul\":5004:5026   */\n      swap1\n      pop\n        /* \"#utility.yul\":4934:5033   */\n      swap2\n      swap1\n      pop\n      jump\t// out\n        /* \"#utility.yul\":5039:5208   */\n    tag_284:\n        /* \"#utility.yul\":5123:5134   */\n      0x00\n        /* \"#utility.yul\":5157:5163   */\n      dup3\n        /* \"#utility.yul\":5152:5155   */\n      dup3\n        /* \"#utility.yul\":5145:5164   */\n      mstore\n        /* \"#utility.yul\":5197:5201   */\n      0x20\n        /* \"#utility.yul\":5192:5195   */\n      dup3\n        /* \"#utility.yul\":5188:5202   */\n      add\n        /* \"#utility.yul\":5173:5202   */\n      swap1\n      pop\n        /* \"#utility.yul\":5039:5208   */\n      swap3\n      swap2\n      pop\n      pop\n      jump\t// out\n        /* \"#utility.yul\":5214:5460   */\n    tag_285:\n        /* \"#utility.yul\":5295:5296   */\n      0x00\n        /* \"#utility.yul\":5305:5418   */\n    tag_381:\n        /* \"#utility.yul\":5319:5325   */\n      dup4\n        /* \"#utility.yul\":5316:5317   */\n      dup2\n        /* \"#utility.yul\":5313:5326   */\n      lt\n        /* \"#utility.yul\":5305:5418   */\n      iszero\n      tag_383\n      jumpi\n        /* \"#utility.yul\":5404:5405   */\n      dup1\n        /* \"#utility.yul\":5399:5402   */\n      dup3\n        /* \"#utility.yul\":5395:5406   */\n      add\n        /* \"#utility.yul\":5389:5407   */\n      mload\n        /* \"#utility.yul\":5385:5386   */\n      dup2\n        /* \"#utility.yul\":5380:5383   */\n      dup5\n        /* \"#utility.yul\":5376:5387   */\n      add\n        /* \"#utility.yul\":5369:5408   */\n      mstore\n        /* \"#utility.yul\":5341:5343   */\n      0x20\n        /* \"#utility.yul\":5338:5339   */\n      dup2\n        /* \"#utility.yul\":5334:5344   */\n      add\n        /* \"#utility.yul\":5329:5344   */\n      swap1\n      pop\n        /* \"#utility.yul\":5305:5418   */\n      jump(tag_381)\n    tag_383:\n        /* \"#utility.yul\":5452:5453   */\n      0x00\n        /* \"#utility.yul\":5443:5449   */\n      dup5\n        /* \"#utility.yul\":5438:5441   */\n      dup5\n        /* \"#utility.yul\":5434:5450   */\n      add\n        /* \"#utility.yul\":5427:5454   */\n      mstore\n        /* \"#utility.yul\":5276:5460   */\n      pop\n        /* \"#utility.yul\":5214:5460   */\n      pop\n      pop\n      pop\n      jump\t// out\n        /* \"#utility.yul\":5466:5843   */\n    tag_286:\n        /* \"#utility.yul\":5554:5557   */\n      0x00\n        /* \"#utility.yul\":5582:5621   */\n      tag_385\n        /* \"#utility.yul\":5615:5620   */\n      dup3\n        /* \"#utility.yul\":5582:5621   */\n      tag_283\n      jump\t// in\n    tag_385:\n        /* \"#utility.yul\":5637:5708   */\n      tag_386\n        /* \"#utility.yul\":5701:5707   */\n      dup2\n        /* \"#utility.yul\":5696:5699   */\n      dup6\n        /* \"#utility.yul\":5637:5708   */\n      tag_284\n      jump\t// in\n    tag_386:\n        /* \"#utility.yul\":5630:5708   */\n      swap4\n      pop\n        /* \"#utility.yul\":5717:5782   */\n      tag_387\n        /* \"#utility.yul\":5775:5781   */\n      dup2\n        /* \"#utility.yul\":5770:5773   */\n      dup6\n        /* \"#utility.yul\":5763:5767   */\n      0x20\n        /* \"#utility.yul\":5756:5761   */\n      dup7\n        /* \"#utility.yul\":5752:5768   */\n      add\n        /* \"#utility.yul\":5717:5782   */\n      tag_285\n      jump\t// in\n    tag_387:\n        /* \"#utility.yul\":5807:5836   */\n      tag_388\n        /* \"#utility.yul\":5829:5835   */\n      dup2\n        /* \"#utility.yul\":5807:5836   */\n      tag_272\n      jump\t// in\n    tag_388:\n        /* \"#utility.yul\":5802:5805   */\n      dup5\n        /* \"#utility.yul\":5798:5837   */\n      add\n        /* \"#utility.yul\":5791:5837   */\n      swap2\n      pop\n        /* \"#utility.yul\":5558:5843   */\n      pop\n        /* \"#utility.yul\":5466:5843   */\n      swap3\n      swap2\n      pop\n      pop\n      jump\t// out\n        /* \"#utility.yul\":5849:6162   */\n    tag_41:\n        /* \"#utility.yul\":5962:5966   */\n      0x00\n        /* \"#utility.yul\":6000:6002   */\n      0x20\n        /* \"#utility.yul\":5989:5998   */\n      dup3\n        /* \"#utility.yul\":5985:6003   */\n      add\n        /* \"#utility.yul\":5977:6003   */\n      swap1\n      pop\n        /* \"#utility.yul\":6049:6058   */\n      dup2\n        /* \"#utility.yul\":6043:6047   */\n      dup2\n        /* \"#utility.yul\":6039:6059   */\n      sub\n        /* \"#utility.yul\":6035:6036   */\n      0x00\n        /* \"#utility.yul\":6024:6033   */\n      dup4\n        /* \"#utility.yul\":6020:6037   */\n      add\n        /* \"#utility.yul\":6013:6060   */\n      mstore\n        /* \"#utility.yul\":6077:6155   */\n      tag_390\n        /* \"#utility.yul\":6150:6154   */\n      dup2\n        /* \"#utility.yul\":6141:6147   */\n      dup5\n        /* \"#utility.yul\":6077:6155   */\n      tag_286\n      jump\t// in\n    tag_390:\n        /* \"#utility.yul\":6069:6155   */\n      swap1\n      pop\n        /* \"#utility.yul\":5849:6162   */\n      swap3\n      swap2\n      pop\n      pop\n      jump\t// out\n        /* \"#utility.yul\":6168:6497   */\n    tag_45:\n        /* \"#utility.yul\":6227:6233   */\n      0x00\n        /* \"#utility.yul\":6276:6278   */\n      0x20\n        /* \"#utility.yul\":6264:6273   */\n      dup3\n        /* \"#utility.yul\":6255:6262   */\n      dup5\n        /* \"#utility.yul\":6251:6274   */\n      sub\n        /* \"#utility.yul\":6247:6279   */\n      slt\n        /* \"#utility.yul\":6244:6363   */\n      iszero\n      tag_392\n      jumpi\n        /* \"#utility.yul\":6282:6361   */\n      tag_393\n      tag_264\n      jump\t// in\n    tag_393:\n        /* \"#utility.yul\":6244:6363   */\n    tag_392:\n        /* \"#utility.yul\":6402:6403   */\n      0x00\n        /* \"#utility.yul\":6427:6480   */\n      tag_394\n        /* \"#utility.yul\":6472:6479   */\n      dup5\n        /* \"#utility.yul\":6463:6469   */\n      dup3\n        /* \"#utility.yul\":6452:6461   */\n      dup6\n        /* \"#utility.yul\":6448:6470   */\n      add\n        /* \"#utility.yul\":6427:6480   */\n      tag_269\n      jump\t// in\n    tag_394:\n        /* \"#utility.yul\":6417:6480   */\n      swap2\n      pop\n        /* \"#utility.yul\":6373:6490   */\n      pop\n        /* \"#utility.yul\":6168:6497   */\n      swap3\n      swap2\n      pop\n      pop\n      jump\t// out\n        /* \"#utility.yul\":6503:6607   */\n    tag_287:\n        /* \"#utility.yul\":6548:6555   */\n      0x00\n        /* \"#utility.yul\":6577:6601   */\n      tag_396\n        /* \"#utility.yul\":6595:6600   */\n      dup3\n        /* \"#utility.yul\":6577:6601   */\n      tag_266\n      jump\t// in\n    tag_396:\n        /* \"#utility.yul\":6566:6601   */\n      swap1\n      pop\n        /* \"#utility.yul\":6503:6607   */\n      swap2\n      swap1\n      pop\n      jump\t// out\n        /* \"#utility.yul\":6613:6751   */\n    tag_288:\n        /* \"#utility.yul\":6694:6726   */\n      tag_398\n        /* \"#utility.yul\":6720:6725   */\n      dup2\n        /* \"#utility.yul\":6694:6726   */\n      tag_287\n      jump\t// in\n    tag_398:\n        /* \"#utility.yul\":6687:6692   */\n      dup2\n        /* \"#utility.yul\":6684:6727   */\n      eq\n        /* \"#utility.yul\":6674:6745   */\n      tag_399\n      jumpi\n        /* \"#utility.yul\":6741:6742   */\n      0x00\n        /* \"#utility.yul\":6738:6739   */\n      dup1\n        /* \"#utility.yul\":6731:6743   */\n      revert\n        /* \"#utility.yul\":6674:6745   */\n    tag_399:\n        /* \"#utility.yul\":6613:6751   */\n      pop\n      jump\t// out\n        /* \"#utility.yul\":6757:6912   */\n    tag_289:\n        /* \"#utility.yul\":6811:6816   */\n      0x00\n        /* \"#utility.yul\":6849:6855   */\n      dup2\n        /* \"#utility.yul\":6836:6856   */\n      calldataload\n        /* \"#utility.yul\":6827:6856   */\n      swap1\n      pop\n        /* \"#utility.yul\":6865:6906   */\n      tag_401\n        /* \"#utility.yul\":6900:6905   */\n      dup2\n        /* \"#utility.yul\":6865:6906   */\n      tag_288\n      jump\t// in\n    tag_401:\n        /* \"#utility.yul\":6757:6912   */\n      swap3\n      swap2\n      pop\n      pop\n      jump\t// out\n        /* \"#utility.yul\":6918:7040   */\n    tag_290:\n        /* \"#utility.yul\":6991:7015   */\n      tag_403\n        /* \"#utility.yul\":7009:7014   */\n      dup2\n        /* \"#utility.yul\":6991:7015   */\n      tag_261\n      jump\t// in\n    tag_403:\n        /* \"#utility.yul\":6984:6989   */\n      dup2\n        /* \"#utility.yul\":6981:7016   */\n      eq\n        /* \"#utility.yul\":6971:7034   */\n      tag_404\n      jumpi\n        /* \"#utility.yul\":7030:7031   */\n      0x00\n        /* \"#utility.yul\":7027:7028   */\n      dup1\n        /* \"#utility.yul\":7020:7032   */\n      revert\n        /* \"#utility.yul\":6971:7034   */\n    tag_404:\n        /* \"#utility.yul\":6918:7040   */\n      pop\n      jump\t// out\n        /* \"#utility.yul\":7046:7185   */\n    tag_291:\n        /* \"#utility.yul\":7092:7097   */\n      0x00\n        /* \"#utility.yul\":7130:7136   */\n      dup2\n        /* \"#utility.yul\":7117:7137   */\n      calldataload\n        /* \"#utility.yul\":7108:7137   */\n      swap1\n      pop\n        /* \"#utility.yul\":7146:7179   */\n      tag_406\n        /* \"#utility.yul\":7173:7178   */\n      dup2\n        /* \"#utility.yul\":7146:7179   */\n      tag_290\n      jump\t// in\n    tag_406:\n        /* \"#utility.yul\":7046:7185   */\n      swap3\n      swap2\n      pop\n      pop\n      jump\t// out\n        /* \"#utility.yul\":7191:7681   */\n    tag_61:\n        /* \"#utility.yul\":7267:7273   */\n      0x00\n        /* \"#utility.yul\":7275:7281   */\n      dup1\n        /* \"#utility.yul\":7324:7326   */\n      0x40\n        /* \"#utility.yul\":7312:7321   */\n      dup4\n        /* \"#utility.yul\":7303:7310   */\n      dup6\n        /* \"#utility.yul\":7299:7322   */\n      sub\n        /* \"#utility.yul\":7295:7327   */\n      slt\n        /* \"#utility.yul\":7292:7411   */\n      iszero\n      tag_408\n      jumpi\n        /* \"#utility.yul\":7330:7409   */\n      tag_409\n      tag_264\n      jump\t// in\n    tag_409:\n        /* \"#utility.yul\":7292:7411   */\n    tag_408:\n        /* \"#utility.yul\":7450:7451   */\n      0x00\n        /* \"#utility.yul\":7475:7536   */\n      tag_410\n        /* \"#utility.yul\":7528:7535   */\n      dup6\n        /* \"#utility.yul\":7519:7525   */\n      dup3\n        /* \"#utility.yul\":7508:7517   */\n      dup7\n        /* \"#utility.yul\":7504:7526   */\n      add\n        /* \"#utility.yul\":7475:7536   */\n      tag_289\n      jump\t// in\n    tag_410:\n        /* \"#utility.yul\":7465:7536   */\n      swap3\n      pop\n        /* \"#utility.yul\":7421:7546   */\n      pop\n        /* \"#utility.yul\":7585:7587   */\n      0x20\n        /* \"#utility.yul\":7611:7664   */\n      tag_411\n        /* \"#utility.yul\":7656:7663   */\n      dup6\n        /* \"#utility.yul\":7647:7653   */\n      dup3\n        /* \"#utility.yul\":7636:7645   */\n      dup7\n        /* \"#utility.yul\":7632:7654   */\n      add\n        /* \"#utility.yul\":7611:7664   */\n      tag_291\n      jump\t// in\n    tag_411:\n        /* \"#utility.yul\":7601:7664   */\n      swap2\n      pop\n        /* \"#utility.yul\":7556:7674   */\n      pop\n        /* \"#utility.yul\":7191:7681   */\n      swap3\n      pop\n      swap3\n      swap1\n      pop\n      jump\t// out\n        /* \"#utility.yul\":7687:8016   */\n    tag_66:\n        /* \"#utility.yul\":7746:7752   */\n      0x00\n        /* \"#utility.yul\":7795:7797   */\n      0x20\n        /* \"#utility.yul\":7783:7792   */\n      dup3\n        /* \"#utility.yul\":7774:7781   */\n      dup5\n        /* \"#utility.yul\":7770:7793   */\n      sub\n        /* \"#utility.yul\":7766:7798   */\n      slt\n        /* \"#utility.yul\":7763:7882   */\n      iszero\n      tag_413\n      jumpi\n        /* \"#utility.yul\":7801:7880   */\n      tag_414\n      tag_264\n      jump\t// in\n    tag_414:\n        /* \"#utility.yul\":7763:7882   */\n    tag_413:\n        /* \"#utility.yul\":7921:7922   */\n      0x00\n        /* \"#utility.yul\":7946:7999   */\n      tag_415\n        /* \"#utility.yul\":7991:7998   */\n      dup5\n        /* \"#utility.yul\":7982:7988   */\n      dup3\n        /* \"#utility.yul\":7971:7980   */\n      dup6\n        /* \"#utility.yul\":7967:7989   */\n      add\n        /* \"#utility.yul\":7946:7999   */\n      tag_291\n      jump\t// in\n    tag_415:\n        /* \"#utility.yul\":7936:7999   */\n      swap2\n      pop\n        /* \"#utility.yul\":7892:8009   */\n      pop\n        /* \"#utility.yul\":7687:8016   */\n      swap3\n      swap2\n      pop\n      pop\n      jump\t// out\n        /* \"#utility.yul\":8022:8190   */\n    tag_292:\n        /* \"#utility.yul\":8162:8182   */\n      0x446f6e6174696f6e20746f6f20736d616c6c0000000000000000000000000000\n        /* \"#utility.yul\":8158:8159   */\n      0x00\n        /* \"#utility.yul\":8150:8156   */\n      dup3\n        /* \"#utility.yul\":8146:8160   */\n      add\n        /* \"#utility.yul\":8139:8183   */\n      mstore\n        /* \"#utility.yul\":8022:8190   */\n      pop\n      jump\t// out\n        /* \"#utility.yul\":8196:8562   */\n    tag_293:\n        /* \"#utility.yul\":8338:8341   */\n      0x00\n        /* \"#utility.yul\":8359:8426   */\n      tag_418\n        /* \"#utility.yul\":8423:8425   */\n      0x12\n        /* \"#utility.yul\":8418:8421   */\n      dup4\n        /* \"#utility.yul\":8359:8426   */\n      tag_284\n      jump\t// in\n    tag_418:\n        /* \"#utility.yul\":8352:8426   */\n      swap2\n      pop\n        /* \"#utility.yul\":8435:8528   */\n      tag_419\n        /* \"#utility.yul\":8524:8527   */\n      dup3\n        /* \"#utility.yul\":8435:8528   */\n      tag_292\n      jump\t// in\n    tag_419:\n        /* \"#utility.yul\":8553:8555   */\n      0x20\n        /* \"#utility.yul\":8548:8551   */\n      dup3\n        /* \"#utility.yul\":8544:8556   */\n      add\n        /* \"#utility.yul\":8537:8556   */\n      swap1\n      pop\n        /* \"#utility.yul\":8196:8562   */\n      swap2\n      swap1\n      pop\n      jump\t// out\n        /* \"#utility.yul\":8568:8987   */\n    tag_92:\n        /* \"#utility.yul\":8734:8738   */\n      0x00\n        /* \"#utility.yul\":8772:8774   */\n      0x20\n        /* \"#utility.yul\":8761:8770   */\n      dup3\n        /* \"#utility.yul\":8757:8775   */\n      add\n        /* \"#utility.yul\":8749:8775   */\n      swap1\n      pop\n        /* \"#utility.yul\":8821:8830   */\n      dup2\n        /* \"#utility.yul\":8815:8819   */\n      dup2\n        /* \"#utility.yul\":8811:8831   */\n      sub\n        /* \"#utility.yul\":8807:8808   */\n      0x00\n        /* \"#utility.yul\":8796:8805   */\n      dup4\n        /* \"#utility.yul\":8792:8809   */\n      add\n        /* \"#utility.yul\":8785:8832   */\n      mstore\n        /* \"#utility.yul\":8849:8980   */\n      tag_421\n        /* \"#utility.yul\":8975:8979   */\n      dup2\n        /* \"#utility.yul\":8849:8980   */\n      tag_293\n      jump\t// in\n    tag_421:\n        /* \"#utility.yul\":8841:8980   */\n      swap1\n      pop\n        /* \"#utility.yul\":8568:8987   */\n      swap2\n      swap1\n      pop\n      jump\t// out\n        /* \"#utility.yul\":8993:9173   */\n    tag_294:\n        /* \"#utility.yul\":9041:9118   */\n      0x4e487b7100000000000000000000000000000000000000000000000000000000\n        /* \"#utility.yul\":9038:9039   */\n      0x00\n        /* \"#utility.yul\":9031:9119   */\n      mstore\n        /* \"#utility.yul\":9138:9142   */\n      0x11\n        /* \"#utility.yul\":9135:9136   */\n      0x04\n        /* \"#utility.yul\":9128:9143   */\n      mstore\n        /* \"#utility.yul\":9162:9166   */\n      0x24\n        /* \"#utility.yul\":9159:9160   */\n      0x00\n        /* \"#utility.yul\":9152:9167   */\n      revert\n        /* \"#utility.yul\":9179:9370   */\n    tag_94:\n        /* \"#utility.yul\":9219:9222   */\n      0x00\n        /* \"#utility.yul\":9238:9258   */\n      tag_424\n        /* \"#utility.yul\":9256:9257   */\n      dup3\n        /* \"#utility.yul\":9238:9258   */\n      tag_261\n      jump\t// in\n    tag_424:\n        /* \"#utility.yul\":9233:9258   */\n      swap2\n      pop\n        /* \"#utility.yul\":9272:9292   */\n      tag_425\n        /* \"#utility.yul\":9290:9291   */\n      dup4\n        /* \"#utility.yul\":9272:9292   */\n      tag_261\n      jump\t// in\n    tag_425:\n        /* \"#utility.yul\":9267:9292   */\n      swap3\n      pop\n        /* \"#utility.yul\":9315:9316   */\n      dup3\n        /* \"#utility.yul\":9312:9313   */\n      dup3\n        /* \"#utility.yul\":9308:9317   */\n      add\n        /* \"#utility.yul\":9301:9317   */\n      swap1\n      pop\n        /* \"#utility.yul\":9336:9339   */\n      dup1\n        /* \"#utility.yul\":9333:9334   */\n      dup3\n        /* \"#utility.yul\":9330:9340   */\n      gt\n        /* \"#utility.yul\":9327:9363   */\n      iszero\n      tag_426\n      jumpi\n        /* \"#utility.yul\":9343:9361   */\n      tag_427\n      tag_294\n      jump\t// in\n    tag_427:\n        /* \"#utility.yul\":9327:9363   */\n    tag_426:\n        /* \"#utility.yul\":9179:9370   */\n      swap3\n      swap2\n      pop\n      pop\n      jump\t// out\n        /* \"#utility.yul\":9376:9543   */\n    tag_295:\n        /* \"#utility.yul\":9516:9535   */\n      0x496e76616c696420726563697069656e74000000000000000000000000000000\n        /* \"#utility.yul\":9512:9513   */\n      0x00\n        /* \"#utility.yul\":9504:9510   */\n      dup3\n        /* \"#utility.yul\":9500:9514   */\n      add\n        /* \"#utility.yul\":9493:9536   */\n      mstore\n        /* \"#utility.yul\":9376:9543   */\n      pop\n      jump\t// out\n        /* \"#utility.yul\":9549:9915   */\n    tag_296:\n        /* \"#utility.yul\":9691:9694   */\n      0x00\n        /* \"#utility.yul\":9712:9779   */\n      tag_430\n        /* \"#utility.yul\":9776:9778   */\n      0x11\n        /* \"#utility.yul\":9771:9774   */\n      dup4\n        /* \"#utility.yul\":9712:9779   */\n      tag_284\n      jump\t// in\n    tag_430:\n        /* \"#utility.yul\":9705:9779   */\n      swap2\n      pop\n        /* \"#utility.yul\":9788:9881   */\n      tag_431\n        /* \"#utility.yul\":9877:9880   */\n      dup3\n        /* \"#utility.yul\":9788:9881   */\n      tag_295\n      jump\t// in\n    tag_431:\n        /* \"#utility.yul\":9906:9908   */\n      0x20\n        /* \"#utility.yul\":9901:9904   */\n      dup3\n        /* \"#utility.yul\":9897:9909   */\n      add\n        /* \"#utility.yul\":9890:9909   */\n      swap1\n      pop\n        /* \"#utility.yul\":9549:9915   */\n      swap2\n      swap1\n      pop\n      jump\t// out\n        /* \"#utility.yul\":9921:10340   */\n    tag_111:\n        /* \"#utility.yul\":10087:10091   */\n      0x00\n        /* \"#utility.yul\":10125:10127   */\n      0x20\n        /* \"#utility.yul\":10114:10123   */\n      dup3\n        /* \"#utility.yul\":10110:10128   */\n      add\n        /* \"#utility.yul\":10102:10128   */\n      swap1\n      pop\n        /* \"#utility.yul\":10174:10183   */\n      dup2\n        /* \"#utility.yul\":10168:10172   */\n      dup2\n        /* \"#utility.yul\":10164:10184   */\n      sub\n        /* \"#utility.yul\":10160:10161   */\n      0x00\n        /* \"#utility.yul\":10149:10158   */\n      dup4\n        /* \"#utility.yul\":10145:10162   */\n      add\n        /* \"#utility.yul\":10138:10185   */\n      mstore\n        /* \"#utility.yul\":10202:10333   */\n      tag_433\n        /* \"#utility.yul\":10328:10332   */\n      dup2\n        /* \"#utility.yul\":10202:10333   */\n      tag_296\n      jump\t// in\n    tag_433:\n        /* \"#utility.yul\":10194:10333   */\n      swap1\n      pop\n        /* \"#utility.yul\":9921:10340   */\n      swap2\n      swap1\n      pop\n      jump\t// out\n        /* \"#utility.yul\":10346:10514   */\n    tag_297:\n        /* \"#utility.yul\":10486:10506   */\n      0x416d6f756e74206d757374206265203e20300000000000000000000000000000\n        /* \"#utility.yul\":10482:10483   */\n      0x00\n        /* \"#utility.yul\":10474:10480   */\n      dup3\n        /* \"#utility.yul\":10470:10484   */\n      add\n        /* \"#utility.yul\":10463:10507   */\n      mstore\n        /* \"#utility.yul\":10346:10514   */\n      pop\n      jump\t// out\n        /* \"#utility.yul\":10520:10886   */\n    tag_298:\n        /* \"#utility.yul\":10662:10665   */\n      0x00\n        /* \"#utility.yul\":10683:10750   */\n      tag_436\n        /* \"#utility.yul\":10747:10749   */\n      0x12\n        /* \"#utility.yul\":10742:10745   */\n      dup4\n        /* \"#utility.yul\":10683:10750   */\n      tag_284\n      jump\t// in\n    tag_436:\n        /* \"#utility.yul\":10676:10750   */\n      swap2\n      pop\n        /* \"#utility.yul\":10759:10852   */\n      tag_437\n        /* \"#utility.yul\":10848:10851   */\n      dup3\n        /* \"#utility.yul\":10759:10852   */\n      tag_297\n      jump\t// in\n    tag_437:\n        /* \"#utility.yul\":10877:10879   */\n      0x20\n        /* \"#utility.yul\":10872:10875   */\n      dup3\n        /* \"#utility.yul\":10868:10880   */\n      add\n        /* \"#utility.yul\":10861:10880   */\n      swap1\n      pop\n        /* \"#utility.yul\":10520:10886   */\n      swap2\n      swap1\n      pop\n      jump\t// out\n        /* \"#utility.yul\":10892:11311   */\n    tag_114:\n        /* \"#utility.yul\":11058:11062   */\n      0x00\n        /* \"#utility.yul\":11096:11098   */\n      0x20\n        /* \"#utility.yul\":11085:11094   */\n      dup3\n        /* \"#utility.yul\":11081:11099   */\n      add\n        /* \"#utility.yul\":11073:11099   */\n      swap1\n      pop\n        /* \"#utility.yul\":11145:11154   */\n      dup2\n        /* \"#utility.yul\":11139:11143   */\n      dup2\n        /* \"#utility.yul\":11135:11155   */\n      sub\n        /* \"#utility.yul\":11131:11132   */\n      0x00\n        /* \"#utility.yul\":11120:11129   */\n      dup4\n        /* \"#utility.yul\":11116:11133   */\n      add\n        /* \"#utility.yul\":11109:11156   */\n      mstore\n        /* \"#utility.yul\":11173:11304   */\n      tag_439\n        /* \"#utility.yul\":11299:11303   */\n      dup2\n        /* \"#utility.yul\":11173:11304   */\n      tag_298\n      jump\t// in\n    tag_439:\n        /* \"#utility.yul\":11165:11304   */\n      swap1\n      pop\n        /* \"#utility.yul\":10892:11311   */\n      swap2\n      swap1\n      pop\n      jump\t// out\n        /* \"#utility.yul\":11317:11481   */\n    tag_299:\n        /* \"#utility.yul\":11457:11473   */\n      0x4e6f7420656e6f75676820455448000000000000000000000000000000000000\n        /* \"#utility.yul\":11453:11454   */\n      0x00\n        /* \"#utility.yul\":11445:11451   */\n      dup3\n        /* \"#utility.yul\":11441:11455   */\n      add\n        /* \"#utility.yul\":11434:11474   */\n      mstore\n        /* \"#utility.yul\":11317:11481   */\n      pop\n      jump\t// out\n        /* \"#utility.yul\":11487:11853   */\n    tag_300:\n        /* \"#utility.yul\":11629:11632   */\n      0x00\n        /* \"#utility.yul\":11650:11717   */\n      tag_442\n        /* \"#utility.yul\":11714:11716   */\n      0x0e\n        /* \"#utility.yul\":11709:11712   */\n      dup4\n        /* \"#utility.yul\":11650:11717   */\n      tag_284\n      jump\t// in\n    tag_442:\n        /* \"#utility.yul\":11643:11717   */\n      swap2\n      pop\n        /* \"#utility.yul\":11726:11819   */\n      tag_443\n        /* \"#utility.yul\":11815:11818   */\n      dup3\n        /* \"#utility.yul\":11726:11819   */\n      tag_299\n      jump\t// in\n    tag_443:\n        /* \"#utility.yul\":11844:11846   */\n      0x20\n        /* \"#utility.yul\":11839:11842   */\n      dup3\n        /* \"#utility.yul\":11835:11847   */\n      add\n        /* \"#utility.yul\":11828:11847   */\n      swap1\n      pop\n        /* \"#utility.yul\":11487:11853   */\n      swap2\n      swap1\n      pop\n      jump\t// out\n        /* \"#utility.yul\":11859:12278   */\n    tag_117:\n        /* \"#utility.yul\":12025:12029   */\n      0x00\n        /* \"#utility.yul\":12063:12065   */\n      0x20\n        /* \"#utility.yul\":12052:12061   */\n      dup3\n        /* \"#utility.yul\":12048:12066   */\n      add\n        /* \"#utility.yul\":12040:12066   */\n      swap1\n      pop\n        /* \"#utility.yul\":12112:12121   */\n      dup2\n        /* \"#utility.yul\":12106:12110   */\n      dup2\n        /* \"#utility.yul\":12102:12122   */\n      sub\n        /* \"#utility.yul\":12098:12099   */\n      0x00\n        /* \"#utility.yul\":12087:12096   */\n      dup4\n        /* \"#utility.yul\":12083:12100   */\n      add\n        /* \"#utility.yul\":12076:12123   */\n      mstore\n        /* \"#utility.yul\":12140:12271   */\n      tag_445\n        /* \"#utility.yul\":12266:12270   */\n      dup2\n        /* \"#utility.yul\":12140:12271   */\n      tag_300\n      jump\t// in\n    tag_445:\n        /* \"#utility.yul\":12132:12271   */\n      swap1\n      pop\n        /* \"#utility.yul\":11859:12278   */\n      swap2\n      swap1\n      pop\n      jump\t// out\n        /* \"#utility.yul\":12284:12431   */\n    tag_301:\n        /* \"#utility.yul\":12385:12396   */\n      0x00\n        /* \"#utility.yul\":12422:12425   */\n      dup2\n        /* \"#utility.yul\":12407:12425   */\n      swap1\n      pop\n        /* \"#utility.yul\":12284:12431   */\n      swap3\n      swap2\n      pop\n      pop\n      jump\t// out\n        /* \"#utility.yul\":12437:12551   */\n    tag_302:\n      pop\n      jump\t// out\n        /* \"#utility.yul\":12557:12955   */\n    tag_303:\n        /* \"#utility.yul\":12716:12719   */\n      0x00\n        /* \"#utility.yul\":12737:12820   */\n      tag_449\n        /* \"#utility.yul\":12818:12819   */\n      0x00\n        /* \"#utility.yul\":12813:12816   */\n      dup4\n        /* \"#utility.yul\":12737:12820   */\n      tag_301\n      jump\t// in\n    tag_449:\n        /* \"#utility.yul\":12730:12820   */\n      swap2\n      pop\n        /* \"#utility.yul\":12829:12922   */\n      tag_450\n        /* \"#utility.yul\":12918:12921   */\n      dup3\n        /* \"#utility.yul\":12829:12922   */\n      tag_302\n      jump\t// in\n    tag_450:\n        /* \"#utility.yul\":12947:12948   */\n      0x00\n        /* \"#utility.yul\":12942:12945   */\n      dup3\n        /* \"#utility.yul\":12938:12949   */\n      add\n        /* \"#utility.yul\":12931:12949   */\n      swap1\n      pop\n        /* \"#utility.yul\":12557:12955   */\n      swap2\n      swap1\n      pop\n      jump\t// out\n        /* \"#utility.yul\":12961:13340   */\n    tag_119:\n        /* \"#utility.yul\":13145:13148   */\n      0x00\n        /* \"#utility.yul\":13167:13314   */\n      tag_452\n        /* \"#utility.yul\":13310:13313   */\n      dup3\n        /* \"#utility.yul\":13167:13314   */\n      tag_303\n      jump\t// in\n    tag_452:\n        /* \"#utility.yul\":13160:13314   */\n      swap2\n      pop\n        /* \"#utility.yul\":13331:13334   */\n      dup2\n        /* \"#utility.yul\":13324:13334   */\n      swap1\n      pop\n        /* \"#utility.yul\":12961:13340   */\n      swap2\n      swap1\n      pop\n      jump\t// out\n        /* \"#utility.yul\":13346:13511   */\n    tag_304:\n        /* \"#utility.yul\":13486:13503   */\n      0x5472616e73666572206661696c65640000000000000000000000000000000000\n        /* \"#utility.yul\":13482:13483   */\n      0x00\n        /* \"#utility.yul\":13474:13480   */\n      dup3\n        /* \"#utility.yul\":13470:13484   */\n      add\n        /* \"#utility.yul\":13463:13504   */\n      mstore\n        /* \"#utility.yul\":13346:13511   */\n      pop\n      jump\t// out\n        /* \"#utility.yul\":13517:13883   */\n    tag_305:\n        /* \"#utility.yul\":13659:13662   */\n      0x00\n        /* \"#utility.yul\":13680:13747   */\n      tag_455\n        /* \"#utility.yul\":13744:13746   */\n      0x0f\n        /* \"#utility.yul\":13739:13742   */\n      dup4\n        /* \"#utility.yul\":13680:13747   */\n      tag_284\n      jump\t// in\n    tag_455:\n        /* \"#utility.yul\":13673:13747   */\n      swap2\n      pop\n        /* \"#utility.yul\":13756:13849   */\n      tag_456\n        /* \"#utility.yul\":13845:13848   */\n      dup3\n        /* \"#utility.yul\":13756:13849   */\n      tag_304\n      jump\t// in\n    tag_456:\n        /* \"#utility.yul\":13874:13876   */\n      0x20\n        /* \"#utility.yul\":13869:13872   */\n      dup3\n        /* \"#utility.yul\":13865:13877   */\n      add\n        /* \"#utility.yul\":13858:13877   */\n      swap1\n      pop\n        /* \"#utility.yul\":13517:13883   */\n      swap2\n      swap1\n      pop\n      jump\t// out\n        /* \"#utility.yul\":13889:14308   */\n    tag_125:\n        /* \"#utility.yul\":14055:14059   */\n      0x00\n        /* \"#utility.yul\":14093:14095   */\n      0x20\n        /* \"#utility.yul\":14082:14091   */\n      dup3\n        /* \"#utility.yul\":14078:14096   */\n      add\n        /* \"#utility.yul\":14070:14096   */\n      swap1\n      pop\n        /* \"#utility.yul\":14142:14151   */\n      dup2\n        /* \"#utility.yul\":14136:14140   */\n      dup2\n        /* \"#utility.yul\":14132:14152   */\n      sub\n        /* \"#utility.yul\":14128:14129   */\n      0x00\n        /* \"#utility.yul\":14117:14126   */\n      dup4\n        /* \"#utility.yul\":14113:14130   */\n      add\n        /* \"#utility.yul\":14106:14153   */\n      mstore\n        /* \"#utility.yul\":14170:14301   */\n      tag_458\n        /* \"#utility.yul\":14296:14300   */\n      dup2\n        /* \"#utility.yul\":14170:14301   */\n      tag_305\n      jump\t// in\n    tag_458:\n        /* \"#utility.yul\":14162:14301   */\n      swap1\n      pop\n        /* \"#utility.yul\":13889:14308   */\n      swap2\n      swap1\n      pop\n      jump\t// out\n        /* \"#utility.yul\":14314:14488   */\n    tag_306:\n        /* \"#utility.yul\":14454:14480   */\n      0x4d696e20646f6e6174696f6e206d757374206265203e20300000000000000000\n        /* \"#utility.yul\":14450:14451   */\n      0x00\n        /* \"#utility.yul\":14442:14448   */\n      dup3\n        /* \"#utility.yul\":14438:14452   */\n      add\n        /* \"#utility.yul\":14431:14481   */\n      mstore\n        /* \"#utility.yul\":14314:14488   */\n      pop\n      jump\t// out\n        /* \"#utility.yul\":14494:14860   */\n    tag_307:\n        /* \"#utility.yul\":14636:14639   */\n      0x00\n        /* \"#utility.yul\":14657:14724   */\n      tag_461\n        /* \"#utility.yul\":14721:14723   */\n      0x18\n        /* \"#utility.yul\":14716:14719   */\n      dup4\n        /* \"#utility.yul\":14657:14724   */\n      tag_284\n      jump\t// in\n    tag_461:\n        /* \"#utility.yul\":14650:14724   */\n      swap2\n      pop\n        /* \"#utility.yul\":14733:14826   */\n      tag_462\n        /* \"#utility.yul\":14822:14825   */\n      dup3\n        /* \"#utility.yul\":14733:14826   */\n      tag_306\n      jump\t// in\n    tag_462:\n        /* \"#utility.yul\":14851:14853   */\n      0x20\n        /* \"#utility.yul\":14846:14849   */\n      dup3\n        /* \"#utility.yul\":14842:14854   */\n      add\n        /* \"#utility.yul\":14835:14854   */\n      swap1\n      pop\n        /* \"#utility.yul\":14494:14860   */\n      swap2\n      swap1\n      pop\n      jump\t// out\n        /* \"#utility.yul\":14866:15285   */\n    tag_140:\n        /* \"#utility.yul\":15032:15036   */\n      0x00\n        /* \"#utility.yul\":15070:15072   */\n      0x20\n        /* \"#utility.yul\":15059:15068   */\n      dup3\n        /* \"#utility.yul\":15055:15073   */\n      add\n        /* \"#utility.yul\":15047:15073   */\n      swap1\n      pop\n        /* \"#utility.yul\":15119:15128   */\n      dup2\n        /* \"#utility.yul\":15113:15117   */\n      dup2\n        /* \"#utility.yul\":15109:15129   */\n      sub\n        /* \"#utility.yul\":15105:15106   */\n      0x00\n        /* \"#utility.yul\":15094:15103   */\n      dup4\n        /* \"#utility.yul\":15090:15107   */\n      add\n        /* \"#utility.yul\":15083:15130   */\n      mstore\n        /* \"#utility.yul\":15147:15278   */\n      tag_464\n        /* \"#utility.yul\":15273:15277   */\n      dup2\n        /* \"#utility.yul\":15147:15278   */\n      tag_307\n      jump\t// in\n    tag_464:\n        /* \"#utility.yul\":15139:15278   */\n      swap1\n      pop\n        /* \"#utility.yul\":14866:15285   */\n      swap2\n      swap1\n      pop\n      jump\t// out\n        /* \"#utility.yul\":15291:15376   */\n    tag_308:\n        /* \"#utility.yul\":15336:15343   */\n      0x00\n        /* \"#utility.yul\":15365:15370   */\n      dup2\n        /* \"#utility.yul\":15354:15370   */\n      swap1\n      pop\n        /* \"#utility.yul\":15291:15376   */\n      swap2\n      swap1\n      pop\n      jump\t// out\n        /* \"#utility.yul\":15382:15483   */\n    tag_309:\n        /* \"#utility.yul\":15418:15425   */\n      0x00\n        /* \"#utility.yul\":15458:15476   */\n      0xffffffffffffffff\n        /* \"#utility.yul\":15451:15456   */\n      dup3\n        /* \"#utility.yul\":15447:15477   */\n      and\n        /* \"#utility.yul\":15436:15477   */\n      swap1\n      pop\n        /* \"#utility.yul\":15382:15483   */\n      swap2\n      swap1\n      pop\n      jump\t// out\n        /* \"#utility.yul\":15489:15549   */\n    tag_310:\n        /* \"#utility.yul\":15517:15520   */\n      0x00\n        /* \"#utility.yul\":15538:15543   */\n      dup2\n        /* \"#utility.yul\":15531:15543   */\n      swap1\n      pop\n        /* \"#utility.yul\":15489:15549   */\n      swap2\n      swap1\n      pop\n      jump\t// out\n        /* \"#utility.yul\":15555:15711   */\n    tag_311:\n        /* \"#utility.yul\":15612:15621   */\n      0x00\n        /* \"#utility.yul\":15645:15705   */\n      tag_469\n        /* \"#utility.yul\":15662:15704   */\n      tag_470\n        /* \"#utility.yul\":15671:15703   */\n      tag_471\n        /* \"#utility.yul\":15697:15702   */\n      dup5\n        /* \"#utility.yul\":15671:15703   */\n      tag_308\n      jump\t// in\n    tag_471:\n        /* \"#utility.yul\":15662:15704   */\n      tag_310\n      jump\t// in\n    tag_470:\n        /* \"#utility.yul\":15645:15705   */\n      tag_309\n      jump\t// in\n    tag_469:\n        /* \"#utility.yul\":15632:15705   */\n      swap1\n      pop\n        /* \"#utility.yul\":15555:15711   */\n      swap2\n      swap1\n      pop\n      jump\t// out\n        /* \"#utility.yul\":15717:15862   */\n    tag_312:\n        /* \"#utility.yul\":15811:15855   */\n      tag_473\n        /* \"#utility.yul\":15849:15854   */\n      dup2\n        /* \"#utility.yul\":15811:15855   */\n      tag_311\n      jump\t// in\n    tag_473:\n        /* \"#utility.yul\":15806:15809   */\n      dup3\n        /* \"#utility.yul\":15799:15856   */\n      mstore\n        /* \"#utility.yul\":15717:15862   */\n      pop\n      pop\n      jump\t// out\n        /* \"#utility.yul\":15868:16104   */\n    tag_149:\n        /* \"#utility.yul\":15968:15972   */\n      0x00\n        /* \"#utility.yul\":16006:16008   */\n      0x20\n        /* \"#utility.yul\":15995:16004   */\n      dup3\n        /* \"#utility.yul\":15991:16009   */\n      add\n        /* \"#utility.yul\":15983:16009   */\n      swap1\n      pop\n        /* \"#utility.yul\":16019:16097   */\n      tag_475\n        /* \"#utility.yul\":16094:16095   */\n      0x00\n        /* \"#utility.yul\":16083:16092   */\n      dup4\n        /* \"#utility.yul\":16079:16096   */\n      add\n        /* \"#utility.yul\":16070:16076   */\n      dup5\n        /* \"#utility.yul\":16019:16097   */\n      tag_312\n      jump\t// in\n    tag_475:\n        /* \"#utility.yul\":15868:16104   */\n      swap3\n      swap2\n      pop\n      pop\n      jump\t// out\n        /* \"#utility.yul\":16110:16232   */\n    tag_313:\n        /* \"#utility.yul\":16183:16207   */\n      tag_477\n        /* \"#utility.yul\":16201:16206   */\n      dup2\n        /* \"#utility.yul\":16183:16207   */\n      tag_280\n      jump\t// in\n    tag_477:\n        /* \"#utility.yul\":16176:16181   */\n      dup2\n        /* \"#utility.yul\":16173:16208   */\n      eq\n        /* \"#utility.yul\":16163:16226   */\n      tag_478\n      jumpi\n        /* \"#utility.yul\":16222:16223   */\n      0x00\n        /* \"#utility.yul\":16219:16220   */\n      dup1\n        /* \"#utility.yul\":16212:16224   */\n      revert\n        /* \"#utility.yul\":16163:16226   */\n    tag_478:\n        /* \"#utility.yul\":16110:16232   */\n      pop\n      jump\t// out\n        /* \"#utility.yul\":16238:16381   */\n    tag_314:\n        /* \"#utility.yul\":16295:16300   */\n      0x00\n        /* \"#utility.yul\":16326:16332   */\n      dup2\n        /* \"#utility.yul\":16320:16333   */\n      mload\n        /* \"#utility.yul\":16311:16333   */\n      swap1\n      pop\n        /* \"#utility.yul\":16342:16375   */\n      tag_480\n        /* \"#utility.yul\":16369:16374   */\n      dup2\n        /* \"#utility.yul\":16342:16375   */\n      tag_313\n      jump\t// in\n    tag_480:\n        /* \"#utility.yul\":16238:16381   */\n      swap3\n      swap2\n      pop\n      pop\n      jump\t// out\n        /* \"#utility.yul\":16387:16738   */\n    tag_161:\n        /* \"#utility.yul\":16457:16463   */\n      0x00\n        /* \"#utility.yul\":16506:16508   */\n      0x20\n        /* \"#utility.yul\":16494:16503   */\n      dup3\n        /* \"#utility.yul\":16485:16492   */\n      dup5\n        /* \"#utility.yul\":16481:16504   */\n      sub\n        /* \"#utility.yul\":16477:16509   */\n      slt\n        /* \"#utility.yul\":16474:16593   */\n      iszero\n      tag_482\n      jumpi\n        /* \"#utility.yul\":16512:16591   */\n      tag_483\n      tag_264\n      jump\t// in\n    tag_483:\n        /* \"#utility.yul\":16474:16593   */\n    tag_482:\n        /* \"#utility.yul\":16632:16633   */\n      0x00\n        /* \"#utility.yul\":16657:16721   */\n      tag_484\n        /* \"#utility.yul\":16713:16720   */\n      dup5\n        /* \"#utility.yul\":16704:16710   */\n      dup3\n        /* \"#utility.yul\":16693:16702   */\n      dup6\n        /* \"#utility.yul\":16689:16711   */\n      add\n        /* \"#utility.yul\":16657:16721   */\n      tag_314\n      jump\t// in\n    tag_484:\n        /* \"#utility.yul\":16647:16721   */\n      swap2\n      pop\n        /* \"#utility.yul\":16603:16731   */\n      pop\n        /* \"#utility.yul\":16387:16738   */\n      swap3\n      swap2\n      pop\n      pop\n      jump\t// out\n        /* \"#utility.yul\":16744:16925   */\n    tag_315:\n        /* \"#utility.yul\":16884:16917   */\n      0x5265656e7472616e637947756172643a207265656e7472616e742063616c6c00\n        /* \"#utility.yul\":16880:16881   */\n      0x00\n        /* \"#utility.yul\":16872:16878   */\n      dup3\n        /* \"#utility.yul\":16868:16882   */\n      add\n        /* \"#utility.yul\":16861:16918   */\n      mstore\n        /* \"#utility.yul\":16744:16925   */\n      pop\n      jump\t// out\n        /* \"#utility.yul\":16931:17297   */\n    tag_316:\n        /* \"#utility.yul\":17073:17076   */\n      0x00\n        /* \"#utility.yul\":17094:17161   */\n      tag_487\n        /* \"#utility.yul\":17158:17160   */\n      0x1f\n        /* \"#utility.yul\":17153:17156   */\n      dup4\n        /* \"#utility.yul\":17094:17161   */\n      tag_284\n      jump\t// in\n    tag_487:\n        /* \"#utility.yul\":17087:17161   */\n      swap2\n      pop\n        /* \"#utility.yul\":17170:17263   */\n      tag_488\n        /* \"#utility.yul\":17259:17262   */\n      dup3\n        /* \"#utility.yul\":17170:17263   */\n      tag_315\n      jump\t// in\n    tag_488:\n        /* \"#utility.yul\":17288:17290   */\n      0x20\n        /* \"#utility.yul\":17283:17286   */\n      dup3\n        /* \"#utility.yul\":17279:17291   */\n      add\n        /* \"#utility.yul\":17272:17291   */\n      swap1\n      pop\n        /* \"#utility.yul\":16931:17297   */\n      swap2\n      swap1\n      pop\n      jump\t// out\n        /* \"#utility.yul\":17303:17722   */\n    tag_187:\n        /* \"#utility.yul\":17469:17473   */\n      0x00\n        /* \"#utility.yul\":17507:17509   */\n      0x20\n        /* \"#utility.yul\":17496:17505   */\n      dup3\n        /* \"#utility.yul\":17492:17510   */\n      add\n        /* \"#utility.yul\":17484:17510   */\n      swap1\n      pop\n        /* \"#utility.yul\":17556:17565   */\n      dup2\n        /* \"#utility.yul\":17550:17554   */\n      dup2\n        /* \"#utility.yul\":17546:17566   */\n      sub\n        /* \"#utility.yul\":17542:17543   */\n      0x00\n        /* \"#utility.yul\":17531:17540   */\n      dup4\n        /* \"#utility.yul\":17527:17544   */\n      add\n        /* \"#utility.yul\":17520:17567   */\n      mstore\n        /* \"#utility.yul\":17584:17715   */\n      tag_490\n        /* \"#utility.yul\":17710:17714   */\n      dup2\n        /* \"#utility.yul\":17584:17715   */\n      tag_316\n      jump\t// in\n    tag_490:\n        /* \"#utility.yul\":17576:17715   */\n      swap1\n      pop\n        /* \"#utility.yul\":17303:17722   */\n      swap2\n      swap1\n      pop\n      jump\t// out\n        /* \"#utility.yul\":17728:17826   */\n    tag_317:\n        /* \"#utility.yul\":17779:17785   */\n      0x00\n        /* \"#utility.yul\":17813:17818   */\n      dup2\n        /* \"#utility.yul\":17807:17819   */\n      mload\n        /* \"#utility.yul\":17797:17819   */\n      swap1\n      pop\n        /* \"#utility.yul\":17728:17826   */\n      swap2\n      swap1\n      pop\n      jump\t// out\n        /* \"#utility.yul\":17832:18218   */\n    tag_318:\n        /* \"#utility.yul\":17936:17939   */\n      0x00\n        /* \"#utility.yul\":17964:18002   */\n      tag_493\n        /* \"#utility.yul\":17996:18001   */\n      dup3\n        /* \"#utility.yul\":17964:18002   */\n      tag_317\n      jump\t// in\n    tag_493:\n        /* \"#utility.yul\":18018:18106   */\n      tag_494\n        /* \"#utility.yul\":18099:18105   */\n      dup2\n        /* \"#utility.yul\":18094:18097   */\n      dup6\n        /* \"#utility.yul\":18018:18106   */\n      tag_301\n      jump\t// in\n    tag_494:\n        /* \"#utility.yul\":18011:18106   */\n      swap4\n      pop\n        /* \"#utility.yul\":18115:18180   */\n      tag_495\n        /* \"#utility.yul\":18173:18179   */\n      dup2\n        /* \"#utility.yul\":18168:18171   */\n      dup6\n        /* \"#utility.yul\":18161:18165   */\n      0x20\n        /* \"#utility.yul\":18154:18159   */\n      dup7\n        /* \"#utility.yul\":18150:18166   */\n      add\n        /* \"#utility.yul\":18115:18180   */\n      tag_285\n      jump\t// in\n    tag_495:\n        /* \"#utility.yul\":18205:18211   */\n      dup1\n        /* \"#utility.yul\":18200:18203   */\n      dup5\n        /* \"#utility.yul\":18196:18212   */\n      add\n        /* \"#utility.yul\":18189:18212   */\n      swap2\n      pop\n        /* \"#utility.yul\":17940:18218   */\n      pop\n        /* \"#utility.yul\":17832:18218   */\n      swap3\n      swap2\n      pop\n      pop\n      jump\t// out\n        /* \"#utility.yul\":18224:18495   */\n    tag_240:\n        /* \"#utility.yul\":18354:18357   */\n      0x00\n        /* \"#utility.yul\":18376:18469   */\n      tag_497\n        /* \"#utility.yul\":18465:18468   */\n      dup3\n        /* \"#utility.yul\":18456:18462   */\n      dup5\n        /* \"#utility.yul\":18376:18469   */\n      tag_318\n      jump\t// in\n    tag_497:\n        /* \"#utility.yul\":18369:18469   */\n      swap2\n      pop\n        /* \"#utility.yul\":18486:18489   */\n      dup2\n        /* \"#utility.yul\":18479:18489   */\n      swap1\n      pop\n        /* \"#utility.yul\":18224:18495   */\n      swap3\n      swap2\n      pop\n      pop\n      jump\t// out\n\n    auxdata: 0xa2646970667358221220c0feca35830e0c171ab25ca434846debb4ace33c7f4865c8c843310fe358b34a64736f6c63430008160033\n}\n",
				"bytecode": {
					"linkReferences": {},
					"object": "60a06040523073ffffffffffffffffffffffffffffffffffffffff1660809073ffffffffffffffffffffffffffffffffffffffff16815250348015610042575f80fd5b50608051611a956100695f395f81816108c3015281816109180152610ad20152611a955ff3fe6080604052600436106100a5575f3560e01c8063cdaa6b2c11610063578063cdaa6b2c14610183578063ecf20921146101bf578063ed88c68e146101e9578063f2fde38b146101f3578063f3fef3a31461021b578063fe4b84df14610243576100a5565b8062b37044146100a95780634f1ef286146100d357806352d1902d146100ef578063715018a6146101195780638da5cb5b1461012f578063ad3cb1cc14610159575b5f80fd5b3480156100b4575f80fd5b506100bd61026b565b6040516100ca91906111cd565b60405180910390f35b6100ed60048036038101906100e8919061138d565b610271565b005b3480156100fa575f80fd5b50610103610290565b60405161011091906113ff565b60405180910390f35b348015610124575f80fd5b5061012d6102c1565b005b34801561013a575f80fd5b506101436102d4565b6040516101509190611427565b60405180910390f35b348015610164575f80fd5b5061016d610309565b60405161017a91906114ba565b60405180910390f35b34801561018e575f80fd5b506101a960048036038101906101a491906114da565b610342565b6040516101b691906111cd565b60405180910390f35b3480156101ca575f80fd5b506101d3610357565b6040516101e091906111cd565b60405180910390f35b6101f161035d565b005b3480156101fe575f80fd5b50610219600480360381019061021491906114da565b61045d565b005b348015610226575f80fd5b50610241600480360381019061023c919061156a565b6104e1565b005b34801561024e575f80fd5b50610269600480360381019061026491906115a8565b6106e7565b005b60335481565b6102796108c1565b610282826109a7565b61028c82826109b2565b5050565b5f610299610ad0565b7f360894a13ba1a3210667c828492db98dca3e2076cc3735a920a3ca505d382bbc5f1b905090565b6102c9610b57565b6102d25f610bde565b565b5f806102de610caf565b9050805f015f9054906101000a900473ffffffffffffffffffffffffffffffffffffffff1691505090565b6040518060400160405280600581526020017f352e302e3000000000000000000000000000000000000000000000000000000081525081565b6034602052805f5260405f205f915090505481565b60325481565b6032543410156103a2576040517f08c379a00000000000000000000000000000000000000000000000000000000081526004016103999061161d565b60405180910390fd5b3460345f3373ffffffffffffffffffffffffffffffffffffffff1673ffffffffffffffffffffffffffffffffffffffff1681526020019081526020015f205f8282546103ee9190611668565b925050819055503460335f8282546104069190611668565b925050819055503373ffffffffffffffffffffffffffffffffffffffff167f2a01595cddf097c90216094025db714da3f4e5bd8877b56ba86a24ecead8e5433460405161045391906111cd565b60405180910390a2565b610465610b57565b5f73ffffffffffffffffffffffffffffffffffffffff168173ffffffffffffffffffffffffffffffffffffffff16036104d5575f6040517f1e4fbdf70000000000000000000000000000000000000000000000000000000081526004016104cc9190611427565b60405180910390fd5b6104de81610bde565b50565b6104e9610b57565b6104f1610cd6565b5f73ffffffffffffffffffffffffffffffffffffffff168273ffffffffffffffffffffffffffffffffffffffff160361055f576040517f08c379a0000000000000000000000000000000000000000000000000000000008152600401610556906116e5565b60405180910390fd5b5f81116105a1576040517f08c379a00000000000000000000000000000000000000000000000000000000081526004016105989061174d565b60405180910390fd5b478111156105e4576040517f08c379a00000000000000000000000000000000000000000000000000000000081526004016105db906117b5565b60405180910390fd5b5f8273ffffffffffffffffffffffffffffffffffffffff168260405161060990611800565b5f6040518083038185875af1925050503d805f8114610643576040519150601f19603f3d011682016040523d82523d5f602084013e610648565b606091505b505090508061068c576040517f08c379a00000000000000000000000000000000000000000000000000000000081526004016106839061185e565b60405180910390fd5b8273ffffffffffffffffffffffffffffffffffffffff167f7084f5476618d8e60b11ef0d7d3f06914655adb8793e28ff7f018d4c76d505d5836040516106d291906111cd565b60405180910390a2506106e3610d23565b5050565b5f6106f0610d2c565b90505f815f0160089054906101000a900460ff161590505f825f015f9054906101000a900467ffffffffffffffff1690505f808267ffffffffffffffff161480156107385750825b90505f60018367ffffffffffffffff1614801561076b57505f3073ffffffffffffffffffffffffffffffffffffffff163b145b905081158015610779575080155b156107b0576040517ff92ee8a900000000000000000000000000000000000000000000000000000000815260040160405180910390fd5b6001855f015f6101000a81548167ffffffffffffffff021916908367ffffffffffffffff16021790555083156107fd576001855f0160086101000a81548160ff0219169083151502179055505b5f861161083f576040517f08c379a0000000000000000000000000000000000000000000000000000000008152600401610836906118c6565b60405180910390fd5b61084833610d3f565b610850610d53565b610858610d65565b8560328190555083156108b9575f855f0160086101000a81548160ff0219169083151502179055507fc7f505b2f371ae2175ee4913f4499e1f2633a7b5936321eed1cdaeb6115181d260016040516108b09190611939565b60405180910390a15b505050505050565b7f000000000000000000000000000000000000000000000000000000000000000073ffffffffffffffffffffffffffffffffffffffff163073ffffffffffffffffffffffffffffffffffffffff16148061096e57507f000000000000000000000000000000000000000000000000000000000000000073ffffffffffffffffffffffffffffffffffffffff16610955610d6f565b73ffffffffffffffffffffffffffffffffffffffff1614155b156109a5576040517fe07c8dba00000000000000000000000000000000000000000000000000000000815260040160405180910390fd5b565b6109af610b57565b50565b8173ffffffffffffffffffffffffffffffffffffffff166352d1902d6040518163ffffffff1660e01b8152600401602060405180830381865afa925050508015610a1a57506040513d601f19601f82011682018060405250810190610a17919061197c565b60015b610a5b57816040517f4c9c8ce3000000000000000000000000000000000000000000000000000000008152600401610a529190611427565b60405180910390fd5b7f360894a13ba1a3210667c828492db98dca3e2076cc3735a920a3ca505d382bbc5f1b8114610ac157806040517faa1d49a4000000000000000000000000000000000000000000000000000000008152600401610ab891906113ff565b60405180910390fd5b610acb8383610dc2565b505050565b7f000000000000000000000000000000000000000000000000000000000000000073ffffffffffffffffffffffffffffffffffffffff163073ffffffffffffffffffffffffffffffffffffffff1614610b55576040517fe07c8dba00000000000000000000000000000000000000000000000000000000815260040160405180910390fd5b565b610b5f610e34565b73ffffffffffffffffffffffffffffffffffffffff16610b7d6102d4565b73ffffffffffffffffffffffffffffffffffffffff1614610bdc57610ba0610e34565b6040517f118cdaa7000000000000000000000000000000000000000000000000000000008152600401610bd39190611427565b60405180910390fd5b565b5f610be7610caf565b90505f815f015f9054906101000a900473ffffffffffffffffffffffffffffffffffffffff16905082825f015f6101000a81548173ffffffffffffffffffffffffffffffffffffffff021916908373ffffffffffffffffffffffffffffffffffffffff1602179055508273ffffffffffffffffffffffffffffffffffffffff168173ffffffffffffffffffffffffffffffffffffffff167f8be0079c531659141344cd1fd0a4f28419497f9722a3daafe3b4186f6b6457e060405160405180910390a3505050565b5f7f9016d09d72d40fdae2fd8ceac6b6234c7706214fd39c1cd1e609a0528c199300905090565b60025f5403610d1a576040517f08c379a0000000000000000000000000000000000000000000000000000000008152600401610d11906119f1565b60405180910390fd5b60025f81905550565b60015f81905550565b5f80610d36610e3b565b90508091505090565b610d47610e64565b610d5081610ea4565b50565b610d5b610e64565b610d63610f28565b565b610d6d610e64565b565b5f610d9b7f360894a13ba1a3210667c828492db98dca3e2076cc3735a920a3ca505d382bbc5f1b610f39565b5f015f9054906101000a900473ffffffffffffffffffffffffffffffffffffffff16905090565b610dcb82610f42565b8173ffffffffffffffffffffffffffffffffffffffff167fbc7cd75a20ee27fd9adebab32041f755214dbc6bffa90cc0225b39da2e5c2d3b60405160405180910390a25f81511115610e2757610e21828261100b565b50610e30565b610e2f61108b565b5b5050565b5f33905090565b5f7ff0c57e16840df040f15088dc2f81fe391c3923bec73e23a9662efc9c229c6a005f1b905090565b610e6c6110c7565b610ea2576040517fd7e6bcf800000000000000000000000000000000000000000000000000000000815260040160405180910390fd5b565b610eac610e64565b5f73ffffffffffffffffffffffffffffffffffffffff168173ffffffffffffffffffffffffffffffffffffffff1603610f1c575f6040517f1e4fbdf7000000000000000000000000000000000000000000000000000000008152600401610f139190611427565b60405180910390fd5b610f2581610bde565b50565b610f30610e64565b60015f81905550565b5f819050919050565b5f8173ffffffffffffffffffffffffffffffffffffffff163b03610f9d57806040517f4c9c8ce3000000000000000000000000000000000000000000000000000000008152600401610f949190611427565b60405180910390fd5b80610fc97f360894a13ba1a3210667c828492db98dca3e2076cc3735a920a3ca505d382bbc5f1b610f39565b5f015f6101000a81548173ffffffffffffffffffffffffffffffffffffffff021916908373ffffffffffffffffffffffffffffffffffffffff16021790555050565b60605f808473ffffffffffffffffffffffffffffffffffffffff16846040516110349190611a49565b5f60405180830381855af49150503d805f811461106c576040519150601f19603f3d011682016040523d82523d5f602084013e611071565b606091505b50915091506110818583836110e5565b9250505092915050565b5f3411156110c5576040517fb398979f00000000000000000000000000000000000000000000000000000000815260040160405180910390fd5b565b5f6110d0610d2c565b5f0160089054906101000a900460ff16905090565b6060826110fa576110f582611172565b61116a565b5f825114801561112057505f8473ffffffffffffffffffffffffffffffffffffffff163b145b1561116257836040517f9996b3150000000000000000000000000000000000000000000000000000000081526004016111599190611427565b60405180910390fd5b81905061116b565b5b9392505050565b5f8151111561118357805160208201fd5b6040517fd6bda27500000000000000000000000000000000000000000000000000000000815260040160405180910390fd5b5f819050919050565b6111c7816111b5565b82525050565b5f6020820190506111e05f8301846111be565b92915050565b5f604051905090565b5f80fd5b5f80fd5b5f73ffffffffffffffffffffffffffffffffffffffff82169050919050565b5f611220826111f7565b9050919050565b61123081611216565b811461123a575f80fd5b50565b5f8135905061124b81611227565b92915050565b5f80fd5b5f80fd5b5f601f19601f8301169050919050565b7f4e487b71000000000000000000000000000000000000000000000000000000005f52604160045260245ffd5b61129f82611259565b810181811067ffffffffffffffff821117156112be576112bd611269565b5b80604052505050565b5f6112d06111e6565b90506112dc8282611296565b919050565b5f67ffffffffffffffff8211156112fb576112fa611269565b5b61130482611259565b9050602081019050919050565b828183375f83830152505050565b5f61133161132c846112e1565b6112c7565b90508281526020810184848401111561134d5761134c611255565b5b611358848285611311565b509392505050565b5f82601f83011261137457611373611251565b5b813561138484826020860161131f565b91505092915050565b5f80604083850312156113a3576113a26111ef565b5b5f6113b08582860161123d565b925050602083013567ffffffffffffffff8111156113d1576113d06111f3565b5b6113dd85828601611360565b9150509250929050565b5f819050919050565b6113f9816113e7565b82525050565b5f6020820190506114125f8301846113f0565b92915050565b61142181611216565b82525050565b5f60208201905061143a5f830184611418565b92915050565b5f81519050919050565b5f82825260208201905092915050565b5f5b8381101561147757808201518184015260208101905061145c565b5f8484015250505050565b5f61148c82611440565b611496818561144a565b93506114a681856020860161145a565b6114af81611259565b840191505092915050565b5f6020820190508181035f8301526114d28184611482565b905092915050565b5f602082840312156114ef576114ee6111ef565b5b5f6114fc8482850161123d565b91505092915050565b5f61150f826111f7565b9050919050565b61151f81611505565b8114611529575f80fd5b50565b5f8135905061153a81611516565b92915050565b611549816111b5565b8114611553575f80fd5b50565b5f8135905061156481611540565b92915050565b5f80604083850312156115805761157f6111ef565b5b5f61158d8582860161152c565b925050602061159e85828601611556565b9150509250929050565b5f602082840312156115bd576115bc6111ef565b5b5f6115ca84828501611556565b91505092915050565b7f446f6e6174696f6e20746f6f20736d616c6c00000000000000000000000000005f82015250565b5f61160760128361144a565b9150611612826115d3565b602082019050919050565b5f6020820190508181035f830152611634816115fb565b9050919050565b7f4e487b71000000000000000000000000000000000000000000000000000000005f52601160045260245ffd5b5f611672826111b5565b915061167d836111b5565b92508282019050808211156116955761169461163b565b5b92915050565b7f496e76616c696420726563697069656e740000000000000000000000000000005f82015250565b5f6116cf60118361144a565b91506116da8261169b565b602082019050919050565b5f6020820190508181035f8301526116fc816116c3565b9050919050565b7f416d6f756e74206d757374206265203e203000000000000000000000000000005f82015250565b5f61173760128361144a565b915061174282611703565b602082019050919050565b5f6020820190508181035f8301526117648161172b565b9050919050565b7f4e6f7420656e6f756768204554480000000000000000000000000000000000005f82015250565b5f61179f600e8361144a565b91506117aa8261176b565b602082019050919050565b5f6020820190508181035f8301526117cc81611793565b9050919050565b5f81905092915050565b50565b5f6117eb5f836117d3565b91506117f6826117dd565b5f82019050919050565b5f61180a826117e0565b9150819050919050565b7f5472616e73666572206661696c656400000000000000000000000000000000005f82015250565b5f611848600f8361144a565b915061185382611814565b602082019050919050565b5f6020820190508181035f8301526118758161183c565b9050919050565b7f4d696e20646f6e6174696f6e206d757374206265203e203000000000000000005f82015250565b5f6118b060188361144a565b91506118bb8261187c565b602082019050919050565b5f6020820190508181035f8301526118dd816118a4565b9050919050565b5f819050919050565b5f67ffffffffffffffff82169050919050565b5f819050919050565b5f61192361191e611919846118e4565b611900565b6118ed565b9050919050565b61193381611909565b82525050565b5f60208201905061194c5f83018461192a565b92915050565b61195b816113e7565b8114611965575f80fd5b50565b5f8151905061197681611952565b92915050565b5f60208284031215611991576119906111ef565b5b5f61199e84828501611968565b91505092915050565b7f5265656e7472616e637947756172643a207265656e7472616e742063616c6c005f82015250565b5f6119db601f8361144a565b91506119e6826119a7565b602082019050919050565b5f6020820190508181035f830152611a08816119cf565b9050919050565b5f81519050919050565b5f611a2382611a0f565b611a2d81856117d3565b9350611a3d81856020860161145a565b80840191505092915050565b5f611a548284611a19565b91508190509291505056fea2646970667358221220c0feca35830e0c171ab25ca434846debb4ace33c7f4865c8c843310fe358b34a64736f6c63430008160033",
					"opcodes": "PUSH1 0xA0 PUSH1 0x40 MSTORE ADDRESS PUSH20 0xFFFFFFFFFFFFFFFFFFFFFFFFFFFFFFFFFFFFFFFF AND PUSH1 0x80 SWAP1 PUSH20 0xFFFFFFFFFFFFFFFFFFFFFFFFFFFFFFFFFFFFFFFF AND DUP2 MSTORE POP CALLVALUE DUP1 ISZERO PUSH2 0x42 JUMPI PUSH0 DUP1 REVERT JUMPDEST POP PUSH1 0x80 MLOAD PUSH2 0x1A95 PUSH2 0x69 PUSH0 CODECOPY PUSH0 DUP2 DUP2 PUSH2 0x8C3 ADD MSTORE DUP2 DUP2 PUSH2 0x918 ADD MSTORE PUSH2 0xAD2 ADD MSTORE PUSH2 0x1A95 PUSH0 RETURN INVALID PUSH1 0x80 PUSH1 0x40 MSTORE PUSH1 0x4 CALLDATASIZE LT PUSH2 0xA5 JUMPI PUSH0 CALLDATALOAD PUSH1 0xE0 SHR DUP1 PUSH4 0xCDAA6B2C GT PUSH2 0x63 JUMPI DUP1 PUSH4 0xCDAA6B2C EQ PUSH2 0x183 JUMPI DUP1 PUSH4 0xECF20921 EQ PUSH2 0x1BF JUMPI DUP1 PUSH4 0xED88C68E EQ PUSH2 0x1E9 JUMPI DUP1 PUSH4 0xF2FDE38B EQ PUSH2 0x1F3 JUMPI DUP1 PUSH4 0xF3FEF3A3 EQ PUSH2 0x21B JUMPI DUP1 PUSH4 0xFE4B84DF EQ PUSH2 0x243 JUMPI PUSH2 0xA5 JUMP JUMPDEST DUP1 PUSH3 0xB37044 EQ PUSH2 0xA9 JUMPI DUP1 PUSH4 0x4F1EF286 EQ PUSH2 0xD3 JUMPI DUP1 PUSH4 0x52D1902D EQ PUSH2 0xEF JUMPI DUP1 PUSH4 0x715018A6 EQ PUSH2 0x119 JUMPI DUP1 PUSH4 0x8DA5CB5B EQ PUSH2 0x12F JUMPI DUP1 PUSH4 0xAD3CB1CC EQ PUSH2 0x159 JUMPI JUMPDEST PUSH0 DUP1 REVERT JUMPDEST CALLVALUE DUP1 ISZERO PUSH2 0xB4 JUMPI PUSH0 DUP1 REVERT JUMPDEST POP PUSH2 0xBD PUSH2 0x26B JUMP JUMPDEST PUSH1 0x40 MLOAD PUSH2 0xCA SWAP2 SWAP1 PUSH2 0x11CD JUMP JUMPDEST PUSH1 0x40 MLOAD DUP1 SWAP2 SUB SWAP1 RETURN JUMPDEST PUSH2 0xED PUSH1 0x4 DUP1 CALLDATASIZE SUB DUP2 ADD SWAP1 PUSH2 0xE8 SWAP2 SWAP1 PUSH2 0x138D JUMP JUMPDEST PUSH2 0x271 JUMP JUMPDEST STOP JUMPDEST CALLVALUE DUP1 ISZERO PUSH2 0xFA JUMPI PUSH0 DUP1 REVERT JUMPDEST POP PUSH2 0x103 PUSH2 0x290 JUMP JUMPDEST PUSH1 0x40 MLOAD PUSH2 0x110 SWAP2 SWAP1 PUSH2 0x13FF JUMP JUMPDEST PUSH1 0x40 MLOAD DUP1 SWAP2 SUB SWAP1 RETURN JUMPDEST CALLVALUE DUP1 ISZERO PUSH2 0x124 JUMPI PUSH0 DUP1 REVERT JUMPDEST POP PUSH2 0x12D PUSH2 0x2C1 JUMP JUMPDEST STOP JUMPDEST CALLVALUE DUP1 ISZERO PUSH2 0x13A JUMPI PUSH0 DUP1 REVERT JUMPDEST POP PUSH2 0x143 PUSH2 0x2D4 JUMP JUMPDEST PUSH1 0x40 MLOAD PUSH2 0x150 SWAP2 SWAP1 PUSH2 0x1427 JUMP JUMPDEST PUSH1 0x40 MLOAD DUP1 SWAP2 SUB SWAP1 RETURN JUMPDEST CALLVALUE DUP1 ISZERO PUSH2 0x164 JUMPI PUSH0 DUP1 REVERT JUMPDEST POP PUSH2 0x16D PUSH2 0x309 JUMP JUMPDEST PUSH1 0x40 MLOAD PUSH2 0x17A SWAP2 SWAP1 PUSH2 0x14BA JUMP JUMPDEST PUSH1 0x40 MLOAD DUP1 SWAP2 SUB SWAP1 RETURN JUMPDEST CALLVALUE DUP1 ISZERO PUSH2 0x18E JUMPI PUSH0 DUP1 REVERT JUMPDEST POP PUSH2 0x1A9 PUSH1 0x4 DUP1 CALLDATASIZE SUB DUP2 ADD SWAP1 PUSH2 0x1A4 SWAP2 SWAP1 PUSH2 0x14DA JUMP JUMPDEST PUSH2 0x342 JUMP JUMPDEST PUSH1 0x40 MLOAD PUSH2 0x1B6 SWAP2 SWAP1 PUSH2 0x11CD JUMP JUMPDEST PUSH1 0x40 MLOAD DUP1 SWAP2 SUB SWAP1 RETURN JUMPDEST CALLVALUE DUP1 ISZERO PUSH2 0x1CA JUMPI PUSH0 DUP1 REVERT JUMPDEST POP PUSH2 0x1D3 PUSH2 0x357 JUMP JUMPDEST PUSH1 0x40 MLOAD PUSH2 0x1E0 SWAP2 SWAP1 PUSH2 0x11CD JUMP JUMPDEST PUSH1 0x40 MLOAD DUP1 SWAP2 SUB SWAP1 RETURN JUMPDEST PUSH2 0x1F1 PUSH2 0x35D JUMP JUMPDEST STOP JUMPDEST CALLVALUE DUP1 ISZERO PUSH2 0x1FE JUMPI PUSH0 DUP1 REVERT JUMPDEST POP PUSH2 0x219 PUSH1 0x4 DUP1 CALLDATASIZE SUB DUP2 ADD SWAP1 PUSH2 0x214 SWAP2 SWAP1 PUSH2 0x14DA JUMP JUMPDEST PUSH2 0x45D JUMP JUMPDEST STOP JUMPDEST CALLVALUE DUP1 ISZERO PUSH2 0x226 JUMPI PUSH0 DUP1 REVERT JUMPDEST POP PUSH2 0x241 PUSH1 0x4 DUP1 CALLDATASIZE SUB DUP2 ADD SWAP1 PUSH2 0x23C SWAP2 SWAP1 PUSH2 0x156A JUMP JUMPDEST PUSH2 0x4E1 JUMP JUMPDEST STOP JUMPDEST CALLVALUE DUP1 ISZERO PUSH2 0x24E JUMPI PUSH0 DUP1 REVERT JUMPDEST POP PUSH2 0x269 PUSH1 0x4 DUP1 CALLDATASIZE SUB DUP2 ADD SWAP1 PUSH2 0x264 SWAP2 SWAP1 PUSH2 0x15A8 JUMP JUMPDEST PUSH2 0x6E7 JUMP JUMPDEST STOP JUMPDEST PUSH1 0x33 SLOAD DUP2 JUMP JUMPDEST PUSH2 0x279 PUSH2 0x8C1 JUMP JUMPDEST PUSH2 0x282 DUP3 PUSH2 0x9A7 JUMP JUMPDEST PUSH2 0x28C DUP3 DUP3 PUSH2 0x9B2 JUMP JUMPDEST POP POP JUMP JUMPDEST PUSH0 PUSH2 0x299 PUSH2 0xAD0 JUMP JUMPDEST PUSH32 0x360894A13BA1A3210667C828492DB98DCA3E2076CC3735A920A3CA505D382BBC PUSH0 SHL SWAP1 POP SWAP1 JUMP JUMPDEST PUSH2 0x2C9 PUSH2 0xB57 JUMP JUMPDEST PUSH2 0x2D2 PUSH0 PUSH2 0xBDE JUMP JUMPDEST JUMP JUMPDEST PUSH0 DUP1 PUSH2 0x2DE PUSH2 0xCAF JUMP JUMPDEST SWAP1 POP DUP1 PUSH0 ADD PUSH0 SWAP1 SLOAD SWAP1 PUSH2 0x100 EXP SWAP1 DIV PUSH20 0xFFFFFFFFFFFFFFFFFFFFFFFFFFFFFFFFFFFFFFFF AND SWAP2 POP POP SWAP1 JUMP JUMPDEST PUSH1 0x40 MLOAD DUP1 PUSH1 0x40 ADD PUSH1 0x40 MSTORE DUP1 PUSH1 0x5 DUP2 MSTORE PUSH1 0x20 ADD PUSH32 0x352E302E30000000000000000000000000000000000000000000000000000000 DUP2 MSTORE POP DUP2 JUMP JUMPDEST PUSH1 0x34 PUSH1 0x20 MSTORE DUP1 PUSH0 MSTORE PUSH1 0x40 PUSH0 KECCAK256 PUSH0 SWAP2 POP SWAP1 POP SLOAD DUP2 JUMP JUMPDEST PUSH1 0x32 SLOAD DUP2 JUMP JUMPDEST PUSH1 0x32 SLOAD CALLVALUE LT ISZERO PUSH2 0x3A2 JUMPI PUSH1 0x40 MLOAD PUSH32 0x8C379A000000000000000000000000000000000000000000000000000000000 DUP2 MSTORE PUSH1 0x4 ADD PUSH2 0x399 SWAP1 PUSH2 0x161D JUMP JUMPDEST PUSH1 0x40 MLOAD DUP1 SWAP2 SUB SWAP1 REVERT JUMPDEST CALLVALUE PUSH1 0x34 PUSH0 CALLER PUSH20 0xFFFFFFFFFFFFFFFFFFFFFFFFFFFFFFFFFFFFFFFF AND PUSH20 0xFFFFFFFFFFFFFFFFFFFFFFFFFFFFFFFFFFFFFFFF AND DUP2 MSTORE PUSH1 0x20 ADD SWAP1 DUP2 MSTORE PUSH1 0x20 ADD PUSH0 KECCAK256 PUSH0 DUP3 DUP3 SLOAD PUSH2 0x3EE SWAP2 SWAP1 PUSH2 0x1668 JUMP JUMPDEST SWAP3 POP POP DUP2 SWAP1 SSTORE POP CALLVALUE PUSH1 0x33 PUSH0 DUP3 DUP3 SLOAD PUSH2 0x406 SWAP2 SWAP1 PUSH2 0x1668 JUMP JUMPDEST SWAP3 POP POP DUP2 SWAP1 SSTORE POP CALLER PUSH20 0xFFFFFFFFFFFFFFFFFFFFFFFFFFFFFFFFFFFFFFFF AND PUSH32 0x2A01595CDDF097C90216094025DB714DA3F4E5BD8877B56BA86A24ECEAD8E543 CALLVALUE PUSH1 0x40 MLOAD PUSH2 0x453 SWAP2 SWAP1 PUSH2 0x11CD JUMP JUMPDEST PUSH1 0x40 MLOAD DUP1 SWAP2 SUB SWAP1 LOG2 JUMP JUMPDEST PUSH2 0x465 PUSH2 0xB57 JUMP JUMPDEST PUSH0 PUSH20 0xFFFFFFFFFFFFFFFFFFFFFFFFFFFFFFFFFFFFFFFF AND DUP2 PUSH20 0xFFFFFFFFFFFFFFFFFFFFFFFFFFFFFFFFFFFFFFFF AND SUB PUSH2 0x4D5 JUMPI PUSH0 PUSH1 0x40 MLOAD PUSH32 0x1E4FBDF700000000000000000000000000000000000000000000000000000000 DUP2 MSTORE PUSH1 0x4 ADD PUSH2 0x4CC SWAP2 SWAP1 PUSH2 0x1427 JUMP JUMPDEST PUSH1 0x40 MLOAD DUP1 SWAP2 SUB SWAP1 REVERT JUMPDEST PUSH2 0x4DE DUP2 PUSH2 0xBDE JUMP JUMPDEST POP JUMP JUMPDEST PUSH2 0x4E9 PUSH2 0xB57 JUMP JUMPDEST PUSH2 0x4F1 PUSH2 0xCD6 JUMP JUMPDEST PUSH0 PUSH20 0xFFFFFFFFFFFFFFFFFFFFFFFFFFFFFFFFFFFFFFFF AND DUP3 PUSH20 0xFFFFFFFFFFFFFFFFFFFFFFFFFFFFFFFFFFFFFFFF AND SUB PUSH2 0x55F JUMPI PUSH1 0x40 MLOAD PUSH32 0x8C379A000000000000000000000000000000000000000000000000000000000 DUP2 MSTORE PUSH1 0x4 ADD PUSH2 0x556 SWAP1 PUSH2 0x16E5 JUMP JUMPDEST PUSH1 0x40 MLOAD DUP1 SWAP2 SUB SWAP1 REVERT JUMPDEST PUSH0 DUP2 GT PUSH2 0x5A1 JUMPI PUSH1 0x40 MLOAD PUSH32 0x8C379A000000000000000000000000000000000000000000000000000000000 DUP2 MSTORE PUSH1 0x4 ADD PUSH2 0x598 SWAP1 PUSH2 0x174D JUMP JUMPDEST PUSH1 0x40 MLOAD DUP1 SWAP2 SUB SWAP1 REVERT JUMPDEST SELFBALANCE DUP2 GT ISZERO PUSH2 0x5E4 JUMPI PUSH1 0x40 MLOAD PUSH32 0x8C379A000000000000000000000000000000000000000000000000000000000 DUP2 MSTORE PUSH1 0x4 ADD PUSH2 0x5DB SWAP1 PUSH2 0x17B5 JUMP JUMPDEST PUSH1 0x40 MLOAD DUP1 SWAP2 SUB SWAP1 REVERT JUMPDEST PUSH0 DUP3 PUSH20 0xFFFFFFFFFFFFFFFFFFFFFFFFFFFFFFFFFFFFFFFF AND DUP3 PUSH1 0x40 MLOAD PUSH2 0x609 SWAP1 PUSH2 0x1800 JUMP JUMPDEST PUSH0 PUSH1 0x40 MLOAD DUP1 DUP4 SUB DUP2 DUP6 DUP8 GAS CALL SWAP3 POP POP POP RETURNDATASIZE DUP1 PUSH0 DUP2 EQ PUSH2 0x643 JUMPI PUSH1 0x40 MLOAD SWAP2 POP PUSH1 0x1F NOT PUSH1 0x3F RETURNDATASIZE ADD AND DUP3 ADD PUSH1 0x40 MSTORE RETURNDATASIZE DUP3 MSTORE RETURNDATASIZE PUSH0 PUSH1 0x20 DUP5 ADD RETURNDATACOPY PUSH2 0x648 JUMP JUMPDEST PUSH1 0x60 SWAP2 POP JUMPDEST POP POP SWAP1 POP DUP1 PUSH2 0x68C JUMPI PUSH1 0x40 MLOAD PUSH32 0x8C379A000000000000000000000000000000000000000000000000000000000 DUP2 MSTORE PUSH1 0x4 ADD PUSH2 0x683 SWAP1 PUSH2 0x185E JUMP JUMPDEST PUSH1 0x40 MLOAD DUP1 SWAP2 SUB SWAP1 REVERT JUMPDEST DUP3 PUSH20 0xFFFFFFFFFFFFFFFFFFFFFFFFFFFFFFFFFFFFFFFF AND PUSH32 0x7084F5476618D8E60B11EF0D7D3F06914655ADB8793E28FF7F018D4C76D505D5 DUP4 PUSH1 0x40 MLOAD PUSH2 0x6D2 SWAP2 SWAP1 PUSH2 0x11CD JUMP JUMPDEST PUSH1 0x40 MLOAD DUP1 SWAP2 SUB SWAP1 LOG2 POP PUSH2 0x6E3 PUSH2 0xD23 JUMP JUMPDEST POP POP JUMP JUMPDEST PUSH0 PUSH2 0x6F0 PUSH2 0xD2C JUMP JUMPDEST SWAP1 POP PUSH0 DUP2 PUSH0 ADD PUSH1 0x8 SWAP1 SLOAD SWAP1 PUSH2 0x100 EXP SWAP1 DIV PUSH1 0xFF AND ISZERO SWAP1 POP PUSH0 DUP3 PUSH0 ADD PUSH0 SWAP1 SLOAD SWAP1 PUSH2 0x100 EXP SWAP1 DIV PUSH8 0xFFFFFFFFFFFFFFFF AND SWAP1 POP PUSH0 DUP1 DUP3 PUSH8 0xFFFFFFFFFFFFFFFF AND EQ DUP1 ISZERO PUSH2 0x738 JUMPI POP DUP3 JUMPDEST SWAP1 POP PUSH0 PUSH1 0x1 DUP4 PUSH8 0xFFFFFFFFFFFFFFFF AND EQ DUP1 ISZERO PUSH2 0x76B JUMPI POP PUSH0 ADDRESS PUSH20 0xFFFFFFFFFFFFFFFFFFFFFFFFFFFFFFFFFFFFFFFF AND EXTCODESIZE EQ JUMPDEST SWAP1 POP DUP2 ISZERO DUP1 ISZERO PUSH2 0x779 JUMPI POP DUP1 ISZERO JUMPDEST ISZERO PUSH2 0x7B0 JUMPI PUSH1 0x40 MLOAD PUSH32 0xF92EE8A900000000000000000000000000000000000000000000000000000000 DUP2 MSTORE PUSH1 0x4 ADD PUSH1 0x40 MLOAD DUP1 SWAP2 SUB SWAP1 REVERT JUMPDEST PUSH1 0x1 DUP6 PUSH0 ADD PUSH0 PUSH2 0x100 EXP DUP2 SLOAD DUP2 PUSH8 0xFFFFFFFFFFFFFFFF MUL NOT AND SWAP1 DUP4 PUSH8 0xFFFFFFFFFFFFFFFF AND MUL OR SWAP1 SSTORE POP DUP4 ISZERO PUSH2 0x7FD JUMPI PUSH1 0x1 DUP6 PUSH0 ADD PUSH1 0x8 PUSH2 0x100 EXP DUP2 SLOAD DUP2 PUSH1 0xFF MUL NOT AND SWAP1 DUP4 ISZERO ISZERO MUL OR SWAP1 SSTORE POP JUMPDEST PUSH0 DUP7 GT PUSH2 0x83F JUMPI PUSH1 0x40 MLOAD PUSH32 0x8C379A000000000000000000000000000000000000000000000000000000000 DUP2 MSTORE PUSH1 0x4 ADD PUSH2 0x836 SWAP1 PUSH2 0x18C6 JUMP JUMPDEST PUSH1 0x40 MLOAD DUP1 SWAP2 SUB SWAP1 REVERT JUMPDEST PUSH2 0x848 CALLER PUSH2 0xD3F JUMP JUMPDEST PUSH2 0x850 PUSH2 0xD53 JUMP JUMPDEST PUSH2 0x858 PUSH2 0xD65 JUMP JUMPDEST DUP6 PUSH1 0x32 DUP2 SWAP1 SSTORE POP DUP4 ISZERO PUSH2 0x8B9 JUMPI PUSH0 DUP6 PUSH0 ADD PUSH1 0x8 PUSH2 0x100 EXP DUP2 SLOAD DUP2 PUSH1 0xFF MUL NOT AND SWAP1 DUP4 ISZERO ISZERO MUL OR SWAP1 SSTORE POP PUSH32 0xC7F505B2F371AE2175EE4913F4499E1F2633A7B5936321EED1CDAEB6115181D2 PUSH1 0x1 PUSH1 0x40 MLOAD PUSH2 0x8B0 SWAP2 SWAP1 PUSH2 0x1939 JUMP JUMPDEST PUSH1 0x40 MLOAD DUP1 SWAP2 SUB SWAP1 LOG1 JUMPDEST POP POP POP POP POP POP JUMP JUMPDEST PUSH32 0x0 PUSH20 0xFFFFFFFFFFFFFFFFFFFFFFFFFFFFFFFFFFFFFFFF AND ADDRESS PUSH20 0xFFFFFFFFFFFFFFFFFFFFFFFFFFFFFFFFFFFFFFFF AND EQ DUP1 PUSH2 0x96E JUMPI POP PUSH32 0x0 PUSH20 0xFFFFFFFFFFFFFFFFFFFFFFFFFFFFFFFFFFFFFFFF AND PUSH2 0x955 PUSH2 0xD6F JUMP JUMPDEST PUSH20 0xFFFFFFFFFFFFFFFFFFFFFFFFFFFFFFFFFFFFFFFF AND EQ ISZERO JUMPDEST ISZERO PUSH2 0x9A5 JUMPI PUSH1 0x40 MLOAD PUSH32 0xE07C8DBA00000000000000000000000000000000000000000000000000000000 DUP2 MSTORE PUSH1 0x4 ADD PUSH1 0x40 MLOAD DUP1 SWAP2 SUB SWAP1 REVERT JUMPDEST JUMP JUMPDEST PUSH2 0x9AF PUSH2 0xB57 JUMP JUMPDEST POP JUMP JUMPDEST DUP2 PUSH20 0xFFFFFFFFFFFFFFFFFFFFFFFFFFFFFFFFFFFFFFFF AND PUSH4 0x52D1902D PUSH1 0x40 MLOAD DUP2 PUSH4 0xFFFFFFFF AND PUSH1 0xE0 SHL DUP2 MSTORE PUSH1 0x4 ADD PUSH1 0x20 PUSH1 0x40 MLOAD DUP1 DUP4 SUB DUP2 DUP7 GAS STATICCALL SWAP3 POP POP POP DUP1 ISZERO PUSH2 0xA1A JUMPI POP PUSH1 0x40 MLOAD RETURNDATASIZE PUSH1 0x1F NOT PUSH1 0x1F DUP3 ADD AND DUP3 ADD DUP1 PUSH1 0x40 MSTORE POP DUP2 ADD SWAP1 PUSH2 0xA17 SWAP2 SWAP1 PUSH2 0x197C JUMP JUMPDEST PUSH1 0x1 JUMPDEST PUSH2 0xA5B JUMPI DUP2 PUSH1 0x40 MLOAD PUSH32 0x4C9C8CE300000000000000000000000000000000000000000000000000000000 DUP2 MSTORE PUSH1 0x4 ADD PUSH2 0xA52 SWAP2 SWAP1 PUSH2 0x1427 JUMP JUMPDEST PUSH1 0x40 MLOAD DUP1 SWAP2 SUB SWAP1 REVERT JUMPDEST PUSH32 0x360894A13BA1A3210667C828492DB98DCA3E2076CC3735A920A3CA505D382BBC PUSH0 SHL DUP2 EQ PUSH2 0xAC1 JUMPI DUP1 PUSH1 0x40 MLOAD PUSH32 0xAA1D49A400000000000000000000000000000000000000000000000000000000 DUP2 MSTORE PUSH1 0x4 ADD PUSH2 0xAB8 SWAP2 SWAP1 PUSH2 0x13FF JUMP JUMPDEST PUSH1 0x40 MLOAD DUP1 SWAP2 SUB SWAP1 REVERT JUMPDEST PUSH2 0xACB DUP4 DUP4 PUSH2 0xDC2 JUMP JUMPDEST POP POP POP JUMP JUMPDEST PUSH32 0x0 PUSH20 0xFFFFFFFFFFFFFFFFFFFFFFFFFFFFFFFFFFFFFFFF AND ADDRESS PUSH20 0xFFFFFFFFFFFFFFFFFFFFFFFFFFFFFFFFFFFFFFFF AND EQ PUSH2 0xB55 JUMPI PUSH1 0x40 MLOAD PUSH32 0xE07C8DBA00000000000000000000000000000000000000000000000000000000 DUP2 MSTORE PUSH1 0x4 ADD PUSH1 0x40 MLOAD DUP1 SWAP2 SUB SWAP1 REVERT JUMPDEST JUMP JUMPDEST PUSH2 0xB5F PUSH2 0xE34 JUMP JUMPDEST PUSH20 0xFFFFFFFFFFFFFFFFFFFFFFFFFFFFFFFFFFFFFFFF AND PUSH2 0xB7D PUSH2 0x2D4 JUMP JUMPDEST PUSH20 0xFFFFFFFFFFFFFFFFFFFFFFFFFFFFFFFFFFFFFFFF AND EQ PUSH2 0xBDC JUMPI PUSH2 0xBA0 PUSH2 0xE34 JUMP JUMPDEST PUSH1 0x40 MLOAD PUSH32 0x118CDAA700000000000000000000000000000000000000000000000000000000 DUP2 MSTORE PUSH1 0x4 ADD PUSH2 0xBD3 SWAP2 SWAP1 PUSH2 0x1427 JUMP JUMPDEST PUSH1 0x40 MLOAD DUP1 SWAP2 SUB SWAP1 REVERT JUMPDEST JUMP JUMPDEST PUSH0 PUSH2 0xBE7 PUSH2 0xCAF JUMP JUMPDEST SWAP1 POP PUSH0 DUP2 PUSH0 ADD PUSH0 SWAP1 SLOAD SWAP1 PUSH2 0x100 EXP SWAP1 DIV PUSH20 0xFFFFFFFFFFFFFFFFFFFFFFFFFFFFFFFFFFFFFFFF AND SWAP1 POP DUP3 DUP3 PUSH0 ADD PUSH0 PUSH2 0x100 EXP DUP2 SLOAD DUP2 PUSH20 0xFFFFFFFFFFFFFFFFFFFFFFFFFFFFFFFFFFFFFFFF MUL NOT AND SWAP1 DUP4 PUSH20 0xFFFFFFFFFFFFFFFFFFFFFFFFFFFFFFFFFFFFFFFF AND MUL OR SWAP1 SSTORE POP DUP3 PUSH20 0xFFFFFFFFFFFFFFFFFFFFFFFFFFFFFFFFFFFFFFFF AND DUP2 PUSH20 0xFFFFFFFFFFFFFFFFFFFFFFFFFFFFFFFFFFFFFFFF AND PUSH32 0x8BE0079C531659141344CD1FD0A4F28419497F9722A3DAAFE3B4186F6B6457E0 PUSH1 0x40 MLOAD PUSH1 0x40 MLOAD DUP1 SWAP2 SUB SWAP1 LOG3 POP POP POP JUMP JUMPDEST PUSH0 PUSH32 0x9016D09D72D40FDAE2FD8CEAC6B6234C7706214FD39C1CD1E609A0528C199300 SWAP1 POP SWAP1 JUMP JUMPDEST PUSH1 0x2 PUSH0 SLOAD SUB PUSH2 0xD1A JUMPI PUSH1 0x40 MLOAD PUSH32 0x8C379A000000000000000000000000000000000000000000000000000000000 DUP2 MSTORE PUSH1 0x4 ADD PUSH2 0xD11 SWAP1 PUSH2 0x19F1 JUMP JUMPDEST PUSH1 0x40 MLOAD DUP1 SWAP2 SUB SWAP1 REVERT JUMPDEST PUSH1 0x2 PUSH0 DUP2 SWAP1 SSTORE POP JUMP JUMPDEST PUSH1 0x1 PUSH0 DUP2 SWAP1 SSTORE POP JUMP JUMPDEST PUSH0 DUP1 PUSH2 0xD36 PUSH2 0xE3B JUMP JUMPDEST SWAP1 POP DUP1 SWAP2 POP POP SWAP1 JUMP JUMPDEST PUSH2 0xD47 PUSH2 0xE64 JUMP JUMPDEST PUSH2 0xD50 DUP2 PUSH2 0xEA4 JUMP JUMPDEST POP JUMP JUMPDEST PUSH2 0xD5B PUSH2 0xE64 JUMP JUMPDEST PUSH2 0xD63 PUSH2 0xF28 JUMP JUMPDEST JUMP JUMPDEST PUSH2 0xD6D PUSH2 0xE64 JUMP JUMPDEST JUMP JUMPDEST PUSH0 PUSH2 0xD9B PUSH32 0x360894A13BA1A3210667C828492DB98DCA3E2076CC3735A920A3CA505D382BBC PUSH0 SHL PUSH2 0xF39 JUMP JUMPDEST PUSH0 ADD PUSH0 SWAP1 SLOAD SWAP1 PUSH2 0x100 EXP SWAP1 DIV PUSH20 0xFFFFFFFFFFFFFFFFFFFFFFFFFFFFFFFFFFFFFFFF AND SWAP1 POP SWAP1 JUMP JUMPDEST PUSH2 0xDCB DUP3 PUSH2 0xF42 JUMP JUMPDEST DUP2 PUSH20 0xFFFFFFFFFFFFFFFFFFFFFFFFFFFFFFFFFFFFFFFF AND PUSH32 0xBC7CD75A20EE27FD9ADEBAB32041F755214DBC6BFFA90CC0225B39DA2E5C2D3B PUSH1 0x40 MLOAD PUSH1 0x40 MLOAD DUP1 SWAP2 SUB SWAP1 LOG2 PUSH0 DUP2 MLOAD GT ISZERO PUSH2 0xE27 JUMPI PUSH2 0xE21 DUP3 DUP3 PUSH2 0x100B JUMP JUMPDEST POP PUSH2 0xE30 JUMP JUMPDEST PUSH2 0xE2F PUSH2 0x108B JUMP JUMPDEST JUMPDEST POP POP JUMP JUMPDEST PUSH0 CALLER SWAP1 POP SWAP1 JUMP JUMPDEST PUSH0 PUSH32 0xF0C57E16840DF040F15088DC2F81FE391C3923BEC73E23A9662EFC9C229C6A00 PUSH0 SHL SWAP1 POP SWAP1 JUMP JUMPDEST PUSH2 0xE6C PUSH2 0x10C7 JUMP JUMPDEST PUSH2 0xEA2 JUMPI PUSH1 0x40 MLOAD PUSH32 0xD7E6BCF800000000000000000000000000000000000000000000000000000000 DUP2 MSTORE PUSH1 0x4 ADD PUSH1 0x40 MLOAD DUP1 SWAP2 SUB SWAP1 REVERT JUMPDEST JUMP JUMPDEST PUSH2 0xEAC PUSH2 0xE64 JUMP JUMPDEST PUSH0 PUSH20 0xFFFFFFFFFFFFFFFFFFFFFFFFFFFFFFFFFFFFFFFF AND DUP2 PUSH20 0xFFFFFFFFFFFFFFFFFFFFFFFFFFFFFFFFFFFFFFFF AND SUB PUSH2 0xF1C JUMPI PUSH0 PUSH1 0x40 MLOAD PUSH32 0x1E4FBDF700000000000000000000000000000000000000000000000000000000 DUP2 MSTORE PUSH1 0x4 ADD PUSH2 0xF13 SWAP2 SWAP1 PUSH2 0x1427 JUMP JUMPDEST PUSH1 0x40 MLOAD DUP1 SWAP2 SUB SWAP1 REVERT JUMPDEST PUSH2 0xF25 DUP2 PUSH2 0xBDE JUMP JUMPDEST POP JUMP JUMPDEST PUSH2 0xF30 PUSH2 0xE64 JUMP JUMPDEST PUSH1 0x1 PUSH0 DUP2 SWAP1 SSTORE POP JUMP JUMPDEST PUSH0 DUP2 SWAP1 POP SWAP2 SWAP1 POP JUMP JUMPDEST PUSH0 DUP2 PUSH20 0xFFFFFFFFFFFFFFFFFFFFFFFFFFFFFFFFFFFFFFFF AND EXTCODESIZE SUB PUSH2 0xF9D JUMPI DUP1 PUSH1 0x40 MLOAD PUSH32 0x4C9C8CE300000000000000000000000000000000000000000000000000000000 DUP2 MSTORE PUSH1 0x4 ADD PUSH2 0xF94 SWAP2 SWAP1 PUSH2 0x1427 JUMP JUMPDEST PUSH1 0x40 MLOAD DUP1 SWAP2 SUB SWAP1 REVERT JUMPDEST DUP1 PUSH2 0xFC9 PUSH32 0x360894A13BA1A3210667C828492DB98DCA3E2076CC3735A920A3CA505D382BBC PUSH0 SHL PUSH2 0xF39 JUMP JUMPDEST PUSH0 ADD PUSH0 PUSH2 0x100 EXP DUP2 SLOAD DUP2 PUSH20 0xFFFFFFFFFFFFFFFFFFFFFFFFFFFFFFFFFFFFFFFF MUL NOT AND SWAP1 DUP4 PUSH20 0xFFFFFFFFFFFFFFFFFFFFFFFFFFFFFFFFFFFFFFFF AND MUL OR SWAP1 SSTORE POP POP JUMP JUMPDEST PUSH1 0x60 PUSH0 DUP1 DUP5 PUSH20 0xFFFFFFFFFFFFFFFFFFFFFFFFFFFFFFFFFFFFFFFF AND DUP5 PUSH1 0x40 MLOAD PUSH2 0x1034 SWAP2 SWAP1 PUSH2 0x1A49 JUMP JUMPDEST PUSH0 PUSH1 0x40 MLOAD DUP1 DUP4 SUB DUP2 DUP6 GAS DELEGATECALL SWAP2 POP POP RETURNDATASIZE DUP1 PUSH0 DUP2 EQ PUSH2 0x106C JUMPI PUSH1 0x40 MLOAD SWAP2 POP PUSH1 0x1F NOT PUSH1 0x3F RETURNDATASIZE ADD AND DUP3 ADD PUSH1 0x40 MSTORE RETURNDATASIZE DUP3 MSTORE RETURNDATASIZE PUSH0 PUSH1 0x20 DUP5 ADD RETURNDATACOPY PUSH2 0x1071 JUMP JUMPDEST PUSH1 0x60 SWAP2 POP JUMPDEST POP SWAP2 POP SWAP2 POP PUSH2 0x1081 DUP6 DUP4 DUP4 PUSH2 0x10E5 JUMP JUMPDEST SWAP3 POP POP POP SWAP3 SWAP2 POP POP JUMP JUMPDEST PUSH0 CALLVALUE GT ISZERO PUSH2 0x10C5 JUMPI PUSH1 0x40 MLOAD PUSH32 0xB398979F00000000000000000000000000000000000000000000000000000000 DUP2 MSTORE PUSH1 0x4 ADD PUSH1 0x40 MLOAD DUP1 SWAP2 SUB SWAP1 REVERT JUMPDEST JUMP JUMPDEST PUSH0 PUSH2 0x10D0 PUSH2 0xD2C JUMP JUMPDEST PUSH0 ADD PUSH1 0x8 SWAP1 SLOAD SWAP1 PUSH2 0x100 EXP SWAP1 DIV PUSH1 0xFF AND SWAP1 POP SWAP1 JUMP JUMPDEST PUSH1 0x60 DUP3 PUSH2 0x10FA JUMPI PUSH2 0x10F5 DUP3 PUSH2 0x1172 JUMP JUMPDEST PUSH2 0x116A JUMP JUMPDEST PUSH0 DUP3 MLOAD EQ DUP1 ISZERO PUSH2 0x1120 JUMPI POP PUSH0 DUP5 PUSH20 0xFFFFFFFFFFFFFFFFFFFFFFFFFFFFFFFFFFFFFFFF AND EXTCODESIZE EQ JUMPDEST ISZERO PUSH2 0x1162 JUMPI DUP4 PUSH1 0x40 MLOAD PUSH32 0x9996B31500000000000000000000000000000000000000000000000000000000 DUP2 MSTORE PUSH1 0x4 ADD PUSH2 0x1159 SWAP2 SWAP1 PUSH2 0x1427 JUMP JUMPDEST PUSH1 0x40 MLOAD DUP1 SWAP2 SUB SWAP1 REVERT JUMPDEST DUP2 SWAP1 POP PUSH2 0x116B JUMP JUMPDEST JUMPDEST SWAP4 SWAP3 POP POP POP JUMP JUMPDEST PUSH0 DUP2 MLOAD GT ISZERO PUSH2 0x1183 JUMPI DUP1 MLOAD PUSH1 0x20 DUP3 ADD REVERT JUMPDEST PUSH1 0x40 MLOAD PUSH32 0xD6BDA27500000000000000000000000000000000000000000000000000000000 DUP2 MSTORE PUSH1 0x4 ADD PUSH1 0x40 MLOAD DUP1 SWAP2 SUB SWAP1 REVERT JUMPDEST PUSH0 DUP2 SWAP1 POP SWAP2 SWAP1 POP JUMP JUMPDEST PUSH2 0x11C7 DUP2 PUSH2 0x11B5 JUMP JUMPDEST DUP3 MSTORE POP POP JUMP JUMPDEST PUSH0 PUSH1 0x20 DUP3 ADD SWAP1 POP PUSH2 0x11E0 PUSH0 DUP4 ADD DUP5 PUSH2 0x11BE JUMP JUMPDEST SWAP3 SWAP2 POP POP JUMP JUMPDEST PUSH0 PUSH1 0x40 MLOAD SWAP1 POP SWAP1 JUMP JUMPDEST PUSH0 DUP1 REVERT JUMPDEST PUSH0 DUP1 REVERT JUMPDEST PUSH0 PUSH20 0xFFFFFFFFFFFFFFFFFFFFFFFFFFFFFFFFFFFFFFFF DUP3 AND SWAP1 POP SWAP2 SWAP1 POP JUMP JUMPDEST PUSH0 PUSH2 0x1220 DUP3 PUSH2 0x11F7 JUMP JUMPDEST SWAP1 POP SWAP2 SWAP1 POP JUMP JUMPDEST PUSH2 0x1230 DUP2 PUSH2 0x1216 JUMP JUMPDEST DUP2 EQ PUSH2 0x123A JUMPI PUSH0 DUP1 REVERT JUMPDEST POP JUMP JUMPDEST PUSH0 DUP2 CALLDATALOAD SWAP1 POP PUSH2 0x124B DUP2 PUSH2 0x1227 JUMP JUMPDEST SWAP3 SWAP2 POP POP JUMP JUMPDEST PUSH0 DUP1 REVERT JUMPDEST PUSH0 DUP1 REVERT JUMPDEST PUSH0 PUSH1 0x1F NOT PUSH1 0x1F DUP4 ADD AND SWAP1 POP SWAP2 SWAP1 POP JUMP JUMPDEST PUSH32 0x4E487B7100000000000000000000000000000000000000000000000000000000 PUSH0 MSTORE PUSH1 0x41 PUSH1 0x4 MSTORE PUSH1 0x24 PUSH0 REVERT JUMPDEST PUSH2 0x129F DUP3 PUSH2 0x1259 JUMP JUMPDEST DUP2 ADD DUP2 DUP2 LT PUSH8 0xFFFFFFFFFFFFFFFF DUP3 GT OR ISZERO PUSH2 0x12BE JUMPI PUSH2 0x12BD PUSH2 0x1269 JUMP JUMPDEST JUMPDEST DUP1 PUSH1 0x40 MSTORE POP POP POP JUMP JUMPDEST PUSH0 PUSH2 0x12D0 PUSH2 0x11E6 JUMP JUMPDEST SWAP1 POP PUSH2 0x12DC DUP3 DUP3 PUSH2 0x1296 JUMP JUMPDEST SWAP2 SWAP1 POP JUMP JUMPDEST PUSH0 PUSH8 0xFFFFFFFFFFFFFFFF DUP3 GT ISZERO PUSH2 0x12FB JUMPI PUSH2 0x12FA PUSH2 0x1269 JUMP JUMPDEST JUMPDEST PUSH2 0x1304 DUP3 PUSH2 0x1259 JUMP JUMPDEST SWAP1 POP PUSH1 0x20 DUP2 ADD SWAP1 POP SWAP2 SWAP1 POP JUMP JUMPDEST DUP3 DUP2 DUP4 CALLDATACOPY PUSH0 DUP4 DUP4 ADD MSTORE POP POP POP JUMP JUMPDEST PUSH0 PUSH2 0x1331 PUSH2 0x132C DUP5 PUSH2 0x12E1 JUMP JUMPDEST PUSH2 0x12C7 JUMP JUMPDEST SWAP1 POP DUP3 DUP2 MSTORE PUSH1 0x20 DUP2 ADD DUP5 DUP5 DUP5 ADD GT ISZERO PUSH2 0x134D JUMPI PUSH2 0x134C PUSH2 0x1255 JUMP JUMPDEST JUMPDEST PUSH2 0x1358 DUP5 DUP3 DUP6 PUSH2 0x1311 JUMP JUMPDEST POP SWAP4 SWAP3 POP POP POP JUMP JUMPDEST PUSH0 DUP3 PUSH1 0x1F DUP4 ADD SLT PUSH2 0x1374 JUMPI PUSH2 0x1373 PUSH2 0x1251 JUMP JUMPDEST JUMPDEST DUP2 CALLDATALOAD PUSH2 0x1384 DUP5 DUP3 PUSH1 0x20 DUP7 ADD PUSH2 0x131F JUMP JUMPDEST SWAP2 POP POP SWAP3 SWAP2 POP POP JUMP JUMPDEST PUSH0 DUP1 PUSH1 0x40 DUP4 DUP6 SUB SLT ISZERO PUSH2 0x13A3 JUMPI PUSH2 0x13A2 PUSH2 0x11EF JUMP JUMPDEST JUMPDEST PUSH0 PUSH2 0x13B0 DUP6 DUP3 DUP7 ADD PUSH2 0x123D JUMP JUMPDEST SWAP3 POP POP PUSH1 0x20 DUP4 ADD CALLDATALOAD PUSH8 0xFFFFFFFFFFFFFFFF DUP2 GT ISZERO PUSH2 0x13D1 JUMPI PUSH2 0x13D0 PUSH2 0x11F3 JUMP JUMPDEST JUMPDEST PUSH2 0x13DD DUP6 DUP3 DUP7 ADD PUSH2 0x1360 JUMP JUMPDEST SWAP2 POP POP SWAP3 POP SWAP3 SWAP1 POP JUMP JUMPDEST PUSH0 DUP2 SWAP1 POP SWAP2 SWAP1 POP JUMP JUMPDEST PUSH2 0x13F9 DUP2 PUSH2 0x13E7 JUMP JUMPDEST DUP3 MSTORE POP POP JUMP JUMPDEST PUSH0 PUSH1 0x20 DUP3 ADD SWAP1 POP PUSH2 0x1412 PUSH0 DUP4 ADD DUP5 PUSH2 0x13F0 JUMP JUMPDEST SWAP3 SWAP2 POP POP JUMP JUMPDEST PUSH2 0x1421 DUP2 PUSH2 0x1216 JUMP JUMPDEST DUP3 MSTORE POP POP JUMP JUMPDEST PUSH0 PUSH1 0x20 DUP3 ADD SWAP1 POP PUSH2 0x143A PUSH0 DUP4 ADD DUP5 PUSH2 0x1418 JUMP JUMPDEST SWAP3 SWAP2 POP POP JUMP JUMPDEST PUSH0 DUP2 MLOAD SWAP1 POP SWAP2 SWAP1 POP JUMP JUMPDEST PUSH0 DUP3 DUP3 MSTORE PUSH1 0x20 DUP3 ADD SWAP1 POP SWAP3 SWAP2 POP POP JUMP JUMPDEST PUSH0 JUMPDEST DUP4 DUP2 LT ISZERO PUSH2 0x1477 JUMPI DUP1 DUP3 ADD MLOAD DUP2 DUP5 ADD MSTORE PUSH1 0x20 DUP2 ADD SWAP1 POP PUSH2 0x145C JUMP JUMPDEST PUSH0 DUP5 DUP5 ADD MSTORE POP POP POP POP JUMP JUMPDEST PUSH0 PUSH2 0x148C DUP3 PUSH2 0x1440 JUMP JUMPDEST PUSH2 0x1496 DUP2 DUP6 PUSH2 0x144A JUMP JUMPDEST SWAP4 POP PUSH2 0x14A6 DUP2 DUP6 PUSH1 0x20 DUP7 ADD PUSH2 0x145A JUMP JUMPDEST PUSH2 0x14AF DUP2 PUSH2 0x1259 JUMP JUMPDEST DUP5 ADD SWAP2 POP POP SWAP3 SWAP2 POP POP JUMP JUMPDEST PUSH0 PUSH1 0x20 DUP3 ADD SWAP1 POP DUP2 DUP2 SUB PUSH0 DUP4 ADD MSTORE PUSH2 0x14D2 DUP2 DUP5 PUSH2 0x1482 JUMP JUMPDEST SWAP1 POP SWAP3 SWAP2 POP POP JUMP JUMPDEST PUSH0 PUSH1 0x20 DUP3 DUP5 SUB SLT ISZERO PUSH2 0x14EF JUMPI PUSH2 0x14EE PUSH2 0x11EF JUMP JUMPDEST JUMPDEST PUSH0 PUSH2 0x14FC DUP5 DUP3 DUP6 ADD PUSH2 0x123D JUMP JUMPDEST SWAP2 POP POP SWAP3 SWAP2 POP POP JUMP JUMPDEST PUSH0 PUSH2 0x150F DUP3 PUSH2 0x11F7 JUMP JUMPDEST SWAP1 POP SWAP2 SWAP1 POP JUMP JUMPDEST PUSH2 0x151F DUP2 PUSH2 0x1505 JUMP JUMPDEST DUP2 EQ PUSH2 0x1529 JUMPI PUSH0 DUP1 REVERT JUMPDEST POP JUMP JUMPDEST PUSH0 DUP2 CALLDATALOAD SWAP1 POP PUSH2 0x153A DUP2 PUSH2 0x1516 JUMP JUMPDEST SWAP3 SWAP2 POP POP JUMP JUMPDEST PUSH2 0x1549 DUP2 PUSH2 0x11B5 JUMP JUMPDEST DUP2 EQ PUSH2 0x1553 JUMPI PUSH0 DUP1 REVERT JUMPDEST POP JUMP JUMPDEST PUSH0 DUP2 CALLDATALOAD SWAP1 POP PUSH2 0x1564 DUP2 PUSH2 0x1540 JUMP JUMPDEST SWAP3 SWAP2 POP POP JUMP JUMPDEST PUSH0 DUP1 PUSH1 0x40 DUP4 DUP6 SUB SLT ISZERO PUSH2 0x1580 JUMPI PUSH2 0x157F PUSH2 0x11EF JUMP JUMPDEST JUMPDEST PUSH0 PUSH2 0x158D DUP6 DUP3 DUP7 ADD PUSH2 0x152C JUMP JUMPDEST SWAP3 POP POP PUSH1 0x20 PUSH2 0x159E DUP6 DUP3 DUP7 ADD PUSH2 0x1556 JUMP JUMPDEST SWAP2 POP POP SWAP3 POP SWAP3 SWAP1 POP JUMP JUMPDEST PUSH0 PUSH1 0x20 DUP3 DUP5 SUB SLT ISZERO PUSH2 0x15BD JUMPI PUSH2 0x15BC PUSH2 0x11EF JUMP JUMPDEST JUMPDEST PUSH0 PUSH2 0x15CA DUP5 DUP3 DUP6 ADD PUSH2 0x1556 JUMP JUMPDEST SWAP2 POP POP SWAP3 SWAP2 POP POP JUMP JUMPDEST PUSH32 0x446F6E6174696F6E20746F6F20736D616C6C0000000000000000000000000000 PUSH0 DUP3 ADD MSTORE POP JUMP JUMPDEST PUSH0 PUSH2 0x1607 PUSH1 0x12 DUP4 PUSH2 0x144A JUMP JUMPDEST SWAP2 POP PUSH2 0x1612 DUP3 PUSH2 0x15D3 JUMP JUMPDEST PUSH1 0x20 DUP3 ADD SWAP1 POP SWAP2 SWAP1 POP JUMP JUMPDEST PUSH0 PUSH1 0x20 DUP3 ADD SWAP1 POP DUP2 DUP2 SUB PUSH0 DUP4 ADD MSTORE PUSH2 0x1634 DUP2 PUSH2 0x15FB JUMP JUMPDEST SWAP1 POP SWAP2 SWAP1 POP JUMP JUMPDEST PUSH32 0x4E487B7100000000000000000000000000000000000000000000000000000000 PUSH0 MSTORE PUSH1 0x11 PUSH1 0x4 MSTORE PUSH1 0x24 PUSH0 REVERT JUMPDEST PUSH0 PUSH2 0x1672 DUP3 PUSH2 0x11B5 JUMP JUMPDEST SWAP2 POP PUSH2 0x167D DUP4 PUSH2 0x11B5 JUMP JUMPDEST SWAP3 POP DUP3 DUP3 ADD SWAP1 POP DUP1 DUP3 GT ISZERO PUSH2 0x1695 JUMPI PUSH2 0x1694 PUSH2 0x163B JUMP JUMPDEST JUMPDEST SWAP3 SWAP2 POP POP JUMP JUMPDEST PUSH32 0x496E76616C696420726563697069656E74000000000000000000000000000000 PUSH0 DUP3 ADD MSTORE POP JUMP JUMPDEST PUSH0 PUSH2 0x16CF PUSH1 0x11 DUP4 PUSH2 0x144A JUMP JUMPDEST SWAP2 POP PUSH2 0x16DA DUP3 PUSH2 0x169B JUMP JUMPDEST PUSH1 0x20 DUP3 ADD SWAP1 POP SWAP2 SWAP1 POP JUMP JUMPDEST PUSH0 PUSH1 0x20 DUP3 ADD SWAP1 POP DUP2 DUP2 SUB PUSH0 DUP4 ADD MSTORE PUSH2 0x16FC DUP2 PUSH2 0x16C3 JUMP JUMPDEST SWAP1 POP SWAP2 SWAP1 POP JUMP JUMPDEST PUSH32 0x416D6F756E74206D757374206265203E20300000000000000000000000000000 PUSH0 DUP3 ADD MSTORE POP JUMP JUMPDEST PUSH0 PUSH2 0x1737 PUSH1 0x12 DUP4 PUSH2 0x144A JUMP JUMPDEST SWAP2 POP PUSH2 0x1742 DUP3 PUSH2 0x1703 JUMP JUMPDEST PUSH1 0x20 DUP3 ADD SWAP1 POP SWAP2 SWAP1 POP JUMP JUMPDEST PUSH0 PUSH1 0x20 DUP3 ADD SWAP1 POP DUP2 DUP2 SUB PUSH0 DUP4 ADD MSTORE PUSH2 0x1764 DUP2 PUSH2 0x172B JUMP JUMPDEST SWAP1 POP SWAP2 SWAP1 POP JUMP JUMPDEST PUSH32 0x4E6F7420656E6F75676820455448000000000000000000000000000000000000 PUSH0 DUP3 ADD MSTORE POP JUMP JUMPDEST PUSH0 PUSH2 0x179F PUSH1 0xE DUP4 PUSH2 0x144A JUMP JUMPDEST SWAP2 POP PUSH2 0x17AA DUP3 PUSH2 0x176B JUMP JUMPDEST PUSH1 0x20 DUP3 ADD SWAP1 POP SWAP2 SWAP1 POP JUMP JUMPDEST PUSH0 PUSH1 0x20 DUP3 ADD SWAP1 POP DUP2 DUP2 SUB PUSH0 DUP4 ADD MSTORE PUSH2 0x17CC DUP2 PUSH2 0x1793 JUMP JUMPDEST SWAP1 POP SWAP2 SWAP1 POP JUMP JUMPDEST PUSH0 DUP2 SWAP1 POP SWAP3 SWAP2 POP POP JUMP JUMPDEST POP JUMP JUMPDEST PUSH0 PUSH2 0x17EB PUSH0 DUP4 PUSH2 0x17D3 JUMP JUMPDEST SWAP2 POP PUSH2 0x17F6 DUP3 PUSH2 0x17DD JUMP JUMPDEST PUSH0 DUP3 ADD SWAP1 POP SWAP2 SWAP1 POP JUMP JUMPDEST PUSH0 PUSH2 0x180A DUP3 PUSH2 0x17E0 JUMP JUMPDEST SWAP2 POP DUP2 SWAP1 POP SWAP2 SWAP1 POP JUMP JUMPDEST PUSH32 0x5472616E73666572206661696C65640000000000000000000000000000000000 PUSH0 DUP3 ADD MSTORE POP JUMP JUMPDEST PUSH0 PUSH2 0x1848 PUSH1 0xF DUP4 PUSH2 0x144A JUMP JUMPDEST SWAP2 POP PUSH2 0x1853 DUP3 PUSH2 0x1814 JUMP JUMPDEST PUSH1 0x20 DUP3 ADD SWAP1 POP SWAP2 SWAP1 POP JUMP JUMPDEST PUSH0 PUSH1 0x20 DUP3 ADD SWAP1 POP DUP2 DUP2 SUB PUSH0 DUP4 ADD MSTORE PUSH2 0x1875 DUP2 PUSH2 0x183C JUMP JUMPDEST SWAP1 POP SWAP2 SWAP1 POP JUMP JUMPDEST PUSH32 0x4D696E20646F6E6174696F6E206D757374206265203E20300000000000000000 PUSH0 DUP3 ADD MSTORE POP JUMP JUMPDEST PUSH0 PUSH2 0x18B0 PUSH1 0x18 DUP4 PUSH2 0x144A JUMP JUMPDEST SWAP2 POP PUSH2 0x18BB DUP3 PUSH2 0x187C JUMP JUMPDEST PUSH1 0x20 DUP3 ADD SWAP1 POP SWAP2 SWAP1 POP JUMP JUMPDEST PUSH0 PUSH1 0x20 DUP3 ADD SWAP1 POP DUP2 DUP2 SUB PUSH0 DUP4 ADD MSTORE PUSH2 0x18DD DUP2 PUSH2 0x18A4 JUMP JUMPDEST SWAP1 POP SWAP2 SWAP1 POP JUMP JUMPDEST PUSH0 DUP2 SWAP1 POP SWAP2 SWAP1 POP JUMP JUMPDEST PUSH0 PUSH8 0xFFFFFFFFFFFFFFFF DUP3 AND SWAP1 POP SWAP2 SWAP1 POP JUMP JUMPDEST PUSH0 DUP2 SWAP1 POP SWAP2 SWAP1 POP JUMP JUMPDEST PUSH0 PUSH2 0x1923 PUSH2 0x191E PUSH2 0x1919 DUP5 PUSH2 0x18E4 JUMP JUMPDEST PUSH2 0x1900 JUMP JUMPDEST PUSH2 0x18ED JUMP JUMPDEST SWAP1 POP SWAP2 SWAP1 POP JUMP JUMPDEST PUSH2 0x1933 DUP2 PUSH2 0x1909 JUMP JUMPDEST DUP3 MSTORE POP POP JUMP JUMPDEST PUSH0 PUSH1 0x20 DUP3 ADD SWAP1 POP PUSH2 0x194C PUSH0 DUP4 ADD DUP5 PUSH2 0x192A JUMP JUMPDEST SWAP3 SWAP2 POP POP JUMP JUMPDEST PUSH2 0x195B DUP2 PUSH2 0x13E7 JUMP JUMPDEST DUP2 EQ PUSH2 0x1965 JUMPI PUSH0 DUP1 REVERT JUMPDEST POP JUMP JUMPDEST PUSH0 DUP2 MLOAD SWAP1 POP PUSH2 0x1976 DUP2 PUSH2 0x1952 JUMP JUMPDEST SWAP3 SWAP2 POP POP JUMP JUMPDEST PUSH0 PUSH1 0x20 DUP3 DUP5 SUB SLT ISZERO PUSH2 0x1991 JUMPI PUSH2 0x1990 PUSH2 0x11EF JUMP JUMPDEST JUMPDEST PUSH0 PUSH2 0x199E DUP5 DUP3 DUP6 ADD PUSH2 0x1968 JUMP JUMPDEST SWAP2 POP POP SWAP3 SWAP2 POP POP JUMP JUMPDEST PUSH32 0x5265656E7472616E637947756172643A207265656E7472616E742063616C6C00 PUSH0 DUP3 ADD MSTORE POP JUMP JUMPDEST PUSH0 PUSH2 0x19DB PUSH1 0x1F DUP4 PUSH2 0x144A JUMP JUMPDEST SWAP2 POP PUSH2 0x19E6 DUP3 PUSH2 0x19A7 JUMP JUMPDEST PUSH1 0x20 DUP3 ADD SWAP1 POP SWAP2 SWAP1 POP JUMP JUMPDEST PUSH0 PUSH1 0x20 DUP3 ADD SWAP1 POP DUP2 DUP2 SUB PUSH0 DUP4 ADD MSTORE PUSH2 0x1A08 DUP2 PUSH2 0x19CF JUMP JUMPDEST SWAP1 POP SWAP2 SWAP1 POP JUMP JUMPDEST PUSH0 DUP2 MLOAD SWAP1 POP SWAP2 SWAP1 POP JUMP JUMPDEST PUSH0 PUSH2 0x1A23 DUP3 PUSH2 0x1A0F JUMP JUMPDEST PUSH2 0x1A2D DUP2 DUP6 PUSH2 0x17D3 JUMP JUMPDEST SWAP4 POP PUSH2 0x1A3D DUP2 DUP6 PUSH1 0x20 DUP7 ADD PUSH2 0x145A JUMP JUMPDEST DUP1 DUP5 ADD SWAP2 POP POP SWAP3 SWAP2 POP POP JUMP JUMPDEST PUSH0 PUSH2 0x1A54 DUP3 DUP5 PUSH2 0x1A19 JUMP JUMPDEST SWAP2 POP DUP2 SWAP1 POP SWAP3 SWAP2 POP POP JUMP INVALID LOG2 PUSH5 0x6970667358 0x22 SLT KECCAK256 0xC0 INVALID 0xCA CALLDATALOAD DUP4 0xE 0xC OR BYTE 0xB2 0x5C LOG4 CALLVALUE DUP5 PUSH14 0xEBB4ACE33C7F4865C8C843310FE3 PC 0xB3 0x4A PUSH5 0x736F6C6343 STOP ADDMOD AND STOP CALLER "
				},
				"gasEstimates": {
					"creation": {
						"codeDepositCost": "1361000",
						"executionCost": "infinite",
						"totalCost": "infinite"
					},
					"external": {
						"UPGRADE_INTERFACE_VERSION()": "infinite",
						"donate()": "infinite",
						"donatedBy(address)": "2802",
						"initialize(uint256)": "infinite",
						"minDonationWei()": "2447",
						"owner()": "2656",
						"proxiableUUID()": "infinite",
						"renounceOwnership()": "infinite",
						"totalDonated()": "2426",
						"transferOwnership(address)": "infinite",
						"upgradeToAndCall(address,bytes)": "infinite",
						"withdraw(address,uint256)": "infinite"
					},
					"internal": {
						"_authorizeUpgrade(address)": "infinite"
					}
				},
				"methodIdentifiers": {
					"UPGRADE_INTERFACE_VERSION()": "ad3cb1cc",
					"donate()": "ed88c68e",
					"donatedBy(address)": "cdaa6b2c",
					"initialize(uint256)": "fe4b84df",
					"minDonationWei()": "ecf20921",
					"owner()": "8da5cb5b",
					"proxiableUUID()": "52d1902d",
					"renounceOwnership()": "715018a6",
					"totalDonated()": "00b37044",
					"transferOwnership(address)": "f2fde38b",
					"upgradeToAndCall(address,bytes)": "4f1ef286",
					"withdraw(address,uint256)": "f3fef3a3"
				}
			},
			"storageLayout": {
				"storage": [
					{
						"astId": 659,
						"contract": "contracts/DonationPlatformUpgradeableV1.sol:DonationPlatformUpgradeableV1",
						"label": "_status",
						"offset": 0,
						"slot": "0",
						"type": "t_uint256"
					},
					{
						"astId": 728,
						"contract": "contracts/DonationPlatformUpgradeableV1.sol:DonationPlatformUpgradeableV1",
						"label": "__gap",
						"offset": 0,
						"slot": "1",
						"type": "t_array(t_uint256)49_storage"
					},
					{
						"astId": 1533,
						"contract": "contracts/DonationPlatformUpgradeableV1.sol:DonationPlatformUpgradeableV1",
						"label": "minDonationWei",
						"offset": 0,
						"slot": "50",
						"type": "t_uint256"
					},
					{
						"astId": 1535,
						"contract": "contracts/DonationPlatformUpgradeableV1.sol:DonationPlatformUpgradeableV1",
						"label": "totalDonated",
						"offset": 0,
						"slot": "51",
						"type": "t_uint256"
					},
					{
						"astId": 1539,
						"contract": "contracts/DonationPlatformUpgradeableV1.sol:DonationPlatformUpgradeableV1",
						"label": "donatedBy",
						"offset": 0,
						"slot": "52",
						"type": "t_mapping(t_address,t_uint256)"
					}
				],
				"types": {
					"t_address": {
						"encoding": "inplace",
						"label": "address",
						"numberOfBytes": "20"
					},
					"t_array(t_uint256)49_storage": {
						"base": "t_uint256",
						"encoding": "inplace",
						"label": "uint256[49]",
						"numberOfBytes": "1568"
					},
					"t_mapping(t_address,t_uint256)": {
						"encoding": "mapping",
						"key": "t_address",
						"label": "mapping(address => uint256)",
						"numberOfBytes": "32",
						"value": "t_uint256"
					},
					"t_uint256": {
						"encoding": "inplace",
						"label": "uint256",
						"numberOfBytes": "32"
					}
				}
			},
			"userdoc": {
				"kind": "user",
				"methods": {},
				"version": 1
			}
		}
	}
}