{
	"contracts/DonationPlatformV2.sol": {
		"DonationPlatformV2": {
			"abi": [
				{
					"inputs": [
						{
							"internalType": "address",
							"name": "target",
							"type": "address"
						}
					],
					"name": "AddressEmptyCode",
					"type": "error"
				},
				{
					"inputs": [
						{
							"internalType": "address",
							"name": "implementation",
							"type": "address"
						}
					],
					"name": "ERC1967InvalidImplementation",
					"type": "error"
				},
				{
					"inputs": [],
					"name": "ERC1967NonPayable",
					"type": "error"
				},
				{
					"inputs": [],
					"name": "FailedCall",
					"type": "error"
				},
				{
					"inputs": [],
					"name": "InvalidInitialization",
					"type": "error"
				},
				{
					"inputs": [],
					"name": "NotInitializing",
					"type": "error"
				},
				{
					"inputs": [
						{
							"internalType": "address",
							"name": "owner",
							"type": "address"
						}
					],
					"name": "OwnableInvalidOwner",
					"type": "error"
				},
				{
					"inputs": [
						{
							"internalType": "address",
							"name": "account",
							"type": "address"
						}
					],
					"name": "OwnableUnauthorizedAccount",
					"type": "error"
				},
				{
					"inputs": [],
					"name": "UUPSUnauthorizedCallContext",
					"type": "error"
				},
				{
					"inputs": [
						{
							"internalType": "bytes32",
							"name": "slot",
							"type": "bytes32"
						}
					],
					"name": "UUPSUnsupportedProxiableUUID",
					"type": "error"
				},
				{
					"anonymous": false,
					"inputs": [
						{
							"indexed": true,
							"internalType": "address",
							"name": "charity",
							"type": "address"
						}
					],
					"name": "CharityAdded",
					"type": "event"
				},
				{
					"anonymous": false,
					"inputs": [
						{
							"indexed": true,
							"internalType": "address",
							"name": "charity",
							"type": "address"
						}
					],
					"name": "CharityRemoved",
					"type": "event"
				},
				{
					"anonymous": false,
					"inputs": [
						{
							"indexed": true,
							"internalType": "address",
							"name": "charity",
							"type": "address"
						},
						{
							"indexed": true,
							"internalType": "address",
							"name": "to",
							"type": "address"
						},
						{
							"indexed": false,
							"internalType": "uint256",
							"name": "amountWei",
							"type": "uint256"
						}
					],
					"name": "CharityWithdrawn",
					"type": "event"
				},
				{
					"anonymous": false,
					"inputs": [
						{
							"indexed": true,
							"internalType": "address",
							"name": "donor",
							"type": "address"
						},
						{
							"indexed": false,
							"internalType": "uint256",
							"name": "amountWei",
							"type": "uint256"
						}
					],
					"name": "Donated",
					"type": "event"
				},
				{
					"anonymous": false,
					"inputs": [
						{
							"indexed": true,
							"internalType": "address",
							"name": "donor",
							"type": "address"
						},
						{
							"indexed": true,
							"internalType": "address",
							"name": "charity",
							"type": "address"
						},
						{
							"indexed": false,
							"internalType": "uint256",
							"name": "amountWei",
							"type": "uint256"
						}
					],
					"name": "DonationToCharity",
					"type": "event"
				},
				{
					"anonymous": false,
					"inputs": [
						{
							"indexed": false,
							"internalType": "uint64",
							"name": "version",
							"type": "uint64"
						}
					],
					"name": "Initialized",
					"type": "event"
				},
				{
					"anonymous": false,
					"inputs": [
						{
							"indexed": true,
							"internalType": "address",
							"name": "previousOwner",
							"type": "address"
						},
						{
							"indexed": true,
							"internalType": "address",
							"name": "newOwner",
							"type": "address"
						}
					],
					"name": "OwnershipTransferred",
					"type": "event"
				},
				{
					"anonymous": false,
					"inputs": [
						{
							"indexed": true,
							"internalType": "address",
							"name": "implementation",
							"type": "address"
						}
					],
					"name": "Upgraded",
					"type": "event"
				},
				{
					"anonymous": false,
					"inputs": [
						{
							"indexed": true,
							"internalType": "address",
							"name": "to",
							"type": "address"
						},
						{
							"indexed": false,
							"internalType": "uint256",
							"name": "amountWei",
							"type": "uint256"
						}
					],
					"name": "Withdrawn",
					"type": "event"
				},
				{
					"inputs": [],
					"name": "UPGRADE_INTERFACE_VERSION",
					"outputs": [
						{
							"internalType": "string",
							"name": "",
							"type": "string"
						}
					],
					"stateMutability": "view",
					"type": "function"
				},
				{
					"inputs": [
						{
							"internalType": "address",
							"name": "charity",
							"type": "address"
						}
					],
					"name": "addCharity",
					"outputs": [],
					"stateMutability": "nonpayable",
					"type": "function"
				},
				{
					"inputs": [
						{
							"internalType": "uint256",
							"name": "",
							"type": "uint256"
						}
					],
					"name": "charities",
					"outputs": [
						{
							"internalType": "address",
							"name": "",
							"type": "address"
						}
					],
					"stateMutability": "view",
					"type": "function"
				},
				{
					"inputs": [],
					"name": "charitiesCount",
					"outputs": [
						{
							"internalType": "uint256",
							"name": "",
							"type": "uint256"
						}
					],
					"stateMutability": "view",
					"type": "function"
				},
				{
					"inputs": [
						{
							"internalType": "address",
							"name": "",
							"type": "address"
						}
					],
					"name": "charityBalanceWei",
					"outputs": [
						{
							"internalType": "uint256",
							"name": "",
							"type": "uint256"
						}
					],
					"stateMutability": "view",
					"type": "function"
				},
				{
					"inputs": [],
					"name": "donate",
					"outputs": [],
					"stateMutability": "payable",
					"type": "function"
				},
				{
					"inputs": [
						{
							"internalType": "address",
							"name": "charity",
							"type": "address"
						}
					],
					"name": "donateToCharity",
					"outputs": [],
					"stateMutability": "payable",
					"type": "function"
				},
				{
					"inputs": [
						{
							"internalType": "address",
							"name": "",
							"type": "address"
						}
					],
					"name": "donatedBy",
					"outputs": [
						{
							"internalType": "uint256",
							"name": "",
							"type": "uint256"
						}
					],
					"stateMutability": "view",
					"type": "function"
				},
				{
					"inputs": [
						{
							"internalType": "uint256",
							"name": "_minDonationWei",
							"type": "uint256"
						}
					],
					"name": "initialize",
					"outputs": [],
					"stateMutability": "nonpayable",
					"type": "function"
				},
				{
					"inputs": [
						{
							"internalType": "address[]",
							"name": "initialCharities",
							"type": "address[]"
						}
					],
					"name": "initializeV2",
					"outputs": [],
					"stateMutability": "nonpayable",
					"type": "function"
				},
				{
					"inputs": [
						{
							"internalType": "address",
							"name": "",
							"type": "address"
						}
					],
					"name": "isCharity",
					"outputs": [
						{
							"internalType": "bool",
							"name": "",
							"type": "bool"
						}
					],
					"stateMutability": "view",
					"type": "function"
				},
				{
					"inputs": [],
					"name": "minDonationWei",
					"outputs": [
						{
							"internalType": "uint256",
							"name": "",
							"type": "uint256"
						}
					],
					"stateMutability": "view",
					"type": "function"
				},
				{
					"inputs": [],
					"name": "owner",
					"outputs": [
						{
							"internalType": "address",
							"name": "",
							"type": "address"
						}
					],
					"stateMutability": "view",
					"type": "function"
				},
				{
					"inputs": [],
					"name": "proxiableUUID",
					"outputs": [
						{
							"internalType": "bytes32",
							"name": "",
							"type": "bytes32"
						}
					],
					"stateMutability": "view",
					"type": "function"
				},
				{
					"inputs": [
						{
							"internalType": "address",
							"name": "charity",
							"type": "address"
						}
					],
					"name": "removeCharity",
					"outputs": [],
					"stateMutability": "nonpayable",
					"type": "function"
				},
				{
					"inputs": [],
					"name": "renounceOwnership",
					"outputs": [],
					"stateMutability": "nonpayable",
					"type": "function"
				},
				{
					"inputs": [],
					"name": "totalDonated",
					"outputs": [
						{
							"internalType": "uint256",
							"name": "",
							"type": "uint256"
						}
					],
					"stateMutability": "view",
					"type": "function"
				},
				{
					"inputs": [
						{
							"internalType": "address",
							"name": "newOwner",
							"type": "address"
						}
					],
					"name": "transferOwnership",
					"outputs": [],
					"stateMutability": "nonpayable",
					"type": "function"
				},
				{
					"inputs": [
						{
							"internalType": "address",
							"name": "newImplementation",
							"type": "address"
						},
						{
							"internalType": "bytes",
							"name": "data",
							"type": "bytes"
						}
					],
					"name": "upgradeToAndCall",
					"outputs": [],
					"stateMutability": "payable",
					"type": "function"
				},
				{
					"inputs": [
						{
							"internalType": "address payable",
							"name": "to",
							"type": "address"
						},
						{
							"internalType": "uint256",
							"name": "amountWei",
							"type": "uint256"
						}
					],
					"name": "withdraw",
					"outputs": [],
					"stateMutability": "nonpayable",
					"type": "function"
				},
				{
					"inputs": [
						{
							"internalType": "address payable",
							"name": "to",
							"type": "address"
						},
						{
							"internalType": "uint256",
							"name": "amountWei",
							"type": "uint256"
						}
					],
					"name": "withdrawMyFunds",
					"outputs": [],
					"stateMutability": "nonpayable",
					"type": "function"
				}
			],
			"devdoc": {
				"errors": {
					"AddressEmptyCode(address)": [
						{
							"details": "There's no code at `target` (it is not a contract)."
						}
					],
					"ERC1967InvalidImplementation(address)": [
						{
							"details": "The `implementation` of the proxy is invalid."
						}
					],
					"ERC1967NonPayable()": [
						{
							"details": "An upgrade function sees `msg.value > 0` that may be lost."
						}
					],
					"FailedCall()": [
						{
							"details": "A call to an address target failed. The target may have reverted."
						}
					],
					"InvalidInitialization()": [
						{
							"details": "The contract is already initialized."
						}
					],
					"NotInitializing()": [
						{
							"details": "The contract is not initializing."
						}
					],
					"OwnableInvalidOwner(address)": [
						{
							"details": "The owner is not a valid owner account. (eg. `address(0)`)"
						}
					],
					"OwnableUnauthorizedAccount(address)": [
						{
							"details": "The caller account is not authorized to perform an operation."
						}
					],
					"UUPSUnauthorizedCallContext()": [
						{
							"details": "The call is from an unauthorized context."
						}
					],
					"UUPSUnsupportedProxiableUUID(bytes32)": [
						{
							"details": "The storage `slot` is unsupported as a UUID."
						}
					]
				},
				"events": {
					"Initialized(uint64)": {
						"details": "Triggered when the contract has been initialized or reinitialized."
					},
					"Upgraded(address)": {
						"details": "Emitted when the implementation is upgraded."
					}
				},
				"kind": "dev",
				"methods": {
					"owner()": {
						"details": "Returns the address of the current owner."
					},
					"proxiableUUID()": {
						"details": "Implementation of the ERC-1822 {proxiableUUID} function. This returns the storage slot used by the implementation. It is used to validate the implementation's compatibility when performing an upgrade. IMPORTANT: A proxy pointing at a proxiable contract should not be considered proxiable itself, because this risks bricking a proxy that upgrades to it, by delegating to itself until out of gas. Thus it is critical that this function revert if invoked through a proxy. This is guaranteed by the `notDelegated` modifier."
					},
					"renounceOwnership()": {
						"details": "Leaves the contract without owner. It will not be possible to call `onlyOwner` functions. Can only be called by the current owner. NOTE: Renouncing ownership will leave the contract without an owner, thereby disabling any functionality that is only available to the owner."
					},
					"transferOwnership(address)": {
						"details": "Transfers ownership of the contract to a new account (`newOwner`). Can only be called by the current owner."
					},
					"upgradeToAndCall(address,bytes)": {
						"custom:oz-upgrades-unsafe-allow-reachable": "delegatecall",
						"details": "Upgrade the implementation of the proxy to `newImplementation`, and subsequently execute the function call encoded in `data`. Calls {_authorizeUpgrade}. Emits an {Upgraded} event."
					}
				},
				"version": 1
			},
			"evm": {
				"assembly": "    /* \"contracts/DonationPlatformV2.sol\":94:3672  contract DonationPlatformV2 is DonationPlatformV1 {... */\n  mstore(0x40, 0xa0)\n    /* \"@openzeppelin/contracts-upgradeable/proxy/utils/UUPSUpgradeable.sol\":1171:1175  this */\n  address\n    /* \"@openzeppelin/contracts-upgradeable/proxy/utils/UUPSUpgradeable.sol\":1128:1176  address private immutable __self = address(this) */\n  0xffffffffffffffffffffffffffffffffffffffff\n  and\n  0x80\n  swap1\n  0xffffffffffffffffffffffffffffffffffffffff\n  and\n  dup2\n  mstore\n  pop\n    /* \"contracts/DonationPlatformV2.sol\":94:3672  contract DonationPlatformV2 is DonationPlatformV1 {... */\n  callvalue\n  dup1\n  iszero\n  tag_1\n  jumpi\n  revert(0x00, 0x00)\ntag_1:\n  pop\n  mload(0x80)\n  codecopy(0x00, dataOffset(sub_0), dataSize(sub_0))\n  0x00\n  assignImmutable(\"0x4ce4dab4689da140a0c12de1a6af6b8f679594aeb723205f513e052d27f5b26f\")\n  return(0x00, dataSize(sub_0))\nstop\n\nsub_0: assembly {\n        /* \"contracts/DonationPlatformV2.sol\":94:3672  contract DonationPlatformV2 is DonationPlatformV1 {... */\n      mstore(0x40, 0x80)\n      jumpi(tag_1, lt(calldatasize, 0x04))\n      shr(0xe0, calldataload(0x00))\n      dup1\n      0xbc80b184\n      gt\n      tag_23\n      jumpi\n      dup1\n      0xecf20921\n      gt\n      tag_24\n      jumpi\n      dup1\n      0xecf20921\n      eq\n      tag_17\n      jumpi\n      dup1\n      0xed88c68e\n      eq\n      tag_18\n      jumpi\n      dup1\n      0xf2fde38b\n      eq\n      tag_19\n      jumpi\n      dup1\n      0xf3fef3a3\n      eq\n      tag_20\n      jumpi\n      dup1\n      0xfb709d2e\n      eq\n      tag_21\n      jumpi\n      dup1\n      0xfe4b84df\n      eq\n      tag_22\n      jumpi\n      jump(tag_1)\n    tag_24:\n      dup1\n      0xbc80b184\n      eq\n      tag_12\n      jumpi\n      dup1\n      0xc91ddfc9\n      eq\n      tag_13\n      jumpi\n      dup1\n      0xcdaa6b2c\n      eq\n      tag_14\n      jumpi\n      dup1\n      0xdc1aa5fa\n      eq\n      tag_15\n      jumpi\n      dup1\n      0xe81ffbef\n      eq\n      tag_16\n      jumpi\n      jump(tag_1)\n    tag_23:\n      dup1\n      0x715018a6\n      gt\n      tag_25\n      jumpi\n      dup1\n      0x715018a6\n      eq\n      tag_7\n      jumpi\n      dup1\n      0x78b14f0a\n      eq\n      tag_8\n      jumpi\n      dup1\n      0x8da5cb5b\n      eq\n      tag_9\n      jumpi\n      dup1\n      0xabefe591\n      eq\n      tag_10\n      jumpi\n      dup1\n      0xad3cb1cc\n      eq\n      tag_11\n      jumpi\n      jump(tag_1)\n    tag_25:\n      dup1\n      0xb37044\n      eq\n      tag_2\n      jumpi\n      dup1\n      0x128c8dce\n      eq\n      tag_3\n      jumpi\n      dup1\n      0x1d172245\n      eq\n      tag_4\n      jumpi\n      dup1\n      0x4f1ef286\n      eq\n      tag_5\n      jumpi\n      dup1\n      0x52d1902d\n      eq\n      tag_6\n      jumpi\n    tag_1:\n      revert(0x00, 0x00)\n        /* \"contracts/DonationPlatformV1.sol\":988:1015  uint256 public totalDonated */\n    tag_2:\n      callvalue\n      dup1\n      iszero\n      tag_26\n      jumpi\n      revert(0x00, 0x00)\n    tag_26:\n      pop\n      tag_27\n      tag_28\n      jump\t// in\n    tag_27:\n      mload(0x40)\n      tag_29\n      swap2\n      swap1\n      tag_30\n      jump\t// in\n    tag_29:\n      mload(0x40)\n      dup1\n      swap2\n      sub\n      swap1\n      return\n        /* \"contracts/DonationPlatformV2.sol\":2287:2760  function donateToCharity(address charity) external payable {... */\n    tag_3:\n      tag_31\n      0x04\n      dup1\n      calldatasize\n      sub\n      dup2\n      add\n      swap1\n      tag_32\n      swap2\n      swap1\n      tag_33\n      jump\t// in\n    tag_32:\n      tag_34\n      jump\t// in\n    tag_31:\n      stop\n        /* \"contracts/DonationPlatformV2.sol\":3100:3670  function withdrawMyFunds(address payable to, uint256 amountWei)... */\n    tag_4:\n      callvalue\n      dup1\n      iszero\n      tag_35\n      jumpi\n      revert(0x00, 0x00)\n    tag_35:\n      pop\n      tag_36\n      0x04\n      dup1\n      calldatasize\n      sub\n      dup2\n      add\n      swap1\n      tag_37\n      swap2\n      swap1\n      tag_38\n      jump\t// in\n    tag_37:\n      tag_39\n      jump\t// in\n    tag_36:\n      stop\n        /* \"@openzeppelin/contracts-upgradeable/proxy/utils/UUPSUpgradeable.sol\":4161:4375  function upgradeToAndCall(address newImplementation, bytes memory data) public payable virtual onlyProxy {... */\n    tag_5:\n      tag_40\n      0x04\n      dup1\n      calldatasize\n      sub\n      dup2\n      add\n      swap1\n      tag_41\n      swap2\n      swap1\n      tag_42\n      jump\t// in\n    tag_41:\n      tag_43\n      jump\t// in\n    tag_40:\n      stop\n        /* \"@openzeppelin/contracts-upgradeable/proxy/utils/UUPSUpgradeable.sol\":3708:3842  function proxiableUUID() external view virtual notDelegated returns (bytes32) {... */\n    tag_6:\n      callvalue\n      dup1\n      iszero\n      tag_44\n      jumpi\n      revert(0x00, 0x00)\n    tag_44:\n      pop\n      tag_45\n      tag_46\n      jump\t// in\n    tag_45:\n      mload(0x40)\n      tag_47\n      swap2\n      swap1\n      tag_48\n      jump\t// in\n    tag_47:\n      mload(0x40)\n      dup1\n      swap2\n      sub\n      swap1\n      return\n        /* \"@openzeppelin/contracts-upgradeable/access/OwnableUpgradeable.sol\":3155:3256  function renounceOwnership() public virtual onlyOwner {... */\n    tag_7:\n      callvalue\n      dup1\n      iszero\n      tag_49\n      jumpi\n      revert(0x00, 0x00)\n    tag_49:\n      pop\n      tag_50\n      tag_51\n      jump\t// in\n    tag_50:\n      stop\n        /* \"contracts/DonationPlatformV2.sol\":1389:1482  function addCharity(address charity) external onlyOwner {... */\n    tag_8:\n      callvalue\n      dup1\n      iszero\n      tag_52\n      jumpi\n      revert(0x00, 0x00)\n    tag_52:\n      pop\n      tag_53\n      0x04\n      dup1\n      calldatasize\n      sub\n      dup2\n      add\n      swap1\n      tag_54\n      swap2\n      swap1\n      tag_33\n      jump\t// in\n    tag_54:\n      tag_55\n      jump\t// in\n    tag_53:\n      stop\n        /* \"@openzeppelin/contracts-upgradeable/access/OwnableUpgradeable.sol\":2441:2585  function owner() public view virtual returns (address) {... */\n    tag_9:\n      callvalue\n      dup1\n      iszero\n      tag_56\n      jumpi\n      revert(0x00, 0x00)\n    tag_56:\n      pop\n      tag_57\n      tag_58\n      jump\t// in\n    tag_57:\n      mload(0x40)\n      tag_59\n      swap2\n      swap1\n      tag_60\n      jump\t// in\n    tag_59:\n      mload(0x40)\n      dup1\n      swap2\n      sub\n      swap1\n      return\n        /* \"contracts/DonationPlatformV2.sol\":1488:1807  function removeCharity(address charity) external onlyOwner {... */\n    tag_10:\n      callvalue\n      dup1\n      iszero\n      tag_61\n      jumpi\n      revert(0x00, 0x00)\n    tag_61:\n      pop\n      tag_62\n      0x04\n      dup1\n      calldatasize\n      sub\n      dup2\n      add\n      swap1\n      tag_63\n      swap2\n      swap1\n      tag_33\n      jump\t// in\n    tag_63:\n      tag_64\n      jump\t// in\n    tag_62:\n      stop\n        /* \"@openzeppelin/contracts-upgradeable/proxy/utils/UUPSUpgradeable.sol\":1819:1877  string public constant UPGRADE_INTERFACE_VERSION = \"5.0.0\" */\n    tag_11:\n      callvalue\n      dup1\n      iszero\n      tag_65\n      jumpi\n      revert(0x00, 0x00)\n    tag_65:\n      pop\n      tag_66\n      tag_67\n      jump\t// in\n    tag_66:\n      mload(0x40)\n      tag_68\n      swap2\n      swap1\n      tag_69\n      jump\t// in\n    tag_68:\n      mload(0x40)\n      dup1\n      swap2\n      sub\n      swap1\n      return\n        /* \"contracts/DonationPlatformV2.sol\":2093:2191  function charitiesCount() external view returns (uint256) {... */\n    tag_12:\n      callvalue\n      dup1\n      iszero\n      tag_70\n      jumpi\n      revert(0x00, 0x00)\n    tag_70:\n      pop\n      tag_71\n      tag_72\n      jump\t// in\n    tag_71:\n      mload(0x40)\n      tag_73\n      swap2\n      swap1\n      tag_30\n      jump\t// in\n    tag_73:\n      mload(0x40)\n      dup1\n      swap2\n      sub\n      swap1\n      return\n        /* \"contracts/DonationPlatformV2.sol\":320:372  mapping(address => uint256) public charityBalanceWei */\n    tag_13:\n      callvalue\n      dup1\n      iszero\n      tag_74\n      jumpi\n      revert(0x00, 0x00)\n    tag_74:\n      pop\n      tag_75\n      0x04\n      dup1\n      calldatasize\n      sub\n      dup2\n      add\n      swap1\n      tag_76\n      swap2\n      swap1\n      tag_33\n      jump\t// in\n    tag_76:\n      tag_77\n      jump\t// in\n    tag_75:\n      mload(0x40)\n      tag_78\n      swap2\n      swap1\n      tag_30\n      jump\t// in\n    tag_78:\n      mload(0x40)\n      dup1\n      swap2\n      sub\n      swap1\n      return\n        /* \"contracts/DonationPlatformV1.sol\":1064:1108  mapping(address => uint256) public donatedBy */\n    tag_14:\n      callvalue\n      dup1\n      iszero\n      tag_79\n      jumpi\n      revert(0x00, 0x00)\n    tag_79:\n      pop\n      tag_80\n      0x04\n      dup1\n      calldatasize\n      sub\n      dup2\n      add\n      swap1\n      tag_81\n      swap2\n      swap1\n      tag_33\n      jump\t// in\n    tag_81:\n      tag_82\n      jump\t// in\n    tag_80:\n      mload(0x40)\n      tag_83\n      swap2\n      swap1\n      tag_30\n      jump\t// in\n    tag_83:\n      mload(0x40)\n      dup1\n      swap2\n      sub\n      swap1\n      return\n        /* \"contracts/DonationPlatformV2.sol\":1075:1287  function initializeV2(address[] calldata initialCharities) external reinitializer(2) {... */\n    tag_15:\n      callvalue\n      dup1\n      iszero\n      tag_84\n      jumpi\n      revert(0x00, 0x00)\n    tag_84:\n      pop\n      tag_85\n      0x04\n      dup1\n      calldatasize\n      sub\n      dup2\n      add\n      swap1\n      tag_86\n      swap2\n      swap1\n      tag_87\n      jump\t// in\n    tag_86:\n      tag_88\n      jump\t// in\n    tag_85:\n      stop\n        /* \"contracts/DonationPlatformV2.sol\":247:288  mapping(address => bool) public isCharity */\n    tag_16:\n      callvalue\n      dup1\n      iszero\n      tag_89\n      jumpi\n      revert(0x00, 0x00)\n    tag_89:\n      pop\n      tag_90\n      0x04\n      dup1\n      calldatasize\n      sub\n      dup2\n      add\n      swap1\n      tag_91\n      swap2\n      swap1\n      tag_33\n      jump\t// in\n    tag_91:\n      tag_92\n      jump\t// in\n    tag_90:\n      mload(0x40)\n      tag_93\n      swap2\n      swap1\n      tag_94\n      jump\t// in\n    tag_93:\n      mload(0x40)\n      dup1\n      swap2\n      sub\n      swap1\n      return\n        /* \"contracts/DonationPlatformV1.sol\":920:949  uint256 public minDonationWei */\n    tag_17:\n      callvalue\n      dup1\n      iszero\n      tag_95\n      jumpi\n      revert(0x00, 0x00)\n    tag_95:\n      pop\n      tag_96\n      tag_97\n      jump\t// in\n    tag_96:\n      mload(0x40)\n      tag_98\n      swap2\n      swap1\n      tag_30\n      jump\t// in\n    tag_98:\n      mload(0x40)\n      dup1\n      swap2\n      sub\n      swap1\n      return\n        /* \"contracts/DonationPlatformV1.sol\":2317:2794  function donate() external payable {        // external means callable from outside (users/other contracts), payable that it's allowed to receive ETH ... */\n    tag_18:\n      tag_99\n      tag_100\n      jump\t// in\n    tag_99:\n      stop\n        /* \"@openzeppelin/contracts-upgradeable/access/OwnableUpgradeable.sol\":3405:3620  function transferOwnership(address newOwner) public virtual onlyOwner {... */\n    tag_19:\n      callvalue\n      dup1\n      iszero\n      tag_101\n      jumpi\n      revert(0x00, 0x00)\n    tag_101:\n      pop\n      tag_102\n      0x04\n      dup1\n      calldatasize\n      sub\n      dup2\n      add\n      swap1\n      tag_103\n      swap2\n      swap1\n      tag_33\n      jump\t// in\n    tag_103:\n      tag_104\n      jump\t// in\n    tag_102:\n      stop\n        /* \"contracts/DonationPlatformV1.sol\":2977:3499  function withdraw(address payable to, uint256 amountWei)... */\n    tag_20:\n      callvalue\n      dup1\n      iszero\n      tag_105\n      jumpi\n      revert(0x00, 0x00)\n    tag_105:\n      pop\n      tag_106\n      0x04\n      dup1\n      calldatasize\n      sub\n      dup2\n      add\n      swap1\n      tag_107\n      swap2\n      swap1\n      tag_38\n      jump\t// in\n    tag_107:\n      tag_108\n      jump\t// in\n    tag_106:\n      stop\n        /* \"contracts/DonationPlatformV2.sol\":406:432  address[] public charities */\n    tag_21:\n      callvalue\n      dup1\n      iszero\n      tag_109\n      jumpi\n      revert(0x00, 0x00)\n    tag_109:\n      pop\n      tag_110\n      0x04\n      dup1\n      calldatasize\n      sub\n      dup2\n      add\n      swap1\n      tag_111\n      swap2\n      swap1\n      tag_112\n      jump\t// in\n    tag_111:\n      tag_113\n      jump\t// in\n    tag_110:\n      mload(0x40)\n      tag_114\n      swap2\n      swap1\n      tag_60\n      jump\t// in\n    tag_114:\n      mload(0x40)\n      dup1\n      swap2\n      sub\n      swap1\n      return\n        /* \"contracts/DonationPlatformV1.sol\":1518:1967  function initialize(uint256 _minDonationWei) public initializer {... */\n    tag_22:\n      callvalue\n      dup1\n      iszero\n      tag_115\n      jumpi\n      revert(0x00, 0x00)\n    tag_115:\n      pop\n      tag_116\n      0x04\n      dup1\n      calldatasize\n      sub\n      dup2\n      add\n      swap1\n      tag_117\n      swap2\n      swap1\n      tag_112\n      jump\t// in\n    tag_117:\n      tag_118\n      jump\t// in\n    tag_116:\n      stop\n        /* \"contracts/DonationPlatformV1.sol\":988:1015  uint256 public totalDonated */\n    tag_28:\n      sload(0x33)\n      dup2\n      jump\t// out\n        /* \"contracts/DonationPlatformV2.sol\":2287:2760  function donateToCharity(address charity) external payable {... */\n    tag_34:\n        /* \"contracts/DonationPlatformV2.sol\":2364:2373  isCharity */\n      0x35\n        /* \"contracts/DonationPlatformV2.sol\":2364:2382  isCharity[charity] */\n      0x00\n        /* \"contracts/DonationPlatformV2.sol\":2374:2381  charity */\n      dup3\n        /* \"contracts/DonationPlatformV2.sol\":2364:2382  isCharity[charity] */\n      0xffffffffffffffffffffffffffffffffffffffff\n      and\n      0xffffffffffffffffffffffffffffffffffffffff\n      and\n      dup2\n      mstore\n      0x20\n      add\n      swap1\n      dup2\n      mstore\n      0x20\n      add\n      0x00\n      keccak256\n      0x00\n      swap1\n      sload\n      swap1\n      0x0100\n      exp\n      swap1\n      div\n      0xff\n      and\n        /* \"contracts/DonationPlatformV2.sol\":2356:2406  require(isCharity[charity], \"Charity not allowed\") */\n      tag_120\n      jumpi\n      mload(0x40)\n      0x08c379a000000000000000000000000000000000000000000000000000000000\n      dup2\n      mstore\n      0x04\n      add\n      tag_121\n      swap1\n      tag_122\n      jump\t// in\n    tag_121:\n      mload(0x40)\n      dup1\n      swap2\n      sub\n      swap1\n      revert\n    tag_120:\n        /* \"contracts/DonationPlatformV2.sol\":2437:2451  minDonationWei */\n      sload(0x32)\n        /* \"contracts/DonationPlatformV2.sol\":2424:2433  msg.value */\n      callvalue\n        /* \"contracts/DonationPlatformV2.sol\":2424:2451  msg.value >= minDonationWei */\n      lt\n      iszero\n        /* \"contracts/DonationPlatformV2.sol\":2416:2474  require(msg.value >= minDonationWei, \"Donation too small\") */\n      tag_123\n      jumpi\n      mload(0x40)\n      0x08c379a000000000000000000000000000000000000000000000000000000000\n      dup2\n      mstore\n      0x04\n      add\n      tag_124\n      swap1\n      tag_125\n      jump\t// in\n    tag_124:\n      mload(0x40)\n      dup1\n      swap2\n      sub\n      swap1\n      revert\n    tag_123:\n        /* \"contracts/DonationPlatformV2.sol\":2556:2565  msg.value */\n      callvalue\n        /* \"contracts/DonationPlatformV2.sol\":2531:2540  donatedBy */\n      0x34\n        /* \"contracts/DonationPlatformV2.sol\":2531:2552  donatedBy[msg.sender] */\n      0x00\n        /* \"contracts/DonationPlatformV2.sol\":2541:2551  msg.sender */\n      caller\n        /* \"contracts/DonationPlatformV2.sol\":2531:2552  donatedBy[msg.sender] */\n      0xffffffffffffffffffffffffffffffffffffffff\n      and\n      0xffffffffffffffffffffffffffffffffffffffff\n      and\n      dup2\n      mstore\n      0x20\n      add\n      swap1\n      dup2\n      mstore\n      0x20\n      add\n      0x00\n      keccak256\n      0x00\n        /* \"contracts/DonationPlatformV2.sol\":2531:2565  donatedBy[msg.sender] += msg.value */\n      dup3\n      dup3\n      sload\n      tag_126\n      swap2\n      swap1\n      tag_127\n      jump\t// in\n    tag_126:\n      swap3\n      pop\n      pop\n      dup2\n      swap1\n      sstore\n      pop\n        /* \"contracts/DonationPlatformV2.sol\":2591:2600  msg.value */\n      callvalue\n        /* \"contracts/DonationPlatformV2.sol\":2575:2587  totalDonated */\n      0x33\n      0x00\n        /* \"contracts/DonationPlatformV2.sol\":2575:2600  totalDonated += msg.value */\n      dup3\n      dup3\n      sload\n      tag_128\n      swap2\n      swap1\n      tag_127\n      jump\t// in\n    tag_128:\n      swap3\n      pop\n      pop\n      dup2\n      swap1\n      sstore\n      pop\n        /* \"contracts/DonationPlatformV2.sol\":2679:2688  msg.value */\n      callvalue\n        /* \"contracts/DonationPlatformV2.sol\":2649:2666  charityBalanceWei */\n      0x36\n        /* \"contracts/DonationPlatformV2.sol\":2649:2675  charityBalanceWei[charity] */\n      0x00\n        /* \"contracts/DonationPlatformV2.sol\":2667:2674  charity */\n      dup4\n        /* \"contracts/DonationPlatformV2.sol\":2649:2675  charityBalanceWei[charity] */\n      0xffffffffffffffffffffffffffffffffffffffff\n      and\n      0xffffffffffffffffffffffffffffffffffffffff\n      and\n      dup2\n      mstore\n      0x20\n      add\n      swap1\n      dup2\n      mstore\n      0x20\n      add\n      0x00\n      keccak256\n      0x00\n        /* \"contracts/DonationPlatformV2.sol\":2649:2688  charityBalanceWei[charity] += msg.value */\n      dup3\n      dup3\n      sload\n      tag_129\n      swap2\n      swap1\n      tag_127\n      jump\t// in\n    tag_129:\n      swap3\n      pop\n      pop\n      dup2\n      swap1\n      sstore\n      pop\n        /* \"contracts/DonationPlatformV2.sol\":2734:2741  charity */\n      dup1\n        /* \"contracts/DonationPlatformV2.sol\":2704:2753  DonationToCharity(msg.sender, charity, msg.value) */\n      0xffffffffffffffffffffffffffffffffffffffff\n      and\n        /* \"contracts/DonationPlatformV2.sol\":2722:2732  msg.sender */\n      caller\n        /* \"contracts/DonationPlatformV2.sol\":2704:2753  DonationToCharity(msg.sender, charity, msg.value) */\n      0xffffffffffffffffffffffffffffffffffffffff\n      and\n      0xda80f1af1eb5747d371b21abdbc3f061b1f8f53bae262a8b1d91476cf5ec191d\n        /* \"contracts/DonationPlatformV2.sol\":2743:2752  msg.value */\n      callvalue\n        /* \"contracts/DonationPlatformV2.sol\":2704:2753  DonationToCharity(msg.sender, charity, msg.value) */\n      mload(0x40)\n      tag_130\n      swap2\n      swap1\n      tag_30\n      jump\t// in\n    tag_130:\n      mload(0x40)\n      dup1\n      swap2\n      sub\n      swap1\n      log3\n        /* \"contracts/DonationPlatformV2.sol\":2287:2760  function donateToCharity(address charity) external payable {... */\n      pop\n      jump\t// out\n        /* \"contracts/DonationPlatformV2.sol\":3100:3670  function withdrawMyFunds(address payable to, uint256 amountWei)... */\n    tag_39:\n        /* \"@openzeppelin/contracts-upgradeable/security/ReentrancyGuardUpgradeable.sol\":2526:2547  _nonReentrantBefore() */\n      tag_132\n        /* \"@openzeppelin/contracts-upgradeable/security/ReentrancyGuardUpgradeable.sol\":2526:2545  _nonReentrantBefore */\n      tag_133\n        /* \"@openzeppelin/contracts-upgradeable/security/ReentrancyGuardUpgradeable.sol\":2526:2547  _nonReentrantBefore() */\n      jump\t// in\n    tag_132:\n        /* \"contracts/DonationPlatformV2.sol\":3224:3233  isCharity */\n      0x35\n        /* \"contracts/DonationPlatformV2.sol\":3224:3245  isCharity[msg.sender] */\n      0x00\n        /* \"contracts/DonationPlatformV2.sol\":3234:3244  msg.sender */\n      caller\n        /* \"contracts/DonationPlatformV2.sol\":3224:3245  isCharity[msg.sender] */\n      0xffffffffffffffffffffffffffffffffffffffff\n      and\n      0xffffffffffffffffffffffffffffffffffffffff\n      and\n      dup2\n      mstore\n      0x20\n      add\n      swap1\n      dup2\n      mstore\n      0x20\n      add\n      0x00\n      keccak256\n      0x00\n      swap1\n      sload\n      swap1\n      0x0100\n      exp\n      swap1\n      div\n      0xff\n      and\n        /* \"contracts/DonationPlatformV2.sol\":3216:3262  require(isCharity[msg.sender], \"Only charity\") */\n      tag_135\n      jumpi\n      mload(0x40)\n      0x08c379a000000000000000000000000000000000000000000000000000000000\n      dup2\n      mstore\n      0x04\n      add\n      tag_136\n      swap1\n      tag_137\n      jump\t// in\n    tag_136:\n      mload(0x40)\n      dup1\n      swap2\n      sub\n      swap1\n      revert\n    tag_135:\n        /* \"contracts/DonationPlatformV2.sol\":3294:3295  0 */\n      0x00\n        /* \"contracts/DonationPlatformV2.sol\":3280:3296  to != address(0) */\n      0xffffffffffffffffffffffffffffffffffffffff\n      and\n        /* \"contracts/DonationPlatformV2.sol\":3280:3282  to */\n      dup3\n        /* \"contracts/DonationPlatformV2.sol\":3280:3296  to != address(0) */\n      0xffffffffffffffffffffffffffffffffffffffff\n      and\n      sub\n        /* \"contracts/DonationPlatformV2.sol\":3272:3318  require(to != address(0), \"Invalid recipient\") */\n      tag_138\n      jumpi\n      mload(0x40)\n      0x08c379a000000000000000000000000000000000000000000000000000000000\n      dup2\n      mstore\n      0x04\n      add\n      tag_139\n      swap1\n      tag_140\n      jump\t// in\n    tag_139:\n      mload(0x40)\n      dup1\n      swap2\n      sub\n      swap1\n      revert\n    tag_138:\n        /* \"contracts/DonationPlatformV2.sol\":3348:3349  0 */\n      0x00\n        /* \"contracts/DonationPlatformV2.sol\":3336:3345  amountWei */\n      dup2\n        /* \"contracts/DonationPlatformV2.sol\":3336:3349  amountWei > 0 */\n      gt\n        /* \"contracts/DonationPlatformV2.sol\":3328:3372  require(amountWei > 0, \"Amount must be > 0\") */\n      tag_141\n      jumpi\n      mload(0x40)\n      0x08c379a000000000000000000000000000000000000000000000000000000000\n      dup2\n      mstore\n      0x04\n      add\n      tag_142\n      swap1\n      tag_143\n      jump\t// in\n    tag_142:\n      mload(0x40)\n      dup1\n      swap2\n      sub\n      swap1\n      revert\n    tag_141:\n        /* \"contracts/DonationPlatformV2.sol\":3403:3420  charityBalanceWei */\n      0x36\n        /* \"contracts/DonationPlatformV2.sol\":3403:3432  charityBalanceWei[msg.sender] */\n      0x00\n        /* \"contracts/DonationPlatformV2.sol\":3421:3431  msg.sender */\n      caller\n        /* \"contracts/DonationPlatformV2.sol\":3403:3432  charityBalanceWei[msg.sender] */\n      0xffffffffffffffffffffffffffffffffffffffff\n      and\n      0xffffffffffffffffffffffffffffffffffffffff\n      and\n      dup2\n      mstore\n      0x20\n      add\n      swap1\n      dup2\n      mstore\n      0x20\n      add\n      0x00\n      keccak256\n      sload\n        /* \"contracts/DonationPlatformV2.sol\":3390:3399  amountWei */\n      dup2\n        /* \"contracts/DonationPlatformV2.sol\":3390:3432  amountWei <= charityBalanceWei[msg.sender] */\n      gt\n      iszero\n        /* \"contracts/DonationPlatformV2.sol\":3382:3457  require(amountWei <= charityBalanceWei[msg.sender], \"Not enough allocated\") */\n      tag_144\n      jumpi\n      mload(0x40)\n      0x08c379a000000000000000000000000000000000000000000000000000000000\n      dup2\n      mstore\n      0x04\n      add\n      tag_145\n      swap1\n      tag_146\n      jump\t// in\n    tag_145:\n      mload(0x40)\n      dup1\n      swap2\n      sub\n      swap1\n      revert\n    tag_144:\n        /* \"contracts/DonationPlatformV2.sol\":3501:3510  amountWei */\n      dup1\n        /* \"contracts/DonationPlatformV2.sol\":3468:3485  charityBalanceWei */\n      0x36\n        /* \"contracts/DonationPlatformV2.sol\":3468:3497  charityBalanceWei[msg.sender] */\n      0x00\n        /* \"contracts/DonationPlatformV2.sol\":3486:3496  msg.sender */\n      caller\n        /* \"contracts/DonationPlatformV2.sol\":3468:3497  charityBalanceWei[msg.sender] */\n      0xffffffffffffffffffffffffffffffffffffffff\n      and\n      0xffffffffffffffffffffffffffffffffffffffff\n      and\n      dup2\n      mstore\n      0x20\n      add\n      swap1\n      dup2\n      mstore\n      0x20\n      add\n      0x00\n      keccak256\n      0x00\n        /* \"contracts/DonationPlatformV2.sol\":3468:3510  charityBalanceWei[msg.sender] -= amountWei */\n      dup3\n      dup3\n      sload\n      tag_147\n      swap2\n      swap1\n      tag_148\n      jump\t// in\n    tag_147:\n      swap3\n      pop\n      pop\n      dup2\n      swap1\n      sstore\n      pop\n        /* \"contracts/DonationPlatformV2.sol\":3522:3529  bool ok */\n      0x00\n        /* \"contracts/DonationPlatformV2.sol\":3535:3537  to */\n      dup3\n        /* \"contracts/DonationPlatformV2.sol\":3535:3542  to.call */\n      0xffffffffffffffffffffffffffffffffffffffff\n      and\n        /* \"contracts/DonationPlatformV2.sol\":3550:3559  amountWei */\n      dup3\n        /* \"contracts/DonationPlatformV2.sol\":3535:3564  to.call{value: amountWei}(\"\") */\n      mload(0x40)\n      tag_149\n      swap1\n      tag_150\n      jump\t// in\n    tag_149:\n      0x00\n      mload(0x40)\n      dup1\n      dup4\n      sub\n      dup2\n      dup6\n      dup8\n      gas\n      call\n      swap3\n      pop\n      pop\n      pop\n      returndatasize\n      dup1\n      0x00\n      dup2\n      eq\n      tag_153\n      jumpi\n      mload(0x40)\n      swap2\n      pop\n      and(add(returndatasize, 0x3f), not(0x1f))\n      dup3\n      add\n      0x40\n      mstore\n      returndatasize\n      dup3\n      mstore\n      returndatasize\n      0x00\n      0x20\n      dup5\n      add\n      returndatacopy\n      jump(tag_152)\n    tag_153:\n      0x60\n      swap2\n      pop\n    tag_152:\n      pop\n        /* \"contracts/DonationPlatformV2.sol\":3521:3564  (bool ok, ) = to.call{value: amountWei}(\"\") */\n      pop\n      swap1\n      pop\n        /* \"contracts/DonationPlatformV2.sol\":3582:3584  ok */\n      dup1\n        /* \"contracts/DonationPlatformV2.sol\":3574:3604  require(ok, \"Transfer failed\") */\n      tag_154\n      jumpi\n      mload(0x40)\n      0x08c379a000000000000000000000000000000000000000000000000000000000\n      dup2\n      mstore\n      0x04\n      add\n      tag_155\n      swap1\n      tag_156\n      jump\t// in\n    tag_155:\n      mload(0x40)\n      dup1\n      swap2\n      sub\n      swap1\n      revert\n    tag_154:\n        /* \"contracts/DonationPlatformV2.sol\":3649:3651  to */\n      dup3\n        /* \"contracts/DonationPlatformV2.sol\":3620:3663  CharityWithdrawn(msg.sender, to, amountWei) */\n      0xffffffffffffffffffffffffffffffffffffffff\n      and\n        /* \"contracts/DonationPlatformV2.sol\":3637:3647  msg.sender */\n      caller\n        /* \"contracts/DonationPlatformV2.sol\":3620:3663  CharityWithdrawn(msg.sender, to, amountWei) */\n      0xffffffffffffffffffffffffffffffffffffffff\n      and\n      0xd12a7186f17f056536ce7208a6b27e2e22c25ed633727e9eb92cce0f018c47ae\n        /* \"contracts/DonationPlatformV2.sol\":3653:3662  amountWei */\n      dup5\n        /* \"contracts/DonationPlatformV2.sol\":3620:3663  CharityWithdrawn(msg.sender, to, amountWei) */\n      mload(0x40)\n      tag_157\n      swap2\n      swap1\n      tag_30\n      jump\t// in\n    tag_157:\n      mload(0x40)\n      dup1\n      swap2\n      sub\n      swap1\n      log3\n        /* \"contracts/DonationPlatformV2.sol\":3206:3670  {... */\n      pop\n        /* \"@openzeppelin/contracts-upgradeable/security/ReentrancyGuardUpgradeable.sol\":2568:2588  _nonReentrantAfter() */\n      tag_158\n        /* \"@openzeppelin/contracts-upgradeable/security/ReentrancyGuardUpgradeable.sol\":2568:2586  _nonReentrantAfter */\n      tag_159\n        /* \"@openzeppelin/contracts-upgradeable/security/ReentrancyGuardUpgradeable.sol\":2568:2588  _nonReentrantAfter() */\n      jump\t// in\n    tag_158:\n        /* \"contracts/DonationPlatformV2.sol\":3100:3670  function withdrawMyFunds(address payable to, uint256 amountWei)... */\n      pop\n      pop\n      jump\t// out\n        /* \"@openzeppelin/contracts-upgradeable/proxy/utils/UUPSUpgradeable.sol\":4161:4375  function upgradeToAndCall(address newImplementation, bytes memory data) public payable virtual onlyProxy {... */\n    tag_43:\n        /* \"@openzeppelin/contracts-upgradeable/proxy/utils/UUPSUpgradeable.sol\":2655:2668  _checkProxy() */\n      tag_161\n        /* \"@openzeppelin/contracts-upgradeable/proxy/utils/UUPSUpgradeable.sol\":2655:2666  _checkProxy */\n      tag_162\n        /* \"@openzeppelin/contracts-upgradeable/proxy/utils/UUPSUpgradeable.sol\":2655:2668  _checkProxy() */\n      jump\t// in\n    tag_161:\n        /* \"@openzeppelin/contracts-upgradeable/proxy/utils/UUPSUpgradeable.sol\":4276:4312  _authorizeUpgrade(newImplementation) */\n      tag_164\n        /* \"@openzeppelin/contracts-upgradeable/proxy/utils/UUPSUpgradeable.sol\":4294:4311  newImplementation */\n      dup3\n        /* \"@openzeppelin/contracts-upgradeable/proxy/utils/UUPSUpgradeable.sol\":4276:4293  _authorizeUpgrade */\n      tag_165\n        /* \"@openzeppelin/contracts-upgradeable/proxy/utils/UUPSUpgradeable.sol\":4276:4312  _authorizeUpgrade(newImplementation) */\n      jump\t// in\n    tag_164:\n        /* \"@openzeppelin/contracts-upgradeable/proxy/utils/UUPSUpgradeable.sol\":4322:4368  _upgradeToAndCallUUPS(newImplementation, data) */\n      tag_166\n        /* \"@openzeppelin/contracts-upgradeable/proxy/utils/UUPSUpgradeable.sol\":4344:4361  newImplementation */\n      dup3\n        /* \"@openzeppelin/contracts-upgradeable/proxy/utils/UUPSUpgradeable.sol\":4363:4367  data */\n      dup3\n        /* \"@openzeppelin/contracts-upgradeable/proxy/utils/UUPSUpgradeable.sol\":4322:4343  _upgradeToAndCallUUPS */\n      tag_167\n        /* \"@openzeppelin/contracts-upgradeable/proxy/utils/UUPSUpgradeable.sol\":4322:4368  _upgradeToAndCallUUPS(newImplementation, data) */\n      jump\t// in\n    tag_166:\n        /* \"@openzeppelin/contracts-upgradeable/proxy/utils/UUPSUpgradeable.sol\":4161:4375  function upgradeToAndCall(address newImplementation, bytes memory data) public payable virtual onlyProxy {... */\n      pop\n      pop\n      jump\t// out\n        /* \"@openzeppelin/contracts-upgradeable/proxy/utils/UUPSUpgradeable.sol\":3708:3842  function proxiableUUID() external view virtual notDelegated returns (bytes32) {... */\n    tag_46:\n        /* \"@openzeppelin/contracts-upgradeable/proxy/utils/UUPSUpgradeable.sol\":3777:3784  bytes32 */\n      0x00\n        /* \"@openzeppelin/contracts-upgradeable/proxy/utils/UUPSUpgradeable.sol\":2926:2946  _checkNotDelegated() */\n      tag_169\n        /* \"@openzeppelin/contracts-upgradeable/proxy/utils/UUPSUpgradeable.sol\":2926:2944  _checkNotDelegated */\n      tag_170\n        /* \"@openzeppelin/contracts-upgradeable/proxy/utils/UUPSUpgradeable.sol\":2926:2946  _checkNotDelegated() */\n      jump\t// in\n    tag_169:\n        /* \"@openzeppelin/contracts/proxy/ERC1967/ERC1967Utils.sol\":811:877  0x360894a13ba1a3210667c828492db98dca3e2076cc3735a920a3ca505d382bbc */\n      0x360894a13ba1a3210667c828492db98dca3e2076cc3735a920a3ca505d382bbc\n        /* \"@openzeppelin/contracts-upgradeable/proxy/utils/UUPSUpgradeable.sol\":3803:3835  ERC1967Utils.IMPLEMENTATION_SLOT */\n      0x00\n      shl\n        /* \"@openzeppelin/contracts-upgradeable/proxy/utils/UUPSUpgradeable.sol\":3796:3835  return ERC1967Utils.IMPLEMENTATION_SLOT */\n      swap1\n      pop\n        /* \"@openzeppelin/contracts-upgradeable/proxy/utils/UUPSUpgradeable.sol\":3708:3842  function proxiableUUID() external view virtual notDelegated returns (bytes32) {... */\n      swap1\n      jump\t// out\n        /* \"@openzeppelin/contracts-upgradeable/access/OwnableUpgradeable.sol\":3155:3256  function renounceOwnership() public virtual onlyOwner {... */\n    tag_51:\n        /* \"@openzeppelin/contracts-upgradeable/access/OwnableUpgradeable.sol\":2334:2347  _checkOwner() */\n      tag_173\n        /* \"@openzeppelin/contracts-upgradeable/access/OwnableUpgradeable.sol\":2334:2345  _checkOwner */\n      tag_174\n        /* \"@openzeppelin/contracts-upgradeable/access/OwnableUpgradeable.sol\":2334:2347  _checkOwner() */\n      jump\t// in\n    tag_173:\n        /* \"@openzeppelin/contracts-upgradeable/access/OwnableUpgradeable.sol\":3219:3249  _transferOwnership(address(0)) */\n      tag_176\n        /* \"@openzeppelin/contracts-upgradeable/access/OwnableUpgradeable.sol\":3246:3247  0 */\n      0x00\n        /* \"@openzeppelin/contracts-upgradeable/access/OwnableUpgradeable.sol\":3219:3237  _transferOwnership */\n      tag_177\n        /* \"@openzeppelin/contracts-upgradeable/access/OwnableUpgradeable.sol\":3219:3249  _transferOwnership(address(0)) */\n      jump\t// in\n    tag_176:\n        /* \"@openzeppelin/contracts-upgradeable/access/OwnableUpgradeable.sol\":3155:3256  function renounceOwnership() public virtual onlyOwner {... */\n      jump\t// out\n        /* \"contracts/DonationPlatformV2.sol\":1389:1482  function addCharity(address charity) external onlyOwner {... */\n    tag_55:\n        /* \"@openzeppelin/contracts-upgradeable/access/OwnableUpgradeable.sol\":2334:2347  _checkOwner() */\n      tag_179\n        /* \"@openzeppelin/contracts-upgradeable/access/OwnableUpgradeable.sol\":2334:2345  _checkOwner */\n      tag_174\n        /* \"@openzeppelin/contracts-upgradeable/access/OwnableUpgradeable.sol\":2334:2347  _checkOwner() */\n      jump\t// in\n    tag_179:\n        /* \"contracts/DonationPlatformV2.sol\":1455:1475  _addCharity(charity) */\n      tag_181\n        /* \"contracts/DonationPlatformV2.sol\":1467:1474  charity */\n      dup2\n        /* \"contracts/DonationPlatformV2.sol\":1455:1466  _addCharity */\n      tag_182\n        /* \"contracts/DonationPlatformV2.sol\":1455:1475  _addCharity(charity) */\n      jump\t// in\n    tag_181:\n        /* \"contracts/DonationPlatformV2.sol\":1389:1482  function addCharity(address charity) external onlyOwner {... */\n      pop\n      jump\t// out\n        /* \"@openzeppelin/contracts-upgradeable/access/OwnableUpgradeable.sol\":2441:2585  function owner() public view virtual returns (address) {... */\n    tag_58:\n        /* \"@openzeppelin/contracts-upgradeable/access/OwnableUpgradeable.sol\":2487:2494  address */\n      0x00\n        /* \"@openzeppelin/contracts-upgradeable/access/OwnableUpgradeable.sol\":2506:2530  OwnableStorage storage $ */\n      0x00\n        /* \"@openzeppelin/contracts-upgradeable/access/OwnableUpgradeable.sol\":2533:2553  _getOwnableStorage() */\n      tag_184\n        /* \"@openzeppelin/contracts-upgradeable/access/OwnableUpgradeable.sol\":2533:2551  _getOwnableStorage */\n      tag_185\n        /* \"@openzeppelin/contracts-upgradeable/access/OwnableUpgradeable.sol\":2533:2553  _getOwnableStorage() */\n      jump\t// in\n    tag_184:\n        /* \"@openzeppelin/contracts-upgradeable/access/OwnableUpgradeable.sol\":2506:2553  OwnableStorage storage $ = _getOwnableStorage() */\n      swap1\n      pop\n        /* \"@openzeppelin/contracts-upgradeable/access/OwnableUpgradeable.sol\":2570:2571  $ */\n      dup1\n        /* \"@openzeppelin/contracts-upgradeable/access/OwnableUpgradeable.sol\":2570:2578  $._owner */\n      0x00\n      add\n      0x00\n      swap1\n      sload\n      swap1\n      0x0100\n      exp\n      swap1\n      div\n      0xffffffffffffffffffffffffffffffffffffffff\n      and\n        /* \"@openzeppelin/contracts-upgradeable/access/OwnableUpgradeable.sol\":2563:2578  return $._owner */\n      swap2\n      pop\n      pop\n        /* \"@openzeppelin/contracts-upgradeable/access/OwnableUpgradeable.sol\":2441:2585  function owner() public view virtual returns (address) {... */\n      swap1\n      jump\t// out\n        /* \"contracts/DonationPlatformV2.sol\":1488:1807  function removeCharity(address charity) external onlyOwner {... */\n    tag_64:\n        /* \"@openzeppelin/contracts-upgradeable/access/OwnableUpgradeable.sol\":2334:2347  _checkOwner() */\n      tag_187\n        /* \"@openzeppelin/contracts-upgradeable/access/OwnableUpgradeable.sol\":2334:2345  _checkOwner */\n      tag_174\n        /* \"@openzeppelin/contracts-upgradeable/access/OwnableUpgradeable.sol\":2334:2347  _checkOwner() */\n      jump\t// in\n    tag_187:\n        /* \"contracts/DonationPlatformV2.sol\":1565:1574  isCharity */\n      0x35\n        /* \"contracts/DonationPlatformV2.sol\":1565:1583  isCharity[charity] */\n      0x00\n        /* \"contracts/DonationPlatformV2.sol\":1575:1582  charity */\n      dup3\n        /* \"contracts/DonationPlatformV2.sol\":1565:1583  isCharity[charity] */\n      0xffffffffffffffffffffffffffffffffffffffff\n      and\n      0xffffffffffffffffffffffffffffffffffffffff\n      and\n      dup2\n      mstore\n      0x20\n      add\n      swap1\n      dup2\n      mstore\n      0x20\n      add\n      0x00\n      keccak256\n      0x00\n      swap1\n      sload\n      swap1\n      0x0100\n      exp\n      swap1\n      div\n      0xff\n      and\n        /* \"contracts/DonationPlatformV2.sol\":1557:1601  require(isCharity[charity], \"Not a charity\") */\n      tag_189\n      jumpi\n      mload(0x40)\n      0x08c379a000000000000000000000000000000000000000000000000000000000\n      dup2\n      mstore\n      0x04\n      add\n      tag_190\n      swap1\n      tag_191\n      jump\t// in\n    tag_190:\n      mload(0x40)\n      dup1\n      swap2\n      sub\n      swap1\n      revert\n    tag_189:\n        /* \"contracts/DonationPlatformV2.sol\":1632:1637  false */\n      0x00\n        /* \"contracts/DonationPlatformV2.sol\":1611:1620  isCharity */\n      0x35\n        /* \"contracts/DonationPlatformV2.sol\":1611:1629  isCharity[charity] */\n      0x00\n        /* \"contracts/DonationPlatformV2.sol\":1621:1628  charity */\n      dup4\n        /* \"contracts/DonationPlatformV2.sol\":1611:1629  isCharity[charity] */\n      0xffffffffffffffffffffffffffffffffffffffff\n      and\n      0xffffffffffffffffffffffffffffffffffffffff\n      and\n      dup2\n      mstore\n      0x20\n      add\n      swap1\n      dup2\n      mstore\n      0x20\n      add\n      0x00\n      keccak256\n      0x00\n        /* \"contracts/DonationPlatformV2.sol\":1611:1637  isCharity[charity] = false */\n      0x0100\n      exp\n      dup2\n      sload\n      dup2\n      0xff\n      mul\n      not\n      and\n      swap1\n      dup4\n      iszero\n      iszero\n      mul\n      or\n      swap1\n      sstore\n      pop\n        /* \"contracts/DonationPlatformV2.sol\":1667:1674  charity */\n      dup1\n        /* \"contracts/DonationPlatformV2.sol\":1652:1675  CharityRemoved(charity) */\n      0xffffffffffffffffffffffffffffffffffffffff\n      and\n      0x7db8df158d85e9475e8dd97a5e3e193c67dc6d977d2fc4f7321049b6c0b70e93\n      mload(0x40)\n      mload(0x40)\n      dup1\n      swap2\n      sub\n      swap1\n      log2\n        /* \"contracts/DonationPlatformV2.sol\":1488:1807  function removeCharity(address charity) external onlyOwner {... */\n      pop\n      jump\t// out\n        /* \"@openzeppelin/contracts-upgradeable/proxy/utils/UUPSUpgradeable.sol\":1819:1877  string public constant UPGRADE_INTERFACE_VERSION = \"5.0.0\" */\n    tag_67:\n      mload(0x40)\n      dup1\n      0x40\n      add\n      0x40\n      mstore\n      dup1\n      0x05\n      dup2\n      mstore\n      0x20\n      add\n      0x352e302e30000000000000000000000000000000000000000000000000000000\n      dup2\n      mstore\n      pop\n      dup2\n      jump\t// out\n        /* \"contracts/DonationPlatformV2.sol\":2093:2191  function charitiesCount() external view returns (uint256) {... */\n    tag_72:\n        /* \"contracts/DonationPlatformV2.sol\":2142:2149  uint256 */\n      0x00\n        /* \"contracts/DonationPlatformV2.sol\":2168:2177  charities */\n      0x37\n        /* \"contracts/DonationPlatformV2.sol\":2168:2184  charities.length */\n      dup1\n      sload\n      swap1\n      pop\n        /* \"contracts/DonationPlatformV2.sol\":2161:2184  return charities.length */\n      swap1\n      pop\n        /* \"contracts/DonationPlatformV2.sol\":2093:2191  function charitiesCount() external view returns (uint256) {... */\n      swap1\n      jump\t// out\n        /* \"contracts/DonationPlatformV2.sol\":320:372  mapping(address => uint256) public charityBalanceWei */\n    tag_77:\n      mstore(0x20, 0x36)\n      dup1\n      0x00\n      mstore\n      keccak256(0x00, 0x40)\n      0x00\n      swap2\n      pop\n      swap1\n      pop\n      sload\n      dup2\n      jump\t// out\n        /* \"contracts/DonationPlatformV1.sol\":1064:1108  mapping(address => uint256) public donatedBy */\n    tag_82:\n      mstore(0x20, 0x34)\n      dup1\n      0x00\n      mstore\n      keccak256(0x00, 0x40)\n      0x00\n      swap2\n      pop\n      swap1\n      pop\n      sload\n      dup2\n      jump\t// out\n        /* \"contracts/DonationPlatformV2.sol\":1075:1287  function initializeV2(address[] calldata initialCharities) external reinitializer(2) {... */\n    tag_88:\n        /* \"contracts/DonationPlatformV2.sol\":1157:1158  2 */\n      0x02\n        /* \"@openzeppelin/contracts-upgradeable/proxy/utils/Initializable.sol\":6355:6385  InitializableStorage storage $ */\n      0x00\n        /* \"@openzeppelin/contracts-upgradeable/proxy/utils/Initializable.sol\":6388:6414  _getInitializableStorage() */\n      tag_194\n        /* \"@openzeppelin/contracts-upgradeable/proxy/utils/Initializable.sol\":6388:6412  _getInitializableStorage */\n      tag_195\n        /* \"@openzeppelin/contracts-upgradeable/proxy/utils/Initializable.sol\":6388:6414  _getInitializableStorage() */\n      jump\t// in\n    tag_194:\n        /* \"@openzeppelin/contracts-upgradeable/proxy/utils/Initializable.sol\":6355:6414  InitializableStorage storage $ = _getInitializableStorage() */\n      swap1\n      pop\n        /* \"@openzeppelin/contracts-upgradeable/proxy/utils/Initializable.sol\":6429:6430  $ */\n      dup1\n        /* \"@openzeppelin/contracts-upgradeable/proxy/utils/Initializable.sol\":6429:6444  $._initializing */\n      0x00\n      add\n      0x08\n      swap1\n      sload\n      swap1\n      0x0100\n      exp\n      swap1\n      div\n      0xff\n      and\n        /* \"@openzeppelin/contracts-upgradeable/proxy/utils/Initializable.sol\":6429:6473  $._initializing || $._initialized >= version */\n      dup1\n      tag_196\n      jumpi\n      pop\n        /* \"@openzeppelin/contracts-upgradeable/proxy/utils/Initializable.sol\":6466:6473  version */\n      dup2\n        /* \"@openzeppelin/contracts-upgradeable/proxy/utils/Initializable.sol\":6448:6473  $._initialized >= version */\n      0xffffffffffffffff\n      and\n        /* \"@openzeppelin/contracts-upgradeable/proxy/utils/Initializable.sol\":6448:6449  $ */\n      dup2\n        /* \"@openzeppelin/contracts-upgradeable/proxy/utils/Initializable.sol\":6448:6462  $._initialized */\n      0x00\n      add\n      0x00\n      swap1\n      sload\n      swap1\n      0x0100\n      exp\n      swap1\n      div\n      0xffffffffffffffff\n      and\n        /* \"@openzeppelin/contracts-upgradeable/proxy/utils/Initializable.sol\":6448:6473  $._initialized >= version */\n      0xffffffffffffffff\n      and\n      lt\n      iszero\n        /* \"@openzeppelin/contracts-upgradeable/proxy/utils/Initializable.sol\":6429:6473  $._initializing || $._initialized >= version */\n    tag_196:\n        /* \"@openzeppelin/contracts-upgradeable/proxy/utils/Initializable.sol\":6425:6530  if ($._initializing || $._initialized >= version) {... */\n      iszero\n      tag_197\n      jumpi\n        /* \"@openzeppelin/contracts-upgradeable/proxy/utils/Initializable.sol\":6496:6519  InvalidInitialization() */\n      mload(0x40)\n      0xf92ee8a900000000000000000000000000000000000000000000000000000000\n      dup2\n      mstore\n      0x04\n      add\n      mload(0x40)\n      dup1\n      swap2\n      sub\n      swap1\n      revert\n        /* \"@openzeppelin/contracts-upgradeable/proxy/utils/Initializable.sol\":6425:6530  if ($._initializing || $._initialized >= version) {... */\n    tag_197:\n        /* \"@openzeppelin/contracts-upgradeable/proxy/utils/Initializable.sol\":6556:6563  version */\n      dup2\n        /* \"@openzeppelin/contracts-upgradeable/proxy/utils/Initializable.sol\":6539:6540  $ */\n      dup2\n        /* \"@openzeppelin/contracts-upgradeable/proxy/utils/Initializable.sol\":6539:6553  $._initialized */\n      0x00\n      add\n      0x00\n        /* \"@openzeppelin/contracts-upgradeable/proxy/utils/Initializable.sol\":6539:6563  $._initialized = version */\n      0x0100\n      exp\n      dup2\n      sload\n      dup2\n      0xffffffffffffffff\n      mul\n      not\n      and\n      swap1\n      dup4\n      0xffffffffffffffff\n      and\n      mul\n      or\n      swap1\n      sstore\n      pop\n        /* \"@openzeppelin/contracts-upgradeable/proxy/utils/Initializable.sol\":6591:6595  true */\n      0x01\n        /* \"@openzeppelin/contracts-upgradeable/proxy/utils/Initializable.sol\":6573:6574  $ */\n      dup2\n        /* \"@openzeppelin/contracts-upgradeable/proxy/utils/Initializable.sol\":6573:6588  $._initializing */\n      0x00\n      add\n      0x08\n        /* \"@openzeppelin/contracts-upgradeable/proxy/utils/Initializable.sol\":6573:6595  $._initializing = true */\n      0x0100\n      exp\n      dup2\n      sload\n      dup2\n      0xff\n      mul\n      not\n      and\n      swap1\n      dup4\n      iszero\n      iszero\n      mul\n      or\n      swap1\n      sstore\n      pop\n        /* \"contracts/DonationPlatformV2.sol\":1175:1184  uint256 i */\n      0x00\n        /* \"contracts/DonationPlatformV2.sol\":1187:1188  0 */\n      0x00\n        /* \"contracts/DonationPlatformV2.sol\":1175:1188  uint256 i = 0 */\n      swap1\n      pop\n        /* \"contracts/DonationPlatformV2.sol\":1170:1281  for (uint256 i = 0; i < initialCharities.length; i++) {... */\n    tag_199:\n        /* \"contracts/DonationPlatformV2.sol\":1194:1210  initialCharities */\n      dup5\n      dup5\n        /* \"contracts/DonationPlatformV2.sol\":1194:1217  initialCharities.length */\n      swap1\n      pop\n        /* \"contracts/DonationPlatformV2.sol\":1190:1191  i */\n      dup2\n        /* \"contracts/DonationPlatformV2.sol\":1190:1217  i < initialCharities.length */\n      lt\n        /* \"contracts/DonationPlatformV2.sol\":1170:1281  for (uint256 i = 0; i < initialCharities.length; i++) {... */\n      iszero\n      tag_200\n      jumpi\n        /* \"contracts/DonationPlatformV2.sol\":1238:1270  _addCharity(initialCharities[i]) */\n      tag_202\n        /* \"contracts/DonationPlatformV2.sol\":1250:1266  initialCharities */\n      dup6\n      dup6\n        /* \"contracts/DonationPlatformV2.sol\":1267:1268  i */\n      dup4\n        /* \"contracts/DonationPlatformV2.sol\":1250:1269  initialCharities[i] */\n      dup2\n      dup2\n      lt\n      tag_203\n      jumpi\n      tag_204\n      tag_205\n      jump\t// in\n    tag_204:\n    tag_203:\n      swap1\n      pop\n      0x20\n      mul\n      add\n      0x20\n      dup2\n      add\n      swap1\n      tag_206\n      swap2\n      swap1\n      tag_33\n      jump\t// in\n    tag_206:\n        /* \"contracts/DonationPlatformV2.sol\":1238:1249  _addCharity */\n      tag_182\n        /* \"contracts/DonationPlatformV2.sol\":1238:1270  _addCharity(initialCharities[i]) */\n      jump\t// in\n    tag_202:\n        /* \"contracts/DonationPlatformV2.sol\":1219:1222  i++ */\n      dup1\n      dup1\n      0x01\n      add\n      swap2\n      pop\n      pop\n        /* \"contracts/DonationPlatformV2.sol\":1170:1281  for (uint256 i = 0; i < initialCharities.length; i++) {... */\n      jump(tag_199)\n    tag_200:\n      pop\n        /* \"@openzeppelin/contracts-upgradeable/proxy/utils/Initializable.sol\":6634:6639  false */\n      0x00\n        /* \"@openzeppelin/contracts-upgradeable/proxy/utils/Initializable.sol\":6616:6617  $ */\n      dup2\n        /* \"@openzeppelin/contracts-upgradeable/proxy/utils/Initializable.sol\":6616:6631  $._initializing */\n      0x00\n      add\n      0x08\n        /* \"@openzeppelin/contracts-upgradeable/proxy/utils/Initializable.sol\":6616:6639  $._initializing = false */\n      0x0100\n      exp\n      dup2\n      sload\n      dup2\n      0xff\n      mul\n      not\n      and\n      swap1\n      dup4\n      iszero\n      iszero\n      mul\n      or\n      swap1\n      sstore\n      pop\n        /* \"@openzeppelin/contracts-upgradeable/proxy/utils/Initializable.sol\":6654:6674  Initialized(version) */\n      0xc7f505b2f371ae2175ee4913f4499e1f2633a7b5936321eed1cdaeb6115181d2\n        /* \"@openzeppelin/contracts-upgradeable/proxy/utils/Initializable.sol\":6666:6673  version */\n      dup3\n        /* \"@openzeppelin/contracts-upgradeable/proxy/utils/Initializable.sol\":6654:6674  Initialized(version) */\n      mload(0x40)\n      tag_207\n      swap2\n      swap1\n      tag_208\n      jump\t// in\n    tag_207:\n      mload(0x40)\n      dup1\n      swap2\n      sub\n      swap1\n      log1\n        /* \"@openzeppelin/contracts-upgradeable/proxy/utils/Initializable.sol\":6289:6681  {... */\n      pop\n        /* \"contracts/DonationPlatformV2.sol\":1075:1287  function initializeV2(address[] calldata initialCharities) external reinitializer(2) {... */\n      pop\n      pop\n      pop\n      jump\t// out\n        /* \"contracts/DonationPlatformV2.sol\":247:288  mapping(address => bool) public isCharity */\n    tag_92:\n      mstore(0x20, 0x35)\n      dup1\n      0x00\n      mstore\n      keccak256(0x00, 0x40)\n      0x00\n      swap2\n      pop\n      sload\n      swap1\n      0x0100\n      exp\n      swap1\n      div\n      0xff\n      and\n      dup2\n      jump\t// out\n        /* \"contracts/DonationPlatformV1.sol\":920:949  uint256 public minDonationWei */\n    tag_97:\n      sload(0x32)\n      dup2\n      jump\t// out\n        /* \"contracts/DonationPlatformV1.sol\":2317:2794  function donate() external payable {        // external means callable from outside (users/other contracts), payable that it's allowed to receive ETH ... */\n    tag_100:\n        /* \"contracts/DonationPlatformV1.sol\":2497:2511  minDonationWei */\n      sload(0x32)\n        /* \"contracts/DonationPlatformV1.sol\":2484:2493  msg.value */\n      callvalue\n        /* \"contracts/DonationPlatformV1.sol\":2484:2511  msg.value >= minDonationWei */\n      lt\n      iszero\n        /* \"contracts/DonationPlatformV1.sol\":2476:2534  require(msg.value >= minDonationWei, \"Donation too small\") */\n      tag_210\n      jumpi\n      mload(0x40)\n      0x08c379a000000000000000000000000000000000000000000000000000000000\n      dup2\n      mstore\n      0x04\n      add\n      tag_211\n      swap1\n      tag_125\n      jump\t// in\n    tag_211:\n      mload(0x40)\n      dup1\n      swap2\n      sub\n      swap1\n      revert\n    tag_210:\n        /* \"contracts/DonationPlatformV1.sol\":2630:2639  msg.value */\n      callvalue\n        /* \"contracts/DonationPlatformV1.sol\":2605:2614  donatedBy */\n      0x34\n        /* \"contracts/DonationPlatformV1.sol\":2605:2626  donatedBy[msg.sender] */\n      0x00\n        /* \"contracts/DonationPlatformV1.sol\":2615:2625  msg.sender */\n      caller\n        /* \"contracts/DonationPlatformV1.sol\":2605:2626  donatedBy[msg.sender] */\n      0xffffffffffffffffffffffffffffffffffffffff\n      and\n      0xffffffffffffffffffffffffffffffffffffffff\n      and\n      dup2\n      mstore\n      0x20\n      add\n      swap1\n      dup2\n      mstore\n      0x20\n      add\n      0x00\n      keccak256\n      0x00\n        /* \"contracts/DonationPlatformV1.sol\":2605:2639  donatedBy[msg.sender] += msg.value */\n      dup3\n      dup3\n      sload\n      tag_212\n      swap2\n      swap1\n      tag_127\n      jump\t// in\n    tag_212:\n      swap3\n      pop\n      pop\n      dup2\n      swap1\n      sstore\n      pop\n        /* \"contracts/DonationPlatformV1.sol\":2732:2741  msg.value */\n      callvalue\n        /* \"contracts/DonationPlatformV1.sol\":2716:2728  totalDonated */\n      0x33\n      0x00\n        /* \"contracts/DonationPlatformV1.sol\":2716:2741  totalDonated += msg.value */\n      dup3\n      dup3\n      sload\n      tag_213\n      swap2\n      swap1\n      tag_127\n      jump\t// in\n    tag_213:\n      swap3\n      pop\n      pop\n      dup2\n      swap1\n      sstore\n      pop\n        /* \"contracts/DonationPlatformV1.sol\":2765:2775  msg.sender */\n      caller\n        /* \"contracts/DonationPlatformV1.sol\":2757:2787  Donated(msg.sender, msg.value) */\n      0xffffffffffffffffffffffffffffffffffffffff\n      and\n      0x2a01595cddf097c90216094025db714da3f4e5bd8877b56ba86a24ecead8e543\n        /* \"contracts/DonationPlatformV1.sol\":2777:2786  msg.value */\n      callvalue\n        /* \"contracts/DonationPlatformV1.sol\":2757:2787  Donated(msg.sender, msg.value) */\n      mload(0x40)\n      tag_214\n      swap2\n      swap1\n      tag_30\n      jump\t// in\n    tag_214:\n      mload(0x40)\n      dup1\n      swap2\n      sub\n      swap1\n      log2\n        /* \"contracts/DonationPlatformV1.sol\":2317:2794  function donate() external payable {        // external means callable from outside (users/other contracts), payable that it's allowed to receive ETH ... */\n      jump\t// out\n        /* \"@openzeppelin/contracts-upgradeable/access/OwnableUpgradeable.sol\":3405:3620  function transferOwnership(address newOwner) public virtual onlyOwner {... */\n    tag_104:\n        /* \"@openzeppelin/contracts-upgradeable/access/OwnableUpgradeable.sol\":2334:2347  _checkOwner() */\n      tag_216\n        /* \"@openzeppelin/contracts-upgradeable/access/OwnableUpgradeable.sol\":2334:2345  _checkOwner */\n      tag_174\n        /* \"@openzeppelin/contracts-upgradeable/access/OwnableUpgradeable.sol\":2334:2347  _checkOwner() */\n      jump\t// in\n    tag_216:\n        /* \"@openzeppelin/contracts-upgradeable/access/OwnableUpgradeable.sol\":3509:3510  0 */\n      0x00\n        /* \"@openzeppelin/contracts-upgradeable/access/OwnableUpgradeable.sol\":3489:3511  newOwner == address(0) */\n      0xffffffffffffffffffffffffffffffffffffffff\n      and\n        /* \"@openzeppelin/contracts-upgradeable/access/OwnableUpgradeable.sol\":3489:3497  newOwner */\n      dup2\n        /* \"@openzeppelin/contracts-upgradeable/access/OwnableUpgradeable.sol\":3489:3511  newOwner == address(0) */\n      0xffffffffffffffffffffffffffffffffffffffff\n      and\n      sub\n        /* \"@openzeppelin/contracts-upgradeable/access/OwnableUpgradeable.sol\":3485:3576  if (newOwner == address(0)) {... */\n      tag_218\n      jumpi\n        /* \"@openzeppelin/contracts-upgradeable/access/OwnableUpgradeable.sol\":3562:3563  0 */\n      0x00\n        /* \"@openzeppelin/contracts-upgradeable/access/OwnableUpgradeable.sol\":3534:3565  OwnableInvalidOwner(address(0)) */\n      mload(0x40)\n      0x1e4fbdf700000000000000000000000000000000000000000000000000000000\n      dup2\n      mstore\n      0x04\n      add\n      tag_219\n      swap2\n      swap1\n      tag_60\n      jump\t// in\n    tag_219:\n      mload(0x40)\n      dup1\n      swap2\n      sub\n      swap1\n      revert\n        /* \"@openzeppelin/contracts-upgradeable/access/OwnableUpgradeable.sol\":3485:3576  if (newOwner == address(0)) {... */\n    tag_218:\n        /* \"@openzeppelin/contracts-upgradeable/access/OwnableUpgradeable.sol\":3585:3613  _transferOwnership(newOwner) */\n      tag_220\n        /* \"@openzeppelin/contracts-upgradeable/access/OwnableUpgradeable.sol\":3604:3612  newOwner */\n      dup2\n        /* \"@openzeppelin/contracts-upgradeable/access/OwnableUpgradeable.sol\":3585:3603  _transferOwnership */\n      tag_177\n        /* \"@openzeppelin/contracts-upgradeable/access/OwnableUpgradeable.sol\":3585:3613  _transferOwnership(newOwner) */\n      jump\t// in\n    tag_220:\n        /* \"@openzeppelin/contracts-upgradeable/access/OwnableUpgradeable.sol\":3405:3620  function transferOwnership(address newOwner) public virtual onlyOwner {... */\n      pop\n      jump\t// out\n        /* \"contracts/DonationPlatformV1.sol\":2977:3499  function withdraw(address payable to, uint256 amountWei)... */\n    tag_108:\n        /* \"@openzeppelin/contracts-upgradeable/access/OwnableUpgradeable.sol\":2334:2347  _checkOwner() */\n      tag_222\n        /* \"@openzeppelin/contracts-upgradeable/access/OwnableUpgradeable.sol\":2334:2345  _checkOwner */\n      tag_174\n        /* \"@openzeppelin/contracts-upgradeable/access/OwnableUpgradeable.sol\":2334:2347  _checkOwner() */\n      jump\t// in\n    tag_222:\n        /* \"@openzeppelin/contracts-upgradeable/security/ReentrancyGuardUpgradeable.sol\":2526:2547  _nonReentrantBefore() */\n      tag_224\n        /* \"@openzeppelin/contracts-upgradeable/security/ReentrancyGuardUpgradeable.sol\":2526:2545  _nonReentrantBefore */\n      tag_133\n        /* \"@openzeppelin/contracts-upgradeable/security/ReentrancyGuardUpgradeable.sol\":2526:2547  _nonReentrantBefore() */\n      jump\t// in\n    tag_224:\n        /* \"contracts/DonationPlatformV1.sol\":3126:3127  0 */\n      0x00\n        /* \"contracts/DonationPlatformV1.sol\":3112:3128  to != address(0) */\n      0xffffffffffffffffffffffffffffffffffffffff\n      and\n        /* \"contracts/DonationPlatformV1.sol\":3112:3114  to */\n      dup3\n        /* \"contracts/DonationPlatformV1.sol\":3112:3128  to != address(0) */\n      0xffffffffffffffffffffffffffffffffffffffff\n      and\n      sub\n        /* \"contracts/DonationPlatformV1.sol\":3104:3150  require(to != address(0), \"Invalid recipient\") */\n      tag_226\n      jumpi\n      mload(0x40)\n      0x08c379a000000000000000000000000000000000000000000000000000000000\n      dup2\n      mstore\n      0x04\n      add\n      tag_227\n      swap1\n      tag_140\n      jump\t// in\n    tag_227:\n      mload(0x40)\n      dup1\n      swap2\n      sub\n      swap1\n      revert\n    tag_226:\n        /* \"contracts/DonationPlatformV1.sol\":3180:3181  0 */\n      0x00\n        /* \"contracts/DonationPlatformV1.sol\":3168:3177  amountWei */\n      dup2\n        /* \"contracts/DonationPlatformV1.sol\":3168:3181  amountWei > 0 */\n      gt\n        /* \"contracts/DonationPlatformV1.sol\":3160:3204  require(amountWei > 0, \"Amount must be > 0\") */\n      tag_228\n      jumpi\n      mload(0x40)\n      0x08c379a000000000000000000000000000000000000000000000000000000000\n      dup2\n      mstore\n      0x04\n      add\n      tag_229\n      swap1\n      tag_143\n      jump\t// in\n    tag_229:\n      mload(0x40)\n      dup1\n      swap2\n      sub\n      swap1\n      revert\n    tag_228:\n        /* \"contracts/DonationPlatformV1.sol\":3235:3256  address(this).balance */\n      selfbalance\n        /* \"contracts/DonationPlatformV1.sol\":3222:3231  amountWei */\n      dup2\n        /* \"contracts/DonationPlatformV1.sol\":3222:3256  amountWei <= address(this).balance */\n      gt\n      iszero\n        /* \"contracts/DonationPlatformV1.sol\":3214:3275  require(amountWei <= address(this).balance, \"Not enough ETH\") */\n      tag_230\n      jumpi\n      mload(0x40)\n      0x08c379a000000000000000000000000000000000000000000000000000000000\n      dup2\n      mstore\n      0x04\n      add\n      tag_231\n      swap1\n      tag_232\n      jump\t// in\n    tag_231:\n      mload(0x40)\n      dup1\n      swap2\n      sub\n      swap1\n      revert\n    tag_230:\n        /* \"contracts/DonationPlatformV1.sol\":3370:3377  bool ok */\n      0x00\n        /* \"contracts/DonationPlatformV1.sol\":3383:3385  to */\n      dup3\n        /* \"contracts/DonationPlatformV1.sol\":3383:3390  to.call */\n      0xffffffffffffffffffffffffffffffffffffffff\n      and\n        /* \"contracts/DonationPlatformV1.sol\":3398:3407  amountWei */\n      dup3\n        /* \"contracts/DonationPlatformV1.sol\":3383:3412  to.call{value: amountWei}(\"\") */\n      mload(0x40)\n      tag_233\n      swap1\n      tag_150\n      jump\t// in\n    tag_233:\n      0x00\n      mload(0x40)\n      dup1\n      dup4\n      sub\n      dup2\n      dup6\n      dup8\n      gas\n      call\n      swap3\n      pop\n      pop\n      pop\n      returndatasize\n      dup1\n      0x00\n      dup2\n      eq\n      tag_236\n      jumpi\n      mload(0x40)\n      swap2\n      pop\n      and(add(returndatasize, 0x3f), not(0x1f))\n      dup3\n      add\n      0x40\n      mstore\n      returndatasize\n      dup3\n      mstore\n      returndatasize\n      0x00\n      0x20\n      dup5\n      add\n      returndatacopy\n      jump(tag_235)\n    tag_236:\n      0x60\n      swap2\n      pop\n    tag_235:\n      pop\n        /* \"contracts/DonationPlatformV1.sol\":3369:3412  (bool ok, ) = to.call{value: amountWei}(\"\") */\n      pop\n      swap1\n      pop\n        /* \"contracts/DonationPlatformV1.sol\":3430:3432  ok */\n      dup1\n        /* \"contracts/DonationPlatformV1.sol\":3422:3452  require(ok, \"Transfer failed\") */\n      tag_237\n      jumpi\n      mload(0x40)\n      0x08c379a000000000000000000000000000000000000000000000000000000000\n      dup2\n      mstore\n      0x04\n      add\n      tag_238\n      swap1\n      tag_156\n      jump\t// in\n    tag_238:\n      mload(0x40)\n      dup1\n      swap2\n      sub\n      swap1\n      revert\n    tag_237:\n        /* \"contracts/DonationPlatformV1.sol\":3478:3480  to */\n      dup3\n        /* \"contracts/DonationPlatformV1.sol\":3468:3492  Withdrawn(to, amountWei) */\n      0xffffffffffffffffffffffffffffffffffffffff\n      and\n      0x7084f5476618d8e60b11ef0d7d3f06914655adb8793e28ff7f018d4c76d505d5\n        /* \"contracts/DonationPlatformV1.sol\":3482:3491  amountWei */\n      dup4\n        /* \"contracts/DonationPlatformV1.sol\":3468:3492  Withdrawn(to, amountWei) */\n      mload(0x40)\n      tag_239\n      swap2\n      swap1\n      tag_30\n      jump\t// in\n    tag_239:\n      mload(0x40)\n      dup1\n      swap2\n      sub\n      swap1\n      log2\n        /* \"contracts/DonationPlatformV1.sol\":3094:3499  {... */\n      pop\n        /* \"@openzeppelin/contracts-upgradeable/security/ReentrancyGuardUpgradeable.sol\":2568:2588  _nonReentrantAfter() */\n      tag_240\n        /* \"@openzeppelin/contracts-upgradeable/security/ReentrancyGuardUpgradeable.sol\":2568:2586  _nonReentrantAfter */\n      tag_159\n        /* \"@openzeppelin/contracts-upgradeable/security/ReentrancyGuardUpgradeable.sol\":2568:2588  _nonReentrantAfter() */\n      jump\t// in\n    tag_240:\n        /* \"contracts/DonationPlatformV1.sol\":2977:3499  function withdraw(address payable to, uint256 amountWei)... */\n      pop\n      pop\n      jump\t// out\n        /* \"contracts/DonationPlatformV2.sol\":406:432  address[] public charities */\n    tag_113:\n      0x37\n      dup2\n      dup2\n      sload\n      dup2\n      lt\n      tag_241\n      jumpi\n      0x00\n      dup1\n      revert\n    tag_241:\n      swap1\n      0x00\n      mstore\n      keccak256(0x00, 0x20)\n      add\n      0x00\n      swap2\n      pop\n      sload\n      swap1\n      0x0100\n      exp\n      swap1\n      div\n      0xffffffffffffffffffffffffffffffffffffffff\n      and\n      dup2\n      jump\t// out\n        /* \"contracts/DonationPlatformV1.sol\":1518:1967  function initialize(uint256 _minDonationWei) public initializer {... */\n    tag_118:\n        /* \"@openzeppelin/contracts-upgradeable/proxy/utils/Initializable.sol\":4158:4188  InitializableStorage storage $ */\n      0x00\n        /* \"@openzeppelin/contracts-upgradeable/proxy/utils/Initializable.sol\":4191:4217  _getInitializableStorage() */\n      tag_244\n        /* \"@openzeppelin/contracts-upgradeable/proxy/utils/Initializable.sol\":4191:4215  _getInitializableStorage */\n      tag_195\n        /* \"@openzeppelin/contracts-upgradeable/proxy/utils/Initializable.sol\":4191:4217  _getInitializableStorage() */\n      jump\t// in\n    tag_244:\n        /* \"@openzeppelin/contracts-upgradeable/proxy/utils/Initializable.sol\":4158:4217  InitializableStorage storage $ = _getInitializableStorage() */\n      swap1\n      pop\n        /* \"@openzeppelin/contracts-upgradeable/proxy/utils/Initializable.sol\":4279:4298  bool isTopLevelCall */\n      0x00\n        /* \"@openzeppelin/contracts-upgradeable/proxy/utils/Initializable.sol\":4302:4303  $ */\n      dup2\n        /* \"@openzeppelin/contracts-upgradeable/proxy/utils/Initializable.sol\":4302:4317  $._initializing */\n      0x00\n      add\n      0x08\n      swap1\n      sload\n      swap1\n      0x0100\n      exp\n      swap1\n      div\n      0xff\n      and\n        /* \"@openzeppelin/contracts-upgradeable/proxy/utils/Initializable.sol\":4301:4317  !$._initializing */\n      iszero\n        /* \"@openzeppelin/contracts-upgradeable/proxy/utils/Initializable.sol\":4279:4317  bool isTopLevelCall = !$._initializing */\n      swap1\n      pop\n        /* \"@openzeppelin/contracts-upgradeable/proxy/utils/Initializable.sol\":4327:4345  uint64 initialized */\n      0x00\n        /* \"@openzeppelin/contracts-upgradeable/proxy/utils/Initializable.sol\":4348:4349  $ */\n      dup3\n        /* \"@openzeppelin/contracts-upgradeable/proxy/utils/Initializable.sol\":4348:4362  $._initialized */\n      0x00\n      add\n      0x00\n      swap1\n      sload\n      swap1\n      0x0100\n      exp\n      swap1\n      div\n      0xffffffffffffffff\n      and\n        /* \"@openzeppelin/contracts-upgradeable/proxy/utils/Initializable.sol\":4327:4362  uint64 initialized = $._initialized */\n      swap1\n      pop\n        /* \"@openzeppelin/contracts-upgradeable/proxy/utils/Initializable.sol\":4704:4721  bool initialSetup */\n      0x00\n        /* \"@openzeppelin/contracts-upgradeable/proxy/utils/Initializable.sol\":4739:4740  0 */\n      0x00\n        /* \"@openzeppelin/contracts-upgradeable/proxy/utils/Initializable.sol\":4724:4735  initialized */\n      dup3\n        /* \"@openzeppelin/contracts-upgradeable/proxy/utils/Initializable.sol\":4724:4740  initialized == 0 */\n      0xffffffffffffffff\n      and\n      eq\n        /* \"@openzeppelin/contracts-upgradeable/proxy/utils/Initializable.sol\":4724:4758  initialized == 0 && isTopLevelCall */\n      dup1\n      iszero\n      tag_245\n      jumpi\n      pop\n        /* \"@openzeppelin/contracts-upgradeable/proxy/utils/Initializable.sol\":4744:4758  isTopLevelCall */\n      dup3\n        /* \"@openzeppelin/contracts-upgradeable/proxy/utils/Initializable.sol\":4724:4758  initialized == 0 && isTopLevelCall */\n    tag_245:\n        /* \"@openzeppelin/contracts-upgradeable/proxy/utils/Initializable.sol\":4704:4758  bool initialSetup = initialized == 0 && isTopLevelCall */\n      swap1\n      pop\n        /* \"@openzeppelin/contracts-upgradeable/proxy/utils/Initializable.sol\":4768:4785  bool construction */\n      0x00\n        /* \"@openzeppelin/contracts-upgradeable/proxy/utils/Initializable.sol\":4803:4804  1 */\n      0x01\n        /* \"@openzeppelin/contracts-upgradeable/proxy/utils/Initializable.sol\":4788:4799  initialized */\n      dup4\n        /* \"@openzeppelin/contracts-upgradeable/proxy/utils/Initializable.sol\":4788:4804  initialized == 1 */\n      0xffffffffffffffff\n      and\n      eq\n        /* \"@openzeppelin/contracts-upgradeable/proxy/utils/Initializable.sol\":4788:4838  initialized == 1 && address(this).code.length == 0 */\n      dup1\n      iszero\n      tag_246\n      jumpi\n      pop\n        /* \"@openzeppelin/contracts-upgradeable/proxy/utils/Initializable.sol\":4837:4838  0 */\n      0x00\n        /* \"@openzeppelin/contracts-upgradeable/proxy/utils/Initializable.sol\":4816:4820  this */\n      address\n        /* \"@openzeppelin/contracts-upgradeable/proxy/utils/Initializable.sol\":4808:4833  address(this).code.length */\n      0xffffffffffffffffffffffffffffffffffffffff\n      and\n      extcodesize\n        /* \"@openzeppelin/contracts-upgradeable/proxy/utils/Initializable.sol\":4808:4838  address(this).code.length == 0 */\n      eq\n        /* \"@openzeppelin/contracts-upgradeable/proxy/utils/Initializable.sol\":4788:4838  initialized == 1 && address(this).code.length == 0 */\n    tag_246:\n        /* \"@openzeppelin/contracts-upgradeable/proxy/utils/Initializable.sol\":4768:4838  bool construction = initialized == 1 && address(this).code.length == 0 */\n      swap1\n      pop\n        /* \"@openzeppelin/contracts-upgradeable/proxy/utils/Initializable.sol\":4854:4866  initialSetup */\n      dup2\n        /* \"@openzeppelin/contracts-upgradeable/proxy/utils/Initializable.sol\":4853:4866  !initialSetup */\n      iszero\n        /* \"@openzeppelin/contracts-upgradeable/proxy/utils/Initializable.sol\":4853:4883  !initialSetup && !construction */\n      dup1\n      iszero\n      tag_247\n      jumpi\n      pop\n        /* \"@openzeppelin/contracts-upgradeable/proxy/utils/Initializable.sol\":4871:4883  construction */\n      dup1\n        /* \"@openzeppelin/contracts-upgradeable/proxy/utils/Initializable.sol\":4870:4883  !construction */\n      iszero\n        /* \"@openzeppelin/contracts-upgradeable/proxy/utils/Initializable.sol\":4853:4883  !initialSetup && !construction */\n    tag_247:\n        /* \"@openzeppelin/contracts-upgradeable/proxy/utils/Initializable.sol\":4849:4940  if (!initialSetup && !construction) {... */\n      iszero\n      tag_248\n      jumpi\n        /* \"@openzeppelin/contracts-upgradeable/proxy/utils/Initializable.sol\":4906:4929  InvalidInitialization() */\n      mload(0x40)\n      0xf92ee8a900000000000000000000000000000000000000000000000000000000\n      dup2\n      mstore\n      0x04\n      add\n      mload(0x40)\n      dup1\n      swap2\n      sub\n      swap1\n      revert\n        /* \"@openzeppelin/contracts-upgradeable/proxy/utils/Initializable.sol\":4849:4940  if (!initialSetup && !construction) {... */\n    tag_248:\n        /* \"@openzeppelin/contracts-upgradeable/proxy/utils/Initializable.sol\":4966:4967  1 */\n      0x01\n        /* \"@openzeppelin/contracts-upgradeable/proxy/utils/Initializable.sol\":4949:4950  $ */\n      dup6\n        /* \"@openzeppelin/contracts-upgradeable/proxy/utils/Initializable.sol\":4949:4963  $._initialized */\n      0x00\n      add\n      0x00\n        /* \"@openzeppelin/contracts-upgradeable/proxy/utils/Initializable.sol\":4949:4967  $._initialized = 1 */\n      0x0100\n      exp\n      dup2\n      sload\n      dup2\n      0xffffffffffffffff\n      mul\n      not\n      and\n      swap1\n      dup4\n      0xffffffffffffffff\n      and\n      mul\n      or\n      swap1\n      sstore\n      pop\n        /* \"@openzeppelin/contracts-upgradeable/proxy/utils/Initializable.sol\":4981:4995  isTopLevelCall */\n      dup4\n        /* \"@openzeppelin/contracts-upgradeable/proxy/utils/Initializable.sol\":4977:5044  if (isTopLevelCall) {... */\n      iszero\n      tag_249\n      jumpi\n        /* \"@openzeppelin/contracts-upgradeable/proxy/utils/Initializable.sol\":5029:5033  true */\n      0x01\n        /* \"@openzeppelin/contracts-upgradeable/proxy/utils/Initializable.sol\":5011:5012  $ */\n      dup6\n        /* \"@openzeppelin/contracts-upgradeable/proxy/utils/Initializable.sol\":5011:5026  $._initializing */\n      0x00\n      add\n      0x08\n        /* \"@openzeppelin/contracts-upgradeable/proxy/utils/Initializable.sol\":5011:5033  $._initializing = true */\n      0x0100\n      exp\n      dup2\n      sload\n      dup2\n      0xff\n      mul\n      not\n      and\n      swap1\n      dup4\n      iszero\n      iszero\n      mul\n      or\n      swap1\n      sstore\n      pop\n        /* \"@openzeppelin/contracts-upgradeable/proxy/utils/Initializable.sol\":4977:5044  if (isTopLevelCall) {... */\n    tag_249:\n        /* \"contracts/DonationPlatformV1.sol\":1618:1619  0 */\n      0x00\n        /* \"contracts/DonationPlatformV1.sol\":1600:1615  _minDonationWei */\n      dup7\n        /* \"contracts/DonationPlatformV1.sol\":1600:1619  _minDonationWei > 0 */\n      gt\n        /* \"contracts/DonationPlatformV1.sol\":1592:1648  require(_minDonationWei > 0, \"Min donation must be > 0\") */\n      tag_251\n      jumpi\n      mload(0x40)\n      0x08c379a000000000000000000000000000000000000000000000000000000000\n      dup2\n      mstore\n      0x04\n      add\n      tag_252\n      swap1\n      tag_253\n      jump\t// in\n    tag_252:\n      mload(0x40)\n      dup1\n      swap2\n      sub\n      swap1\n      revert\n    tag_251:\n        /* \"contracts/DonationPlatformV1.sol\":1659:1685  __Ownable_init(msg.sender) */\n      tag_254\n        /* \"contracts/DonationPlatformV1.sol\":1674:1684  msg.sender */\n      caller\n        /* \"contracts/DonationPlatformV1.sol\":1659:1673  __Ownable_init */\n      tag_255\n        /* \"contracts/DonationPlatformV1.sol\":1659:1685  __Ownable_init(msg.sender) */\n      jump\t// in\n    tag_254:\n        /* \"contracts/DonationPlatformV1.sol\":1751:1775  __ReentrancyGuard_init() */\n      tag_256\n        /* \"contracts/DonationPlatformV1.sol\":1751:1773  __ReentrancyGuard_init */\n      tag_257\n        /* \"contracts/DonationPlatformV1.sol\":1751:1775  __ReentrancyGuard_init() */\n      jump\t// in\n    tag_256:\n        /* \"contracts/DonationPlatformV1.sol\":1847:1871  __UUPSUpgradeable_init() */\n      tag_258\n        /* \"contracts/DonationPlatformV1.sol\":1847:1869  __UUPSUpgradeable_init */\n      tag_259\n        /* \"contracts/DonationPlatformV1.sol\":1847:1871  __UUPSUpgradeable_init() */\n      jump\t// in\n    tag_258:\n        /* \"contracts/DonationPlatformV1.sol\":1945:1960  _minDonationWei */\n      dup6\n        /* \"contracts/DonationPlatformV1.sol\":1928:1942  minDonationWei */\n      0x32\n        /* \"contracts/DonationPlatformV1.sol\":1928:1960  minDonationWei = _minDonationWei */\n      dup2\n      swap1\n      sstore\n      pop\n        /* \"@openzeppelin/contracts-upgradeable/proxy/utils/Initializable.sol\":5068:5082  isTopLevelCall */\n      dup4\n        /* \"@openzeppelin/contracts-upgradeable/proxy/utils/Initializable.sol\":5064:5165  if (isTopLevelCall) {... */\n      iszero\n      tag_260\n      jumpi\n        /* \"@openzeppelin/contracts-upgradeable/proxy/utils/Initializable.sol\":5116:5121  false */\n      0x00\n        /* \"@openzeppelin/contracts-upgradeable/proxy/utils/Initializable.sol\":5098:5099  $ */\n      dup6\n        /* \"@openzeppelin/contracts-upgradeable/proxy/utils/Initializable.sol\":5098:5113  $._initializing */\n      0x00\n      add\n      0x08\n        /* \"@openzeppelin/contracts-upgradeable/proxy/utils/Initializable.sol\":5098:5121  $._initializing = false */\n      0x0100\n      exp\n      dup2\n      sload\n      dup2\n      0xff\n      mul\n      not\n      and\n      swap1\n      dup4\n      iszero\n      iszero\n      mul\n      or\n      swap1\n      sstore\n      pop\n        /* \"@openzeppelin/contracts-upgradeable/proxy/utils/Initializable.sol\":5140:5154  Initialized(1) */\n      0xc7f505b2f371ae2175ee4913f4499e1f2633a7b5936321eed1cdaeb6115181d2\n        /* \"@openzeppelin/contracts-upgradeable/proxy/utils/Initializable.sol\":5152:5153  1 */\n      0x01\n        /* \"@openzeppelin/contracts-upgradeable/proxy/utils/Initializable.sol\":5140:5154  Initialized(1) */\n      mload(0x40)\n      tag_261\n      swap2\n      swap1\n      tag_262\n      jump\t// in\n    tag_261:\n      mload(0x40)\n      dup1\n      swap2\n      sub\n      swap1\n      log1\n        /* \"@openzeppelin/contracts-upgradeable/proxy/utils/Initializable.sol\":5064:5165  if (isTopLevelCall) {... */\n    tag_260:\n        /* \"@openzeppelin/contracts-upgradeable/proxy/utils/Initializable.sol\":4092:5171  {... */\n      pop\n      pop\n      pop\n      pop\n      pop\n        /* \"contracts/DonationPlatformV1.sol\":1518:1967  function initialize(uint256 _minDonationWei) public initializer {... */\n      pop\n      jump\t// out\n        /* \"@openzeppelin/contracts-upgradeable/security/ReentrancyGuardUpgradeable.sol\":2601:2888  function _nonReentrantBefore() private {... */\n    tag_133:\n        /* \"@openzeppelin/contracts-upgradeable/security/ReentrancyGuardUpgradeable.sol\":1851:1852  2 */\n      0x02\n        /* \"@openzeppelin/contracts-upgradeable/security/ReentrancyGuardUpgradeable.sol\":2733:2740  _status */\n      sload(0x00)\n        /* \"@openzeppelin/contracts-upgradeable/security/ReentrancyGuardUpgradeable.sol\":2733:2752  _status != _ENTERED */\n      sub\n        /* \"@openzeppelin/contracts-upgradeable/security/ReentrancyGuardUpgradeable.sol\":2725:2788  require(_status != _ENTERED, \"ReentrancyGuard: reentrant call\") */\n      tag_264\n      jumpi\n      mload(0x40)\n      0x08c379a000000000000000000000000000000000000000000000000000000000\n      dup2\n      mstore\n      0x04\n      add\n      tag_265\n      swap1\n      tag_266\n      jump\t// in\n    tag_265:\n      mload(0x40)\n      dup1\n      swap2\n      sub\n      swap1\n      revert\n    tag_264:\n        /* \"@openzeppelin/contracts-upgradeable/security/ReentrancyGuardUpgradeable.sol\":1851:1852  2 */\n      0x02\n        /* \"@openzeppelin/contracts-upgradeable/security/ReentrancyGuardUpgradeable.sol\":2863:2870  _status */\n      0x00\n        /* \"@openzeppelin/contracts-upgradeable/security/ReentrancyGuardUpgradeable.sol\":2863:2881  _status = _ENTERED */\n      dup2\n      swap1\n      sstore\n      pop\n        /* \"@openzeppelin/contracts-upgradeable/security/ReentrancyGuardUpgradeable.sol\":2601:2888  function _nonReentrantBefore() private {... */\n      jump\t// out\n        /* \"@openzeppelin/contracts-upgradeable/security/ReentrancyGuardUpgradeable.sol\":2894:3103  function _nonReentrantAfter() private {... */\n    tag_159:\n        /* \"@openzeppelin/contracts-upgradeable/security/ReentrancyGuardUpgradeable.sol\":1808:1809  1 */\n      0x01\n        /* \"@openzeppelin/contracts-upgradeable/security/ReentrancyGuardUpgradeable.sol\":3074:3081  _status */\n      0x00\n        /* \"@openzeppelin/contracts-upgradeable/security/ReentrancyGuardUpgradeable.sol\":3074:3096  _status = _NOT_ENTERED */\n      dup2\n      swap1\n      sstore\n      pop\n        /* \"@openzeppelin/contracts-upgradeable/security/ReentrancyGuardUpgradeable.sol\":2894:3103  function _nonReentrantAfter() private {... */\n      jump\t// out\n        /* \"@openzeppelin/contracts-upgradeable/proxy/utils/UUPSUpgradeable.sol\":4578:4890  function _checkProxy() internal view virtual {... */\n    tag_162:\n        /* \"@openzeppelin/contracts-upgradeable/proxy/utils/UUPSUpgradeable.sol\":4667:4673  __self */\n      immutable(\"0x4ce4dab4689da140a0c12de1a6af6b8f679594aeb723205f513e052d27f5b26f\")\n        /* \"@openzeppelin/contracts-upgradeable/proxy/utils/UUPSUpgradeable.sol\":4650:4673  address(this) == __self */\n      0xffffffffffffffffffffffffffffffffffffffff\n      and\n        /* \"@openzeppelin/contracts-upgradeable/proxy/utils/UUPSUpgradeable.sol\":4658:4662  this */\n      address\n        /* \"@openzeppelin/contracts-upgradeable/proxy/utils/UUPSUpgradeable.sol\":4650:4673  address(this) == __self */\n      0xffffffffffffffffffffffffffffffffffffffff\n      and\n      eq\n        /* \"@openzeppelin/contracts-upgradeable/proxy/utils/UUPSUpgradeable.sol\":4650:4770  address(this) == __self || // Must be called through delegatecall... */\n      dup1\n      tag_269\n      jumpi\n      pop\n        /* \"@openzeppelin/contracts-upgradeable/proxy/utils/UUPSUpgradeable.sol\":4764:4770  __self */\n      immutable(\"0x4ce4dab4689da140a0c12de1a6af6b8f679594aeb723205f513e052d27f5b26f\")\n        /* \"@openzeppelin/contracts-upgradeable/proxy/utils/UUPSUpgradeable.sol\":4728:4770  ERC1967Utils.getImplementation() != __self */\n      0xffffffffffffffffffffffffffffffffffffffff\n      and\n        /* \"@openzeppelin/contracts-upgradeable/proxy/utils/UUPSUpgradeable.sol\":4728:4760  ERC1967Utils.getImplementation() */\n      tag_270\n        /* \"@openzeppelin/contracts-upgradeable/proxy/utils/UUPSUpgradeable.sol\":4728:4758  ERC1967Utils.getImplementation */\n      tag_271\n        /* \"@openzeppelin/contracts-upgradeable/proxy/utils/UUPSUpgradeable.sol\":4728:4760  ERC1967Utils.getImplementation() */\n      jump\t// in\n    tag_270:\n        /* \"@openzeppelin/contracts-upgradeable/proxy/utils/UUPSUpgradeable.sol\":4728:4770  ERC1967Utils.getImplementation() != __self */\n      0xffffffffffffffffffffffffffffffffffffffff\n      and\n      eq\n      iszero\n        /* \"@openzeppelin/contracts-upgradeable/proxy/utils/UUPSUpgradeable.sol\":4650:4770  address(this) == __self || // Must be called through delegatecall... */\n    tag_269:\n        /* \"@openzeppelin/contracts-upgradeable/proxy/utils/UUPSUpgradeable.sol\":4633:4884  if (... */\n      iszero\n      tag_272\n      jumpi\n        /* \"@openzeppelin/contracts-upgradeable/proxy/utils/UUPSUpgradeable.sol\":4844:4873  UUPSUnauthorizedCallContext() */\n      mload(0x40)\n      0xe07c8dba00000000000000000000000000000000000000000000000000000000\n      dup2\n      mstore\n      0x04\n      add\n      mload(0x40)\n      dup1\n      swap2\n      sub\n      swap1\n      revert\n        /* \"@openzeppelin/contracts-upgradeable/proxy/utils/UUPSUpgradeable.sol\":4633:4884  if (... */\n    tag_272:\n        /* \"@openzeppelin/contracts-upgradeable/proxy/utils/UUPSUpgradeable.sol\":4578:4890  function _checkProxy() internal view virtual {... */\n      jump\t// out\n        /* \"contracts/DonationPlatformV1.sol\":3824:3936  function _authorizeUpgrade(address newImplementation)... */\n    tag_165:\n        /* \"@openzeppelin/contracts-upgradeable/access/OwnableUpgradeable.sol\":2334:2347  _checkOwner() */\n      tag_274\n        /* \"@openzeppelin/contracts-upgradeable/access/OwnableUpgradeable.sol\":2334:2345  _checkOwner */\n      tag_174\n        /* \"@openzeppelin/contracts-upgradeable/access/OwnableUpgradeable.sol\":2334:2347  _checkOwner() */\n      jump\t// in\n    tag_274:\n        /* \"contracts/DonationPlatformV1.sol\":3824:3936  function _authorizeUpgrade(address newImplementation)... */\n      pop\n      jump\t// out\n        /* \"@openzeppelin/contracts-upgradeable/proxy/utils/UUPSUpgradeable.sol\":6032:6570  function _upgradeToAndCallUUPS(address newImplementation, bytes memory data) private {... */\n    tag_167:\n        /* \"@openzeppelin/contracts-upgradeable/proxy/utils/UUPSUpgradeable.sol\":6149:6166  newImplementation */\n      dup2\n        /* \"@openzeppelin/contracts-upgradeable/proxy/utils/UUPSUpgradeable.sol\":6131:6181  IERC1822Proxiable(newImplementation).proxiableUUID */\n      0xffffffffffffffffffffffffffffffffffffffff\n      and\n      0x52d1902d\n        /* \"@openzeppelin/contracts-upgradeable/proxy/utils/UUPSUpgradeable.sol\":6131:6183  IERC1822Proxiable(newImplementation).proxiableUUID() */\n      mload(0x40)\n      dup2\n      0xffffffff\n      and\n      0xe0\n      shl\n      dup2\n      mstore\n      0x04\n      add\n      0x20\n      mload(0x40)\n      dup1\n      dup4\n      sub\n      dup2\n      dup7\n      gas\n      staticcall\n      swap3\n      pop\n      pop\n      pop\n      dup1\n      iszero\n      tag_277\n      jumpi\n      pop\n      mload(0x40)\n      returndatasize\n      not(0x1f)\n      0x1f\n      dup3\n      add\n      and\n      dup3\n      add\n      dup1\n      0x40\n      mstore\n      pop\n      dup2\n      add\n      swap1\n      tag_278\n      swap2\n      swap1\n      tag_279\n      jump\t// in\n    tag_278:\n      0x01\n    tag_277:\n        /* \"@openzeppelin/contracts-upgradeable/proxy/utils/UUPSUpgradeable.sol\":6127:6564  try IERC1822Proxiable(newImplementation).proxiableUUID() returns (bytes32 slot) {... */\n      tag_280\n      jumpi\n        /* \"@openzeppelin/contracts-upgradeable/proxy/utils/UUPSUpgradeable.sol\":6535:6552  newImplementation */\n      dup2\n        /* \"@openzeppelin/contracts-upgradeable/proxy/utils/UUPSUpgradeable.sol\":6493:6553  ERC1967Utils.ERC1967InvalidImplementation(newImplementation) */\n      mload(0x40)\n      0x4c9c8ce300000000000000000000000000000000000000000000000000000000\n      dup2\n      mstore\n      0x04\n      add\n      tag_284\n      swap2\n      swap1\n      tag_60\n      jump\t// in\n    tag_284:\n      mload(0x40)\n      dup1\n      swap2\n      sub\n      swap1\n      revert\n        /* \"@openzeppelin/contracts-upgradeable/proxy/utils/UUPSUpgradeable.sol\":6127:6564  try IERC1822Proxiable(newImplementation).proxiableUUID() returns (bytes32 slot) {... */\n    tag_280:\n        /* \"@openzeppelin/contracts/proxy/ERC1967/ERC1967Utils.sol\":811:877  0x360894a13ba1a3210667c828492db98dca3e2076cc3735a920a3ca505d382bbc */\n      0x360894a13ba1a3210667c828492db98dca3e2076cc3735a920a3ca505d382bbc\n        /* \"@openzeppelin/contracts-upgradeable/proxy/utils/UUPSUpgradeable.sol\":6233:6265  ERC1967Utils.IMPLEMENTATION_SLOT */\n      0x00\n      shl\n        /* \"@openzeppelin/contracts-upgradeable/proxy/utils/UUPSUpgradeable.sol\":6225:6229  slot */\n      dup2\n        /* \"@openzeppelin/contracts-upgradeable/proxy/utils/UUPSUpgradeable.sol\":6225:6265  slot != ERC1967Utils.IMPLEMENTATION_SLOT */\n      eq\n        /* \"@openzeppelin/contracts-upgradeable/proxy/utils/UUPSUpgradeable.sol\":6221:6341  if (slot != ERC1967Utils.IMPLEMENTATION_SLOT) {... */\n      tag_286\n      jumpi\n        /* \"@openzeppelin/contracts-upgradeable/proxy/utils/UUPSUpgradeable.sol\":6321:6325  slot */\n      dup1\n        /* \"@openzeppelin/contracts-upgradeable/proxy/utils/UUPSUpgradeable.sol\":6292:6326  UUPSUnsupportedProxiableUUID(slot) */\n      mload(0x40)\n      0xaa1d49a400000000000000000000000000000000000000000000000000000000\n      dup2\n      mstore\n      0x04\n      add\n      tag_287\n      swap2\n      swap1\n      tag_48\n      jump\t// in\n    tag_287:\n      mload(0x40)\n      dup1\n      swap2\n      sub\n      swap1\n      revert\n        /* \"@openzeppelin/contracts-upgradeable/proxy/utils/UUPSUpgradeable.sol\":6221:6341  if (slot != ERC1967Utils.IMPLEMENTATION_SLOT) {... */\n    tag_286:\n        /* \"@openzeppelin/contracts-upgradeable/proxy/utils/UUPSUpgradeable.sol\":6354:6408  ERC1967Utils.upgradeToAndCall(newImplementation, data) */\n      tag_288\n        /* \"@openzeppelin/contracts-upgradeable/proxy/utils/UUPSUpgradeable.sol\":6384:6401  newImplementation */\n      dup4\n        /* \"@openzeppelin/contracts-upgradeable/proxy/utils/UUPSUpgradeable.sol\":6403:6407  data */\n      dup4\n        /* \"@openzeppelin/contracts-upgradeable/proxy/utils/UUPSUpgradeable.sol\":6354:6383  ERC1967Utils.upgradeToAndCall */\n      tag_289\n        /* \"@openzeppelin/contracts-upgradeable/proxy/utils/UUPSUpgradeable.sol\":6354:6408  ERC1967Utils.upgradeToAndCall(newImplementation, data) */\n      jump\t// in\n    tag_288:\n        /* \"@openzeppelin/contracts-upgradeable/proxy/utils/UUPSUpgradeable.sol\":6184:6419  returns (bytes32 slot) {... */\n      pop\n        /* \"@openzeppelin/contracts-upgradeable/proxy/utils/UUPSUpgradeable.sol\":6032:6570  function _upgradeToAndCallUUPS(address newImplementation, bytes memory data) private {... */\n      pop\n      pop\n      jump\t// out\n        /* \"@openzeppelin/contracts-upgradeable/proxy/utils/UUPSUpgradeable.sol\":5007:5220  function _checkNotDelegated() internal view virtual {... */\n    tag_170:\n        /* \"@openzeppelin/contracts-upgradeable/proxy/utils/UUPSUpgradeable.sol\":5090:5096  __self */\n      immutable(\"0x4ce4dab4689da140a0c12de1a6af6b8f679594aeb723205f513e052d27f5b26f\")\n        /* \"@openzeppelin/contracts-upgradeable/proxy/utils/UUPSUpgradeable.sol\":5073:5096  address(this) != __self */\n      0xffffffffffffffffffffffffffffffffffffffff\n      and\n        /* \"@openzeppelin/contracts-upgradeable/proxy/utils/UUPSUpgradeable.sol\":5081:5085  this */\n      address\n        /* \"@openzeppelin/contracts-upgradeable/proxy/utils/UUPSUpgradeable.sol\":5073:5096  address(this) != __self */\n      0xffffffffffffffffffffffffffffffffffffffff\n      and\n      eq\n        /* \"@openzeppelin/contracts-upgradeable/proxy/utils/UUPSUpgradeable.sol\":5069:5214  if (address(this) != __self) {... */\n      tag_291\n      jumpi\n        /* \"@openzeppelin/contracts-upgradeable/proxy/utils/UUPSUpgradeable.sol\":5174:5203  UUPSUnauthorizedCallContext() */\n      mload(0x40)\n      0xe07c8dba00000000000000000000000000000000000000000000000000000000\n      dup2\n      mstore\n      0x04\n      add\n      mload(0x40)\n      dup1\n      swap2\n      sub\n      swap1\n      revert\n        /* \"@openzeppelin/contracts-upgradeable/proxy/utils/UUPSUpgradeable.sol\":5069:5214  if (address(this) != __self) {... */\n    tag_291:\n        /* \"@openzeppelin/contracts-upgradeable/proxy/utils/UUPSUpgradeable.sol\":5007:5220  function _checkNotDelegated() internal view virtual {... */\n      jump\t// out\n        /* \"@openzeppelin/contracts-upgradeable/access/OwnableUpgradeable.sol\":2658:2820  function _checkOwner() internal view virtual {... */\n    tag_174:\n        /* \"@openzeppelin/contracts-upgradeable/access/OwnableUpgradeable.sol\":2728:2740  _msgSender() */\n      tag_293\n        /* \"@openzeppelin/contracts-upgradeable/access/OwnableUpgradeable.sol\":2728:2738  _msgSender */\n      tag_294\n        /* \"@openzeppelin/contracts-upgradeable/access/OwnableUpgradeable.sol\":2728:2740  _msgSender() */\n      jump\t// in\n    tag_293:\n        /* \"@openzeppelin/contracts-upgradeable/access/OwnableUpgradeable.sol\":2717:2740  owner() != _msgSender() */\n      0xffffffffffffffffffffffffffffffffffffffff\n      and\n        /* \"@openzeppelin/contracts-upgradeable/access/OwnableUpgradeable.sol\":2717:2724  owner() */\n      tag_295\n        /* \"@openzeppelin/contracts-upgradeable/access/OwnableUpgradeable.sol\":2717:2722  owner */\n      tag_58\n        /* \"@openzeppelin/contracts-upgradeable/access/OwnableUpgradeable.sol\":2717:2724  owner() */\n      jump\t// in\n    tag_295:\n        /* \"@openzeppelin/contracts-upgradeable/access/OwnableUpgradeable.sol\":2717:2740  owner() != _msgSender() */\n      0xffffffffffffffffffffffffffffffffffffffff\n      and\n      eq\n        /* \"@openzeppelin/contracts-upgradeable/access/OwnableUpgradeable.sol\":2713:2814  if (owner() != _msgSender()) {... */\n      tag_296\n      jumpi\n        /* \"@openzeppelin/contracts-upgradeable/access/OwnableUpgradeable.sol\":2790:2802  _msgSender() */\n      tag_297\n        /* \"@openzeppelin/contracts-upgradeable/access/OwnableUpgradeable.sol\":2790:2800  _msgSender */\n      tag_294\n        /* \"@openzeppelin/contracts-upgradeable/access/OwnableUpgradeable.sol\":2790:2802  _msgSender() */\n      jump\t// in\n    tag_297:\n        /* \"@openzeppelin/contracts-upgradeable/access/OwnableUpgradeable.sol\":2763:2803  OwnableUnauthorizedAccount(_msgSender()) */\n      mload(0x40)\n      0x118cdaa700000000000000000000000000000000000000000000000000000000\n      dup2\n      mstore\n      0x04\n      add\n      tag_298\n      swap2\n      swap1\n      tag_60\n      jump\t// in\n    tag_298:\n      mload(0x40)\n      dup1\n      swap2\n      sub\n      swap1\n      revert\n        /* \"@openzeppelin/contracts-upgradeable/access/OwnableUpgradeable.sol\":2713:2814  if (owner() != _msgSender()) {... */\n    tag_296:\n        /* \"@openzeppelin/contracts-upgradeable/access/OwnableUpgradeable.sol\":2658:2820  function _checkOwner() internal view virtual {... */\n      jump\t// out\n        /* \"@openzeppelin/contracts-upgradeable/access/OwnableUpgradeable.sol\":3774:4022  function _transferOwnership(address newOwner) internal virtual {... */\n    tag_177:\n        /* \"@openzeppelin/contracts-upgradeable/access/OwnableUpgradeable.sol\":3847:3871  OwnableStorage storage $ */\n      0x00\n        /* \"@openzeppelin/contracts-upgradeable/access/OwnableUpgradeable.sol\":3874:3894  _getOwnableStorage() */\n      tag_300\n        /* \"@openzeppelin/contracts-upgradeable/access/OwnableUpgradeable.sol\":3874:3892  _getOwnableStorage */\n      tag_185\n        /* \"@openzeppelin/contracts-upgradeable/access/OwnableUpgradeable.sol\":3874:3894  _getOwnableStorage() */\n      jump\t// in\n    tag_300:\n        /* \"@openzeppelin/contracts-upgradeable/access/OwnableUpgradeable.sol\":3847:3894  OwnableStorage storage $ = _getOwnableStorage() */\n      swap1\n      pop\n        /* \"@openzeppelin/contracts-upgradeable/access/OwnableUpgradeable.sol\":3904:3920  address oldOwner */\n      0x00\n        /* \"@openzeppelin/contracts-upgradeable/access/OwnableUpgradeable.sol\":3923:3924  $ */\n      dup2\n        /* \"@openzeppelin/contracts-upgradeable/access/OwnableUpgradeable.sol\":3923:3931  $._owner */\n      0x00\n      add\n      0x00\n      swap1\n      sload\n      swap1\n      0x0100\n      exp\n      swap1\n      div\n      0xffffffffffffffffffffffffffffffffffffffff\n      and\n        /* \"@openzeppelin/contracts-upgradeable/access/OwnableUpgradeable.sol\":3904:3931  address oldOwner = $._owner */\n      swap1\n      pop\n        /* \"@openzeppelin/contracts-upgradeable/access/OwnableUpgradeable.sol\":3952:3960  newOwner */\n      dup3\n        /* \"@openzeppelin/contracts-upgradeable/access/OwnableUpgradeable.sol\":3941:3942  $ */\n      dup3\n        /* \"@openzeppelin/contracts-upgradeable/access/OwnableUpgradeable.sol\":3941:3949  $._owner */\n      0x00\n      add\n      0x00\n        /* \"@openzeppelin/contracts-upgradeable/access/OwnableUpgradeable.sol\":3941:3960  $._owner = newOwner */\n      0x0100\n      exp\n      dup2\n      sload\n      dup2\n      0xffffffffffffffffffffffffffffffffffffffff\n      mul\n      not\n      and\n      swap1\n      dup4\n      0xffffffffffffffffffffffffffffffffffffffff\n      and\n      mul\n      or\n      swap1\n      sstore\n      pop\n        /* \"@openzeppelin/contracts-upgradeable/access/OwnableUpgradeable.sol\":4006:4014  newOwner */\n      dup3\n        /* \"@openzeppelin/contracts-upgradeable/access/OwnableUpgradeable.sol\":3975:4015  OwnershipTransferred(oldOwner, newOwner) */\n      0xffffffffffffffffffffffffffffffffffffffff\n      and\n        /* \"@openzeppelin/contracts-upgradeable/access/OwnableUpgradeable.sol\":3996:4004  oldOwner */\n      dup2\n        /* \"@openzeppelin/contracts-upgradeable/access/OwnableUpgradeable.sol\":3975:4015  OwnershipTransferred(oldOwner, newOwner) */\n      0xffffffffffffffffffffffffffffffffffffffff\n      and\n      0x8be0079c531659141344cd1fd0a4f28419497f9722a3daafe3b4186f6b6457e0\n      mload(0x40)\n      mload(0x40)\n      dup1\n      swap2\n      sub\n      swap1\n      log3\n        /* \"@openzeppelin/contracts-upgradeable/access/OwnableUpgradeable.sol\":3837:4022  {... */\n      pop\n      pop\n        /* \"@openzeppelin/contracts-upgradeable/access/OwnableUpgradeable.sol\":3774:4022  function _transferOwnership(address newOwner) internal virtual {... */\n      pop\n      jump\t// out\n        /* \"contracts/DonationPlatformV2.sol\":1813:2087  function _addCharity(address charity) internal {... */\n    tag_182:\n        /* \"contracts/DonationPlatformV2.sol\":1897:1898  0 */\n      0x00\n        /* \"contracts/DonationPlatformV2.sol\":1878:1899  charity != address(0) */\n      0xffffffffffffffffffffffffffffffffffffffff\n      and\n        /* \"contracts/DonationPlatformV2.sol\":1878:1885  charity */\n      dup2\n        /* \"contracts/DonationPlatformV2.sol\":1878:1899  charity != address(0) */\n      0xffffffffffffffffffffffffffffffffffffffff\n      and\n      sub\n        /* \"contracts/DonationPlatformV2.sol\":1870:1919  require(charity != address(0), \"Invalid charity\") */\n      tag_302\n      jumpi\n      mload(0x40)\n      0x08c379a000000000000000000000000000000000000000000000000000000000\n      dup2\n      mstore\n      0x04\n      add\n      tag_303\n      swap1\n      tag_304\n      jump\t// in\n    tag_303:\n      mload(0x40)\n      dup1\n      swap2\n      sub\n      swap1\n      revert\n    tag_302:\n        /* \"contracts/DonationPlatformV2.sol\":1938:1947  isCharity */\n      0x35\n        /* \"contracts/DonationPlatformV2.sol\":1938:1956  isCharity[charity] */\n      0x00\n        /* \"contracts/DonationPlatformV2.sol\":1948:1955  charity */\n      dup3\n        /* \"contracts/DonationPlatformV2.sol\":1938:1956  isCharity[charity] */\n      0xffffffffffffffffffffffffffffffffffffffff\n      and\n      0xffffffffffffffffffffffffffffffffffffffff\n      and\n      dup2\n      mstore\n      0x20\n      add\n      swap1\n      dup2\n      mstore\n      0x20\n      add\n      0x00\n      keccak256\n      0x00\n      swap1\n      sload\n      swap1\n      0x0100\n      exp\n      swap1\n      div\n      0xff\n      and\n        /* \"contracts/DonationPlatformV2.sol\":1937:1956  !isCharity[charity] */\n      iszero\n        /* \"contracts/DonationPlatformV2.sol\":1929:1976  require(!isCharity[charity], \"Already charity\") */\n      tag_305\n      jumpi\n      mload(0x40)\n      0x08c379a000000000000000000000000000000000000000000000000000000000\n      dup2\n      mstore\n      0x04\n      add\n      tag_306\n      swap1\n      tag_307\n      jump\t// in\n    tag_306:\n      mload(0x40)\n      dup1\n      swap2\n      sub\n      swap1\n      revert\n    tag_305:\n        /* \"contracts/DonationPlatformV2.sol\":2007:2011  true */\n      0x01\n        /* \"contracts/DonationPlatformV2.sol\":1986:1995  isCharity */\n      0x35\n        /* \"contracts/DonationPlatformV2.sol\":1986:2004  isCharity[charity] */\n      0x00\n        /* \"contracts/DonationPlatformV2.sol\":1996:2003  charity */\n      dup4\n        /* \"contracts/DonationPlatformV2.sol\":1986:2004  isCharity[charity] */\n      0xffffffffffffffffffffffffffffffffffffffff\n      and\n      0xffffffffffffffffffffffffffffffffffffffff\n      and\n      dup2\n      mstore\n      0x20\n      add\n      swap1\n      dup2\n      mstore\n      0x20\n      add\n      0x00\n      keccak256\n      0x00\n        /* \"contracts/DonationPlatformV2.sol\":1986:2011  isCharity[charity] = true */\n      0x0100\n      exp\n      dup2\n      sload\n      dup2\n      0xff\n      mul\n      not\n      and\n      swap1\n      dup4\n      iszero\n      iszero\n      mul\n      or\n      swap1\n      sstore\n      pop\n        /* \"contracts/DonationPlatformV2.sol\":2021:2030  charities */\n      0x37\n        /* \"contracts/DonationPlatformV2.sol\":2036:2043  charity */\n      dup2\n        /* \"contracts/DonationPlatformV2.sol\":2021:2044  charities.push(charity) */\n      swap1\n      dup1\n      0x01\n      dup2\n      sload\n      add\n      dup1\n      dup3\n      sstore\n      dup1\n      swap2\n      pop\n      pop\n      0x01\n      swap1\n      sub\n      swap1\n      0x00\n      mstore\n      keccak256(0x00, 0x20)\n      add\n      0x00\n      swap1\n      swap2\n      swap1\n      swap2\n      swap1\n      swap2\n      0x0100\n      exp\n      dup2\n      sload\n      dup2\n      0xffffffffffffffffffffffffffffffffffffffff\n      mul\n      not\n      and\n      swap1\n      dup4\n      0xffffffffffffffffffffffffffffffffffffffff\n      and\n      mul\n      or\n      swap1\n      sstore\n      pop\n        /* \"contracts/DonationPlatformV2.sol\":2072:2079  charity */\n      dup1\n        /* \"contracts/DonationPlatformV2.sol\":2059:2080  CharityAdded(charity) */\n      0xffffffffffffffffffffffffffffffffffffffff\n      and\n      0xc17dc19a503d796a336a016f10743118db2bdadb16ac4c19aff0160756098635\n      mload(0x40)\n      mload(0x40)\n      dup1\n      swap2\n      sub\n      swap1\n      log2\n        /* \"contracts/DonationPlatformV2.sol\":1813:2087  function _addCharity(address charity) internal {... */\n      pop\n      jump\t// out\n        /* \"@openzeppelin/contracts-upgradeable/access/OwnableUpgradeable.sol\":1192:1351  function _getOwnableStorage() private pure returns (OwnableStorage storage $) {... */\n    tag_185:\n        /* \"@openzeppelin/contracts-upgradeable/access/OwnableUpgradeable.sol\":1244:1268  OwnableStorage storage $ */\n      0x00\n        /* \"@openzeppelin/contracts-upgradeable/access/OwnableUpgradeable.sol\":1313:1335  OwnableStorageLocation */\n      0x9016d09d72d40fdae2fd8ceac6b6234c7706214fd39c1cd1e609a0528c199300\n        /* \"@openzeppelin/contracts-upgradeable/access/OwnableUpgradeable.sol\":1303:1335  $.slot := OwnableStorageLocation */\n      swap1\n      pop\n        /* \"@openzeppelin/contracts-upgradeable/access/OwnableUpgradeable.sol\":1192:1351  function _getOwnableStorage() private pure returns (OwnableStorage storage $) {... */\n      swap1\n      jump\t// out\n        /* \"@openzeppelin/contracts-upgradeable/proxy/utils/Initializable.sol\":9071:9276  function _getInitializableStorage() private pure returns (InitializableStorage storage $) {... */\n    tag_195:\n        /* \"@openzeppelin/contracts-upgradeable/proxy/utils/Initializable.sol\":9129:9159  InitializableStorage storage $ */\n      0x00\n        /* \"@openzeppelin/contracts-upgradeable/proxy/utils/Initializable.sol\":9171:9183  bytes32 slot */\n      0x00\n        /* \"@openzeppelin/contracts-upgradeable/proxy/utils/Initializable.sol\":9186:9213  _initializableStorageSlot() */\n      tag_311\n        /* \"@openzeppelin/contracts-upgradeable/proxy/utils/Initializable.sol\":9186:9211  _initializableStorageSlot */\n      tag_312\n        /* \"@openzeppelin/contracts-upgradeable/proxy/utils/Initializable.sol\":9186:9213  _initializableStorageSlot() */\n      jump\t// in\n    tag_311:\n        /* \"@openzeppelin/contracts-upgradeable/proxy/utils/Initializable.sol\":9171:9213  bytes32 slot = _initializableStorageSlot() */\n      swap1\n      pop\n        /* \"@openzeppelin/contracts-upgradeable/proxy/utils/Initializable.sol\":9256:9260  slot */\n      dup1\n        /* \"@openzeppelin/contracts-upgradeable/proxy/utils/Initializable.sol\":9246:9260  $.slot := slot */\n      swap2\n      pop\n        /* \"@openzeppelin/contracts-upgradeable/proxy/utils/Initializable.sol\":9232:9270  {... */\n      pop\n        /* \"@openzeppelin/contracts-upgradeable/proxy/utils/Initializable.sol\":9071:9276  function _getInitializableStorage() private pure returns (InitializableStorage storage $) {... */\n      swap1\n      jump\t// out\n        /* \"@openzeppelin/contracts-upgradeable/access/OwnableUpgradeable.sol\":1847:1974  function __Ownable_init(address initialOwner) internal onlyInitializing {... */\n    tag_255:\n        /* \"@openzeppelin/contracts-upgradeable/proxy/utils/Initializable.sol\":6929:6949  _checkInitializing() */\n      tag_314\n        /* \"@openzeppelin/contracts-upgradeable/proxy/utils/Initializable.sol\":6929:6947  _checkInitializing */\n      tag_315\n        /* \"@openzeppelin/contracts-upgradeable/proxy/utils/Initializable.sol\":6929:6949  _checkInitializing() */\n      jump\t// in\n    tag_314:\n        /* \"@openzeppelin/contracts-upgradeable/access/OwnableUpgradeable.sol\":1929:1967  __Ownable_init_unchained(initialOwner) */\n      tag_317\n        /* \"@openzeppelin/contracts-upgradeable/access/OwnableUpgradeable.sol\":1954:1966  initialOwner */\n      dup2\n        /* \"@openzeppelin/contracts-upgradeable/access/OwnableUpgradeable.sol\":1929:1953  __Ownable_init_unchained */\n      tag_318\n        /* \"@openzeppelin/contracts-upgradeable/access/OwnableUpgradeable.sol\":1929:1967  __Ownable_init_unchained(initialOwner) */\n      jump\t// in\n    tag_317:\n        /* \"@openzeppelin/contracts-upgradeable/access/OwnableUpgradeable.sol\":1847:1974  function __Ownable_init(address initialOwner) internal onlyInitializing {... */\n      pop\n      jump\t// out\n        /* \"@openzeppelin/contracts-upgradeable/security/ReentrancyGuardUpgradeable.sol\":1889:2000  function __ReentrancyGuard_init() internal onlyInitializing {... */\n    tag_257:\n        /* \"@openzeppelin/contracts-upgradeable/proxy/utils/Initializable.sol\":6929:6949  _checkInitializing() */\n      tag_320\n        /* \"@openzeppelin/contracts-upgradeable/proxy/utils/Initializable.sol\":6929:6947  _checkInitializing */\n      tag_315\n        /* \"@openzeppelin/contracts-upgradeable/proxy/utils/Initializable.sol\":6929:6949  _checkInitializing() */\n      jump\t// in\n    tag_320:\n        /* \"@openzeppelin/contracts-upgradeable/security/ReentrancyGuardUpgradeable.sol\":1959:1993  __ReentrancyGuard_init_unchained() */\n      tag_322\n        /* \"@openzeppelin/contracts-upgradeable/security/ReentrancyGuardUpgradeable.sol\":1959:1991  __ReentrancyGuard_init_unchained */\n      tag_323\n        /* \"@openzeppelin/contracts-upgradeable/security/ReentrancyGuardUpgradeable.sol\":1959:1993  __ReentrancyGuard_init_unchained() */\n      jump\t// in\n    tag_322:\n        /* \"@openzeppelin/contracts-upgradeable/security/ReentrancyGuardUpgradeable.sol\":1889:2000  function __ReentrancyGuard_init() internal onlyInitializing {... */\n      jump\t// out\n        /* \"@openzeppelin/contracts-upgradeable/proxy/utils/UUPSUpgradeable.sol\":2970:3037  function __UUPSUpgradeable_init() internal onlyInitializing {... */\n    tag_259:\n        /* \"@openzeppelin/contracts-upgradeable/proxy/utils/Initializable.sol\":6929:6949  _checkInitializing() */\n      tag_325\n        /* \"@openzeppelin/contracts-upgradeable/proxy/utils/Initializable.sol\":6929:6947  _checkInitializing */\n      tag_315\n        /* \"@openzeppelin/contracts-upgradeable/proxy/utils/Initializable.sol\":6929:6949  _checkInitializing() */\n      jump\t// in\n    tag_325:\n        /* \"@openzeppelin/contracts-upgradeable/proxy/utils/UUPSUpgradeable.sol\":2970:3037  function __UUPSUpgradeable_init() internal onlyInitializing {... */\n      jump\t// out\n        /* \"@openzeppelin/contracts/proxy/ERC1967/ERC1967Utils.sol\":1441:1579  function getImplementation() internal view returns (address) {... */\n    tag_271:\n        /* \"@openzeppelin/contracts/proxy/ERC1967/ERC1967Utils.sol\":1493:1500  address */\n      0x00\n        /* \"@openzeppelin/contracts/proxy/ERC1967/ERC1967Utils.sol\":1519:1566  StorageSlot.getAddressSlot(IMPLEMENTATION_SLOT) */\n      tag_328\n        /* \"@openzeppelin/contracts/proxy/ERC1967/ERC1967Utils.sol\":811:877  0x360894a13ba1a3210667c828492db98dca3e2076cc3735a920a3ca505d382bbc */\n      0x360894a13ba1a3210667c828492db98dca3e2076cc3735a920a3ca505d382bbc\n        /* \"@openzeppelin/contracts/proxy/ERC1967/ERC1967Utils.sol\":1546:1565  IMPLEMENTATION_SLOT */\n      0x00\n      shl\n        /* \"@openzeppelin/contracts/proxy/ERC1967/ERC1967Utils.sol\":1519:1545  StorageSlot.getAddressSlot */\n      tag_329\n        /* \"@openzeppelin/contracts/proxy/ERC1967/ERC1967Utils.sol\":1519:1566  StorageSlot.getAddressSlot(IMPLEMENTATION_SLOT) */\n      jump\t// in\n    tag_328:\n        /* \"@openzeppelin/contracts/proxy/ERC1967/ERC1967Utils.sol\":1519:1572  StorageSlot.getAddressSlot(IMPLEMENTATION_SLOT).value */\n      0x00\n      add\n      0x00\n      swap1\n      sload\n      swap1\n      0x0100\n      exp\n      swap1\n      div\n      0xffffffffffffffffffffffffffffffffffffffff\n      and\n        /* \"@openzeppelin/contracts/proxy/ERC1967/ERC1967Utils.sol\":1512:1572  return StorageSlot.getAddressSlot(IMPLEMENTATION_SLOT).value */\n      swap1\n      pop\n        /* \"@openzeppelin/contracts/proxy/ERC1967/ERC1967Utils.sol\":1441:1579  function getImplementation() internal view returns (address) {... */\n      swap1\n      jump\t// out\n        /* \"@openzeppelin/contracts/proxy/ERC1967/ERC1967Utils.sol\":2264:2608  function upgradeToAndCall(address newImplementation, bytes memory data) internal {... */\n    tag_289:\n        /* \"@openzeppelin/contracts/proxy/ERC1967/ERC1967Utils.sol\":2355:2392  _setImplementation(newImplementation) */\n      tag_331\n        /* \"@openzeppelin/contracts/proxy/ERC1967/ERC1967Utils.sol\":2374:2391  newImplementation */\n      dup3\n        /* \"@openzeppelin/contracts/proxy/ERC1967/ERC1967Utils.sol\":2355:2373  _setImplementation */\n      tag_332\n        /* \"@openzeppelin/contracts/proxy/ERC1967/ERC1967Utils.sol\":2355:2392  _setImplementation(newImplementation) */\n      jump\t// in\n    tag_331:\n        /* \"@openzeppelin/contracts/proxy/ERC1967/ERC1967Utils.sol\":2425:2442  newImplementation */\n      dup2\n        /* \"@openzeppelin/contracts/proxy/ERC1967/ERC1967Utils.sol\":2407:2443  IERC1967.Upgraded(newImplementation) */\n      0xffffffffffffffffffffffffffffffffffffffff\n      and\n      0xbc7cd75a20ee27fd9adebab32041f755214dbc6bffa90cc0225b39da2e5c2d3b\n      mload(0x40)\n      mload(0x40)\n      dup1\n      swap2\n      sub\n      swap1\n      log2\n        /* \"@openzeppelin/contracts/proxy/ERC1967/ERC1967Utils.sol\":2472:2473  0 */\n      0x00\n        /* \"@openzeppelin/contracts/proxy/ERC1967/ERC1967Utils.sol\":2458:2462  data */\n      dup2\n        /* \"@openzeppelin/contracts/proxy/ERC1967/ERC1967Utils.sol\":2458:2469  data.length */\n      mload\n        /* \"@openzeppelin/contracts/proxy/ERC1967/ERC1967Utils.sol\":2458:2473  data.length > 0 */\n      gt\n        /* \"@openzeppelin/contracts/proxy/ERC1967/ERC1967Utils.sol\":2454:2602  if (data.length > 0) {... */\n      iszero\n      tag_333\n      jumpi\n        /* \"@openzeppelin/contracts/proxy/ERC1967/ERC1967Utils.sol\":2489:2542  Address.functionDelegateCall(newImplementation, data) */\n      tag_334\n        /* \"@openzeppelin/contracts/proxy/ERC1967/ERC1967Utils.sol\":2518:2535  newImplementation */\n      dup3\n        /* \"@openzeppelin/contracts/proxy/ERC1967/ERC1967Utils.sol\":2537:2541  data */\n      dup3\n        /* \"@openzeppelin/contracts/proxy/ERC1967/ERC1967Utils.sol\":2489:2517  Address.functionDelegateCall */\n      tag_335\n        /* \"@openzeppelin/contracts/proxy/ERC1967/ERC1967Utils.sol\":2489:2542  Address.functionDelegateCall(newImplementation, data) */\n      jump\t// in\n    tag_334:\n      pop\n        /* \"@openzeppelin/contracts/proxy/ERC1967/ERC1967Utils.sol\":2454:2602  if (data.length > 0) {... */\n      jump(tag_336)\n    tag_333:\n        /* \"@openzeppelin/contracts/proxy/ERC1967/ERC1967Utils.sol\":2573:2591  _checkNonPayable() */\n      tag_337\n        /* \"@openzeppelin/contracts/proxy/ERC1967/ERC1967Utils.sol\":2573:2589  _checkNonPayable */\n      tag_338\n        /* \"@openzeppelin/contracts/proxy/ERC1967/ERC1967Utils.sol\":2573:2591  _checkNonPayable() */\n      jump\t// in\n    tag_337:\n        /* \"@openzeppelin/contracts/proxy/ERC1967/ERC1967Utils.sol\":2454:2602  if (data.length > 0) {... */\n    tag_336:\n        /* \"@openzeppelin/contracts/proxy/ERC1967/ERC1967Utils.sol\":2264:2608  function upgradeToAndCall(address newImplementation, bytes memory data) internal {... */\n      pop\n      pop\n      jump\t// out\n        /* \"@openzeppelin/contracts-upgradeable/utils/ContextUpgradeable.sol\":887:983  function _msgSender() internal view virtual returns (address) {... */\n    tag_294:\n        /* \"@openzeppelin/contracts-upgradeable/utils/ContextUpgradeable.sol\":940:947  address */\n      0x00\n        /* \"@openzeppelin/contracts-upgradeable/utils/ContextUpgradeable.sol\":966:976  msg.sender */\n      caller\n        /* \"@openzeppelin/contracts-upgradeable/utils/ContextUpgradeable.sol\":959:976  return msg.sender */\n      swap1\n      pop\n        /* \"@openzeppelin/contracts-upgradeable/utils/ContextUpgradeable.sol\":887:983  function _msgSender() internal view virtual returns (address) {... */\n      swap1\n      jump\t// out\n        /* \"@openzeppelin/contracts-upgradeable/proxy/utils/Initializable.sol\":8819:8941  function _initializableStorageSlot() internal pure virtual returns (bytes32) {... */\n    tag_312:\n        /* \"@openzeppelin/contracts-upgradeable/proxy/utils/Initializable.sol\":8887:8894  bytes32 */\n      0x00\n        /* \"@openzeppelin/contracts-upgradeable/proxy/utils/Initializable.sol\":3147:3213  0xf0c57e16840df040f15088dc2f81fe391c3923bec73e23a9662efc9c229c6a00 */\n      0xf0c57e16840df040f15088dc2f81fe391c3923bec73e23a9662efc9c229c6a00\n        /* \"@openzeppelin/contracts-upgradeable/proxy/utils/Initializable.sol\":8913:8934  INITIALIZABLE_STORAGE */\n      0x00\n      shl\n        /* \"@openzeppelin/contracts-upgradeable/proxy/utils/Initializable.sol\":8906:8934  return INITIALIZABLE_STORAGE */\n      swap1\n      pop\n        /* \"@openzeppelin/contracts-upgradeable/proxy/utils/Initializable.sol\":8819:8941  function _initializableStorageSlot() internal pure virtual returns (bytes32) {... */\n      swap1\n      jump\t// out\n        /* \"@openzeppelin/contracts-upgradeable/proxy/utils/Initializable.sol\":7082:7223  function _checkInitializing() internal view virtual {... */\n    tag_315:\n        /* \"@openzeppelin/contracts-upgradeable/proxy/utils/Initializable.sol\":7149:7166  _isInitializing() */\n      tag_342\n        /* \"@openzeppelin/contracts-upgradeable/proxy/utils/Initializable.sol\":7149:7164  _isInitializing */\n      tag_343\n        /* \"@openzeppelin/contracts-upgradeable/proxy/utils/Initializable.sol\":7149:7166  _isInitializing() */\n      jump\t// in\n    tag_342:\n        /* \"@openzeppelin/contracts-upgradeable/proxy/utils/Initializable.sol\":7144:7217  if (!_isInitializing()) {... */\n      tag_344\n      jumpi\n        /* \"@openzeppelin/contracts-upgradeable/proxy/utils/Initializable.sol\":7189:7206  NotInitializing() */\n      mload(0x40)\n      0xd7e6bcf800000000000000000000000000000000000000000000000000000000\n      dup2\n      mstore\n      0x04\n      add\n      mload(0x40)\n      dup1\n      swap2\n      sub\n      swap1\n      revert\n        /* \"@openzeppelin/contracts-upgradeable/proxy/utils/Initializable.sol\":7144:7217  if (!_isInitializing()) {... */\n    tag_344:\n        /* \"@openzeppelin/contracts-upgradeable/proxy/utils/Initializable.sol\":7082:7223  function _checkInitializing() internal view virtual {... */\n      jump\t// out\n        /* \"@openzeppelin/contracts-upgradeable/access/OwnableUpgradeable.sol\":1980:2215  function __Ownable_init_unchained(address initialOwner) internal onlyInitializing {... */\n    tag_318:\n        /* \"@openzeppelin/contracts-upgradeable/proxy/utils/Initializable.sol\":6929:6949  _checkInitializing() */\n      tag_346\n        /* \"@openzeppelin/contracts-upgradeable/proxy/utils/Initializable.sol\":6929:6947  _checkInitializing */\n      tag_315\n        /* \"@openzeppelin/contracts-upgradeable/proxy/utils/Initializable.sol\":6929:6949  _checkInitializing() */\n      jump\t// in\n    tag_346:\n        /* \"@openzeppelin/contracts-upgradeable/access/OwnableUpgradeable.sol\":2100:2101  0 */\n      0x00\n        /* \"@openzeppelin/contracts-upgradeable/access/OwnableUpgradeable.sol\":2076:2102  initialOwner == address(0) */\n      0xffffffffffffffffffffffffffffffffffffffff\n      and\n        /* \"@openzeppelin/contracts-upgradeable/access/OwnableUpgradeable.sol\":2076:2088  initialOwner */\n      dup2\n        /* \"@openzeppelin/contracts-upgradeable/access/OwnableUpgradeable.sol\":2076:2102  initialOwner == address(0) */\n      0xffffffffffffffffffffffffffffffffffffffff\n      and\n      sub\n        /* \"@openzeppelin/contracts-upgradeable/access/OwnableUpgradeable.sol\":2072:2167  if (initialOwner == address(0)) {... */\n      tag_348\n      jumpi\n        /* \"@openzeppelin/contracts-upgradeable/access/OwnableUpgradeable.sol\":2153:2154  0 */\n      0x00\n        /* \"@openzeppelin/contracts-upgradeable/access/OwnableUpgradeable.sol\":2125:2156  OwnableInvalidOwner(address(0)) */\n      mload(0x40)\n      0x1e4fbdf700000000000000000000000000000000000000000000000000000000\n      dup2\n      mstore\n      0x04\n      add\n      tag_349\n      swap2\n      swap1\n      tag_60\n      jump\t// in\n    tag_349:\n      mload(0x40)\n      dup1\n      swap2\n      sub\n      swap1\n      revert\n        /* \"@openzeppelin/contracts-upgradeable/access/OwnableUpgradeable.sol\":2072:2167  if (initialOwner == address(0)) {... */\n    tag_348:\n        /* \"@openzeppelin/contracts-upgradeable/access/OwnableUpgradeable.sol\":2176:2208  _transferOwnership(initialOwner) */\n      tag_350\n        /* \"@openzeppelin/contracts-upgradeable/access/OwnableUpgradeable.sol\":2195:2207  initialOwner */\n      dup2\n        /* \"@openzeppelin/contracts-upgradeable/access/OwnableUpgradeable.sol\":2176:2194  _transferOwnership */\n      tag_177\n        /* \"@openzeppelin/contracts-upgradeable/access/OwnableUpgradeable.sol\":2176:2208  _transferOwnership(initialOwner) */\n      jump\t// in\n    tag_350:\n        /* \"@openzeppelin/contracts-upgradeable/access/OwnableUpgradeable.sol\":1980:2215  function __Ownable_init_unchained(address initialOwner) internal onlyInitializing {... */\n      pop\n      jump\t// out\n        /* \"@openzeppelin/contracts-upgradeable/security/ReentrancyGuardUpgradeable.sol\":2006:2115  function __ReentrancyGuard_init_unchained() internal onlyInitializing {... */\n    tag_323:\n        /* \"@openzeppelin/contracts-upgradeable/proxy/utils/Initializable.sol\":6929:6949  _checkInitializing() */\n      tag_352\n        /* \"@openzeppelin/contracts-upgradeable/proxy/utils/Initializable.sol\":6929:6947  _checkInitializing */\n      tag_315\n        /* \"@openzeppelin/contracts-upgradeable/proxy/utils/Initializable.sol\":6929:6949  _checkInitializing() */\n      jump\t// in\n    tag_352:\n        /* \"@openzeppelin/contracts-upgradeable/security/ReentrancyGuardUpgradeable.sol\":1808:1809  1 */\n      0x01\n        /* \"@openzeppelin/contracts-upgradeable/security/ReentrancyGuardUpgradeable.sol\":2086:2093  _status */\n      0x00\n        /* \"@openzeppelin/contracts-upgradeable/security/ReentrancyGuardUpgradeable.sol\":2086:2108  _status = _NOT_ENTERED */\n      dup2\n      swap1\n      sstore\n      pop\n        /* \"@openzeppelin/contracts-upgradeable/security/ReentrancyGuardUpgradeable.sol\":2006:2115  function __ReentrancyGuard_init_unchained() internal onlyInitializing {... */\n      jump\t// out\n        /* \"@openzeppelin/contracts/utils/StorageSlot.sol\":1899:2062  function getAddressSlot(bytes32 slot) internal pure returns (AddressSlot storage r) {... */\n    tag_329:\n        /* \"@openzeppelin/contracts/utils/StorageSlot.sol\":1960:1981  AddressSlot storage r */\n      0x00\n        /* \"@openzeppelin/contracts/utils/StorageSlot.sol\":2042:2046  slot */\n      dup2\n        /* \"@openzeppelin/contracts/utils/StorageSlot.sol\":2032:2046  r.slot := slot */\n      swap1\n      pop\n        /* \"@openzeppelin/contracts/utils/StorageSlot.sol\":1899:2062  function getAddressSlot(bytes32 slot) internal pure returns (AddressSlot storage r) {... */\n      swap2\n      swap1\n      pop\n      jump\t// out\n        /* \"@openzeppelin/contracts/proxy/ERC1967/ERC1967Utils.sol\":1671:1952  function _setImplementation(address newImplementation) private {... */\n    tag_332:\n        /* \"@openzeppelin/contracts/proxy/ERC1967/ERC1967Utils.sol\":1781:1782  0 */\n      0x00\n        /* \"@openzeppelin/contracts/proxy/ERC1967/ERC1967Utils.sol\":1748:1765  newImplementation */\n      dup2\n        /* \"@openzeppelin/contracts/proxy/ERC1967/ERC1967Utils.sol\":1748:1777  newImplementation.code.length */\n      0xffffffffffffffffffffffffffffffffffffffff\n      and\n      extcodesize\n        /* \"@openzeppelin/contracts/proxy/ERC1967/ERC1967Utils.sol\":1748:1782  newImplementation.code.length == 0 */\n      sub\n        /* \"@openzeppelin/contracts/proxy/ERC1967/ERC1967Utils.sol\":1744:1863  if (newImplementation.code.length == 0) {... */\n      tag_356\n      jumpi\n        /* \"@openzeppelin/contracts/proxy/ERC1967/ERC1967Utils.sol\":1834:1851  newImplementation */\n      dup1\n        /* \"@openzeppelin/contracts/proxy/ERC1967/ERC1967Utils.sol\":1805:1852  ERC1967InvalidImplementation(newImplementation) */\n      mload(0x40)\n      0x4c9c8ce300000000000000000000000000000000000000000000000000000000\n      dup2\n      mstore\n      0x04\n      add\n      tag_357\n      swap2\n      swap1\n      tag_60\n      jump\t// in\n    tag_357:\n      mload(0x40)\n      dup1\n      swap2\n      sub\n      swap1\n      revert\n        /* \"@openzeppelin/contracts/proxy/ERC1967/ERC1967Utils.sol\":1744:1863  if (newImplementation.code.length == 0) {... */\n    tag_356:\n        /* \"@openzeppelin/contracts/proxy/ERC1967/ERC1967Utils.sol\":1928:1945  newImplementation */\n      dup1\n        /* \"@openzeppelin/contracts/proxy/ERC1967/ERC1967Utils.sol\":1872:1919  StorageSlot.getAddressSlot(IMPLEMENTATION_SLOT) */\n      tag_358\n        /* \"@openzeppelin/contracts/proxy/ERC1967/ERC1967Utils.sol\":811:877  0x360894a13ba1a3210667c828492db98dca3e2076cc3735a920a3ca505d382bbc */\n      0x360894a13ba1a3210667c828492db98dca3e2076cc3735a920a3ca505d382bbc\n        /* \"@openzeppelin/contracts/proxy/ERC1967/ERC1967Utils.sol\":1899:1918  IMPLEMENTATION_SLOT */\n      0x00\n      shl\n        /* \"@openzeppelin/contracts/proxy/ERC1967/ERC1967Utils.sol\":1872:1898  StorageSlot.getAddressSlot */\n      tag_329\n        /* \"@openzeppelin/contracts/proxy/ERC1967/ERC1967Utils.sol\":1872:1919  StorageSlot.getAddressSlot(IMPLEMENTATION_SLOT) */\n      jump\t// in\n    tag_358:\n        /* \"@openzeppelin/contracts/proxy/ERC1967/ERC1967Utils.sol\":1872:1925  StorageSlot.getAddressSlot(IMPLEMENTATION_SLOT).value */\n      0x00\n      add\n      0x00\n        /* \"@openzeppelin/contracts/proxy/ERC1967/ERC1967Utils.sol\":1872:1945  StorageSlot.getAddressSlot(IMPLEMENTATION_SLOT).value = newImplementation */\n      0x0100\n      exp\n      dup2\n      sload\n      dup2\n      0xffffffffffffffffffffffffffffffffffffffff\n      mul\n      not\n      and\n      swap1\n      dup4\n      0xffffffffffffffffffffffffffffffffffffffff\n      and\n      mul\n      or\n      swap1\n      sstore\n      pop\n        /* \"@openzeppelin/contracts/proxy/ERC1967/ERC1967Utils.sol\":1671:1952  function _setImplementation(address newImplementation) private {... */\n      pop\n      jump\t// out\n        /* \"@openzeppelin/contracts/utils/Address.sol\":3916:4169  function functionDelegateCall(address target, bytes memory data) internal returns (bytes memory) {... */\n    tag_335:\n        /* \"@openzeppelin/contracts/utils/Address.sol\":3999:4011  bytes memory */\n      0x60\n        /* \"@openzeppelin/contracts/utils/Address.sol\":4024:4036  bool success */\n      0x00\n        /* \"@openzeppelin/contracts/utils/Address.sol\":4038:4061  bytes memory returndata */\n      0x00\n        /* \"@openzeppelin/contracts/utils/Address.sol\":4065:4071  target */\n      dup5\n        /* \"@openzeppelin/contracts/utils/Address.sol\":4065:4084  target.delegatecall */\n      0xffffffffffffffffffffffffffffffffffffffff\n      and\n        /* \"@openzeppelin/contracts/utils/Address.sol\":4085:4089  data */\n      dup5\n        /* \"@openzeppelin/contracts/utils/Address.sol\":4065:4090  target.delegatecall(data) */\n      mload(0x40)\n      tag_360\n      swap2\n      swap1\n      tag_361\n      jump\t// in\n    tag_360:\n      0x00\n      mload(0x40)\n      dup1\n      dup4\n      sub\n      dup2\n      dup6\n      gas\n      delegatecall\n      swap2\n      pop\n      pop\n      returndatasize\n      dup1\n      0x00\n      dup2\n      eq\n      tag_364\n      jumpi\n      mload(0x40)\n      swap2\n      pop\n      and(add(returndatasize, 0x3f), not(0x1f))\n      dup3\n      add\n      0x40\n      mstore\n      returndatasize\n      dup3\n      mstore\n      returndatasize\n      0x00\n      0x20\n      dup5\n      add\n      returndatacopy\n      jump(tag_363)\n    tag_364:\n      0x60\n      swap2\n      pop\n    tag_363:\n      pop\n        /* \"@openzeppelin/contracts/utils/Address.sol\":4023:4090  (bool success, bytes memory returndata) = target.delegatecall(data) */\n      swap2\n      pop\n      swap2\n      pop\n        /* \"@openzeppelin/contracts/utils/Address.sol\":4107:4162  verifyCallResultFromTarget(target, success, returndata) */\n      tag_365\n        /* \"@openzeppelin/contracts/utils/Address.sol\":4134:4140  target */\n      dup6\n        /* \"@openzeppelin/contracts/utils/Address.sol\":4142:4149  success */\n      dup4\n        /* \"@openzeppelin/contracts/utils/Address.sol\":4151:4161  returndata */\n      dup4\n        /* \"@openzeppelin/contracts/utils/Address.sol\":4107:4133  verifyCallResultFromTarget */\n      tag_366\n        /* \"@openzeppelin/contracts/utils/Address.sol\":4107:4162  verifyCallResultFromTarget(target, success, returndata) */\n      jump\t// in\n    tag_365:\n        /* \"@openzeppelin/contracts/utils/Address.sol\":4100:4162  return verifyCallResultFromTarget(target, success, returndata) */\n      swap3\n      pop\n      pop\n      pop\n        /* \"@openzeppelin/contracts/utils/Address.sol\":3916:4169  function functionDelegateCall(address target, bytes memory data) internal returns (bytes memory) {... */\n      swap3\n      swap2\n      pop\n      pop\n      jump\t// out\n        /* \"@openzeppelin/contracts/proxy/ERC1967/ERC1967Utils.sol\":6113:6235  function _checkNonPayable() private {... */\n    tag_338:\n        /* \"@openzeppelin/contracts/proxy/ERC1967/ERC1967Utils.sol\":6175:6176  0 */\n      0x00\n        /* \"@openzeppelin/contracts/proxy/ERC1967/ERC1967Utils.sol\":6163:6172  msg.value */\n      callvalue\n        /* \"@openzeppelin/contracts/proxy/ERC1967/ERC1967Utils.sol\":6163:6176  msg.value > 0 */\n      gt\n        /* \"@openzeppelin/contracts/proxy/ERC1967/ERC1967Utils.sol\":6159:6229  if (msg.value > 0) {... */\n      iszero\n      tag_368\n      jumpi\n        /* \"@openzeppelin/contracts/proxy/ERC1967/ERC1967Utils.sol\":6199:6218  ERC1967NonPayable() */\n      mload(0x40)\n      0xb398979f00000000000000000000000000000000000000000000000000000000\n      dup2\n      mstore\n      0x04\n      add\n      mload(0x40)\n      dup1\n      swap2\n      sub\n      swap1\n      revert\n        /* \"@openzeppelin/contracts/proxy/ERC1967/ERC1967Utils.sol\":6159:6229  if (msg.value > 0) {... */\n    tag_368:\n        /* \"@openzeppelin/contracts/proxy/ERC1967/ERC1967Utils.sol\":6113:6235  function _checkNonPayable() private {... */\n      jump\t// out\n        /* \"@openzeppelin/contracts-upgradeable/proxy/utils/Initializable.sol\":8485:8605  function _isInitializing() internal view returns (bool) {... */\n    tag_343:\n        /* \"@openzeppelin/contracts-upgradeable/proxy/utils/Initializable.sol\":8535:8539  bool */\n      0x00\n        /* \"@openzeppelin/contracts-upgradeable/proxy/utils/Initializable.sol\":8558:8584  _getInitializableStorage() */\n      tag_370\n        /* \"@openzeppelin/contracts-upgradeable/proxy/utils/Initializable.sol\":8558:8582  _getInitializableStorage */\n      tag_195\n        /* \"@openzeppelin/contracts-upgradeable/proxy/utils/Initializable.sol\":8558:8584  _getInitializableStorage() */\n      jump\t// in\n    tag_370:\n        /* \"@openzeppelin/contracts-upgradeable/proxy/utils/Initializable.sol\":8558:8598  _getInitializableStorage()._initializing */\n      0x00\n      add\n      0x08\n      swap1\n      sload\n      swap1\n      0x0100\n      exp\n      swap1\n      div\n      0xff\n      and\n        /* \"@openzeppelin/contracts-upgradeable/proxy/utils/Initializable.sol\":8551:8598  return _getInitializableStorage()._initializing */\n      swap1\n      pop\n        /* \"@openzeppelin/contracts-upgradeable/proxy/utils/Initializable.sol\":8485:8605  function _isInitializing() internal view returns (bool) {... */\n      swap1\n      jump\t// out\n        /* \"@openzeppelin/contracts/utils/Address.sol\":4437:5019  function verifyCallResultFromTarget(... */\n    tag_366:\n        /* \"@openzeppelin/contracts/utils/Address.sol\":4581:4593  bytes memory */\n      0x60\n        /* \"@openzeppelin/contracts/utils/Address.sol\":4610:4617  success */\n      dup3\n        /* \"@openzeppelin/contracts/utils/Address.sol\":4605:5013  if (!success) {... */\n      tag_372\n      jumpi\n        /* \"@openzeppelin/contracts/utils/Address.sol\":4633:4652  _revert(returndata) */\n      tag_373\n        /* \"@openzeppelin/contracts/utils/Address.sol\":4641:4651  returndata */\n      dup3\n        /* \"@openzeppelin/contracts/utils/Address.sol\":4633:4640  _revert */\n      tag_374\n        /* \"@openzeppelin/contracts/utils/Address.sol\":4633:4652  _revert(returndata) */\n      jump\t// in\n    tag_373:\n        /* \"@openzeppelin/contracts/utils/Address.sol\":4605:5013  if (!success) {... */\n      jump(tag_375)\n    tag_372:\n        /* \"@openzeppelin/contracts/utils/Address.sol\":4878:4879  0 */\n      0x00\n        /* \"@openzeppelin/contracts/utils/Address.sol\":4857:4867  returndata */\n      dup3\n        /* \"@openzeppelin/contracts/utils/Address.sol\":4857:4874  returndata.length */\n      mload\n        /* \"@openzeppelin/contracts/utils/Address.sol\":4857:4879  returndata.length == 0 */\n      eq\n        /* \"@openzeppelin/contracts/utils/Address.sol\":4857:4906  returndata.length == 0 && target.code.length == 0 */\n      dup1\n      iszero\n      tag_376\n      jumpi\n      pop\n        /* \"@openzeppelin/contracts/utils/Address.sol\":4905:4906  0 */\n      0x00\n        /* \"@openzeppelin/contracts/utils/Address.sol\":4883:4889  target */\n      dup5\n        /* \"@openzeppelin/contracts/utils/Address.sol\":4883:4901  target.code.length */\n      0xffffffffffffffffffffffffffffffffffffffff\n      and\n      extcodesize\n        /* \"@openzeppelin/contracts/utils/Address.sol\":4883:4906  target.code.length == 0 */\n      eq\n        /* \"@openzeppelin/contracts/utils/Address.sol\":4857:4906  returndata.length == 0 && target.code.length == 0 */\n    tag_376:\n        /* \"@openzeppelin/contracts/utils/Address.sol\":4853:4972  if (returndata.length == 0 && target.code.length == 0) {... */\n      iszero\n      tag_377\n      jumpi\n        /* \"@openzeppelin/contracts/utils/Address.sol\":4950:4956  target */\n      dup4\n        /* \"@openzeppelin/contracts/utils/Address.sol\":4933:4957  AddressEmptyCode(target) */\n      mload(0x40)\n      0x9996b31500000000000000000000000000000000000000000000000000000000\n      dup2\n      mstore\n      0x04\n      add\n      tag_378\n      swap2\n      swap1\n      tag_60\n      jump\t// in\n    tag_378:\n      mload(0x40)\n      dup1\n      swap2\n      sub\n      swap1\n      revert\n        /* \"@openzeppelin/contracts/utils/Address.sol\":4853:4972  if (returndata.length == 0 && target.code.length == 0) {... */\n    tag_377:\n        /* \"@openzeppelin/contracts/utils/Address.sol\":4992:5002  returndata */\n      dup2\n        /* \"@openzeppelin/contracts/utils/Address.sol\":4985:5002  return returndata */\n      swap1\n      pop\n      jump(tag_371)\n        /* \"@openzeppelin/contracts/utils/Address.sol\":4605:5013  if (!success) {... */\n    tag_375:\n        /* \"@openzeppelin/contracts/utils/Address.sol\":4437:5019  function verifyCallResultFromTarget(... */\n    tag_371:\n      swap4\n      swap3\n      pop\n      pop\n      pop\n      jump\t// out\n        /* \"@openzeppelin/contracts/utils/Address.sol\":5559:5993  function _revert(bytes memory returndata) private pure {... */\n    tag_374:\n        /* \"@openzeppelin/contracts/utils/Address.sol\":5710:5711  0 */\n      0x00\n        /* \"@openzeppelin/contracts/utils/Address.sol\":5690:5700  returndata */\n      dup2\n        /* \"@openzeppelin/contracts/utils/Address.sol\":5690:5707  returndata.length */\n      mload\n        /* \"@openzeppelin/contracts/utils/Address.sol\":5690:5711  returndata.length > 0 */\n      gt\n        /* \"@openzeppelin/contracts/utils/Address.sol\":5686:5987  if (returndata.length > 0) {... */\n      iszero\n      tag_380\n      jumpi\n        /* \"@openzeppelin/contracts/utils/Address.sol\":5894:5904  returndata */\n      dup1\n        /* \"@openzeppelin/contracts/utils/Address.sol\":5888:5905  mload(returndata) */\n      mload\n        /* \"@openzeppelin/contracts/utils/Address.sol\":5881:5885  0x20 */\n      0x20\n        /* \"@openzeppelin/contracts/utils/Address.sol\":5869:5879  returndata */\n      dup3\n        /* \"@openzeppelin/contracts/utils/Address.sol\":5865:5886  add(returndata, 0x20) */\n      add\n        /* \"@openzeppelin/contracts/utils/Address.sol\":5858:5906  revert(add(returndata, 0x20), mload(returndata)) */\n      revert\n        /* \"@openzeppelin/contracts/utils/Address.sol\":5686:5987  if (returndata.length > 0) {... */\n    tag_380:\n        /* \"@openzeppelin/contracts/utils/Address.sol\":5957:5976  Errors.FailedCall() */\n      mload(0x40)\n      0xd6bda27500000000000000000000000000000000000000000000000000000000\n      dup2\n      mstore\n      0x04\n      add\n      mload(0x40)\n      dup1\n      swap2\n      sub\n      swap1\n      revert\n        /* \"#utility.yul\":7:84   */\n    tag_382:\n        /* \"#utility.yul\":44:51   */\n      0x00\n        /* \"#utility.yul\":73:78   */\n      dup2\n        /* \"#utility.yul\":62:78   */\n      swap1\n      pop\n        /* \"#utility.yul\":7:84   */\n      swap2\n      swap1\n      pop\n      jump\t// out\n        /* \"#utility.yul\":90:208   */\n    tag_383:\n        /* \"#utility.yul\":177:201   */\n      tag_461\n        /* \"#utility.yul\":195:200   */\n      dup2\n        /* \"#utility.yul\":177:201   */\n      tag_382\n      jump\t// in\n    tag_461:\n        /* \"#utility.yul\":172:175   */\n      dup3\n        /* \"#utility.yul\":165:202   */\n      mstore\n        /* \"#utility.yul\":90:208   */\n      pop\n      pop\n      jump\t// out\n        /* \"#utility.yul\":214:436   */\n    tag_30:\n        /* \"#utility.yul\":307:311   */\n      0x00\n        /* \"#utility.yul\":345:347   */\n      0x20\n        /* \"#utility.yul\":334:343   */\n      dup3\n        /* \"#utility.yul\":330:348   */\n      add\n        /* \"#utility.yul\":322:348   */\n      swap1\n      pop\n        /* \"#utility.yul\":358:429   */\n      tag_463\n        /* \"#utility.yul\":426:427   */\n      0x00\n        /* \"#utility.yul\":415:424   */\n      dup4\n        /* \"#utility.yul\":411:428   */\n      add\n        /* \"#utility.yul\":402:408   */\n      dup5\n        /* \"#utility.yul\":358:429   */\n      tag_383\n      jump\t// in\n    tag_463:\n        /* \"#utility.yul\":214:436   */\n      swap3\n      swap2\n      pop\n      pop\n      jump\t// out\n        /* \"#utility.yul\":442:517   */\n    tag_384:\n        /* \"#utility.yul\":475:481   */\n      0x00\n        /* \"#utility.yul\":508:510   */\n      0x40\n        /* \"#utility.yul\":502:511   */\n      mload\n        /* \"#utility.yul\":492:511   */\n      swap1\n      pop\n        /* \"#utility.yul\":442:517   */\n      swap1\n      jump\t// out\n        /* \"#utility.yul\":523:640   */\n    tag_385:\n        /* \"#utility.yul\":632:633   */\n      0x00\n        /* \"#utility.yul\":629:630   */\n      0x00\n        /* \"#utility.yul\":622:634   */\n      revert\n        /* \"#utility.yul\":646:763   */\n    tag_386:\n        /* \"#utility.yul\":755:756   */\n      0x00\n        /* \"#utility.yul\":752:753   */\n      0x00\n        /* \"#utility.yul\":745:757   */\n      revert\n        /* \"#utility.yul\":769:895   */\n    tag_387:\n        /* \"#utility.yul\":806:813   */\n      0x00\n        /* \"#utility.yul\":846:888   */\n      0xffffffffffffffffffffffffffffffffffffffff\n        /* \"#utility.yul\":839:844   */\n      dup3\n        /* \"#utility.yul\":835:889   */\n      and\n        /* \"#utility.yul\":824:889   */\n      swap1\n      pop\n        /* \"#utility.yul\":769:895   */\n      swap2\n      swap1\n      pop\n      jump\t// out\n        /* \"#utility.yul\":901:997   */\n    tag_388:\n        /* \"#utility.yul\":938:945   */\n      0x00\n        /* \"#utility.yul\":967:991   */\n      tag_469\n        /* \"#utility.yul\":985:990   */\n      dup3\n        /* \"#utility.yul\":967:991   */\n      tag_387\n      jump\t// in\n    tag_469:\n        /* \"#utility.yul\":956:991   */\n      swap1\n      pop\n        /* \"#utility.yul\":901:997   */\n      swap2\n      swap1\n      pop\n      jump\t// out\n        /* \"#utility.yul\":1003:1125   */\n    tag_389:\n        /* \"#utility.yul\":1076:1100   */\n      tag_471\n        /* \"#utility.yul\":1094:1099   */\n      dup2\n        /* \"#utility.yul\":1076:1100   */\n      tag_388\n      jump\t// in\n    tag_471:\n        /* \"#utility.yul\":1069:1074   */\n      dup2\n        /* \"#utility.yul\":1066:1101   */\n      eq\n        /* \"#utility.yul\":1056:1119   */\n      tag_472\n      jumpi\n        /* \"#utility.yul\":1115:1116   */\n      0x00\n        /* \"#utility.yul\":1112:1113   */\n      0x00\n        /* \"#utility.yul\":1105:1117   */\n      revert\n        /* \"#utility.yul\":1056:1119   */\n    tag_472:\n        /* \"#utility.yul\":1003:1125   */\n      pop\n      jump\t// out\n        /* \"#utility.yul\":1131:1270   */\n    tag_390:\n        /* \"#utility.yul\":1177:1182   */\n      0x00\n        /* \"#utility.yul\":1215:1221   */\n      dup2\n        /* \"#utility.yul\":1202:1222   */\n      calldataload\n        /* \"#utility.yul\":1193:1222   */\n      swap1\n      pop\n        /* \"#utility.yul\":1231:1264   */\n      tag_474\n        /* \"#utility.yul\":1258:1263   */\n      dup2\n        /* \"#utility.yul\":1231:1264   */\n      tag_389\n      jump\t// in\n    tag_474:\n        /* \"#utility.yul\":1131:1270   */\n      swap3\n      swap2\n      pop\n      pop\n      jump\t// out\n        /* \"#utility.yul\":1276:1605   */\n    tag_33:\n        /* \"#utility.yul\":1335:1341   */\n      0x00\n        /* \"#utility.yul\":1384:1386   */\n      0x20\n        /* \"#utility.yul\":1372:1381   */\n      dup3\n        /* \"#utility.yul\":1363:1370   */\n      dup5\n        /* \"#utility.yul\":1359:1382   */\n      sub\n        /* \"#utility.yul\":1355:1387   */\n      slt\n        /* \"#utility.yul\":1352:1471   */\n      iszero\n      tag_476\n      jumpi\n        /* \"#utility.yul\":1390:1469   */\n      tag_477\n      tag_385\n      jump\t// in\n    tag_477:\n        /* \"#utility.yul\":1352:1471   */\n    tag_476:\n        /* \"#utility.yul\":1510:1511   */\n      0x00\n        /* \"#utility.yul\":1535:1588   */\n      tag_478\n        /* \"#utility.yul\":1580:1587   */\n      dup5\n        /* \"#utility.yul\":1571:1577   */\n      dup3\n        /* \"#utility.yul\":1560:1569   */\n      dup6\n        /* \"#utility.yul\":1556:1578   */\n      add\n        /* \"#utility.yul\":1535:1588   */\n      tag_390\n      jump\t// in\n    tag_478:\n        /* \"#utility.yul\":1525:1588   */\n      swap2\n      pop\n        /* \"#utility.yul\":1481:1598   */\n      pop\n        /* \"#utility.yul\":1276:1605   */\n      swap3\n      swap2\n      pop\n      pop\n      jump\t// out\n        /* \"#utility.yul\":1611:1715   */\n    tag_391:\n        /* \"#utility.yul\":1656:1663   */\n      0x00\n        /* \"#utility.yul\":1685:1709   */\n      tag_480\n        /* \"#utility.yul\":1703:1708   */\n      dup3\n        /* \"#utility.yul\":1685:1709   */\n      tag_387\n      jump\t// in\n    tag_480:\n        /* \"#utility.yul\":1674:1709   */\n      swap1\n      pop\n        /* \"#utility.yul\":1611:1715   */\n      swap2\n      swap1\n      pop\n      jump\t// out\n        /* \"#utility.yul\":1721:1859   */\n    tag_392:\n        /* \"#utility.yul\":1802:1834   */\n      tag_482\n        /* \"#utility.yul\":1828:1833   */\n      dup2\n        /* \"#utility.yul\":1802:1834   */\n      tag_391\n      jump\t// in\n    tag_482:\n        /* \"#utility.yul\":1795:1800   */\n      dup2\n        /* \"#utility.yul\":1792:1835   */\n      eq\n        /* \"#utility.yul\":1782:1853   */\n      tag_483\n      jumpi\n        /* \"#utility.yul\":1849:1850   */\n      0x00\n        /* \"#utility.yul\":1846:1847   */\n      0x00\n        /* \"#utility.yul\":1839:1851   */\n      revert\n        /* \"#utility.yul\":1782:1853   */\n    tag_483:\n        /* \"#utility.yul\":1721:1859   */\n      pop\n      jump\t// out\n        /* \"#utility.yul\":1865:2020   */\n    tag_393:\n        /* \"#utility.yul\":1919:1924   */\n      0x00\n        /* \"#utility.yul\":1957:1963   */\n      dup2\n        /* \"#utility.yul\":1944:1964   */\n      calldataload\n        /* \"#utility.yul\":1935:1964   */\n      swap1\n      pop\n        /* \"#utility.yul\":1973:2014   */\n      tag_485\n        /* \"#utility.yul\":2008:2013   */\n      dup2\n        /* \"#utility.yul\":1973:2014   */\n      tag_392\n      jump\t// in\n    tag_485:\n        /* \"#utility.yul\":1865:2020   */\n      swap3\n      swap2\n      pop\n      pop\n      jump\t// out\n        /* \"#utility.yul\":2026:2148   */\n    tag_394:\n        /* \"#utility.yul\":2099:2123   */\n      tag_487\n        /* \"#utility.yul\":2117:2122   */\n      dup2\n        /* \"#utility.yul\":2099:2123   */\n      tag_382\n      jump\t// in\n    tag_487:\n        /* \"#utility.yul\":2092:2097   */\n      dup2\n        /* \"#utility.yul\":2089:2124   */\n      eq\n        /* \"#utility.yul\":2079:2142   */\n      tag_488\n      jumpi\n        /* \"#utility.yul\":2138:2139   */\n      0x00\n        /* \"#utility.yul\":2135:2136   */\n      0x00\n        /* \"#utility.yul\":2128:2140   */\n      revert\n        /* \"#utility.yul\":2079:2142   */\n    tag_488:\n        /* \"#utility.yul\":2026:2148   */\n      pop\n      jump\t// out\n        /* \"#utility.yul\":2154:2293   */\n    tag_395:\n        /* \"#utility.yul\":2200:2205   */\n      0x00\n        /* \"#utility.yul\":2238:2244   */\n      dup2\n        /* \"#utility.yul\":2225:2245   */\n      calldataload\n        /* \"#utility.yul\":2216:2245   */\n      swap1\n      pop\n        /* \"#utility.yul\":2254:2287   */\n      tag_490\n        /* \"#utility.yul\":2281:2286   */\n      dup2\n        /* \"#utility.yul\":2254:2287   */\n      tag_394\n      jump\t// in\n    tag_490:\n        /* \"#utility.yul\":2154:2293   */\n      swap3\n      swap2\n      pop\n      pop\n      jump\t// out\n        /* \"#utility.yul\":2299:2789   */\n    tag_38:\n        /* \"#utility.yul\":2375:2381   */\n      0x00\n        /* \"#utility.yul\":2383:2389   */\n      0x00\n        /* \"#utility.yul\":2432:2434   */\n      0x40\n        /* \"#utility.yul\":2420:2429   */\n      dup4\n        /* \"#utility.yul\":2411:2418   */\n      dup6\n        /* \"#utility.yul\":2407:2430   */\n      sub\n        /* \"#utility.yul\":2403:2435   */\n      slt\n        /* \"#utility.yul\":2400:2519   */\n      iszero\n      tag_492\n      jumpi\n        /* \"#utility.yul\":2438:2517   */\n      tag_493\n      tag_385\n      jump\t// in\n    tag_493:\n        /* \"#utility.yul\":2400:2519   */\n    tag_492:\n        /* \"#utility.yul\":2558:2559   */\n      0x00\n        /* \"#utility.yul\":2583:2644   */\n      tag_494\n        /* \"#utility.yul\":2636:2643   */\n      dup6\n        /* \"#utility.yul\":2627:2633   */\n      dup3\n        /* \"#utility.yul\":2616:2625   */\n      dup7\n        /* \"#utility.yul\":2612:2634   */\n      add\n        /* \"#utility.yul\":2583:2644   */\n      tag_393\n      jump\t// in\n    tag_494:\n        /* \"#utility.yul\":2573:2644   */\n      swap3\n      pop\n        /* \"#utility.yul\":2529:2654   */\n      pop\n        /* \"#utility.yul\":2693:2695   */\n      0x20\n        /* \"#utility.yul\":2719:2772   */\n      tag_495\n        /* \"#utility.yul\":2764:2771   */\n      dup6\n        /* \"#utility.yul\":2755:2761   */\n      dup3\n        /* \"#utility.yul\":2744:2753   */\n      dup7\n        /* \"#utility.yul\":2740:2762   */\n      add\n        /* \"#utility.yul\":2719:2772   */\n      tag_395\n      jump\t// in\n    tag_495:\n        /* \"#utility.yul\":2709:2772   */\n      swap2\n      pop\n        /* \"#utility.yul\":2664:2782   */\n      pop\n        /* \"#utility.yul\":2299:2789   */\n      swap3\n      pop\n      swap3\n      swap1\n      pop\n      jump\t// out\n        /* \"#utility.yul\":2795:2912   */\n    tag_396:\n        /* \"#utility.yul\":2904:2905   */\n      0x00\n        /* \"#utility.yul\":2901:2902   */\n      0x00\n        /* \"#utility.yul\":2894:2906   */\n      revert\n        /* \"#utility.yul\":2918:3035   */\n    tag_397:\n        /* \"#utility.yul\":3027:3028   */\n      0x00\n        /* \"#utility.yul\":3024:3025   */\n      0x00\n        /* \"#utility.yul\":3017:3029   */\n      revert\n        /* \"#utility.yul\":3041:3143   */\n    tag_398:\n        /* \"#utility.yul\":3082:3088   */\n      0x00\n        /* \"#utility.yul\":3133:3135   */\n      0x1f\n        /* \"#utility.yul\":3129:3136   */\n      not\n        /* \"#utility.yul\":3124:3126   */\n      0x1f\n        /* \"#utility.yul\":3117:3122   */\n      dup4\n        /* \"#utility.yul\":3113:3127   */\n      add\n        /* \"#utility.yul\":3109:3137   */\n      and\n        /* \"#utility.yul\":3099:3137   */\n      swap1\n      pop\n        /* \"#utility.yul\":3041:3143   */\n      swap2\n      swap1\n      pop\n      jump\t// out\n        /* \"#utility.yul\":3149:3329   */\n    tag_399:\n        /* \"#utility.yul\":3197:3274   */\n      0x4e487b7100000000000000000000000000000000000000000000000000000000\n        /* \"#utility.yul\":3194:3195   */\n      0x00\n        /* \"#utility.yul\":3187:3275   */\n      mstore\n        /* \"#utility.yul\":3294:3298   */\n      0x41\n        /* \"#utility.yul\":3291:3292   */\n      0x04\n        /* \"#utility.yul\":3284:3299   */\n      mstore\n        /* \"#utility.yul\":3318:3322   */\n      0x24\n        /* \"#utility.yul\":3315:3316   */\n      0x00\n        /* \"#utility.yul\":3308:3323   */\n      revert\n        /* \"#utility.yul\":3335:3616   */\n    tag_400:\n        /* \"#utility.yul\":3418:3445   */\n      tag_501\n        /* \"#utility.yul\":3440:3444   */\n      dup3\n        /* \"#utility.yul\":3418:3445   */\n      tag_398\n      jump\t// in\n    tag_501:\n        /* \"#utility.yul\":3410:3416   */\n      dup2\n        /* \"#utility.yul\":3406:3446   */\n      add\n        /* \"#utility.yul\":3548:3554   */\n      dup2\n        /* \"#utility.yul\":3536:3546   */\n      dup2\n        /* \"#utility.yul\":3533:3555   */\n      lt\n        /* \"#utility.yul\":3512:3530   */\n      0xffffffffffffffff\n        /* \"#utility.yul\":3500:3510   */\n      dup3\n        /* \"#utility.yul\":3497:3531   */\n      gt\n        /* \"#utility.yul\":3494:3556   */\n      or\n        /* \"#utility.yul\":3491:3579   */\n      iszero\n      tag_502\n      jumpi\n        /* \"#utility.yul\":3559:3577   */\n      tag_503\n      tag_399\n      jump\t// in\n    tag_503:\n        /* \"#utility.yul\":3491:3579   */\n    tag_502:\n        /* \"#utility.yul\":3599:3609   */\n      dup1\n        /* \"#utility.yul\":3595:3597   */\n      0x40\n        /* \"#utility.yul\":3588:3610   */\n      mstore\n        /* \"#utility.yul\":3378:3616   */\n      pop\n        /* \"#utility.yul\":3335:3616   */\n      pop\n      pop\n      jump\t// out\n        /* \"#utility.yul\":3622:3751   */\n    tag_401:\n        /* \"#utility.yul\":3656:3662   */\n      0x00\n        /* \"#utility.yul\":3683:3703   */\n      tag_505\n      tag_384\n      jump\t// in\n    tag_505:\n        /* \"#utility.yul\":3673:3703   */\n      swap1\n      pop\n        /* \"#utility.yul\":3712:3745   */\n      tag_506\n        /* \"#utility.yul\":3740:3744   */\n      dup3\n        /* \"#utility.yul\":3732:3738   */\n      dup3\n        /* \"#utility.yul\":3712:3745   */\n      tag_400\n      jump\t// in\n    tag_506:\n        /* \"#utility.yul\":3622:3751   */\n      swap2\n      swap1\n      pop\n      jump\t// out\n        /* \"#utility.yul\":3757:4064   */\n    tag_402:\n        /* \"#utility.yul\":3818:3822   */\n      0x00\n        /* \"#utility.yul\":3908:3926   */\n      0xffffffffffffffff\n        /* \"#utility.yul\":3900:3906   */\n      dup3\n        /* \"#utility.yul\":3897:3927   */\n      gt\n        /* \"#utility.yul\":3894:3950   */\n      iszero\n      tag_508\n      jumpi\n        /* \"#utility.yul\":3930:3948   */\n      tag_509\n      tag_399\n      jump\t// in\n    tag_509:\n        /* \"#utility.yul\":3894:3950   */\n    tag_508:\n        /* \"#utility.yul\":3968:3997   */\n      tag_510\n        /* \"#utility.yul\":3990:3996   */\n      dup3\n        /* \"#utility.yul\":3968:3997   */\n      tag_398\n      jump\t// in\n    tag_510:\n        /* \"#utility.yul\":3960:3997   */\n      swap1\n      pop\n        /* \"#utility.yul\":4052:4056   */\n      0x20\n        /* \"#utility.yul\":4046:4050   */\n      dup2\n        /* \"#utility.yul\":4042:4057   */\n      add\n        /* \"#utility.yul\":4034:4057   */\n      swap1\n      pop\n        /* \"#utility.yul\":3757:4064   */\n      swap2\n      swap1\n      pop\n      jump\t// out\n        /* \"#utility.yul\":4070:4218   */\n    tag_403:\n        /* \"#utility.yul\":4168:4174   */\n      dup3\n        /* \"#utility.yul\":4163:4166   */\n      dup2\n        /* \"#utility.yul\":4158:4161   */\n      dup4\n        /* \"#utility.yul\":4145:4175   */\n      calldatacopy\n        /* \"#utility.yul\":4209:4210   */\n      0x00\n        /* \"#utility.yul\":4200:4206   */\n      dup4\n        /* \"#utility.yul\":4195:4198   */\n      dup4\n        /* \"#utility.yul\":4191:4207   */\n      add\n        /* \"#utility.yul\":4184:4211   */\n      mstore\n        /* \"#utility.yul\":4070:4218   */\n      pop\n      pop\n      pop\n      jump\t// out\n        /* \"#utility.yul\":4224:4647   */\n    tag_404:\n        /* \"#utility.yul\":4301:4306   */\n      0x00\n        /* \"#utility.yul\":4326:4391   */\n      tag_513\n        /* \"#utility.yul\":4342:4390   */\n      tag_514\n        /* \"#utility.yul\":4383:4389   */\n      dup5\n        /* \"#utility.yul\":4342:4390   */\n      tag_402\n      jump\t// in\n    tag_514:\n        /* \"#utility.yul\":4326:4391   */\n      tag_401\n      jump\t// in\n    tag_513:\n        /* \"#utility.yul\":4317:4391   */\n      swap1\n      pop\n        /* \"#utility.yul\":4414:4420   */\n      dup3\n        /* \"#utility.yul\":4407:4412   */\n      dup2\n        /* \"#utility.yul\":4400:4421   */\n      mstore\n        /* \"#utility.yul\":4452:4456   */\n      0x20\n        /* \"#utility.yul\":4445:4450   */\n      dup2\n        /* \"#utility.yul\":4441:4457   */\n      add\n        /* \"#utility.yul\":4490:4493   */\n      dup5\n        /* \"#utility.yul\":4481:4487   */\n      dup5\n        /* \"#utility.yul\":4476:4479   */\n      dup5\n        /* \"#utility.yul\":4472:4488   */\n      add\n        /* \"#utility.yul\":4469:4494   */\n      gt\n        /* \"#utility.yul\":4466:4578   */\n      iszero\n      tag_515\n      jumpi\n        /* \"#utility.yul\":4497:4576   */\n      tag_516\n      tag_397\n      jump\t// in\n    tag_516:\n        /* \"#utility.yul\":4466:4578   */\n    tag_515:\n        /* \"#utility.yul\":4587:4641   */\n      tag_517\n        /* \"#utility.yul\":4634:4640   */\n      dup5\n        /* \"#utility.yul\":4629:4632   */\n      dup3\n        /* \"#utility.yul\":4624:4627   */\n      dup6\n        /* \"#utility.yul\":4587:4641   */\n      tag_403\n      jump\t// in\n    tag_517:\n        /* \"#utility.yul\":4307:4647   */\n      pop\n        /* \"#utility.yul\":4224:4647   */\n      swap4\n      swap3\n      pop\n      pop\n      pop\n      jump\t// out\n        /* \"#utility.yul\":4666:5004   */\n    tag_405:\n        /* \"#utility.yul\":4721:4726   */\n      0x00\n        /* \"#utility.yul\":4770:4773   */\n      dup3\n        /* \"#utility.yul\":4763:4767   */\n      0x1f\n        /* \"#utility.yul\":4755:4761   */\n      dup4\n        /* \"#utility.yul\":4751:4768   */\n      add\n        /* \"#utility.yul\":4747:4774   */\n      slt\n        /* \"#utility.yul\":4737:4859   */\n      tag_519\n      jumpi\n        /* \"#utility.yul\":4778:4857   */\n      tag_520\n      tag_396\n      jump\t// in\n    tag_520:\n        /* \"#utility.yul\":4737:4859   */\n    tag_519:\n        /* \"#utility.yul\":4895:4901   */\n      dup2\n        /* \"#utility.yul\":4882:4902   */\n      calldataload\n        /* \"#utility.yul\":4920:4998   */\n      tag_521\n        /* \"#utility.yul\":4994:4997   */\n      dup5\n        /* \"#utility.yul\":4986:4992   */\n      dup3\n        /* \"#utility.yul\":4979:4983   */\n      0x20\n        /* \"#utility.yul\":4971:4977   */\n      dup7\n        /* \"#utility.yul\":4967:4984   */\n      add\n        /* \"#utility.yul\":4920:4998   */\n      tag_404\n      jump\t// in\n    tag_521:\n        /* \"#utility.yul\":4911:4998   */\n      swap2\n      pop\n        /* \"#utility.yul\":4727:5004   */\n      pop\n        /* \"#utility.yul\":4666:5004   */\n      swap3\n      swap2\n      pop\n      pop\n      jump\t// out\n        /* \"#utility.yul\":5010:5662   */\n    tag_42:\n        /* \"#utility.yul\":5087:5093   */\n      0x00\n        /* \"#utility.yul\":5095:5101   */\n      0x00\n        /* \"#utility.yul\":5144:5146   */\n      0x40\n        /* \"#utility.yul\":5132:5141   */\n      dup4\n        /* \"#utility.yul\":5123:5130   */\n      dup6\n        /* \"#utility.yul\":5119:5142   */\n      sub\n        /* \"#utility.yul\":5115:5147   */\n      slt\n        /* \"#utility.yul\":5112:5231   */\n      iszero\n      tag_523\n      jumpi\n        /* \"#utility.yul\":5150:5229   */\n      tag_524\n      tag_385\n      jump\t// in\n    tag_524:\n        /* \"#utility.yul\":5112:5231   */\n    tag_523:\n        /* \"#utility.yul\":5270:5271   */\n      0x00\n        /* \"#utility.yul\":5295:5348   */\n      tag_525\n        /* \"#utility.yul\":5340:5347   */\n      dup6\n        /* \"#utility.yul\":5331:5337   */\n      dup3\n        /* \"#utility.yul\":5320:5329   */\n      dup7\n        /* \"#utility.yul\":5316:5338   */\n      add\n        /* \"#utility.yul\":5295:5348   */\n      tag_390\n      jump\t// in\n    tag_525:\n        /* \"#utility.yul\":5285:5348   */\n      swap3\n      pop\n        /* \"#utility.yul\":5241:5358   */\n      pop\n        /* \"#utility.yul\":5425:5427   */\n      0x20\n        /* \"#utility.yul\":5414:5423   */\n      dup4\n        /* \"#utility.yul\":5410:5428   */\n      add\n        /* \"#utility.yul\":5397:5429   */\n      calldataload\n        /* \"#utility.yul\":5456:5474   */\n      0xffffffffffffffff\n        /* \"#utility.yul\":5448:5454   */\n      dup2\n        /* \"#utility.yul\":5445:5475   */\n      gt\n        /* \"#utility.yul\":5442:5559   */\n      iszero\n      tag_526\n      jumpi\n        /* \"#utility.yul\":5478:5557   */\n      tag_527\n      tag_386\n      jump\t// in\n    tag_527:\n        /* \"#utility.yul\":5442:5559   */\n    tag_526:\n        /* \"#utility.yul\":5583:5645   */\n      tag_528\n        /* \"#utility.yul\":5637:5644   */\n      dup6\n        /* \"#utility.yul\":5628:5634   */\n      dup3\n        /* \"#utility.yul\":5617:5626   */\n      dup7\n        /* \"#utility.yul\":5613:5635   */\n      add\n        /* \"#utility.yul\":5583:5645   */\n      tag_405\n      jump\t// in\n    tag_528:\n        /* \"#utility.yul\":5573:5645   */\n      swap2\n      pop\n        /* \"#utility.yul\":5368:5655   */\n      pop\n        /* \"#utility.yul\":5010:5662   */\n      swap3\n      pop\n      swap3\n      swap1\n      pop\n      jump\t// out\n        /* \"#utility.yul\":5668:5745   */\n    tag_406:\n        /* \"#utility.yul\":5705:5712   */\n      0x00\n        /* \"#utility.yul\":5734:5739   */\n      dup2\n        /* \"#utility.yul\":5723:5739   */\n      swap1\n      pop\n        /* \"#utility.yul\":5668:5745   */\n      swap2\n      swap1\n      pop\n      jump\t// out\n        /* \"#utility.yul\":5751:5869   */\n    tag_407:\n        /* \"#utility.yul\":5838:5862   */\n      tag_531\n        /* \"#utility.yul\":5856:5861   */\n      dup2\n        /* \"#utility.yul\":5838:5862   */\n      tag_406\n      jump\t// in\n    tag_531:\n        /* \"#utility.yul\":5833:5836   */\n      dup3\n        /* \"#utility.yul\":5826:5863   */\n      mstore\n        /* \"#utility.yul\":5751:5869   */\n      pop\n      pop\n      jump\t// out\n        /* \"#utility.yul\":5875:6097   */\n    tag_48:\n        /* \"#utility.yul\":5968:5972   */\n      0x00\n        /* \"#utility.yul\":6006:6008   */\n      0x20\n        /* \"#utility.yul\":5995:6004   */\n      dup3\n        /* \"#utility.yul\":5991:6009   */\n      add\n        /* \"#utility.yul\":5983:6009   */\n      swap1\n      pop\n        /* \"#utility.yul\":6019:6090   */\n      tag_533\n        /* \"#utility.yul\":6087:6088   */\n      0x00\n        /* \"#utility.yul\":6076:6085   */\n      dup4\n        /* \"#utility.yul\":6072:6089   */\n      add\n        /* \"#utility.yul\":6063:6069   */\n      dup5\n        /* \"#utility.yul\":6019:6090   */\n      tag_407\n      jump\t// in\n    tag_533:\n        /* \"#utility.yul\":5875:6097   */\n      swap3\n      swap2\n      pop\n      pop\n      jump\t// out\n        /* \"#utility.yul\":6103:6221   */\n    tag_408:\n        /* \"#utility.yul\":6190:6214   */\n      tag_535\n        /* \"#utility.yul\":6208:6213   */\n      dup2\n        /* \"#utility.yul\":6190:6214   */\n      tag_388\n      jump\t// in\n    tag_535:\n        /* \"#utility.yul\":6185:6188   */\n      dup3\n        /* \"#utility.yul\":6178:6215   */\n      mstore\n        /* \"#utility.yul\":6103:6221   */\n      pop\n      pop\n      jump\t// out\n        /* \"#utility.yul\":6227:6449   */\n    tag_60:\n        /* \"#utility.yul\":6320:6324   */\n      0x00\n        /* \"#utility.yul\":6358:6360   */\n      0x20\n        /* \"#utility.yul\":6347:6356   */\n      dup3\n        /* \"#utility.yul\":6343:6361   */\n      add\n        /* \"#utility.yul\":6335:6361   */\n      swap1\n      pop\n        /* \"#utility.yul\":6371:6442   */\n      tag_537\n        /* \"#utility.yul\":6439:6440   */\n      0x00\n        /* \"#utility.yul\":6428:6437   */\n      dup4\n        /* \"#utility.yul\":6424:6441   */\n      add\n        /* \"#utility.yul\":6415:6421   */\n      dup5\n        /* \"#utility.yul\":6371:6442   */\n      tag_408\n      jump\t// in\n    tag_537:\n        /* \"#utility.yul\":6227:6449   */\n      swap3\n      swap2\n      pop\n      pop\n      jump\t// out\n        /* \"#utility.yul\":6455:6554   */\n    tag_409:\n        /* \"#utility.yul\":6507:6513   */\n      0x00\n        /* \"#utility.yul\":6541:6546   */\n      dup2\n        /* \"#utility.yul\":6535:6547   */\n      mload\n        /* \"#utility.yul\":6525:6547   */\n      swap1\n      pop\n        /* \"#utility.yul\":6455:6554   */\n      swap2\n      swap1\n      pop\n      jump\t// out\n        /* \"#utility.yul\":6560:6729   */\n    tag_410:\n        /* \"#utility.yul\":6644:6655   */\n      0x00\n        /* \"#utility.yul\":6678:6684   */\n      dup3\n        /* \"#utility.yul\":6673:6676   */\n      dup3\n        /* \"#utility.yul\":6666:6685   */\n      mstore\n        /* \"#utility.yul\":6718:6722   */\n      0x20\n        /* \"#utility.yul\":6713:6716   */\n      dup3\n        /* \"#utility.yul\":6709:6723   */\n      add\n        /* \"#utility.yul\":6694:6723   */\n      swap1\n      pop\n        /* \"#utility.yul\":6560:6729   */\n      swap3\n      swap2\n      pop\n      pop\n      jump\t// out\n        /* \"#utility.yul\":6735:6874   */\n    tag_411:\n        /* \"#utility.yul\":6824:6830   */\n      dup3\n        /* \"#utility.yul\":6819:6822   */\n      dup2\n        /* \"#utility.yul\":6814:6817   */\n      dup4\n        /* \"#utility.yul\":6808:6831   */\n      mcopy\n        /* \"#utility.yul\":6865:6866   */\n      0x00\n        /* \"#utility.yul\":6856:6862   */\n      dup4\n        /* \"#utility.yul\":6851:6854   */\n      dup4\n        /* \"#utility.yul\":6847:6863   */\n      add\n        /* \"#utility.yul\":6840:6867   */\n      mstore\n        /* \"#utility.yul\":6735:6874   */\n      pop\n      pop\n      pop\n      jump\t// out\n        /* \"#utility.yul\":6880:7257   */\n    tag_412:\n        /* \"#utility.yul\":6968:6971   */\n      0x00\n        /* \"#utility.yul\":6996:7035   */\n      tag_542\n        /* \"#utility.yul\":7029:7034   */\n      dup3\n        /* \"#utility.yul\":6996:7035   */\n      tag_409\n      jump\t// in\n    tag_542:\n        /* \"#utility.yul\":7051:7122   */\n      tag_543\n        /* \"#utility.yul\":7115:7121   */\n      dup2\n        /* \"#utility.yul\":7110:7113   */\n      dup6\n        /* \"#utility.yul\":7051:7122   */\n      tag_410\n      jump\t// in\n    tag_543:\n        /* \"#utility.yul\":7044:7122   */\n      swap4\n      pop\n        /* \"#utility.yul\":7131:7196   */\n      tag_544\n        /* \"#utility.yul\":7189:7195   */\n      dup2\n        /* \"#utility.yul\":7184:7187   */\n      dup6\n        /* \"#utility.yul\":7177:7181   */\n      0x20\n        /* \"#utility.yul\":7170:7175   */\n      dup7\n        /* \"#utility.yul\":7166:7182   */\n      add\n        /* \"#utility.yul\":7131:7196   */\n      tag_411\n      jump\t// in\n    tag_544:\n        /* \"#utility.yul\":7221:7250   */\n      tag_545\n        /* \"#utility.yul\":7243:7249   */\n      dup2\n        /* \"#utility.yul\":7221:7250   */\n      tag_398\n      jump\t// in\n    tag_545:\n        /* \"#utility.yul\":7216:7219   */\n      dup5\n        /* \"#utility.yul\":7212:7251   */\n      add\n        /* \"#utility.yul\":7205:7251   */\n      swap2\n      pop\n        /* \"#utility.yul\":6972:7257   */\n      pop\n        /* \"#utility.yul\":6880:7257   */\n      swap3\n      swap2\n      pop\n      pop\n      jump\t// out\n        /* \"#utility.yul\":7263:7576   */\n    tag_69:\n        /* \"#utility.yul\":7376:7380   */\n      0x00\n        /* \"#utility.yul\":7414:7416   */\n      0x20\n        /* \"#utility.yul\":7403:7412   */\n      dup3\n        /* \"#utility.yul\":7399:7417   */\n      add\n        /* \"#utility.yul\":7391:7417   */\n      swap1\n      pop\n        /* \"#utility.yul\":7463:7472   */\n      dup2\n        /* \"#utility.yul\":7457:7461   */\n      dup2\n        /* \"#utility.yul\":7453:7473   */\n      sub\n        /* \"#utility.yul\":7449:7450   */\n      0x00\n        /* \"#utility.yul\":7438:7447   */\n      dup4\n        /* \"#utility.yul\":7434:7451   */\n      add\n        /* \"#utility.yul\":7427:7474   */\n      mstore\n        /* \"#utility.yul\":7491:7569   */\n      tag_547\n        /* \"#utility.yul\":7564:7568   */\n      dup2\n        /* \"#utility.yul\":7555:7561   */\n      dup5\n        /* \"#utility.yul\":7491:7569   */\n      tag_412\n      jump\t// in\n    tag_547:\n        /* \"#utility.yul\":7483:7569   */\n      swap1\n      pop\n        /* \"#utility.yul\":7263:7576   */\n      swap3\n      swap2\n      pop\n      pop\n      jump\t// out\n        /* \"#utility.yul\":7582:7699   */\n    tag_413:\n        /* \"#utility.yul\":7691:7692   */\n      0x00\n        /* \"#utility.yul\":7688:7689   */\n      0x00\n        /* \"#utility.yul\":7681:7693   */\n      revert\n        /* \"#utility.yul\":7705:7822   */\n    tag_414:\n        /* \"#utility.yul\":7814:7815   */\n      0x00\n        /* \"#utility.yul\":7811:7812   */\n      0x00\n        /* \"#utility.yul\":7804:7816   */\n      revert\n        /* \"#utility.yul\":7845:8413   */\n    tag_415:\n        /* \"#utility.yul\":7918:7926   */\n      0x00\n        /* \"#utility.yul\":7928:7934   */\n      0x00\n        /* \"#utility.yul\":7978:7981   */\n      dup4\n        /* \"#utility.yul\":7971:7975   */\n      0x1f\n        /* \"#utility.yul\":7963:7969   */\n      dup5\n        /* \"#utility.yul\":7959:7976   */\n      add\n        /* \"#utility.yul\":7955:7982   */\n      slt\n        /* \"#utility.yul\":7945:8067   */\n      tag_551\n      jumpi\n        /* \"#utility.yul\":7986:8065   */\n      tag_552\n      tag_396\n      jump\t// in\n    tag_552:\n        /* \"#utility.yul\":7945:8067   */\n    tag_551:\n        /* \"#utility.yul\":8099:8105   */\n      dup3\n        /* \"#utility.yul\":8086:8106   */\n      calldataload\n        /* \"#utility.yul\":8076:8106   */\n      swap1\n      pop\n        /* \"#utility.yul\":8129:8147   */\n      0xffffffffffffffff\n        /* \"#utility.yul\":8121:8127   */\n      dup2\n        /* \"#utility.yul\":8118:8148   */\n      gt\n        /* \"#utility.yul\":8115:8232   */\n      iszero\n      tag_553\n      jumpi\n        /* \"#utility.yul\":8151:8230   */\n      tag_554\n      tag_413\n      jump\t// in\n    tag_554:\n        /* \"#utility.yul\":8115:8232   */\n    tag_553:\n        /* \"#utility.yul\":8265:8269   */\n      0x20\n        /* \"#utility.yul\":8257:8263   */\n      dup4\n        /* \"#utility.yul\":8253:8270   */\n      add\n        /* \"#utility.yul\":8241:8270   */\n      swap2\n      pop\n        /* \"#utility.yul\":8319:8322   */\n      dup4\n        /* \"#utility.yul\":8311:8315   */\n      0x20\n        /* \"#utility.yul\":8303:8309   */\n      dup3\n        /* \"#utility.yul\":8299:8316   */\n      mul\n        /* \"#utility.yul\":8289:8297   */\n      dup4\n        /* \"#utility.yul\":8285:8317   */\n      add\n        /* \"#utility.yul\":8282:8323   */\n      gt\n        /* \"#utility.yul\":8279:8407   */\n      iszero\n      tag_555\n      jumpi\n        /* \"#utility.yul\":8326:8405   */\n      tag_556\n      tag_414\n      jump\t// in\n    tag_556:\n        /* \"#utility.yul\":8279:8407   */\n    tag_555:\n        /* \"#utility.yul\":7845:8413   */\n      swap3\n      pop\n      swap3\n      swap1\n      pop\n      jump\t// out\n        /* \"#utility.yul\":8419:8978   */\n    tag_87:\n        /* \"#utility.yul\":8505:8511   */\n      0x00\n        /* \"#utility.yul\":8513:8519   */\n      0x00\n        /* \"#utility.yul\":8562:8564   */\n      0x20\n        /* \"#utility.yul\":8550:8559   */\n      dup4\n        /* \"#utility.yul\":8541:8548   */\n      dup6\n        /* \"#utility.yul\":8537:8560   */\n      sub\n        /* \"#utility.yul\":8533:8565   */\n      slt\n        /* \"#utility.yul\":8530:8649   */\n      iszero\n      tag_558\n      jumpi\n        /* \"#utility.yul\":8568:8647   */\n      tag_559\n      tag_385\n      jump\t// in\n    tag_559:\n        /* \"#utility.yul\":8530:8649   */\n    tag_558:\n        /* \"#utility.yul\":8716:8717   */\n      0x00\n        /* \"#utility.yul\":8705:8714   */\n      dup4\n        /* \"#utility.yul\":8701:8718   */\n      add\n        /* \"#utility.yul\":8688:8719   */\n      calldataload\n        /* \"#utility.yul\":8746:8764   */\n      0xffffffffffffffff\n        /* \"#utility.yul\":8738:8744   */\n      dup2\n        /* \"#utility.yul\":8735:8765   */\n      gt\n        /* \"#utility.yul\":8732:8849   */\n      iszero\n      tag_560\n      jumpi\n        /* \"#utility.yul\":8768:8847   */\n      tag_561\n      tag_386\n      jump\t// in\n    tag_561:\n        /* \"#utility.yul\":8732:8849   */\n    tag_560:\n        /* \"#utility.yul\":8881:8961   */\n      tag_562\n        /* \"#utility.yul\":8953:8960   */\n      dup6\n        /* \"#utility.yul\":8944:8950   */\n      dup3\n        /* \"#utility.yul\":8933:8942   */\n      dup7\n        /* \"#utility.yul\":8929:8951   */\n      add\n        /* \"#utility.yul\":8881:8961   */\n      tag_415\n      jump\t// in\n    tag_562:\n        /* \"#utility.yul\":8863:8961   */\n      swap3\n      pop\n      swap3\n      pop\n        /* \"#utility.yul\":8659:8971   */\n      pop\n        /* \"#utility.yul\":8419:8978   */\n      swap3\n      pop\n      swap3\n      swap1\n      pop\n      jump\t// out\n        /* \"#utility.yul\":8984:9074   */\n    tag_416:\n        /* \"#utility.yul\":9018:9025   */\n      0x00\n        /* \"#utility.yul\":9061:9066   */\n      dup2\n        /* \"#utility.yul\":9054:9067   */\n      iszero\n        /* \"#utility.yul\":9047:9068   */\n      iszero\n        /* \"#utility.yul\":9036:9068   */\n      swap1\n      pop\n        /* \"#utility.yul\":8984:9074   */\n      swap2\n      swap1\n      pop\n      jump\t// out\n        /* \"#utility.yul\":9080:9189   */\n    tag_417:\n        /* \"#utility.yul\":9161:9182   */\n      tag_565\n        /* \"#utility.yul\":9176:9181   */\n      dup2\n        /* \"#utility.yul\":9161:9182   */\n      tag_416\n      jump\t// in\n    tag_565:\n        /* \"#utility.yul\":9156:9159   */\n      dup3\n        /* \"#utility.yul\":9149:9183   */\n      mstore\n        /* \"#utility.yul\":9080:9189   */\n      pop\n      pop\n      jump\t// out\n        /* \"#utility.yul\":9195:9405   */\n    tag_94:\n        /* \"#utility.yul\":9282:9286   */\n      0x00\n        /* \"#utility.yul\":9320:9322   */\n      0x20\n        /* \"#utility.yul\":9309:9318   */\n      dup3\n        /* \"#utility.yul\":9305:9323   */\n      add\n        /* \"#utility.yul\":9297:9323   */\n      swap1\n      pop\n        /* \"#utility.yul\":9333:9398   */\n      tag_567\n        /* \"#utility.yul\":9395:9396   */\n      0x00\n        /* \"#utility.yul\":9384:9393   */\n      dup4\n        /* \"#utility.yul\":9380:9397   */\n      add\n        /* \"#utility.yul\":9371:9377   */\n      dup5\n        /* \"#utility.yul\":9333:9398   */\n      tag_417\n      jump\t// in\n    tag_567:\n        /* \"#utility.yul\":9195:9405   */\n      swap3\n      swap2\n      pop\n      pop\n      jump\t// out\n        /* \"#utility.yul\":9411:9740   */\n    tag_112:\n        /* \"#utility.yul\":9470:9476   */\n      0x00\n        /* \"#utility.yul\":9519:9521   */\n      0x20\n        /* \"#utility.yul\":9507:9516   */\n      dup3\n        /* \"#utility.yul\":9498:9505   */\n      dup5\n        /* \"#utility.yul\":9494:9517   */\n      sub\n        /* \"#utility.yul\":9490:9522   */\n      slt\n        /* \"#utility.yul\":9487:9606   */\n      iszero\n      tag_569\n      jumpi\n        /* \"#utility.yul\":9525:9604   */\n      tag_570\n      tag_385\n      jump\t// in\n    tag_570:\n        /* \"#utility.yul\":9487:9606   */\n    tag_569:\n        /* \"#utility.yul\":9645:9646   */\n      0x00\n        /* \"#utility.yul\":9670:9723   */\n      tag_571\n        /* \"#utility.yul\":9715:9722   */\n      dup5\n        /* \"#utility.yul\":9706:9712   */\n      dup3\n        /* \"#utility.yul\":9695:9704   */\n      dup6\n        /* \"#utility.yul\":9691:9713   */\n      add\n        /* \"#utility.yul\":9670:9723   */\n      tag_395\n      jump\t// in\n    tag_571:\n        /* \"#utility.yul\":9660:9723   */\n      swap2\n      pop\n        /* \"#utility.yul\":9616:9733   */\n      pop\n        /* \"#utility.yul\":9411:9740   */\n      swap3\n      swap2\n      pop\n      pop\n      jump\t// out\n        /* \"#utility.yul\":9746:9915   */\n    tag_418:\n        /* \"#utility.yul\":9886:9907   */\n      0x43686172697479206e6f7420616c6c6f77656400000000000000000000000000\n        /* \"#utility.yul\":9882:9883   */\n      0x00\n        /* \"#utility.yul\":9874:9880   */\n      dup3\n        /* \"#utility.yul\":9870:9884   */\n      add\n        /* \"#utility.yul\":9863:9908   */\n      mstore\n        /* \"#utility.yul\":9746:9915   */\n      pop\n      jump\t// out\n        /* \"#utility.yul\":9921:10287   */\n    tag_419:\n        /* \"#utility.yul\":10063:10066   */\n      0x00\n        /* \"#utility.yul\":10084:10151   */\n      tag_574\n        /* \"#utility.yul\":10148:10150   */\n      0x13\n        /* \"#utility.yul\":10143:10146   */\n      dup4\n        /* \"#utility.yul\":10084:10151   */\n      tag_410\n      jump\t// in\n    tag_574:\n        /* \"#utility.yul\":10077:10151   */\n      swap2\n      pop\n        /* \"#utility.yul\":10160:10253   */\n      tag_575\n        /* \"#utility.yul\":10249:10252   */\n      dup3\n        /* \"#utility.yul\":10160:10253   */\n      tag_418\n      jump\t// in\n    tag_575:\n        /* \"#utility.yul\":10278:10280   */\n      0x20\n        /* \"#utility.yul\":10273:10276   */\n      dup3\n        /* \"#utility.yul\":10269:10281   */\n      add\n        /* \"#utility.yul\":10262:10281   */\n      swap1\n      pop\n        /* \"#utility.yul\":9921:10287   */\n      swap2\n      swap1\n      pop\n      jump\t// out\n        /* \"#utility.yul\":10293:10712   */\n    tag_122:\n        /* \"#utility.yul\":10459:10463   */\n      0x00\n        /* \"#utility.yul\":10497:10499   */\n      0x20\n        /* \"#utility.yul\":10486:10495   */\n      dup3\n        /* \"#utility.yul\":10482:10500   */\n      add\n        /* \"#utility.yul\":10474:10500   */\n      swap1\n      pop\n        /* \"#utility.yul\":10546:10555   */\n      dup2\n        /* \"#utility.yul\":10540:10544   */\n      dup2\n        /* \"#utility.yul\":10536:10556   */\n      sub\n        /* \"#utility.yul\":10532:10533   */\n      0x00\n        /* \"#utility.yul\":10521:10530   */\n      dup4\n        /* \"#utility.yul\":10517:10534   */\n      add\n        /* \"#utility.yul\":10510:10557   */\n      mstore\n        /* \"#utility.yul\":10574:10705   */\n      tag_577\n        /* \"#utility.yul\":10700:10704   */\n      dup2\n        /* \"#utility.yul\":10574:10705   */\n      tag_419\n      jump\t// in\n    tag_577:\n        /* \"#utility.yul\":10566:10705   */\n      swap1\n      pop\n        /* \"#utility.yul\":10293:10712   */\n      swap2\n      swap1\n      pop\n      jump\t// out\n        /* \"#utility.yul\":10718:10886   */\n    tag_420:\n        /* \"#utility.yul\":10858:10878   */\n      0x446f6e6174696f6e20746f6f20736d616c6c0000000000000000000000000000\n        /* \"#utility.yul\":10854:10855   */\n      0x00\n        /* \"#utility.yul\":10846:10852   */\n      dup3\n        /* \"#utility.yul\":10842:10856   */\n      add\n        /* \"#utility.yul\":10835:10879   */\n      mstore\n        /* \"#utility.yul\":10718:10886   */\n      pop\n      jump\t// out\n        /* \"#utility.yul\":10892:11258   */\n    tag_421:\n        /* \"#utility.yul\":11034:11037   */\n      0x00\n        /* \"#utility.yul\":11055:11122   */\n      tag_580\n        /* \"#utility.yul\":11119:11121   */\n      0x12\n        /* \"#utility.yul\":11114:11117   */\n      dup4\n        /* \"#utility.yul\":11055:11122   */\n      tag_410\n      jump\t// in\n    tag_580:\n        /* \"#utility.yul\":11048:11122   */\n      swap2\n      pop\n        /* \"#utility.yul\":11131:11224   */\n      tag_581\n        /* \"#utility.yul\":11220:11223   */\n      dup3\n        /* \"#utility.yul\":11131:11224   */\n      tag_420\n      jump\t// in\n    tag_581:\n        /* \"#utility.yul\":11249:11251   */\n      0x20\n        /* \"#utility.yul\":11244:11247   */\n      dup3\n        /* \"#utility.yul\":11240:11252   */\n      add\n        /* \"#utility.yul\":11233:11252   */\n      swap1\n      pop\n        /* \"#utility.yul\":10892:11258   */\n      swap2\n      swap1\n      pop\n      jump\t// out\n        /* \"#utility.yul\":11264:11683   */\n    tag_125:\n        /* \"#utility.yul\":11430:11434   */\n      0x00\n        /* \"#utility.yul\":11468:11470   */\n      0x20\n        /* \"#utility.yul\":11457:11466   */\n      dup3\n        /* \"#utility.yul\":11453:11471   */\n      add\n        /* \"#utility.yul\":11445:11471   */\n      swap1\n      pop\n        /* \"#utility.yul\":11517:11526   */\n      dup2\n        /* \"#utility.yul\":11511:11515   */\n      dup2\n        /* \"#utility.yul\":11507:11527   */\n      sub\n        /* \"#utility.yul\":11503:11504   */\n      0x00\n        /* \"#utility.yul\":11492:11501   */\n      dup4\n        /* \"#utility.yul\":11488:11505   */\n      add\n        /* \"#utility.yul\":11481:11528   */\n      mstore\n        /* \"#utility.yul\":11545:11676   */\n      tag_583\n        /* \"#utility.yul\":11671:11675   */\n      dup2\n        /* \"#utility.yul\":11545:11676   */\n      tag_421\n      jump\t// in\n    tag_583:\n        /* \"#utility.yul\":11537:11676   */\n      swap1\n      pop\n        /* \"#utility.yul\":11264:11683   */\n      swap2\n      swap1\n      pop\n      jump\t// out\n        /* \"#utility.yul\":11689:11869   */\n    tag_422:\n        /* \"#utility.yul\":11737:11814   */\n      0x4e487b7100000000000000000000000000000000000000000000000000000000\n        /* \"#utility.yul\":11734:11735   */\n      0x00\n        /* \"#utility.yul\":11727:11815   */\n      mstore\n        /* \"#utility.yul\":11834:11838   */\n      0x11\n        /* \"#utility.yul\":11831:11832   */\n      0x04\n        /* \"#utility.yul\":11824:11839   */\n      mstore\n        /* \"#utility.yul\":11858:11862   */\n      0x24\n        /* \"#utility.yul\":11855:11856   */\n      0x00\n        /* \"#utility.yul\":11848:11863   */\n      revert\n        /* \"#utility.yul\":11875:12066   */\n    tag_127:\n        /* \"#utility.yul\":11915:11918   */\n      0x00\n        /* \"#utility.yul\":11934:11954   */\n      tag_586\n        /* \"#utility.yul\":11952:11953   */\n      dup3\n        /* \"#utility.yul\":11934:11954   */\n      tag_382\n      jump\t// in\n    tag_586:\n        /* \"#utility.yul\":11929:11954   */\n      swap2\n      pop\n        /* \"#utility.yul\":11968:11988   */\n      tag_587\n        /* \"#utility.yul\":11986:11987   */\n      dup4\n        /* \"#utility.yul\":11968:11988   */\n      tag_382\n      jump\t// in\n    tag_587:\n        /* \"#utility.yul\":11963:11988   */\n      swap3\n      pop\n        /* \"#utility.yul\":12011:12012   */\n      dup3\n        /* \"#utility.yul\":12008:12009   */\n      dup3\n        /* \"#utility.yul\":12004:12013   */\n      add\n        /* \"#utility.yul\":11997:12013   */\n      swap1\n      pop\n        /* \"#utility.yul\":12032:12035   */\n      dup1\n        /* \"#utility.yul\":12029:12030   */\n      dup3\n        /* \"#utility.yul\":12026:12036   */\n      gt\n        /* \"#utility.yul\":12023:12059   */\n      iszero\n      tag_588\n      jumpi\n        /* \"#utility.yul\":12039:12057   */\n      tag_589\n      tag_422\n      jump\t// in\n    tag_589:\n        /* \"#utility.yul\":12023:12059   */\n    tag_588:\n        /* \"#utility.yul\":11875:12066   */\n      swap3\n      swap2\n      pop\n      pop\n      jump\t// out\n        /* \"#utility.yul\":12072:12234   */\n    tag_423:\n        /* \"#utility.yul\":12212:12226   */\n      0x4f6e6c7920636861726974790000000000000000000000000000000000000000\n        /* \"#utility.yul\":12208:12209   */\n      0x00\n        /* \"#utility.yul\":12200:12206   */\n      dup3\n        /* \"#utility.yul\":12196:12210   */\n      add\n        /* \"#utility.yul\":12189:12227   */\n      mstore\n        /* \"#utility.yul\":12072:12234   */\n      pop\n      jump\t// out\n        /* \"#utility.yul\":12240:12606   */\n    tag_424:\n        /* \"#utility.yul\":12382:12385   */\n      0x00\n        /* \"#utility.yul\":12403:12470   */\n      tag_592\n        /* \"#utility.yul\":12467:12469   */\n      0x0c\n        /* \"#utility.yul\":12462:12465   */\n      dup4\n        /* \"#utility.yul\":12403:12470   */\n      tag_410\n      jump\t// in\n    tag_592:\n        /* \"#utility.yul\":12396:12470   */\n      swap2\n      pop\n        /* \"#utility.yul\":12479:12572   */\n      tag_593\n        /* \"#utility.yul\":12568:12571   */\n      dup3\n        /* \"#utility.yul\":12479:12572   */\n      tag_423\n      jump\t// in\n    tag_593:\n        /* \"#utility.yul\":12597:12599   */\n      0x20\n        /* \"#utility.yul\":12592:12595   */\n      dup3\n        /* \"#utility.yul\":12588:12600   */\n      add\n        /* \"#utility.yul\":12581:12600   */\n      swap1\n      pop\n        /* \"#utility.yul\":12240:12606   */\n      swap2\n      swap1\n      pop\n      jump\t// out\n        /* \"#utility.yul\":12612:13031   */\n    tag_137:\n        /* \"#utility.yul\":12778:12782   */\n      0x00\n        /* \"#utility.yul\":12816:12818   */\n      0x20\n        /* \"#utility.yul\":12805:12814   */\n      dup3\n        /* \"#utility.yul\":12801:12819   */\n      add\n        /* \"#utility.yul\":12793:12819   */\n      swap1\n      pop\n        /* \"#utility.yul\":12865:12874   */\n      dup2\n        /* \"#utility.yul\":12859:12863   */\n      dup2\n        /* \"#utility.yul\":12855:12875   */\n      sub\n        /* \"#utility.yul\":12851:12852   */\n      0x00\n        /* \"#utility.yul\":12840:12849   */\n      dup4\n        /* \"#utility.yul\":12836:12853   */\n      add\n        /* \"#utility.yul\":12829:12876   */\n      mstore\n        /* \"#utility.yul\":12893:13024   */\n      tag_595\n        /* \"#utility.yul\":13019:13023   */\n      dup2\n        /* \"#utility.yul\":12893:13024   */\n      tag_424\n      jump\t// in\n    tag_595:\n        /* \"#utility.yul\":12885:13024   */\n      swap1\n      pop\n        /* \"#utility.yul\":12612:13031   */\n      swap2\n      swap1\n      pop\n      jump\t// out\n        /* \"#utility.yul\":13037:13204   */\n    tag_425:\n        /* \"#utility.yul\":13177:13196   */\n      0x496e76616c696420726563697069656e74000000000000000000000000000000\n        /* \"#utility.yul\":13173:13174   */\n      0x00\n        /* \"#utility.yul\":13165:13171   */\n      dup3\n        /* \"#utility.yul\":13161:13175   */\n      add\n        /* \"#utility.yul\":13154:13197   */\n      mstore\n        /* \"#utility.yul\":13037:13204   */\n      pop\n      jump\t// out\n        /* \"#utility.yul\":13210:13576   */\n    tag_426:\n        /* \"#utility.yul\":13352:13355   */\n      0x00\n        /* \"#utility.yul\":13373:13440   */\n      tag_598\n        /* \"#utility.yul\":13437:13439   */\n      0x11\n        /* \"#utility.yul\":13432:13435   */\n      dup4\n        /* \"#utility.yul\":13373:13440   */\n      tag_410\n      jump\t// in\n    tag_598:\n        /* \"#utility.yul\":13366:13440   */\n      swap2\n      pop\n        /* \"#utility.yul\":13449:13542   */\n      tag_599\n        /* \"#utility.yul\":13538:13541   */\n      dup3\n        /* \"#utility.yul\":13449:13542   */\n      tag_425\n      jump\t// in\n    tag_599:\n        /* \"#utility.yul\":13567:13569   */\n      0x20\n        /* \"#utility.yul\":13562:13565   */\n      dup3\n        /* \"#utility.yul\":13558:13570   */\n      add\n        /* \"#utility.yul\":13551:13570   */\n      swap1\n      pop\n        /* \"#utility.yul\":13210:13576   */\n      swap2\n      swap1\n      pop\n      jump\t// out\n        /* \"#utility.yul\":13582:14001   */\n    tag_140:\n        /* \"#utility.yul\":13748:13752   */\n      0x00\n        /* \"#utility.yul\":13786:13788   */\n      0x20\n        /* \"#utility.yul\":13775:13784   */\n      dup3\n        /* \"#utility.yul\":13771:13789   */\n      add\n        /* \"#utility.yul\":13763:13789   */\n      swap1\n      pop\n        /* \"#utility.yul\":13835:13844   */\n      dup2\n        /* \"#utility.yul\":13829:13833   */\n      dup2\n        /* \"#utility.yul\":13825:13845   */\n      sub\n        /* \"#utility.yul\":13821:13822   */\n      0x00\n        /* \"#utility.yul\":13810:13819   */\n      dup4\n        /* \"#utility.yul\":13806:13823   */\n      add\n        /* \"#utility.yul\":13799:13846   */\n      mstore\n        /* \"#utility.yul\":13863:13994   */\n      tag_601\n        /* \"#utility.yul\":13989:13993   */\n      dup2\n        /* \"#utility.yul\":13863:13994   */\n      tag_426\n      jump\t// in\n    tag_601:\n        /* \"#utility.yul\":13855:13994   */\n      swap1\n      pop\n        /* \"#utility.yul\":13582:14001   */\n      swap2\n      swap1\n      pop\n      jump\t// out\n        /* \"#utility.yul\":14007:14175   */\n    tag_427:\n        /* \"#utility.yul\":14147:14167   */\n      0x416d6f756e74206d757374206265203e20300000000000000000000000000000\n        /* \"#utility.yul\":14143:14144   */\n      0x00\n        /* \"#utility.yul\":14135:14141   */\n      dup3\n        /* \"#utility.yul\":14131:14145   */\n      add\n        /* \"#utility.yul\":14124:14168   */\n      mstore\n        /* \"#utility.yul\":14007:14175   */\n      pop\n      jump\t// out\n        /* \"#utility.yul\":14181:14547   */\n    tag_428:\n        /* \"#utility.yul\":14323:14326   */\n      0x00\n        /* \"#utility.yul\":14344:14411   */\n      tag_604\n        /* \"#utility.yul\":14408:14410   */\n      0x12\n        /* \"#utility.yul\":14403:14406   */\n      dup4\n        /* \"#utility.yul\":14344:14411   */\n      tag_410\n      jump\t// in\n    tag_604:\n        /* \"#utility.yul\":14337:14411   */\n      swap2\n      pop\n        /* \"#utility.yul\":14420:14513   */\n      tag_605\n        /* \"#utility.yul\":14509:14512   */\n      dup3\n        /* \"#utility.yul\":14420:14513   */\n      tag_427\n      jump\t// in\n    tag_605:\n        /* \"#utility.yul\":14538:14540   */\n      0x20\n        /* \"#utility.yul\":14533:14536   */\n      dup3\n        /* \"#utility.yul\":14529:14541   */\n      add\n        /* \"#utility.yul\":14522:14541   */\n      swap1\n      pop\n        /* \"#utility.yul\":14181:14547   */\n      swap2\n      swap1\n      pop\n      jump\t// out\n        /* \"#utility.yul\":14553:14972   */\n    tag_143:\n        /* \"#utility.yul\":14719:14723   */\n      0x00\n        /* \"#utility.yul\":14757:14759   */\n      0x20\n        /* \"#utility.yul\":14746:14755   */\n      dup3\n        /* \"#utility.yul\":14742:14760   */\n      add\n        /* \"#utility.yul\":14734:14760   */\n      swap1\n      pop\n        /* \"#utility.yul\":14806:14815   */\n      dup2\n        /* \"#utility.yul\":14800:14804   */\n      dup2\n        /* \"#utility.yul\":14796:14816   */\n      sub\n        /* \"#utility.yul\":14792:14793   */\n      0x00\n        /* \"#utility.yul\":14781:14790   */\n      dup4\n        /* \"#utility.yul\":14777:14794   */\n      add\n        /* \"#utility.yul\":14770:14817   */\n      mstore\n        /* \"#utility.yul\":14834:14965   */\n      tag_607\n        /* \"#utility.yul\":14960:14964   */\n      dup2\n        /* \"#utility.yul\":14834:14965   */\n      tag_428\n      jump\t// in\n    tag_607:\n        /* \"#utility.yul\":14826:14965   */\n      swap1\n      pop\n        /* \"#utility.yul\":14553:14972   */\n      swap2\n      swap1\n      pop\n      jump\t// out\n        /* \"#utility.yul\":14978:15148   */\n    tag_429:\n        /* \"#utility.yul\":15118:15140   */\n      0x4e6f7420656e6f75676820616c6c6f6361746564000000000000000000000000\n        /* \"#utility.yul\":15114:15115   */\n      0x00\n        /* \"#utility.yul\":15106:15112   */\n      dup3\n        /* \"#utility.yul\":15102:15116   */\n      add\n        /* \"#utility.yul\":15095:15141   */\n      mstore\n        /* \"#utility.yul\":14978:15148   */\n      pop\n      jump\t// out\n        /* \"#utility.yul\":15154:15520   */\n    tag_430:\n        /* \"#utility.yul\":15296:15299   */\n      0x00\n        /* \"#utility.yul\":15317:15384   */\n      tag_610\n        /* \"#utility.yul\":15381:15383   */\n      0x14\n        /* \"#utility.yul\":15376:15379   */\n      dup4\n        /* \"#utility.yul\":15317:15384   */\n      tag_410\n      jump\t// in\n    tag_610:\n        /* \"#utility.yul\":15310:15384   */\n      swap2\n      pop\n        /* \"#utility.yul\":15393:15486   */\n      tag_611\n        /* \"#utility.yul\":15482:15485   */\n      dup3\n        /* \"#utility.yul\":15393:15486   */\n      tag_429\n      jump\t// in\n    tag_611:\n        /* \"#utility.yul\":15511:15513   */\n      0x20\n        /* \"#utility.yul\":15506:15509   */\n      dup3\n        /* \"#utility.yul\":15502:15514   */\n      add\n        /* \"#utility.yul\":15495:15514   */\n      swap1\n      pop\n        /* \"#utility.yul\":15154:15520   */\n      swap2\n      swap1\n      pop\n      jump\t// out\n        /* \"#utility.yul\":15526:15945   */\n    tag_146:\n        /* \"#utility.yul\":15692:15696   */\n      0x00\n        /* \"#utility.yul\":15730:15732   */\n      0x20\n        /* \"#utility.yul\":15719:15728   */\n      dup3\n        /* \"#utility.yul\":15715:15733   */\n      add\n        /* \"#utility.yul\":15707:15733   */\n      swap1\n      pop\n        /* \"#utility.yul\":15779:15788   */\n      dup2\n        /* \"#utility.yul\":15773:15777   */\n      dup2\n        /* \"#utility.yul\":15769:15789   */\n      sub\n        /* \"#utility.yul\":15765:15766   */\n      0x00\n        /* \"#utility.yul\":15754:15763   */\n      dup4\n        /* \"#utility.yul\":15750:15767   */\n      add\n        /* \"#utility.yul\":15743:15790   */\n      mstore\n        /* \"#utility.yul\":15807:15938   */\n      tag_613\n        /* \"#utility.yul\":15933:15937   */\n      dup2\n        /* \"#utility.yul\":15807:15938   */\n      tag_430\n      jump\t// in\n    tag_613:\n        /* \"#utility.yul\":15799:15938   */\n      swap1\n      pop\n        /* \"#utility.yul\":15526:15945   */\n      swap2\n      swap1\n      pop\n      jump\t// out\n        /* \"#utility.yul\":15951:16145   */\n    tag_148:\n        /* \"#utility.yul\":15991:15995   */\n      0x00\n        /* \"#utility.yul\":16011:16031   */\n      tag_615\n        /* \"#utility.yul\":16029:16030   */\n      dup3\n        /* \"#utility.yul\":16011:16031   */\n      tag_382\n      jump\t// in\n    tag_615:\n        /* \"#utility.yul\":16006:16031   */\n      swap2\n      pop\n        /* \"#utility.yul\":16045:16065   */\n      tag_616\n        /* \"#utility.yul\":16063:16064   */\n      dup4\n        /* \"#utility.yul\":16045:16065   */\n      tag_382\n      jump\t// in\n    tag_616:\n        /* \"#utility.yul\":16040:16065   */\n      swap3\n      pop\n        /* \"#utility.yul\":16089:16090   */\n      dup3\n        /* \"#utility.yul\":16086:16087   */\n      dup3\n        /* \"#utility.yul\":16082:16091   */\n      sub\n        /* \"#utility.yul\":16074:16091   */\n      swap1\n      pop\n        /* \"#utility.yul\":16113:16114   */\n      dup2\n        /* \"#utility.yul\":16107:16111   */\n      dup2\n        /* \"#utility.yul\":16104:16115   */\n      gt\n        /* \"#utility.yul\":16101:16138   */\n      iszero\n      tag_617\n      jumpi\n        /* \"#utility.yul\":16118:16136   */\n      tag_618\n      tag_422\n      jump\t// in\n    tag_618:\n        /* \"#utility.yul\":16101:16138   */\n    tag_617:\n        /* \"#utility.yul\":15951:16145   */\n      swap3\n      swap2\n      pop\n      pop\n      jump\t// out\n        /* \"#utility.yul\":16151:16298   */\n    tag_431:\n        /* \"#utility.yul\":16252:16263   */\n      0x00\n        /* \"#utility.yul\":16289:16292   */\n      dup2\n        /* \"#utility.yul\":16274:16292   */\n      swap1\n      pop\n        /* \"#utility.yul\":16151:16298   */\n      swap3\n      swap2\n      pop\n      pop\n      jump\t// out\n        /* \"#utility.yul\":16304:16418   */\n    tag_432:\n      pop\n      jump\t// out\n        /* \"#utility.yul\":16424:16822   */\n    tag_433:\n        /* \"#utility.yul\":16583:16586   */\n      0x00\n        /* \"#utility.yul\":16604:16687   */\n      tag_622\n        /* \"#utility.yul\":16685:16686   */\n      0x00\n        /* \"#utility.yul\":16680:16683   */\n      dup4\n        /* \"#utility.yul\":16604:16687   */\n      tag_431\n      jump\t// in\n    tag_622:\n        /* \"#utility.yul\":16597:16687   */\n      swap2\n      pop\n        /* \"#utility.yul\":16696:16789   */\n      tag_623\n        /* \"#utility.yul\":16785:16788   */\n      dup3\n        /* \"#utility.yul\":16696:16789   */\n      tag_432\n      jump\t// in\n    tag_623:\n        /* \"#utility.yul\":16814:16815   */\n      0x00\n        /* \"#utility.yul\":16809:16812   */\n      dup3\n        /* \"#utility.yul\":16805:16816   */\n      add\n        /* \"#utility.yul\":16798:16816   */\n      swap1\n      pop\n        /* \"#utility.yul\":16424:16822   */\n      swap2\n      swap1\n      pop\n      jump\t// out\n        /* \"#utility.yul\":16828:17207   */\n    tag_150:\n        /* \"#utility.yul\":17012:17015   */\n      0x00\n        /* \"#utility.yul\":17034:17181   */\n      tag_625\n        /* \"#utility.yul\":17177:17180   */\n      dup3\n        /* \"#utility.yul\":17034:17181   */\n      tag_433\n      jump\t// in\n    tag_625:\n        /* \"#utility.yul\":17027:17181   */\n      swap2\n      pop\n        /* \"#utility.yul\":17198:17201   */\n      dup2\n        /* \"#utility.yul\":17191:17201   */\n      swap1\n      pop\n        /* \"#utility.yul\":16828:17207   */\n      swap2\n      swap1\n      pop\n      jump\t// out\n        /* \"#utility.yul\":17213:17378   */\n    tag_434:\n        /* \"#utility.yul\":17353:17370   */\n      0x5472616e73666572206661696c65640000000000000000000000000000000000\n        /* \"#utility.yul\":17349:17350   */\n      0x00\n        /* \"#utility.yul\":17341:17347   */\n      dup3\n        /* \"#utility.yul\":17337:17351   */\n      add\n        /* \"#utility.yul\":17330:17371   */\n      mstore\n        /* \"#utility.yul\":17213:17378   */\n      pop\n      jump\t// out\n        /* \"#utility.yul\":17384:17750   */\n    tag_435:\n        /* \"#utility.yul\":17526:17529   */\n      0x00\n        /* \"#utility.yul\":17547:17614   */\n      tag_628\n        /* \"#utility.yul\":17611:17613   */\n      0x0f\n        /* \"#utility.yul\":17606:17609   */\n      dup4\n        /* \"#utility.yul\":17547:17614   */\n      tag_410\n      jump\t// in\n    tag_628:\n        /* \"#utility.yul\":17540:17614   */\n      swap2\n      pop\n        /* \"#utility.yul\":17623:17716   */\n      tag_629\n        /* \"#utility.yul\":17712:17715   */\n      dup3\n        /* \"#utility.yul\":17623:17716   */\n      tag_434\n      jump\t// in\n    tag_629:\n        /* \"#utility.yul\":17741:17743   */\n      0x20\n        /* \"#utility.yul\":17736:17739   */\n      dup3\n        /* \"#utility.yul\":17732:17744   */\n      add\n        /* \"#utility.yul\":17725:17744   */\n      swap1\n      pop\n        /* \"#utility.yul\":17384:17750   */\n      swap2\n      swap1\n      pop\n      jump\t// out\n        /* \"#utility.yul\":17756:18175   */\n    tag_156:\n        /* \"#utility.yul\":17922:17926   */\n      0x00\n        /* \"#utility.yul\":17960:17962   */\n      0x20\n        /* \"#utility.yul\":17949:17958   */\n      dup3\n        /* \"#utility.yul\":17945:17963   */\n      add\n        /* \"#utility.yul\":17937:17963   */\n      swap1\n      pop\n        /* \"#utility.yul\":18009:18018   */\n      dup2\n        /* \"#utility.yul\":18003:18007   */\n      dup2\n        /* \"#utility.yul\":17999:18019   */\n      sub\n        /* \"#utility.yul\":17995:17996   */\n      0x00\n        /* \"#utility.yul\":17984:17993   */\n      dup4\n        /* \"#utility.yul\":17980:17997   */\n      add\n        /* \"#utility.yul\":17973:18020   */\n      mstore\n        /* \"#utility.yul\":18037:18168   */\n      tag_631\n        /* \"#utility.yul\":18163:18167   */\n      dup2\n        /* \"#utility.yul\":18037:18168   */\n      tag_435\n      jump\t// in\n    tag_631:\n        /* \"#utility.yul\":18029:18168   */\n      swap1\n      pop\n        /* \"#utility.yul\":17756:18175   */\n      swap2\n      swap1\n      pop\n      jump\t// out\n        /* \"#utility.yul\":18181:18344   */\n    tag_436:\n        /* \"#utility.yul\":18321:18336   */\n      0x4e6f742061206368617269747900000000000000000000000000000000000000\n        /* \"#utility.yul\":18317:18318   */\n      0x00\n        /* \"#utility.yul\":18309:18315   */\n      dup3\n        /* \"#utility.yul\":18305:18319   */\n      add\n        /* \"#utility.yul\":18298:18337   */\n      mstore\n        /* \"#utility.yul\":18181:18344   */\n      pop\n      jump\t// out\n        /* \"#utility.yul\":18350:18716   */\n    tag_437:\n        /* \"#utility.yul\":18492:18495   */\n      0x00\n        /* \"#utility.yul\":18513:18580   */\n      tag_634\n        /* \"#utility.yul\":18577:18579   */\n      0x0d\n        /* \"#utility.yul\":18572:18575   */\n      dup4\n        /* \"#utility.yul\":18513:18580   */\n      tag_410\n      jump\t// in\n    tag_634:\n        /* \"#utility.yul\":18506:18580   */\n      swap2\n      pop\n        /* \"#utility.yul\":18589:18682   */\n      tag_635\n        /* \"#utility.yul\":18678:18681   */\n      dup3\n        /* \"#utility.yul\":18589:18682   */\n      tag_436\n      jump\t// in\n    tag_635:\n        /* \"#utility.yul\":18707:18709   */\n      0x20\n        /* \"#utility.yul\":18702:18705   */\n      dup3\n        /* \"#utility.yul\":18698:18710   */\n      add\n        /* \"#utility.yul\":18691:18710   */\n      swap1\n      pop\n        /* \"#utility.yul\":18350:18716   */\n      swap2\n      swap1\n      pop\n      jump\t// out\n        /* \"#utility.yul\":18722:19141   */\n    tag_191:\n        /* \"#utility.yul\":18888:18892   */\n      0x00\n        /* \"#utility.yul\":18926:18928   */\n      0x20\n        /* \"#utility.yul\":18915:18924   */\n      dup3\n        /* \"#utility.yul\":18911:18929   */\n      add\n        /* \"#utility.yul\":18903:18929   */\n      swap1\n      pop\n        /* \"#utility.yul\":18975:18984   */\n      dup2\n        /* \"#utility.yul\":18969:18973   */\n      dup2\n        /* \"#utility.yul\":18965:18985   */\n      sub\n        /* \"#utility.yul\":18961:18962   */\n      0x00\n        /* \"#utility.yul\":18950:18959   */\n      dup4\n        /* \"#utility.yul\":18946:18963   */\n      add\n        /* \"#utility.yul\":18939:18986   */\n      mstore\n        /* \"#utility.yul\":19003:19134   */\n      tag_637\n        /* \"#utility.yul\":19129:19133   */\n      dup2\n        /* \"#utility.yul\":19003:19134   */\n      tag_437\n      jump\t// in\n    tag_637:\n        /* \"#utility.yul\":18995:19134   */\n      swap1\n      pop\n        /* \"#utility.yul\":18722:19141   */\n      swap2\n      swap1\n      pop\n      jump\t// out\n        /* \"#utility.yul\":19147:19327   */\n    tag_205:\n        /* \"#utility.yul\":19195:19272   */\n      0x4e487b7100000000000000000000000000000000000000000000000000000000\n        /* \"#utility.yul\":19192:19193   */\n      0x00\n        /* \"#utility.yul\":19185:19273   */\n      mstore\n        /* \"#utility.yul\":19292:19296   */\n      0x32\n        /* \"#utility.yul\":19289:19290   */\n      0x04\n        /* \"#utility.yul\":19282:19297   */\n      mstore\n        /* \"#utility.yul\":19316:19320   */\n      0x24\n        /* \"#utility.yul\":19313:19314   */\n      0x00\n        /* \"#utility.yul\":19306:19321   */\n      revert\n        /* \"#utility.yul\":19333:19434   */\n    tag_438:\n        /* \"#utility.yul\":19369:19376   */\n      0x00\n        /* \"#utility.yul\":19409:19427   */\n      0xffffffffffffffff\n        /* \"#utility.yul\":19402:19407   */\n      dup3\n        /* \"#utility.yul\":19398:19428   */\n      and\n        /* \"#utility.yul\":19387:19428   */\n      swap1\n      pop\n        /* \"#utility.yul\":19333:19434   */\n      swap2\n      swap1\n      pop\n      jump\t// out\n        /* \"#utility.yul\":19440:19555   */\n    tag_439:\n        /* \"#utility.yul\":19525:19548   */\n      tag_641\n        /* \"#utility.yul\":19542:19547   */\n      dup2\n        /* \"#utility.yul\":19525:19548   */\n      tag_438\n      jump\t// in\n    tag_641:\n        /* \"#utility.yul\":19520:19523   */\n      dup3\n        /* \"#utility.yul\":19513:19549   */\n      mstore\n        /* \"#utility.yul\":19440:19555   */\n      pop\n      pop\n      jump\t// out\n        /* \"#utility.yul\":19561:19779   */\n    tag_208:\n        /* \"#utility.yul\":19652:19656   */\n      0x00\n        /* \"#utility.yul\":19690:19692   */\n      0x20\n        /* \"#utility.yul\":19679:19688   */\n      dup3\n        /* \"#utility.yul\":19675:19693   */\n      add\n        /* \"#utility.yul\":19667:19693   */\n      swap1\n      pop\n        /* \"#utility.yul\":19703:19772   */\n      tag_643\n        /* \"#utility.yul\":19769:19770   */\n      0x00\n        /* \"#utility.yul\":19758:19767   */\n      dup4\n        /* \"#utility.yul\":19754:19771   */\n      add\n        /* \"#utility.yul\":19745:19751   */\n      dup5\n        /* \"#utility.yul\":19703:19772   */\n      tag_439\n      jump\t// in\n    tag_643:\n        /* \"#utility.yul\":19561:19779   */\n      swap3\n      swap2\n      pop\n      pop\n      jump\t// out\n        /* \"#utility.yul\":19785:19949   */\n    tag_440:\n        /* \"#utility.yul\":19925:19941   */\n      0x4e6f7420656e6f75676820455448000000000000000000000000000000000000\n        /* \"#utility.yul\":19921:19922   */\n      0x00\n        /* \"#utility.yul\":19913:19919   */\n      dup3\n        /* \"#utility.yul\":19909:19923   */\n      add\n        /* \"#utility.yul\":19902:19942   */\n      mstore\n        /* \"#utility.yul\":19785:19949   */\n      pop\n      jump\t// out\n        /* \"#utility.yul\":19955:20321   */\n    tag_441:\n        /* \"#utility.yul\":20097:20100   */\n      0x00\n        /* \"#utility.yul\":20118:20185   */\n      tag_646\n        /* \"#utility.yul\":20182:20184   */\n      0x0e\n        /* \"#utility.yul\":20177:20180   */\n      dup4\n        /* \"#utility.yul\":20118:20185   */\n      tag_410\n      jump\t// in\n    tag_646:\n        /* \"#utility.yul\":20111:20185   */\n      swap2\n      pop\n        /* \"#utility.yul\":20194:20287   */\n      tag_647\n        /* \"#utility.yul\":20283:20286   */\n      dup3\n        /* \"#utility.yul\":20194:20287   */\n      tag_440\n      jump\t// in\n    tag_647:\n        /* \"#utility.yul\":20312:20314   */\n      0x20\n        /* \"#utility.yul\":20307:20310   */\n      dup3\n        /* \"#utility.yul\":20303:20315   */\n      add\n        /* \"#utility.yul\":20296:20315   */\n      swap1\n      pop\n        /* \"#utility.yul\":19955:20321   */\n      swap2\n      swap1\n      pop\n      jump\t// out\n        /* \"#utility.yul\":20327:20746   */\n    tag_232:\n        /* \"#utility.yul\":20493:20497   */\n      0x00\n        /* \"#utility.yul\":20531:20533   */\n      0x20\n        /* \"#utility.yul\":20520:20529   */\n      dup3\n        /* \"#utility.yul\":20516:20534   */\n      add\n        /* \"#utility.yul\":20508:20534   */\n      swap1\n      pop\n        /* \"#utility.yul\":20580:20589   */\n      dup2\n        /* \"#utility.yul\":20574:20578   */\n      dup2\n        /* \"#utility.yul\":20570:20590   */\n      sub\n        /* \"#utility.yul\":20566:20567   */\n      0x00\n        /* \"#utility.yul\":20555:20564   */\n      dup4\n        /* \"#utility.yul\":20551:20568   */\n      add\n        /* \"#utility.yul\":20544:20591   */\n      mstore\n        /* \"#utility.yul\":20608:20739   */\n      tag_649\n        /* \"#utility.yul\":20734:20738   */\n      dup2\n        /* \"#utility.yul\":20608:20739   */\n      tag_441\n      jump\t// in\n    tag_649:\n        /* \"#utility.yul\":20600:20739   */\n      swap1\n      pop\n        /* \"#utility.yul\":20327:20746   */\n      swap2\n      swap1\n      pop\n      jump\t// out\n        /* \"#utility.yul\":20752:20926   */\n    tag_442:\n        /* \"#utility.yul\":20892:20918   */\n      0x4d696e20646f6e6174696f6e206d757374206265203e20300000000000000000\n        /* \"#utility.yul\":20888:20889   */\n      0x00\n        /* \"#utility.yul\":20880:20886   */\n      dup3\n        /* \"#utility.yul\":20876:20890   */\n      add\n        /* \"#utility.yul\":20869:20919   */\n      mstore\n        /* \"#utility.yul\":20752:20926   */\n      pop\n      jump\t// out\n        /* \"#utility.yul\":20932:21298   */\n    tag_443:\n        /* \"#utility.yul\":21074:21077   */\n      0x00\n        /* \"#utility.yul\":21095:21162   */\n      tag_652\n        /* \"#utility.yul\":21159:21161   */\n      0x18\n        /* \"#utility.yul\":21154:21157   */\n      dup4\n        /* \"#utility.yul\":21095:21162   */\n      tag_410\n      jump\t// in\n    tag_652:\n        /* \"#utility.yul\":21088:21162   */\n      swap2\n      pop\n        /* \"#utility.yul\":21171:21264   */\n      tag_653\n        /* \"#utility.yul\":21260:21263   */\n      dup3\n        /* \"#utility.yul\":21171:21264   */\n      tag_442\n      jump\t// in\n    tag_653:\n        /* \"#utility.yul\":21289:21291   */\n      0x20\n        /* \"#utility.yul\":21284:21287   */\n      dup3\n        /* \"#utility.yul\":21280:21292   */\n      add\n        /* \"#utility.yul\":21273:21292   */\n      swap1\n      pop\n        /* \"#utility.yul\":20932:21298   */\n      swap2\n      swap1\n      pop\n      jump\t// out\n        /* \"#utility.yul\":21304:21723   */\n    tag_253:\n        /* \"#utility.yul\":21470:21474   */\n      0x00\n        /* \"#utility.yul\":21508:21510   */\n      0x20\n        /* \"#utility.yul\":21497:21506   */\n      dup3\n        /* \"#utility.yul\":21493:21511   */\n      add\n        /* \"#utility.yul\":21485:21511   */\n      swap1\n      pop\n        /* \"#utility.yul\":21557:21566   */\n      dup2\n        /* \"#utility.yul\":21551:21555   */\n      dup2\n        /* \"#utility.yul\":21547:21567   */\n      sub\n        /* \"#utility.yul\":21543:21544   */\n      0x00\n        /* \"#utility.yul\":21532:21541   */\n      dup4\n        /* \"#utility.yul\":21528:21545   */\n      add\n        /* \"#utility.yul\":21521:21568   */\n      mstore\n        /* \"#utility.yul\":21585:21716   */\n      tag_655\n        /* \"#utility.yul\":21711:21715   */\n      dup2\n        /* \"#utility.yul\":21585:21716   */\n      tag_443\n      jump\t// in\n    tag_655:\n        /* \"#utility.yul\":21577:21716   */\n      swap1\n      pop\n        /* \"#utility.yul\":21304:21723   */\n      swap2\n      swap1\n      pop\n      jump\t// out\n        /* \"#utility.yul\":21729:21814   */\n    tag_444:\n        /* \"#utility.yul\":21774:21781   */\n      0x00\n        /* \"#utility.yul\":21803:21808   */\n      dup2\n        /* \"#utility.yul\":21792:21808   */\n      swap1\n      pop\n        /* \"#utility.yul\":21729:21814   */\n      swap2\n      swap1\n      pop\n      jump\t// out\n        /* \"#utility.yul\":21820:21880   */\n    tag_445:\n        /* \"#utility.yul\":21848:21851   */\n      0x00\n        /* \"#utility.yul\":21869:21874   */\n      dup2\n        /* \"#utility.yul\":21862:21874   */\n      swap1\n      pop\n        /* \"#utility.yul\":21820:21880   */\n      swap2\n      swap1\n      pop\n      jump\t// out\n        /* \"#utility.yul\":21886:22042   */\n    tag_446:\n        /* \"#utility.yul\":21943:21952   */\n      0x00\n        /* \"#utility.yul\":21976:22036   */\n      tag_659\n        /* \"#utility.yul\":21993:22035   */\n      tag_660\n        /* \"#utility.yul\":22002:22034   */\n      tag_661\n        /* \"#utility.yul\":22028:22033   */\n      dup5\n        /* \"#utility.yul\":22002:22034   */\n      tag_444\n      jump\t// in\n    tag_661:\n        /* \"#utility.yul\":21993:22035   */\n      tag_445\n      jump\t// in\n    tag_660:\n        /* \"#utility.yul\":21976:22036   */\n      tag_438\n      jump\t// in\n    tag_659:\n        /* \"#utility.yul\":21963:22036   */\n      swap1\n      pop\n        /* \"#utility.yul\":21886:22042   */\n      swap2\n      swap1\n      pop\n      jump\t// out\n        /* \"#utility.yul\":22048:22193   */\n    tag_447:\n        /* \"#utility.yul\":22142:22186   */\n      tag_663\n        /* \"#utility.yul\":22180:22185   */\n      dup2\n        /* \"#utility.yul\":22142:22186   */\n      tag_446\n      jump\t// in\n    tag_663:\n        /* \"#utility.yul\":22137:22140   */\n      dup3\n        /* \"#utility.yul\":22130:22187   */\n      mstore\n        /* \"#utility.yul\":22048:22193   */\n      pop\n      pop\n      jump\t// out\n        /* \"#utility.yul\":22199:22435   */\n    tag_262:\n        /* \"#utility.yul\":22299:22303   */\n      0x00\n        /* \"#utility.yul\":22337:22339   */\n      0x20\n        /* \"#utility.yul\":22326:22335   */\n      dup3\n        /* \"#utility.yul\":22322:22340   */\n      add\n        /* \"#utility.yul\":22314:22340   */\n      swap1\n      pop\n        /* \"#utility.yul\":22350:22428   */\n      tag_665\n        /* \"#utility.yul\":22425:22426   */\n      0x00\n        /* \"#utility.yul\":22414:22423   */\n      dup4\n        /* \"#utility.yul\":22410:22427   */\n      add\n        /* \"#utility.yul\":22401:22407   */\n      dup5\n        /* \"#utility.yul\":22350:22428   */\n      tag_447\n      jump\t// in\n    tag_665:\n        /* \"#utility.yul\":22199:22435   */\n      swap3\n      swap2\n      pop\n      pop\n      jump\t// out\n        /* \"#utility.yul\":22441:22622   */\n    tag_448:\n        /* \"#utility.yul\":22581:22614   */\n      0x5265656e7472616e637947756172643a207265656e7472616e742063616c6c00\n        /* \"#utility.yul\":22577:22578   */\n      0x00\n        /* \"#utility.yul\":22569:22575   */\n      dup3\n        /* \"#utility.yul\":22565:22579   */\n      add\n        /* \"#utility.yul\":22558:22615   */\n      mstore\n        /* \"#utility.yul\":22441:22622   */\n      pop\n      jump\t// out\n        /* \"#utility.yul\":22628:22994   */\n    tag_449:\n        /* \"#utility.yul\":22770:22773   */\n      0x00\n        /* \"#utility.yul\":22791:22858   */\n      tag_668\n        /* \"#utility.yul\":22855:22857   */\n      0x1f\n        /* \"#utility.yul\":22850:22853   */\n      dup4\n        /* \"#utility.yul\":22791:22858   */\n      tag_410\n      jump\t// in\n    tag_668:\n        /* \"#utility.yul\":22784:22858   */\n      swap2\n      pop\n        /* \"#utility.yul\":22867:22960   */\n      tag_669\n        /* \"#utility.yul\":22956:22959   */\n      dup3\n        /* \"#utility.yul\":22867:22960   */\n      tag_448\n      jump\t// in\n    tag_669:\n        /* \"#utility.yul\":22985:22987   */\n      0x20\n        /* \"#utility.yul\":22980:22983   */\n      dup3\n        /* \"#utility.yul\":22976:22988   */\n      add\n        /* \"#utility.yul\":22969:22988   */\n      swap1\n      pop\n        /* \"#utility.yul\":22628:22994   */\n      swap2\n      swap1\n      pop\n      jump\t// out\n        /* \"#utility.yul\":23000:23419   */\n    tag_266:\n        /* \"#utility.yul\":23166:23170   */\n      0x00\n        /* \"#utility.yul\":23204:23206   */\n      0x20\n        /* \"#utility.yul\":23193:23202   */\n      dup3\n        /* \"#utility.yul\":23189:23207   */\n      add\n        /* \"#utility.yul\":23181:23207   */\n      swap1\n      pop\n        /* \"#utility.yul\":23253:23262   */\n      dup2\n        /* \"#utility.yul\":23247:23251   */\n      dup2\n        /* \"#utility.yul\":23243:23263   */\n      sub\n        /* \"#utility.yul\":23239:23240   */\n      0x00\n        /* \"#utility.yul\":23228:23237   */\n      dup4\n        /* \"#utility.yul\":23224:23241   */\n      add\n        /* \"#utility.yul\":23217:23264   */\n      mstore\n        /* \"#utility.yul\":23281:23412   */\n      tag_671\n        /* \"#utility.yul\":23407:23411   */\n      dup2\n        /* \"#utility.yul\":23281:23412   */\n      tag_449\n      jump\t// in\n    tag_671:\n        /* \"#utility.yul\":23273:23412   */\n      swap1\n      pop\n        /* \"#utility.yul\":23000:23419   */\n      swap2\n      swap1\n      pop\n      jump\t// out\n        /* \"#utility.yul\":23425:23547   */\n    tag_450:\n        /* \"#utility.yul\":23498:23522   */\n      tag_673\n        /* \"#utility.yul\":23516:23521   */\n      dup2\n        /* \"#utility.yul\":23498:23522   */\n      tag_406\n      jump\t// in\n    tag_673:\n        /* \"#utility.yul\":23491:23496   */\n      dup2\n        /* \"#utility.yul\":23488:23523   */\n      eq\n        /* \"#utility.yul\":23478:23541   */\n      tag_674\n      jumpi\n        /* \"#utility.yul\":23537:23538   */\n      0x00\n        /* \"#utility.yul\":23534:23535   */\n      0x00\n        /* \"#utility.yul\":23527:23539   */\n      revert\n        /* \"#utility.yul\":23478:23541   */\n    tag_674:\n        /* \"#utility.yul\":23425:23547   */\n      pop\n      jump\t// out\n        /* \"#utility.yul\":23553:23696   */\n    tag_451:\n        /* \"#utility.yul\":23610:23615   */\n      0x00\n        /* \"#utility.yul\":23641:23647   */\n      dup2\n        /* \"#utility.yul\":23635:23648   */\n      mload\n        /* \"#utility.yul\":23626:23648   */\n      swap1\n      pop\n        /* \"#utility.yul\":23657:23690   */\n      tag_676\n        /* \"#utility.yul\":23684:23689   */\n      dup2\n        /* \"#utility.yul\":23657:23690   */\n      tag_450\n      jump\t// in\n    tag_676:\n        /* \"#utility.yul\":23553:23696   */\n      swap3\n      swap2\n      pop\n      pop\n      jump\t// out\n        /* \"#utility.yul\":23702:24053   */\n    tag_279:\n        /* \"#utility.yul\":23772:23778   */\n      0x00\n        /* \"#utility.yul\":23821:23823   */\n      0x20\n        /* \"#utility.yul\":23809:23818   */\n      dup3\n        /* \"#utility.yul\":23800:23807   */\n      dup5\n        /* \"#utility.yul\":23796:23819   */\n      sub\n        /* \"#utility.yul\":23792:23824   */\n      slt\n        /* \"#utility.yul\":23789:23908   */\n      iszero\n      tag_678\n      jumpi\n        /* \"#utility.yul\":23827:23906   */\n      tag_679\n      tag_385\n      jump\t// in\n    tag_679:\n        /* \"#utility.yul\":23789:23908   */\n    tag_678:\n        /* \"#utility.yul\":23947:23948   */\n      0x00\n        /* \"#utility.yul\":23972:24036   */\n      tag_680\n        /* \"#utility.yul\":24028:24035   */\n      dup5\n        /* \"#utility.yul\":24019:24025   */\n      dup3\n        /* \"#utility.yul\":24008:24017   */\n      dup6\n        /* \"#utility.yul\":24004:24026   */\n      add\n        /* \"#utility.yul\":23972:24036   */\n      tag_451\n      jump\t// in\n    tag_680:\n        /* \"#utility.yul\":23962:24036   */\n      swap2\n      pop\n        /* \"#utility.yul\":23918:24046   */\n      pop\n        /* \"#utility.yul\":23702:24053   */\n      swap3\n      swap2\n      pop\n      pop\n      jump\t// out\n        /* \"#utility.yul\":24059:24224   */\n    tag_452:\n        /* \"#utility.yul\":24199:24216   */\n      0x496e76616c696420636861726974790000000000000000000000000000000000\n        /* \"#utility.yul\":24195:24196   */\n      0x00\n        /* \"#utility.yul\":24187:24193   */\n      dup3\n        /* \"#utility.yul\":24183:24197   */\n      add\n        /* \"#utility.yul\":24176:24217   */\n      mstore\n        /* \"#utility.yul\":24059:24224   */\n      pop\n      jump\t// out\n        /* \"#utility.yul\":24230:24596   */\n    tag_453:\n        /* \"#utility.yul\":24372:24375   */\n      0x00\n        /* \"#utility.yul\":24393:24460   */\n      tag_683\n        /* \"#utility.yul\":24457:24459   */\n      0x0f\n        /* \"#utility.yul\":24452:24455   */\n      dup4\n        /* \"#utility.yul\":24393:24460   */\n      tag_410\n      jump\t// in\n    tag_683:\n        /* \"#utility.yul\":24386:24460   */\n      swap2\n      pop\n        /* \"#utility.yul\":24469:24562   */\n      tag_684\n        /* \"#utility.yul\":24558:24561   */\n      dup3\n        /* \"#utility.yul\":24469:24562   */\n      tag_452\n      jump\t// in\n    tag_684:\n        /* \"#utility.yul\":24587:24589   */\n      0x20\n        /* \"#utility.yul\":24582:24585   */\n      dup3\n        /* \"#utility.yul\":24578:24590   */\n      add\n        /* \"#utility.yul\":24571:24590   */\n      swap1\n      pop\n        /* \"#utility.yul\":24230:24596   */\n      swap2\n      swap1\n      pop\n      jump\t// out\n        /* \"#utility.yul\":24602:25021   */\n    tag_304:\n        /* \"#utility.yul\":24768:24772   */\n      0x00\n        /* \"#utility.yul\":24806:24808   */\n      0x20\n        /* \"#utility.yul\":24795:24804   */\n      dup3\n        /* \"#utility.yul\":24791:24809   */\n      add\n        /* \"#utility.yul\":24783:24809   */\n      swap1\n      pop\n        /* \"#utility.yul\":24855:24864   */\n      dup2\n        /* \"#utility.yul\":24849:24853   */\n      dup2\n        /* \"#utility.yul\":24845:24865   */\n      sub\n        /* \"#utility.yul\":24841:24842   */\n      0x00\n        /* \"#utility.yul\":24830:24839   */\n      dup4\n        /* \"#utility.yul\":24826:24843   */\n      add\n        /* \"#utility.yul\":24819:24866   */\n      mstore\n        /* \"#utility.yul\":24883:25014   */\n      tag_686\n        /* \"#utility.yul\":25009:25013   */\n      dup2\n        /* \"#utility.yul\":24883:25014   */\n      tag_453\n      jump\t// in\n    tag_686:\n        /* \"#utility.yul\":24875:25014   */\n      swap1\n      pop\n        /* \"#utility.yul\":24602:25021   */\n      swap2\n      swap1\n      pop\n      jump\t// out\n        /* \"#utility.yul\":25027:25192   */\n    tag_454:\n        /* \"#utility.yul\":25167:25184   */\n      0x416c726561647920636861726974790000000000000000000000000000000000\n        /* \"#utility.yul\":25163:25164   */\n      0x00\n        /* \"#utility.yul\":25155:25161   */\n      dup3\n        /* \"#utility.yul\":25151:25165   */\n      add\n        /* \"#utility.yul\":25144:25185   */\n      mstore\n        /* \"#utility.yul\":25027:25192   */\n      pop\n      jump\t// out\n        /* \"#utility.yul\":25198:25564   */\n    tag_455:\n        /* \"#utility.yul\":25340:25343   */\n      0x00\n        /* \"#utility.yul\":25361:25428   */\n      tag_689\n        /* \"#utility.yul\":25425:25427   */\n      0x0f\n        /* \"#utility.yul\":25420:25423   */\n      dup4\n        /* \"#utility.yul\":25361:25428   */\n      tag_410\n      jump\t// in\n    tag_689:\n        /* \"#utility.yul\":25354:25428   */\n      swap2\n      pop\n        /* \"#utility.yul\":25437:25530   */\n      tag_690\n        /* \"#utility.yul\":25526:25529   */\n      dup3\n        /* \"#utility.yul\":25437:25530   */\n      tag_454\n      jump\t// in\n    tag_690:\n        /* \"#utility.yul\":25555:25557   */\n      0x20\n        /* \"#utility.yul\":25550:25553   */\n      dup3\n        /* \"#utility.yul\":25546:25558   */\n      add\n        /* \"#utility.yul\":25539:25558   */\n      swap1\n      pop\n        /* \"#utility.yul\":25198:25564   */\n      swap2\n      swap1\n      pop\n      jump\t// out\n        /* \"#utility.yul\":25570:25989   */\n    tag_307:\n        /* \"#utility.yul\":25736:25740   */\n      0x00\n        /* \"#utility.yul\":25774:25776   */\n      0x20\n        /* \"#utility.yul\":25763:25772   */\n      dup3\n        /* \"#utility.yul\":25759:25777   */\n      add\n        /* \"#utility.yul\":25751:25777   */\n      swap1\n      pop\n        /* \"#utility.yul\":25823:25832   */\n      dup2\n        /* \"#utility.yul\":25817:25821   */\n      dup2\n        /* \"#utility.yul\":25813:25833   */\n      sub\n        /* \"#utility.yul\":25809:25810   */\n      0x00\n        /* \"#utility.yul\":25798:25807   */\n      dup4\n        /* \"#utility.yul\":25794:25811   */\n      add\n        /* \"#utility.yul\":25787:25834   */\n      mstore\n        /* \"#utility.yul\":25851:25982   */\n      tag_692\n        /* \"#utility.yul\":25977:25981   */\n      dup2\n        /* \"#utility.yul\":25851:25982   */\n      tag_455\n      jump\t// in\n    tag_692:\n        /* \"#utility.yul\":25843:25982   */\n      swap1\n      pop\n        /* \"#utility.yul\":25570:25989   */\n      swap2\n      swap1\n      pop\n      jump\t// out\n        /* \"#utility.yul\":25995:26093   */\n    tag_456:\n        /* \"#utility.yul\":26046:26052   */\n      0x00\n        /* \"#utility.yul\":26080:26085   */\n      dup2\n        /* \"#utility.yul\":26074:26086   */\n      mload\n        /* \"#utility.yul\":26064:26086   */\n      swap1\n      pop\n        /* \"#utility.yul\":25995:26093   */\n      swap2\n      swap1\n      pop\n      jump\t// out\n        /* \"#utility.yul\":26099:26485   */\n    tag_457:\n        /* \"#utility.yul\":26203:26206   */\n      0x00\n        /* \"#utility.yul\":26231:26269   */\n      tag_695\n        /* \"#utility.yul\":26263:26268   */\n      dup3\n        /* \"#utility.yul\":26231:26269   */\n      tag_456\n      jump\t// in\n    tag_695:\n        /* \"#utility.yul\":26285:26373   */\n      tag_696\n        /* \"#utility.yul\":26366:26372   */\n      dup2\n        /* \"#utility.yul\":26361:26364   */\n      dup6\n        /* \"#utility.yul\":26285:26373   */\n      tag_431\n      jump\t// in\n    tag_696:\n        /* \"#utility.yul\":26278:26373   */\n      swap4\n      pop\n        /* \"#utility.yul\":26382:26447   */\n      tag_697\n        /* \"#utility.yul\":26440:26446   */\n      dup2\n        /* \"#utility.yul\":26435:26438   */\n      dup6\n        /* \"#utility.yul\":26428:26432   */\n      0x20\n        /* \"#utility.yul\":26421:26426   */\n      dup7\n        /* \"#utility.yul\":26417:26433   */\n      add\n        /* \"#utility.yul\":26382:26447   */\n      tag_411\n      jump\t// in\n    tag_697:\n        /* \"#utility.yul\":26472:26478   */\n      dup1\n        /* \"#utility.yul\":26467:26470   */\n      dup5\n        /* \"#utility.yul\":26463:26479   */\n      add\n        /* \"#utility.yul\":26456:26479   */\n      swap2\n      pop\n        /* \"#utility.yul\":26207:26485   */\n      pop\n        /* \"#utility.yul\":26099:26485   */\n      swap3\n      swap2\n      pop\n      pop\n      jump\t// out\n        /* \"#utility.yul\":26491:26762   */\n    tag_361:\n        /* \"#utility.yul\":26621:26624   */\n      0x00\n        /* \"#utility.yul\":26643:26736   */\n      tag_699\n        /* \"#utility.yul\":26732:26735   */\n      dup3\n        /* \"#utility.yul\":26723:26729   */\n      dup5\n        /* \"#utility.yul\":26643:26736   */\n      tag_457\n      jump\t// in\n    tag_699:\n        /* \"#utility.yul\":26636:26736   */\n      swap2\n      pop\n        /* \"#utility.yul\":26753:26756   */\n      dup2\n        /* \"#utility.yul\":26746:26756   */\n      swap1\n      pop\n        /* \"#utility.yul\":26491:26762   */\n      swap3\n      swap2\n      pop\n      pop\n      jump\t// out\n\n    auxdata: 0xa264697066735822122094a1c2120af190da15cc0cb3b7a9d4acf3e18944559de8e6269a9217ee17cca564736f6c634300081f0033\n}\n",
				"bytecode": {
					"linkReferences": {},
					"object": "60a06040523073ffffffffffffffffffffffffffffffffffffffff1660809073ffffffffffffffffffffffffffffffffffffffff168152503480156041575f5ffd5b50608051612aad6100685f395f8181611385015281816113da01526115940152612aad5ff3fe608060405260043610610128575f3560e01c8063bc80b184116100aa578063ecf209211161006e578063ecf20921146103a0578063ed88c68e146103ca578063f2fde38b146103d4578063f3fef3a3146103fc578063fb709d2e14610424578063fe4b84df1461046057610128565b8063bc80b1841461029a578063c91ddfc9146102c4578063cdaa6b2c14610300578063dc1aa5fa1461033c578063e81ffbef1461036457610128565b8063715018a6116100f1578063715018a6146101e057806378b14f0a146101f65780638da5cb5b1461021e578063abefe59114610248578063ad3cb1cc1461027057610128565b8062b370441461012c578063128c8dce146101565780631d172245146101725780634f1ef2861461019a57806352d1902d146101b6575b5f5ffd5b348015610137575f5ffd5b50610140610488565b60405161014d9190611e2c565b60405180910390f35b610170600480360381019061016b9190611eb0565b61048e565b005b34801561017d575f5ffd5b5061019860048036038101906101939190611f40565b610682565b005b6101b460048036038101906101af91906120ba565b6109b0565b005b3480156101c1575f5ffd5b506101ca6109cf565b6040516101d7919061212c565b60405180910390f35b3480156101eb575f5ffd5b506101f4610a00565b005b348015610201575f5ffd5b5061021c60048036038101906102179190611eb0565b610a13565b005b348015610229575f5ffd5b50610232610a27565b60405161023f9190612154565b60405180910390f35b348015610253575f5ffd5b5061026e60048036038101906102699190611eb0565b610a5c565b005b34801561027b575f5ffd5b50610284610b87565b60405161029191906121cd565b60405180910390f35b3480156102a5575f5ffd5b506102ae610bc0565b6040516102bb9190611e2c565b60405180910390f35b3480156102cf575f5ffd5b506102ea60048036038101906102e59190611eb0565b610bcc565b6040516102f79190611e2c565b60405180910390f35b34801561030b575f5ffd5b5061032660048036038101906103219190611eb0565b610be1565b6040516103339190611e2c565b60405180910390f35b348015610347575f5ffd5b50610362600480360381019061035d919061224a565b610bf6565b005b34801561036f575f5ffd5b5061038a60048036038101906103859190611eb0565b610d6b565b60405161039791906122af565b60405180910390f35b3480156103ab575f5ffd5b506103b4610d88565b6040516103c19190611e2c565b60405180910390f35b6103d2610d8e565b005b3480156103df575f5ffd5b506103fa60048036038101906103f59190611eb0565b610e8e565b005b348015610407575f5ffd5b50610422600480360381019061041d9190611f40565b610f12565b005b34801561042f575f5ffd5b5061044a600480360381019061044591906122c8565b611118565b6040516104579190612154565b60405180910390f35b34801561046b575f5ffd5b50610486600480360381019061048191906122c8565b611153565b005b60335481565b60355f8273ffffffffffffffffffffffffffffffffffffffff1673ffffffffffffffffffffffffffffffffffffffff1681526020019081526020015f205f9054906101000a900460ff16610517576040517f08c379a000000000000000000000000000000000000000000000000000000000815260040161050e9061233d565b60405180910390fd5b60325434101561055c576040517f08c379a0000000000000000000000000000000000000000000000000000000008152600401610553906123a5565b60405180910390fd5b3460345f3373ffffffffffffffffffffffffffffffffffffffff1673ffffffffffffffffffffffffffffffffffffffff1681526020019081526020015f205f8282546105a891906123f0565b925050819055503460335f8282546105c091906123f0565b925050819055503460365f8373ffffffffffffffffffffffffffffffffffffffff1673ffffffffffffffffffffffffffffffffffffffff1681526020019081526020015f205f82825461061391906123f0565b925050819055508073ffffffffffffffffffffffffffffffffffffffff163373ffffffffffffffffffffffffffffffffffffffff167fda80f1af1eb5747d371b21abdbc3f061b1f8f53bae262a8b1d91476cf5ec191d346040516106779190611e2c565b60405180910390a350565b61068a61132d565b60355f3373ffffffffffffffffffffffffffffffffffffffff1673ffffffffffffffffffffffffffffffffffffffff1681526020019081526020015f205f9054906101000a900460ff16610713576040517f08c379a000000000000000000000000000000000000000000000000000000000815260040161070a9061246d565b60405180910390fd5b5f73ffffffffffffffffffffffffffffffffffffffff168273ffffffffffffffffffffffffffffffffffffffff1603610781576040517f08c379a0000000000000000000000000000000000000000000000000000000008152600401610778906124d5565b60405180910390fd5b5f81116107c3576040517f08c379a00000000000000000000000000000000000000000000000000000000081526004016107ba9061253d565b60405180910390fd5b60365f3373ffffffffffffffffffffffffffffffffffffffff1673ffffffffffffffffffffffffffffffffffffffff1681526020019081526020015f2054811115610843576040517f08c379a000000000000000000000000000000000000000000000000000000000815260040161083a906125a5565b60405180910390fd5b8060365f3373ffffffffffffffffffffffffffffffffffffffff1673ffffffffffffffffffffffffffffffffffffffff1681526020019081526020015f205f82825461088f91906125c3565b925050819055505f8273ffffffffffffffffffffffffffffffffffffffff16826040516108bb90612623565b5f6040518083038185875af1925050503d805f81146108f5576040519150601f19603f3d011682016040523d82523d5f602084013e6108fa565b606091505b505090508061093e576040517f08c379a000000000000000000000000000000000000000000000000000000000815260040161093590612681565b60405180910390fd5b8273ffffffffffffffffffffffffffffffffffffffff163373ffffffffffffffffffffffffffffffffffffffff167fd12a7186f17f056536ce7208a6b27e2e22c25ed633727e9eb92cce0f018c47ae8460405161099b9190611e2c565b60405180910390a3506109ac61137a565b5050565b6109b8611383565b6109c182611469565b6109cb8282611474565b5050565b5f6109d8611592565b7f360894a13ba1a3210667c828492db98dca3e2076cc3735a920a3ca505d382bbc5f1b905090565b610a08611619565b610a115f6116a0565b565b610a1b611619565b610a2481611771565b50565b5f5f610a31611964565b9050805f015f9054906101000a900473ffffffffffffffffffffffffffffffffffffffff1691505090565b610a64611619565b60355f8273ffffffffffffffffffffffffffffffffffffffff1673ffffffffffffffffffffffffffffffffffffffff1681526020019081526020015f205f9054906101000a900460ff16610aed576040517f08c379a0000000000000000000000000000000000000000000000000000000008152600401610ae4906126e9565b60405180910390fd5b5f60355f8373ffffffffffffffffffffffffffffffffffffffff1673ffffffffffffffffffffffffffffffffffffffff1681526020019081526020015f205f6101000a81548160ff0219169083151502179055508073ffffffffffffffffffffffffffffffffffffffff167f7db8df158d85e9475e8dd97a5e3e193c67dc6d977d2fc4f7321049b6c0b70e9360405160405180910390a250565b6040518060400160405280600581526020017f352e302e3000000000000000000000000000000000000000000000000000000081525081565b5f603780549050905090565b6036602052805f5260405f205f915090505481565b6034602052805f5260405f205f915090505481565b60025f610c0161198b565b9050805f0160089054906101000a900460ff1680610c4957508167ffffffffffffffff16815f015f9054906101000a900467ffffffffffffffff1667ffffffffffffffff1610155b15610c80576040517ff92ee8a900000000000000000000000000000000000000000000000000000000815260040160405180910390fd5b81815f015f6101000a81548167ffffffffffffffff021916908367ffffffffffffffff1602179055506001815f0160086101000a81548160ff0219169083151502179055505f5f90505b84849050811015610d1257610d05858583818110610ceb57610cea612707565b5b9050602002016020810190610d009190611eb0565b611771565b8080600101915050610cca565b505f815f0160086101000a81548160ff0219169083151502179055507fc7f505b2f371ae2175ee4913f4499e1f2633a7b5936321eed1cdaeb6115181d282604051610d5d9190612756565b60405180910390a150505050565b6035602052805f5260405f205f915054906101000a900460ff1681565b60325481565b603254341015610dd3576040517f08c379a0000000000000000000000000000000000000000000000000000000008152600401610dca906123a5565b60405180910390fd5b3460345f3373ffffffffffffffffffffffffffffffffffffffff1673ffffffffffffffffffffffffffffffffffffffff1681526020019081526020015f205f828254610e1f91906123f0565b925050819055503460335f828254610e3791906123f0565b925050819055503373ffffffffffffffffffffffffffffffffffffffff167f2a01595cddf097c90216094025db714da3f4e5bd8877b56ba86a24ecead8e54334604051610e849190611e2c565b60405180910390a2565b610e96611619565b5f73ffffffffffffffffffffffffffffffffffffffff168173ffffffffffffffffffffffffffffffffffffffff1603610f06575f6040517f1e4fbdf7000000000000000000000000000000000000000000000000000000008152600401610efd9190612154565b60405180910390fd5b610f0f816116a0565b50565b610f1a611619565b610f2261132d565b5f73ffffffffffffffffffffffffffffffffffffffff168273ffffffffffffffffffffffffffffffffffffffff1603610f90576040517f08c379a0000000000000000000000000000000000000000000000000000000008152600401610f87906124d5565b60405180910390fd5b5f8111610fd2576040517f08c379a0000000000000000000000000000000000000000000000000000000008152600401610fc99061253d565b60405180910390fd5b47811115611015576040517f08c379a000000000000000000000000000000000000000000000000000000000815260040161100c906127b9565b60405180910390fd5b5f8273ffffffffffffffffffffffffffffffffffffffff168260405161103a90612623565b5f6040518083038185875af1925050503d805f8114611074576040519150601f19603f3d011682016040523d82523d5f602084013e611079565b606091505b50509050806110bd576040517f08c379a00000000000000000000000000000000000000000000000000000000081526004016110b490612681565b60405180910390fd5b8273ffffffffffffffffffffffffffffffffffffffff167f7084f5476618d8e60b11ef0d7d3f06914655adb8793e28ff7f018d4c76d505d5836040516111039190611e2c565b60405180910390a25061111461137a565b5050565b60378181548110611127575f80fd5b905f5260205f20015f915054906101000a900473ffffffffffffffffffffffffffffffffffffffff1681565b5f61115c61198b565b90505f815f0160089054906101000a900460ff161590505f825f015f9054906101000a900467ffffffffffffffff1690505f5f8267ffffffffffffffff161480156111a45750825b90505f60018367ffffffffffffffff161480156111d757505f3073ffffffffffffffffffffffffffffffffffffffff163b145b9050811580156111e5575080155b1561121c576040517ff92ee8a900000000000000000000000000000000000000000000000000000000815260040160405180910390fd5b6001855f015f6101000a81548167ffffffffffffffff021916908367ffffffffffffffff1602179055508315611269576001855f0160086101000a81548160ff0219169083151502179055505b5f86116112ab576040517f08c379a00000000000000000000000000000000000000000000000000000000081526004016112a290612821565b60405180910390fd5b6112b43361199e565b6112bc6119b2565b6112c46119c4565b856032819055508315611325575f855f0160086101000a81548160ff0219169083151502179055507fc7f505b2f371ae2175ee4913f4499e1f2633a7b5936321eed1cdaeb6115181d2600160405161131c9190612881565b60405180910390a15b505050505050565b60025f5403611371576040517f08c379a0000000000000000000000000000000000000000000000000000000008152600401611368906128e4565b60405180910390fd5b60025f81905550565b60015f81905550565b7f000000000000000000000000000000000000000000000000000000000000000073ffffffffffffffffffffffffffffffffffffffff163073ffffffffffffffffffffffffffffffffffffffff16148061143057507f000000000000000000000000000000000000000000000000000000000000000073ffffffffffffffffffffffffffffffffffffffff166114176119ce565b73ffffffffffffffffffffffffffffffffffffffff1614155b15611467576040517fe07c8dba00000000000000000000000000000000000000000000000000000000815260040160405180910390fd5b565b611471611619565b50565b8173ffffffffffffffffffffffffffffffffffffffff166352d1902d6040518163ffffffff1660e01b8152600401602060405180830381865afa9250505080156114dc57506040513d601f19601f820116820180604052508101906114d9919061292c565b60015b61151d57816040517f4c9c8ce30000000000000000000000000000000000000000000000000000000081526004016115149190612154565b60405180910390fd5b7f360894a13ba1a3210667c828492db98dca3e2076cc3735a920a3ca505d382bbc5f1b811461158357806040517faa1d49a400000000000000000000000000000000000000000000000000000000815260040161157a919061212c565b60405180910390fd5b61158d8383611a21565b505050565b7f000000000000000000000000000000000000000000000000000000000000000073ffffffffffffffffffffffffffffffffffffffff163073ffffffffffffffffffffffffffffffffffffffff1614611617576040517fe07c8dba00000000000000000000000000000000000000000000000000000000815260040160405180910390fd5b565b611621611a93565b73ffffffffffffffffffffffffffffffffffffffff1661163f610a27565b73ffffffffffffffffffffffffffffffffffffffff161461169e57611662611a93565b6040517f118cdaa70000000000000000000000000000000000000000000000000000000081526004016116959190612154565b60405180910390fd5b565b5f6116a9611964565b90505f815f015f9054906101000a900473ffffffffffffffffffffffffffffffffffffffff16905082825f015f6101000a81548173ffffffffffffffffffffffffffffffffffffffff021916908373ffffffffffffffffffffffffffffffffffffffff1602179055508273ffffffffffffffffffffffffffffffffffffffff168173ffffffffffffffffffffffffffffffffffffffff167f8be0079c531659141344cd1fd0a4f28419497f9722a3daafe3b4186f6b6457e060405160405180910390a3505050565b5f73ffffffffffffffffffffffffffffffffffffffff168173ffffffffffffffffffffffffffffffffffffffff16036117df576040517f08c379a00000000000000000000000000000000000000000000000000000000081526004016117d6906129a1565b60405180910390fd5b60355f8273ffffffffffffffffffffffffffffffffffffffff1673ffffffffffffffffffffffffffffffffffffffff1681526020019081526020015f205f9054906101000a900460ff1615611869576040517f08c379a000000000000000000000000000000000000000000000000000000000815260040161186090612a09565b60405180910390fd5b600160355f8373ffffffffffffffffffffffffffffffffffffffff1673ffffffffffffffffffffffffffffffffffffffff1681526020019081526020015f205f6101000a81548160ff021916908315150217905550603781908060018154018082558091505060019003905f5260205f20015f9091909190916101000a81548173ffffffffffffffffffffffffffffffffffffffff021916908373ffffffffffffffffffffffffffffffffffffffff1602179055508073ffffffffffffffffffffffffffffffffffffffff167fc17dc19a503d796a336a016f10743118db2bdadb16ac4c19aff016075609863560405160405180910390a250565b5f7f9016d09d72d40fdae2fd8ceac6b6234c7706214fd39c1cd1e609a0528c199300905090565b5f5f611995611a9a565b90508091505090565b6119a6611ac3565b6119af81611b03565b50565b6119ba611ac3565b6119c2611b87565b565b6119cc611ac3565b565b5f6119fa7f360894a13ba1a3210667c828492db98dca3e2076cc3735a920a3ca505d382bbc5f1b611b98565b5f015f9054906101000a900473ffffffffffffffffffffffffffffffffffffffff16905090565b611a2a82611ba1565b8173ffffffffffffffffffffffffffffffffffffffff167fbc7cd75a20ee27fd9adebab32041f755214dbc6bffa90cc0225b39da2e5c2d3b60405160405180910390a25f81511115611a8657611a808282611c6a565b50611a8f565b611a8e611cea565b5b5050565b5f33905090565b5f7ff0c57e16840df040f15088dc2f81fe391c3923bec73e23a9662efc9c229c6a005f1b905090565b611acb611d26565b611b01576040517fd7e6bcf800000000000000000000000000000000000000000000000000000000815260040160405180910390fd5b565b611b0b611ac3565b5f73ffffffffffffffffffffffffffffffffffffffff168173ffffffffffffffffffffffffffffffffffffffff1603611b7b575f6040517f1e4fbdf7000000000000000000000000000000000000000000000000000000008152600401611b729190612154565b60405180910390fd5b611b84816116a0565b50565b611b8f611ac3565b60015f81905550565b5f819050919050565b5f8173ffffffffffffffffffffffffffffffffffffffff163b03611bfc57806040517f4c9c8ce3000000000000000000000000000000000000000000000000000000008152600401611bf39190612154565b60405180910390fd5b80611c287f360894a13ba1a3210667c828492db98dca3e2076cc3735a920a3ca505d382bbc5f1b611b98565b5f015f6101000a81548173ffffffffffffffffffffffffffffffffffffffff021916908373ffffffffffffffffffffffffffffffffffffffff16021790555050565b60605f5f8473ffffffffffffffffffffffffffffffffffffffff1684604051611c939190612a61565b5f60405180830381855af49150503d805f8114611ccb576040519150601f19603f3d011682016040523d82523d5f602084013e611cd0565b606091505b5091509150611ce0858383611d44565b9250505092915050565b5f341115611d24576040517fb398979f00000000000000000000000000000000000000000000000000000000815260040160405180910390fd5b565b5f611d2f61198b565b5f0160089054906101000a900460ff16905090565b606082611d5957611d5482611dd1565b611dc9565b5f8251148015611d7f57505f8473ffffffffffffffffffffffffffffffffffffffff163b145b15611dc157836040517f9996b315000000000000000000000000000000000000000000000000000000008152600401611db89190612154565b60405180910390fd5b819050611dca565b5b9392505050565b5f81511115611de257805160208201fd5b6040517fd6bda27500000000000000000000000000000000000000000000000000000000815260040160405180910390fd5b5f819050919050565b611e2681611e14565b82525050565b5f602082019050611e3f5f830184611e1d565b92915050565b5f604051905090565b5f5ffd5b5f5ffd5b5f73ffffffffffffffffffffffffffffffffffffffff82169050919050565b5f611e7f82611e56565b9050919050565b611e8f81611e75565b8114611e99575f5ffd5b50565b5f81359050611eaa81611e86565b92915050565b5f60208284031215611ec557611ec4611e4e565b5b5f611ed284828501611e9c565b91505092915050565b5f611ee582611e56565b9050919050565b611ef581611edb565b8114611eff575f5ffd5b50565b5f81359050611f1081611eec565b92915050565b611f1f81611e14565b8114611f29575f5ffd5b50565b5f81359050611f3a81611f16565b92915050565b5f5f60408385031215611f5657611f55611e4e565b5b5f611f6385828601611f02565b9250506020611f7485828601611f2c565b9150509250929050565b5f5ffd5b5f5ffd5b5f601f19601f8301169050919050565b7f4e487b71000000000000000000000000000000000000000000000000000000005f52604160045260245ffd5b611fcc82611f86565b810181811067ffffffffffffffff82111715611feb57611fea611f96565b5b80604052505050565b5f611ffd611e45565b90506120098282611fc3565b919050565b5f67ffffffffffffffff82111561202857612027611f96565b5b61203182611f86565b9050602081019050919050565b828183375f83830152505050565b5f61205e6120598461200e565b611ff4565b90508281526020810184848401111561207a57612079611f82565b5b61208584828561203e565b509392505050565b5f82601f8301126120a1576120a0611f7e565b5b81356120b184826020860161204c565b91505092915050565b5f5f604083850312156120d0576120cf611e4e565b5b5f6120dd85828601611e9c565b925050602083013567ffffffffffffffff8111156120fe576120fd611e52565b5b61210a8582860161208d565b9150509250929050565b5f819050919050565b61212681612114565b82525050565b5f60208201905061213f5f83018461211d565b92915050565b61214e81611e75565b82525050565b5f6020820190506121675f830184612145565b92915050565b5f81519050919050565b5f82825260208201905092915050565b8281835e5f83830152505050565b5f61219f8261216d565b6121a98185612177565b93506121b9818560208601612187565b6121c281611f86565b840191505092915050565b5f6020820190508181035f8301526121e58184612195565b905092915050565b5f5ffd5b5f5ffd5b5f5f83601f84011261220a57612209611f7e565b5b8235905067ffffffffffffffff811115612227576122266121ed565b5b602083019150836020820283011115612243576122426121f1565b5b9250929050565b5f5f602083850312156122605761225f611e4e565b5b5f83013567ffffffffffffffff81111561227d5761227c611e52565b5b612289858286016121f5565b92509250509250929050565b5f8115159050919050565b6122a981612295565b82525050565b5f6020820190506122c25f8301846122a0565b92915050565b5f602082840312156122dd576122dc611e4e565b5b5f6122ea84828501611f2c565b91505092915050565b7f43686172697479206e6f7420616c6c6f776564000000000000000000000000005f82015250565b5f612327601383612177565b9150612332826122f3565b602082019050919050565b5f6020820190508181035f8301526123548161231b565b9050919050565b7f446f6e6174696f6e20746f6f20736d616c6c00000000000000000000000000005f82015250565b5f61238f601283612177565b915061239a8261235b565b602082019050919050565b5f6020820190508181035f8301526123bc81612383565b9050919050565b7f4e487b71000000000000000000000000000000000000000000000000000000005f52601160045260245ffd5b5f6123fa82611e14565b915061240583611e14565b925082820190508082111561241d5761241c6123c3565b5b92915050565b7f4f6e6c79206368617269747900000000000000000000000000000000000000005f82015250565b5f612457600c83612177565b915061246282612423565b602082019050919050565b5f6020820190508181035f8301526124848161244b565b9050919050565b7f496e76616c696420726563697069656e740000000000000000000000000000005f82015250565b5f6124bf601183612177565b91506124ca8261248b565b602082019050919050565b5f6020820190508181035f8301526124ec816124b3565b9050919050565b7f416d6f756e74206d757374206265203e203000000000000000000000000000005f82015250565b5f612527601283612177565b9150612532826124f3565b602082019050919050565b5f6020820190508181035f8301526125548161251b565b9050919050565b7f4e6f7420656e6f75676820616c6c6f63617465640000000000000000000000005f82015250565b5f61258f601483612177565b915061259a8261255b565b602082019050919050565b5f6020820190508181035f8301526125bc81612583565b9050919050565b5f6125cd82611e14565b91506125d883611e14565b92508282039050818111156125f0576125ef6123c3565b5b92915050565b5f81905092915050565b50565b5f61260e5f836125f6565b915061261982612600565b5f82019050919050565b5f61262d82612603565b9150819050919050565b7f5472616e73666572206661696c656400000000000000000000000000000000005f82015250565b5f61266b600f83612177565b915061267682612637565b602082019050919050565b5f6020820190508181035f8301526126988161265f565b9050919050565b7f4e6f7420612063686172697479000000000000000000000000000000000000005f82015250565b5f6126d3600d83612177565b91506126de8261269f565b602082019050919050565b5f6020820190508181035f830152612700816126c7565b9050919050565b7f4e487b71000000000000000000000000000000000000000000000000000000005f52603260045260245ffd5b5f67ffffffffffffffff82169050919050565b61275081612734565b82525050565b5f6020820190506127695f830184612747565b92915050565b7f4e6f7420656e6f756768204554480000000000000000000000000000000000005f82015250565b5f6127a3600e83612177565b91506127ae8261276f565b602082019050919050565b5f6020820190508181035f8301526127d081612797565b9050919050565b7f4d696e20646f6e6174696f6e206d757374206265203e203000000000000000005f82015250565b5f61280b601883612177565b9150612816826127d7565b602082019050919050565b5f6020820190508181035f830152612838816127ff565b9050919050565b5f819050919050565b5f819050919050565b5f61286b6128666128618461283f565b612848565b612734565b9050919050565b61287b81612851565b82525050565b5f6020820190506128945f830184612872565b92915050565b7f5265656e7472616e637947756172643a207265656e7472616e742063616c6c005f82015250565b5f6128ce601f83612177565b91506128d98261289a565b602082019050919050565b5f6020820190508181035f8301526128fb816128c2565b9050919050565b61290b81612114565b8114612915575f5ffd5b50565b5f8151905061292681612902565b92915050565b5f6020828403121561294157612940611e4e565b5b5f61294e84828501612918565b91505092915050565b7f496e76616c6964206368617269747900000000000000000000000000000000005f82015250565b5f61298b600f83612177565b915061299682612957565b602082019050919050565b5f6020820190508181035f8301526129b88161297f565b9050919050565b7f416c7265616479206368617269747900000000000000000000000000000000005f82015250565b5f6129f3600f83612177565b91506129fe826129bf565b602082019050919050565b5f6020820190508181035f830152612a20816129e7565b9050919050565b5f81519050919050565b5f612a3b82612a27565b612a4581856125f6565b9350612a55818560208601612187565b80840191505092915050565b5f612a6c8284612a31565b91508190509291505056fea264697066735822122094a1c2120af190da15cc0cb3b7a9d4acf3e18944559de8e6269a9217ee17cca564736f6c634300081f0033",
					"opcodes": "PUSH1 0xA0 PUSH1 0x40 MSTORE ADDRESS PUSH20 0xFFFFFFFFFFFFFFFFFFFFFFFFFFFFFFFFFFFFFFFF AND PUSH1 0x80 SWAP1 PUSH20 0xFFFFFFFFFFFFFFFFFFFFFFFFFFFFFFFFFFFFFFFF AND DUP2 MSTORE POP CALLVALUE DUP1 ISZERO PUSH1 0x41 JUMPI PUSH0 PUSH0 REVERT JUMPDEST POP PUSH1 0x80 MLOAD PUSH2 0x2AAD PUSH2 0x68 PUSH0 CODECOPY PUSH0 DUP2 DUP2 PUSH2 0x1385 ADD MSTORE DUP2 DUP2 PUSH2 0x13DA ADD MSTORE PUSH2 0x1594 ADD MSTORE PUSH2 0x2AAD PUSH0 RETURN INVALID PUSH1 0x80 PUSH1 0x40 MSTORE PUSH1 0x4 CALLDATASIZE LT PUSH2 0x128 JUMPI PUSH0 CALLDATALOAD PUSH1 0xE0 SHR DUP1 PUSH4 0xBC80B184 GT PUSH2 0xAA JUMPI DUP1 PUSH4 0xECF20921 GT PUSH2 0x6E JUMPI DUP1 PUSH4 0xECF20921 EQ PUSH2 0x3A0 JUMPI DUP1 PUSH4 0xED88C68E EQ PUSH2 0x3CA JUMPI DUP1 PUSH4 0xF2FDE38B EQ PUSH2 0x3D4 JUMPI DUP1 PUSH4 0xF3FEF3A3 EQ PUSH2 0x3FC JUMPI DUP1 PUSH4 0xFB709D2E EQ PUSH2 0x424 JUMPI DUP1 PUSH4 0xFE4B84DF EQ PUSH2 0x460 JUMPI PUSH2 0x128 JUMP JUMPDEST DUP1 PUSH4 0xBC80B184 EQ PUSH2 0x29A JUMPI DUP1 PUSH4 0xC91DDFC9 EQ PUSH2 0x2C4 JUMPI DUP1 PUSH4 0xCDAA6B2C EQ PUSH2 0x300 JUMPI DUP1 PUSH4 0xDC1AA5FA EQ PUSH2 0x33C JUMPI DUP1 PUSH4 0xE81FFBEF EQ PUSH2 0x364 JUMPI PUSH2 0x128 JUMP JUMPDEST DUP1 PUSH4 0x715018A6 GT PUSH2 0xF1 JUMPI DUP1 PUSH4 0x715018A6 EQ PUSH2 0x1E0 JUMPI DUP1 PUSH4 0x78B14F0A EQ PUSH2 0x1F6 JUMPI DUP1 PUSH4 0x8DA5CB5B EQ PUSH2 0x21E JUMPI DUP1 PUSH4 0xABEFE591 EQ PUSH2 0x248 JUMPI DUP1 PUSH4 0xAD3CB1CC EQ PUSH2 0x270 JUMPI PUSH2 0x128 JUMP JUMPDEST DUP1 PUSH3 0xB37044 EQ PUSH2 0x12C JUMPI DUP1 PUSH4 0x128C8DCE EQ PUSH2 0x156 JUMPI DUP1 PUSH4 0x1D172245 EQ PUSH2 0x172 JUMPI DUP1 PUSH4 0x4F1EF286 EQ PUSH2 0x19A JUMPI DUP1 PUSH4 0x52D1902D EQ PUSH2 0x1B6 JUMPI JUMPDEST PUSH0 PUSH0 REVERT JUMPDEST CALLVALUE DUP1 ISZERO PUSH2 0x137 JUMPI PUSH0 PUSH0 REVERT JUMPDEST POP PUSH2 0x140 PUSH2 0x488 JUMP JUMPDEST PUSH1 0x40 MLOAD PUSH2 0x14D SWAP2 SWAP1 PUSH2 0x1E2C JUMP JUMPDEST PUSH1 0x40 MLOAD DUP1 SWAP2 SUB SWAP1 RETURN JUMPDEST PUSH2 0x170 PUSH1 0x4 DUP1 CALLDATASIZE SUB DUP2 ADD SWAP1 PUSH2 0x16B SWAP2 SWAP1 PUSH2 0x1EB0 JUMP JUMPDEST PUSH2 0x48E JUMP JUMPDEST STOP JUMPDEST CALLVALUE DUP1 ISZERO PUSH2 0x17D JUMPI PUSH0 PUSH0 REVERT JUMPDEST POP PUSH2 0x198 PUSH1 0x4 DUP1 CALLDATASIZE SUB DUP2 ADD SWAP1 PUSH2 0x193 SWAP2 SWAP1 PUSH2 0x1F40 JUMP JUMPDEST PUSH2 0x682 JUMP JUMPDEST STOP JUMPDEST PUSH2 0x1B4 PUSH1 0x4 DUP1 CALLDATASIZE SUB DUP2 ADD SWAP1 PUSH2 0x1AF SWAP2 SWAP1 PUSH2 0x20BA JUMP JUMPDEST PUSH2 0x9B0 JUMP JUMPDEST STOP JUMPDEST CALLVALUE DUP1 ISZERO PUSH2 0x1C1 JUMPI PUSH0 PUSH0 REVERT JUMPDEST POP PUSH2 0x1CA PUSH2 0x9CF JUMP JUMPDEST PUSH1 0x40 MLOAD PUSH2 0x1D7 SWAP2 SWAP1 PUSH2 0x212C JUMP JUMPDEST PUSH1 0x40 MLOAD DUP1 SWAP2 SUB SWAP1 RETURN JUMPDEST CALLVALUE DUP1 ISZERO PUSH2 0x1EB JUMPI PUSH0 PUSH0 REVERT JUMPDEST POP PUSH2 0x1F4 PUSH2 0xA00 JUMP JUMPDEST STOP JUMPDEST CALLVALUE DUP1 ISZERO PUSH2 0x201 JUMPI PUSH0 PUSH0 REVERT JUMPDEST POP PUSH2 0x21C PUSH1 0x4 DUP1 CALLDATASIZE SUB DUP2 ADD SWAP1 PUSH2 0x217 SWAP2 SWAP1 PUSH2 0x1EB0 JUMP JUMPDEST PUSH2 0xA13 JUMP JUMPDEST STOP JUMPDEST CALLVALUE DUP1 ISZERO PUSH2 0x229 JUMPI PUSH0 PUSH0 REVERT JUMPDEST POP PUSH2 0x232 PUSH2 0xA27 JUMP JUMPDEST PUSH1 0x40 MLOAD PUSH2 0x23F SWAP2 SWAP1 PUSH2 0x2154 JUMP JUMPDEST PUSH1 0x40 MLOAD DUP1 SWAP2 SUB SWAP1 RETURN JUMPDEST CALLVALUE DUP1 ISZERO PUSH2 0x253 JUMPI PUSH0 PUSH0 REVERT JUMPDEST POP PUSH2 0x26E PUSH1 0x4 DUP1 CALLDATASIZE SUB DUP2 ADD SWAP1 PUSH2 0x269 SWAP2 SWAP1 PUSH2 0x1EB0 JUMP JUMPDEST PUSH2 0xA5C JUMP JUMPDEST STOP JUMPDEST CALLVALUE DUP1 ISZERO PUSH2 0x27B JUMPI PUSH0 PUSH0 REVERT JUMPDEST POP PUSH2 0x284 PUSH2 0xB87 JUMP JUMPDEST PUSH1 0x40 MLOAD PUSH2 0x291 SWAP2 SWAP1 PUSH2 0x21CD JUMP JUMPDEST PUSH1 0x40 MLOAD DUP1 SWAP2 SUB SWAP1 RETURN JUMPDEST CALLVALUE DUP1 ISZERO PUSH2 0x2A5 JUMPI PUSH0 PUSH0 REVERT JUMPDEST POP PUSH2 0x2AE PUSH2 0xBC0 JUMP JUMPDEST PUSH1 0x40 MLOAD PUSH2 0x2BB SWAP2 SWAP1 PUSH2 0x1E2C JUMP JUMPDEST PUSH1 0x40 MLOAD DUP1 SWAP2 SUB SWAP1 RETURN JUMPDEST CALLVALUE DUP1 ISZERO PUSH2 0x2CF JUMPI PUSH0 PUSH0 REVERT JUMPDEST POP PUSH2 0x2EA PUSH1 0x4 DUP1 CALLDATASIZE SUB DUP2 ADD SWAP1 PUSH2 0x2E5 SWAP2 SWAP1 PUSH2 0x1EB0 JUMP JUMPDEST PUSH2 0xBCC JUMP JUMPDEST PUSH1 0x40 MLOAD PUSH2 0x2F7 SWAP2 SWAP1 PUSH2 0x1E2C JUMP JUMPDEST PUSH1 0x40 MLOAD DUP1 SWAP2 SUB SWAP1 RETURN JUMPDEST CALLVALUE DUP1 ISZERO PUSH2 0x30B JUMPI PUSH0 PUSH0 REVERT JUMPDEST POP PUSH2 0x326 PUSH1 0x4 DUP1 CALLDATASIZE SUB DUP2 ADD SWAP1 PUSH2 0x321 SWAP2 SWAP1 PUSH2 0x1EB0 JUMP JUMPDEST PUSH2 0xBE1 JUMP JUMPDEST PUSH1 0x40 MLOAD PUSH2 0x333 SWAP2 SWAP1 PUSH2 0x1E2C JUMP JUMPDEST PUSH1 0x40 MLOAD DUP1 SWAP2 SUB SWAP1 RETURN JUMPDEST CALLVALUE DUP1 ISZERO PUSH2 0x347 JUMPI PUSH0 PUSH0 REVERT JUMPDEST POP PUSH2 0x362 PUSH1 0x4 DUP1 CALLDATASIZE SUB DUP2 ADD SWAP1 PUSH2 0x35D SWAP2 SWAP1 PUSH2 0x224A JUMP JUMPDEST PUSH2 0xBF6 JUMP JUMPDEST STOP JUMPDEST CALLVALUE DUP1 ISZERO PUSH2 0x36F JUMPI PUSH0 PUSH0 REVERT JUMPDEST POP PUSH2 0x38A PUSH1 0x4 DUP1 CALLDATASIZE SUB DUP2 ADD SWAP1 PUSH2 0x385 SWAP2 SWAP1 PUSH2 0x1EB0 JUMP JUMPDEST PUSH2 0xD6B JUMP JUMPDEST PUSH1 0x40 MLOAD PUSH2 0x397 SWAP2 SWAP1 PUSH2 0x22AF JUMP JUMPDEST PUSH1 0x40 MLOAD DUP1 SWAP2 SUB SWAP1 RETURN JUMPDEST CALLVALUE DUP1 ISZERO PUSH2 0x3AB JUMPI PUSH0 PUSH0 REVERT JUMPDEST POP PUSH2 0x3B4 PUSH2 0xD88 JUMP JUMPDEST PUSH1 0x40 MLOAD PUSH2 0x3C1 SWAP2 SWAP1 PUSH2 0x1E2C JUMP JUMPDEST PUSH1 0x40 MLOAD DUP1 SWAP2 SUB SWAP1 RETURN JUMPDEST PUSH2 0x3D2 PUSH2 0xD8E JUMP JUMPDEST STOP JUMPDEST CALLVALUE DUP1 ISZERO PUSH2 0x3DF JUMPI PUSH0 PUSH0 REVERT JUMPDEST POP PUSH2 0x3FA PUSH1 0x4 DUP1 CALLDATASIZE SUB DUP2 ADD SWAP1 PUSH2 0x3F5 SWAP2 SWAP1 PUSH2 0x1EB0 JUMP JUMPDEST PUSH2 0xE8E JUMP JUMPDEST STOP JUMPDEST CALLVALUE DUP1 ISZERO PUSH2 0x407 JUMPI PUSH0 PUSH0 REVERT JUMPDEST POP PUSH2 0x422 PUSH1 0x4 DUP1 CALLDATASIZE SUB DUP2 ADD SWAP1 PUSH2 0x41D SWAP2 SWAP1 PUSH2 0x1F40 JUMP JUMPDEST PUSH2 0xF12 JUMP JUMPDEST STOP JUMPDEST CALLVALUE DUP1 ISZERO PUSH2 0x42F JUMPI PUSH0 PUSH0 REVERT JUMPDEST POP PUSH2 0x44A PUSH1 0x4 DUP1 CALLDATASIZE SUB DUP2 ADD SWAP1 PUSH2 0x445 SWAP2 SWAP1 PUSH2 0x22C8 JUMP JUMPDEST PUSH2 0x1118 JUMP JUMPDEST PUSH1 0x40 MLOAD PUSH2 0x457 SWAP2 SWAP1 PUSH2 0x2154 JUMP JUMPDEST PUSH1 0x40 MLOAD DUP1 SWAP2 SUB SWAP1 RETURN JUMPDEST CALLVALUE DUP1 ISZERO PUSH2 0x46B JUMPI PUSH0 PUSH0 REVERT JUMPDEST POP PUSH2 0x486 PUSH1 0x4 DUP1 CALLDATASIZE SUB DUP2 ADD SWAP1 PUSH2 0x481 SWAP2 SWAP1 PUSH2 0x22C8 JUMP JUMPDEST PUSH2 0x1153 JUMP JUMPDEST STOP JUMPDEST PUSH1 0x33 SLOAD DUP2 JUMP JUMPDEST PUSH1 0x35 PUSH0 DUP3 PUSH20 0xFFFFFFFFFFFFFFFFFFFFFFFFFFFFFFFFFFFFFFFF AND PUSH20 0xFFFFFFFFFFFFFFFFFFFFFFFFFFFFFFFFFFFFFFFF AND DUP2 MSTORE PUSH1 0x20 ADD SWAP1 DUP2 MSTORE PUSH1 0x20 ADD PUSH0 KECCAK256 PUSH0 SWAP1 SLOAD SWAP1 PUSH2 0x100 EXP SWAP1 DIV PUSH1 0xFF AND PUSH2 0x517 JUMPI PUSH1 0x40 MLOAD PUSH32 0x8C379A000000000000000000000000000000000000000000000000000000000 DUP2 MSTORE PUSH1 0x4 ADD PUSH2 0x50E SWAP1 PUSH2 0x233D JUMP JUMPDEST PUSH1 0x40 MLOAD DUP1 SWAP2 SUB SWAP1 REVERT JUMPDEST PUSH1 0x32 SLOAD CALLVALUE LT ISZERO PUSH2 0x55C JUMPI PUSH1 0x40 MLOAD PUSH32 0x8C379A000000000000000000000000000000000000000000000000000000000 DUP2 MSTORE PUSH1 0x4 ADD PUSH2 0x553 SWAP1 PUSH2 0x23A5 JUMP JUMPDEST PUSH1 0x40 MLOAD DUP1 SWAP2 SUB SWAP1 REVERT JUMPDEST CALLVALUE PUSH1 0x34 PUSH0 CALLER PUSH20 0xFFFFFFFFFFFFFFFFFFFFFFFFFFFFFFFFFFFFFFFF AND PUSH20 0xFFFFFFFFFFFFFFFFFFFFFFFFFFFFFFFFFFFFFFFF AND DUP2 MSTORE PUSH1 0x20 ADD SWAP1 DUP2 MSTORE PUSH1 0x20 ADD PUSH0 KECCAK256 PUSH0 DUP3 DUP3 SLOAD PUSH2 0x5A8 SWAP2 SWAP1 PUSH2 0x23F0 JUMP JUMPDEST SWAP3 POP POP DUP2 SWAP1 SSTORE POP CALLVALUE PUSH1 0x33 PUSH0 DUP3 DUP3 SLOAD PUSH2 0x5C0 SWAP2 SWAP1 PUSH2 0x23F0 JUMP JUMPDEST SWAP3 POP POP DUP2 SWAP1 SSTORE POP CALLVALUE PUSH1 0x36 PUSH0 DUP4 PUSH20 0xFFFFFFFFFFFFFFFFFFFFFFFFFFFFFFFFFFFFFFFF AND PUSH20 0xFFFFFFFFFFFFFFFFFFFFFFFFFFFFFFFFFFFFFFFF AND DUP2 MSTORE PUSH1 0x20 ADD SWAP1 DUP2 MSTORE PUSH1 0x20 ADD PUSH0 KECCAK256 PUSH0 DUP3 DUP3 SLOAD PUSH2 0x613 SWAP2 SWAP1 PUSH2 0x23F0 JUMP JUMPDEST SWAP3 POP POP DUP2 SWAP1 SSTORE POP DUP1 PUSH20 0xFFFFFFFFFFFFFFFFFFFFFFFFFFFFFFFFFFFFFFFF AND CALLER PUSH20 0xFFFFFFFFFFFFFFFFFFFFFFFFFFFFFFFFFFFFFFFF AND PUSH32 0xDA80F1AF1EB5747D371B21ABDBC3F061B1F8F53BAE262A8B1D91476CF5EC191D CALLVALUE PUSH1 0x40 MLOAD PUSH2 0x677 SWAP2 SWAP1 PUSH2 0x1E2C JUMP JUMPDEST PUSH1 0x40 MLOAD DUP1 SWAP2 SUB SWAP1 LOG3 POP JUMP JUMPDEST PUSH2 0x68A PUSH2 0x132D JUMP JUMPDEST PUSH1 0x35 PUSH0 CALLER PUSH20 0xFFFFFFFFFFFFFFFFFFFFFFFFFFFFFFFFFFFFFFFF AND PUSH20 0xFFFFFFFFFFFFFFFFFFFFFFFFFFFFFFFFFFFFFFFF AND DUP2 MSTORE PUSH1 0x20 ADD SWAP1 DUP2 MSTORE PUSH1 0x20 ADD PUSH0 KECCAK256 PUSH0 SWAP1 SLOAD SWAP1 PUSH2 0x100 EXP SWAP1 DIV PUSH1 0xFF AND PUSH2 0x713 JUMPI PUSH1 0x40 MLOAD PUSH32 0x8C379A000000000000000000000000000000000000000000000000000000000 DUP2 MSTORE PUSH1 0x4 ADD PUSH2 0x70A SWAP1 PUSH2 0x246D JUMP JUMPDEST PUSH1 0x40 MLOAD DUP1 SWAP2 SUB SWAP1 REVERT JUMPDEST PUSH0 PUSH20 0xFFFFFFFFFFFFFFFFFFFFFFFFFFFFFFFFFFFFFFFF AND DUP3 PUSH20 0xFFFFFFFFFFFFFFFFFFFFFFFFFFFFFFFFFFFFFFFF AND SUB PUSH2 0x781 JUMPI PUSH1 0x40 MLOAD PUSH32 0x8C379A000000000000000000000000000000000000000000000000000000000 DUP2 MSTORE PUSH1 0x4 ADD PUSH2 0x778 SWAP1 PUSH2 0x24D5 JUMP JUMPDEST PUSH1 0x40 MLOAD DUP1 SWAP2 SUB SWAP1 REVERT JUMPDEST PUSH0 DUP2 GT PUSH2 0x7C3 JUMPI PUSH1 0x40 MLOAD PUSH32 0x8C379A000000000000000000000000000000000000000000000000000000000 DUP2 MSTORE PUSH1 0x4 ADD PUSH2 0x7BA SWAP1 PUSH2 0x253D JUMP JUMPDEST PUSH1 0x40 MLOAD DUP1 SWAP2 SUB SWAP1 REVERT JUMPDEST PUSH1 0x36 PUSH0 CALLER PUSH20 0xFFFFFFFFFFFFFFFFFFFFFFFFFFFFFFFFFFFFFFFF AND PUSH20 0xFFFFFFFFFFFFFFFFFFFFFFFFFFFFFFFFFFFFFFFF AND DUP2 MSTORE PUSH1 0x20 ADD SWAP1 DUP2 MSTORE PUSH1 0x20 ADD PUSH0 KECCAK256 SLOAD DUP2 GT ISZERO PUSH2 0x843 JUMPI PUSH1 0x40 MLOAD PUSH32 0x8C379A000000000000000000000000000000000000000000000000000000000 DUP2 MSTORE PUSH1 0x4 ADD PUSH2 0x83A SWAP1 PUSH2 0x25A5 JUMP JUMPDEST PUSH1 0x40 MLOAD DUP1 SWAP2 SUB SWAP1 REVERT JUMPDEST DUP1 PUSH1 0x36 PUSH0 CALLER PUSH20 0xFFFFFFFFFFFFFFFFFFFFFFFFFFFFFFFFFFFFFFFF AND PUSH20 0xFFFFFFFFFFFFFFFFFFFFFFFFFFFFFFFFFFFFFFFF AND DUP2 MSTORE PUSH1 0x20 ADD SWAP1 DUP2 MSTORE PUSH1 0x20 ADD PUSH0 KECCAK256 PUSH0 DUP3 DUP3 SLOAD PUSH2 0x88F SWAP2 SWAP1 PUSH2 0x25C3 JUMP JUMPDEST SWAP3 POP POP DUP2 SWAP1 SSTORE POP PUSH0 DUP3 PUSH20 0xFFFFFFFFFFFFFFFFFFFFFFFFFFFFFFFFFFFFFFFF AND DUP3 PUSH1 0x40 MLOAD PUSH2 0x8BB SWAP1 PUSH2 0x2623 JUMP JUMPDEST PUSH0 PUSH1 0x40 MLOAD DUP1 DUP4 SUB DUP2 DUP6 DUP8 GAS CALL SWAP3 POP POP POP RETURNDATASIZE DUP1 PUSH0 DUP2 EQ PUSH2 0x8F5 JUMPI PUSH1 0x40 MLOAD SWAP2 POP PUSH1 0x1F NOT PUSH1 0x3F RETURNDATASIZE ADD AND DUP3 ADD PUSH1 0x40 MSTORE RETURNDATASIZE DUP3 MSTORE RETURNDATASIZE PUSH0 PUSH1 0x20 DUP5 ADD RETURNDATACOPY PUSH2 0x8FA JUMP JUMPDEST PUSH1 0x60 SWAP2 POP JUMPDEST POP POP SWAP1 POP DUP1 PUSH2 0x93E JUMPI PUSH1 0x40 MLOAD PUSH32 0x8C379A000000000000000000000000000000000000000000000000000000000 DUP2 MSTORE PUSH1 0x4 ADD PUSH2 0x935 SWAP1 PUSH2 0x2681 JUMP JUMPDEST PUSH1 0x40 MLOAD DUP1 SWAP2 SUB SWAP1 REVERT JUMPDEST DUP3 PUSH20 0xFFFFFFFFFFFFFFFFFFFFFFFFFFFFFFFFFFFFFFFF AND CALLER PUSH20 0xFFFFFFFFFFFFFFFFFFFFFFFFFFFFFFFFFFFFFFFF AND PUSH32 0xD12A7186F17F056536CE7208A6B27E2E22C25ED633727E9EB92CCE0F018C47AE DUP5 PUSH1 0x40 MLOAD PUSH2 0x99B SWAP2 SWAP1 PUSH2 0x1E2C JUMP JUMPDEST PUSH1 0x40 MLOAD DUP1 SWAP2 SUB SWAP1 LOG3 POP PUSH2 0x9AC PUSH2 0x137A JUMP JUMPDEST POP POP JUMP JUMPDEST PUSH2 0x9B8 PUSH2 0x1383 JUMP JUMPDEST PUSH2 0x9C1 DUP3 PUSH2 0x1469 JUMP JUMPDEST PUSH2 0x9CB DUP3 DUP3 PUSH2 0x1474 JUMP JUMPDEST POP POP JUMP JUMPDEST PUSH0 PUSH2 0x9D8 PUSH2 0x1592 JUMP JUMPDEST PUSH32 0x360894A13BA1A3210667C828492DB98DCA3E2076CC3735A920A3CA505D382BBC PUSH0 SHL SWAP1 POP SWAP1 JUMP JUMPDEST PUSH2 0xA08 PUSH2 0x1619 JUMP JUMPDEST PUSH2 0xA11 PUSH0 PUSH2 0x16A0 JUMP JUMPDEST JUMP JUMPDEST PUSH2 0xA1B PUSH2 0x1619 JUMP JUMPDEST PUSH2 0xA24 DUP2 PUSH2 0x1771 JUMP JUMPDEST POP JUMP JUMPDEST PUSH0 PUSH0 PUSH2 0xA31 PUSH2 0x1964 JUMP JUMPDEST SWAP1 POP DUP1 PUSH0 ADD PUSH0 SWAP1 SLOAD SWAP1 PUSH2 0x100 EXP SWAP1 DIV PUSH20 0xFFFFFFFFFFFFFFFFFFFFFFFFFFFFFFFFFFFFFFFF AND SWAP2 POP POP SWAP1 JUMP JUMPDEST PUSH2 0xA64 PUSH2 0x1619 JUMP JUMPDEST PUSH1 0x35 PUSH0 DUP3 PUSH20 0xFFFFFFFFFFFFFFFFFFFFFFFFFFFFFFFFFFFFFFFF AND PUSH20 0xFFFFFFFFFFFFFFFFFFFFFFFFFFFFFFFFFFFFFFFF AND DUP2 MSTORE PUSH1 0x20 ADD SWAP1 DUP2 MSTORE PUSH1 0x20 ADD PUSH0 KECCAK256 PUSH0 SWAP1 SLOAD SWAP1 PUSH2 0x100 EXP SWAP1 DIV PUSH1 0xFF AND PUSH2 0xAED JUMPI PUSH1 0x40 MLOAD PUSH32 0x8C379A000000000000000000000000000000000000000000000000000000000 DUP2 MSTORE PUSH1 0x4 ADD PUSH2 0xAE4 SWAP1 PUSH2 0x26E9 JUMP JUMPDEST PUSH1 0x40 MLOAD DUP1 SWAP2 SUB SWAP1 REVERT JUMPDEST PUSH0 PUSH1 0x35 PUSH0 DUP4 PUSH20 0xFFFFFFFFFFFFFFFFFFFFFFFFFFFFFFFFFFFFFFFF AND PUSH20 0xFFFFFFFFFFFFFFFFFFFFFFFFFFFFFFFFFFFFFFFF AND DUP2 MSTORE PUSH1 0x20 ADD SWAP1 DUP2 MSTORE PUSH1 0x20 ADD PUSH0 KECCAK256 PUSH0 PUSH2 0x100 EXP DUP2 SLOAD DUP2 PUSH1 0xFF MUL NOT AND SWAP1 DUP4 ISZERO ISZERO MUL OR SWAP1 SSTORE POP DUP1 PUSH20 0xFFFFFFFFFFFFFFFFFFFFFFFFFFFFFFFFFFFFFFFF AND PUSH32 0x7DB8DF158D85E9475E8DD97A5E3E193C67DC6D977D2FC4F7321049B6C0B70E93 PUSH1 0x40 MLOAD PUSH1 0x40 MLOAD DUP1 SWAP2 SUB SWAP1 LOG2 POP JUMP JUMPDEST PUSH1 0x40 MLOAD DUP1 PUSH1 0x40 ADD PUSH1 0x40 MSTORE DUP1 PUSH1 0x5 DUP2 MSTORE PUSH1 0x20 ADD PUSH32 0x352E302E30000000000000000000000000000000000000000000000000000000 DUP2 MSTORE POP DUP2 JUMP JUMPDEST PUSH0 PUSH1 0x37 DUP1 SLOAD SWAP1 POP SWAP1 POP SWAP1 JUMP JUMPDEST PUSH1 0x36 PUSH1 0x20 MSTORE DUP1 PUSH0 MSTORE PUSH1 0x40 PUSH0 KECCAK256 PUSH0 SWAP2 POP SWAP1 POP SLOAD DUP2 JUMP JUMPDEST PUSH1 0x34 PUSH1 0x20 MSTORE DUP1 PUSH0 MSTORE PUSH1 0x40 PUSH0 KECCAK256 PUSH0 SWAP2 POP SWAP1 POP SLOAD DUP2 JUMP JUMPDEST PUSH1 0x2 PUSH0 PUSH2 0xC01 PUSH2 0x198B JUMP JUMPDEST SWAP1 POP DUP1 PUSH0 ADD PUSH1 0x8 SWAP1 SLOAD SWAP1 PUSH2 0x100 EXP SWAP1 DIV PUSH1 0xFF AND DUP1 PUSH2 0xC49 JUMPI POP DUP2 PUSH8 0xFFFFFFFFFFFFFFFF AND DUP2 PUSH0 ADD PUSH0 SWAP1 SLOAD SWAP1 PUSH2 0x100 EXP SWAP1 DIV PUSH8 0xFFFFFFFFFFFFFFFF AND PUSH8 0xFFFFFFFFFFFFFFFF AND LT ISZERO JUMPDEST ISZERO PUSH2 0xC80 JUMPI PUSH1 0x40 MLOAD PUSH32 0xF92EE8A900000000000000000000000000000000000000000000000000000000 DUP2 MSTORE PUSH1 0x4 ADD PUSH1 0x40 MLOAD DUP1 SWAP2 SUB SWAP1 REVERT JUMPDEST DUP2 DUP2 PUSH0 ADD PUSH0 PUSH2 0x100 EXP DUP2 SLOAD DUP2 PUSH8 0xFFFFFFFFFFFFFFFF MUL NOT AND SWAP1 DUP4 PUSH8 0xFFFFFFFFFFFFFFFF AND MUL OR SWAP1 SSTORE POP PUSH1 0x1 DUP2 PUSH0 ADD PUSH1 0x8 PUSH2 0x100 EXP DUP2 SLOAD DUP2 PUSH1 0xFF MUL NOT AND SWAP1 DUP4 ISZERO ISZERO MUL OR SWAP1 SSTORE POP PUSH0 PUSH0 SWAP1 POP JUMPDEST DUP5 DUP5 SWAP1 POP DUP2 LT ISZERO PUSH2 0xD12 JUMPI PUSH2 0xD05 DUP6 DUP6 DUP4 DUP2 DUP2 LT PUSH2 0xCEB JUMPI PUSH2 0xCEA PUSH2 0x2707 JUMP JUMPDEST JUMPDEST SWAP1 POP PUSH1 0x20 MUL ADD PUSH1 0x20 DUP2 ADD SWAP1 PUSH2 0xD00 SWAP2 SWAP1 PUSH2 0x1EB0 JUMP JUMPDEST PUSH2 0x1771 JUMP JUMPDEST DUP1 DUP1 PUSH1 0x1 ADD SWAP2 POP POP PUSH2 0xCCA JUMP JUMPDEST POP PUSH0 DUP2 PUSH0 ADD PUSH1 0x8 PUSH2 0x100 EXP DUP2 SLOAD DUP2 PUSH1 0xFF MUL NOT AND SWAP1 DUP4 ISZERO ISZERO MUL OR SWAP1 SSTORE POP PUSH32 0xC7F505B2F371AE2175EE4913F4499E1F2633A7B5936321EED1CDAEB6115181D2 DUP3 PUSH1 0x40 MLOAD PUSH2 0xD5D SWAP2 SWAP1 PUSH2 0x2756 JUMP JUMPDEST PUSH1 0x40 MLOAD DUP1 SWAP2 SUB SWAP1 LOG1 POP POP POP POP JUMP JUMPDEST PUSH1 0x35 PUSH1 0x20 MSTORE DUP1 PUSH0 MSTORE PUSH1 0x40 PUSH0 KECCAK256 PUSH0 SWAP2 POP SLOAD SWAP1 PUSH2 0x100 EXP SWAP1 DIV PUSH1 0xFF AND DUP2 JUMP JUMPDEST PUSH1 0x32 SLOAD DUP2 JUMP JUMPDEST PUSH1 0x32 SLOAD CALLVALUE LT ISZERO PUSH2 0xDD3 JUMPI PUSH1 0x40 MLOAD PUSH32 0x8C379A000000000000000000000000000000000000000000000000000000000 DUP2 MSTORE PUSH1 0x4 ADD PUSH2 0xDCA SWAP1 PUSH2 0x23A5 JUMP JUMPDEST PUSH1 0x40 MLOAD DUP1 SWAP2 SUB SWAP1 REVERT JUMPDEST CALLVALUE PUSH1 0x34 PUSH0 CALLER PUSH20 0xFFFFFFFFFFFFFFFFFFFFFFFFFFFFFFFFFFFFFFFF AND PUSH20 0xFFFFFFFFFFFFFFFFFFFFFFFFFFFFFFFFFFFFFFFF AND DUP2 MSTORE PUSH1 0x20 ADD SWAP1 DUP2 MSTORE PUSH1 0x20 ADD PUSH0 KECCAK256 PUSH0 DUP3 DUP3 SLOAD PUSH2 0xE1F SWAP2 SWAP1 PUSH2 0x23F0 JUMP JUMPDEST SWAP3 POP POP DUP2 SWAP1 SSTORE POP CALLVALUE PUSH1 0x33 PUSH0 DUP3 DUP3 SLOAD PUSH2 0xE37 SWAP2 SWAP1 PUSH2 0x23F0 JUMP JUMPDEST SWAP3 POP POP DUP2 SWAP1 SSTORE POP CALLER PUSH20 0xFFFFFFFFFFFFFFFFFFFFFFFFFFFFFFFFFFFFFFFF AND PUSH32 0x2A01595CDDF097C90216094025DB714DA3F4E5BD8877B56BA86A24ECEAD8E543 CALLVALUE PUSH1 0x40 MLOAD PUSH2 0xE84 SWAP2 SWAP1 PUSH2 0x1E2C JUMP JUMPDEST PUSH1 0x40 MLOAD DUP1 SWAP2 SUB SWAP1 LOG2 JUMP JUMPDEST PUSH2 0xE96 PUSH2 0x1619 JUMP JUMPDEST PUSH0 PUSH20 0xFFFFFFFFFFFFFFFFFFFFFFFFFFFFFFFFFFFFFFFF AND DUP2 PUSH20 0xFFFFFFFFFFFFFFFFFFFFFFFFFFFFFFFFFFFFFFFF AND SUB PUSH2 0xF06 JUMPI PUSH0 PUSH1 0x40 MLOAD PUSH32 0x1E4FBDF700000000000000000000000000000000000000000000000000000000 DUP2 MSTORE PUSH1 0x4 ADD PUSH2 0xEFD SWAP2 SWAP1 PUSH2 0x2154 JUMP JUMPDEST PUSH1 0x40 MLOAD DUP1 SWAP2 SUB SWAP1 REVERT JUMPDEST PUSH2 0xF0F DUP2 PUSH2 0x16A0 JUMP JUMPDEST POP JUMP JUMPDEST PUSH2 0xF1A PUSH2 0x1619 JUMP JUMPDEST PUSH2 0xF22 PUSH2 0x132D JUMP JUMPDEST PUSH0 PUSH20 0xFFFFFFFFFFFFFFFFFFFFFFFFFFFFFFFFFFFFFFFF AND DUP3 PUSH20 0xFFFFFFFFFFFFFFFFFFFFFFFFFFFFFFFFFFFFFFFF AND SUB PUSH2 0xF90 JUMPI PUSH1 0x40 MLOAD PUSH32 0x8C379A000000000000000000000000000000000000000000000000000000000 DUP2 MSTORE PUSH1 0x4 ADD PUSH2 0xF87 SWAP1 PUSH2 0x24D5 JUMP JUMPDEST PUSH1 0x40 MLOAD DUP1 SWAP2 SUB SWAP1 REVERT JUMPDEST PUSH0 DUP2 GT PUSH2 0xFD2 JUMPI PUSH1 0x40 MLOAD PUSH32 0x8C379A000000000000000000000000000000000000000000000000000000000 DUP2 MSTORE PUSH1 0x4 ADD PUSH2 0xFC9 SWAP1 PUSH2 0x253D JUMP JUMPDEST PUSH1 0x40 MLOAD DUP1 SWAP2 SUB SWAP1 REVERT JUMPDEST SELFBALANCE DUP2 GT ISZERO PUSH2 0x1015 JUMPI PUSH1 0x40 MLOAD PUSH32 0x8C379A000000000000000000000000000000000000000000000000000000000 DUP2 MSTORE PUSH1 0x4 ADD PUSH2 0x100C SWAP1 PUSH2 0x27B9 JUMP JUMPDEST PUSH1 0x40 MLOAD DUP1 SWAP2 SUB SWAP1 REVERT JUMPDEST PUSH0 DUP3 PUSH20 0xFFFFFFFFFFFFFFFFFFFFFFFFFFFFFFFFFFFFFFFF AND DUP3 PUSH1 0x40 MLOAD PUSH2 0x103A SWAP1 PUSH2 0x2623 JUMP JUMPDEST PUSH0 PUSH1 0x40 MLOAD DUP1 DUP4 SUB DUP2 DUP6 DUP8 GAS CALL SWAP3 POP POP POP RETURNDATASIZE DUP1 PUSH0 DUP2 EQ PUSH2 0x1074 JUMPI PUSH1 0x40 MLOAD SWAP2 POP PUSH1 0x1F NOT PUSH1 0x3F RETURNDATASIZE ADD AND DUP3 ADD PUSH1 0x40 MSTORE RETURNDATASIZE DUP3 MSTORE RETURNDATASIZE PUSH0 PUSH1 0x20 DUP5 ADD RETURNDATACOPY PUSH2 0x1079 JUMP JUMPDEST PUSH1 0x60 SWAP2 POP JUMPDEST POP POP SWAP1 POP DUP1 PUSH2 0x10BD JUMPI PUSH1 0x40 MLOAD PUSH32 0x8C379A000000000000000000000000000000000000000000000000000000000 DUP2 MSTORE PUSH1 0x4 ADD PUSH2 0x10B4 SWAP1 PUSH2 0x2681 JUMP JUMPDEST PUSH1 0x40 MLOAD DUP1 SWAP2 SUB SWAP1 REVERT JUMPDEST DUP3 PUSH20 0xFFFFFFFFFFFFFFFFFFFFFFFFFFFFFFFFFFFFFFFF AND PUSH32 0x7084F5476618D8E60B11EF0D7D3F06914655ADB8793E28FF7F018D4C76D505D5 DUP4 PUSH1 0x40 MLOAD PUSH2 0x1103 SWAP2 SWAP1 PUSH2 0x1E2C JUMP JUMPDEST PUSH1 0x40 MLOAD DUP1 SWAP2 SUB SWAP1 LOG2 POP PUSH2 0x1114 PUSH2 0x137A JUMP JUMPDEST POP POP JUMP JUMPDEST PUSH1 0x37 DUP2 DUP2 SLOAD DUP2 LT PUSH2 0x1127 JUMPI PUSH0 DUP1 REVERT JUMPDEST SWAP1 PUSH0 MSTORE PUSH1 0x20 PUSH0 KECCAK256 ADD PUSH0 SWAP2 POP SLOAD SWAP1 PUSH2 0x100 EXP SWAP1 DIV PUSH20 0xFFFFFFFFFFFFFFFFFFFFFFFFFFFFFFFFFFFFFFFF AND DUP2 JUMP JUMPDEST PUSH0 PUSH2 0x115C PUSH2 0x198B JUMP JUMPDEST SWAP1 POP PUSH0 DUP2 PUSH0 ADD PUSH1 0x8 SWAP1 SLOAD SWAP1 PUSH2 0x100 EXP SWAP1 DIV PUSH1 0xFF AND ISZERO SWAP1 POP PUSH0 DUP3 PUSH0 ADD PUSH0 SWAP1 SLOAD SWAP1 PUSH2 0x100 EXP SWAP1 DIV PUSH8 0xFFFFFFFFFFFFFFFF AND SWAP1 POP PUSH0 PUSH0 DUP3 PUSH8 0xFFFFFFFFFFFFFFFF AND EQ DUP1 ISZERO PUSH2 0x11A4 JUMPI POP DUP3 JUMPDEST SWAP1 POP PUSH0 PUSH1 0x1 DUP4 PUSH8 0xFFFFFFFFFFFFFFFF AND EQ DUP1 ISZERO PUSH2 0x11D7 JUMPI POP PUSH0 ADDRESS PUSH20 0xFFFFFFFFFFFFFFFFFFFFFFFFFFFFFFFFFFFFFFFF AND EXTCODESIZE EQ JUMPDEST SWAP1 POP DUP2 ISZERO DUP1 ISZERO PUSH2 0x11E5 JUMPI POP DUP1 ISZERO JUMPDEST ISZERO PUSH2 0x121C JUMPI PUSH1 0x40 MLOAD PUSH32 0xF92EE8A900000000000000000000000000000000000000000000000000000000 DUP2 MSTORE PUSH1 0x4 ADD PUSH1 0x40 MLOAD DUP1 SWAP2 SUB SWAP1 REVERT JUMPDEST PUSH1 0x1 DUP6 PUSH0 ADD PUSH0 PUSH2 0x100 EXP DUP2 SLOAD DUP2 PUSH8 0xFFFFFFFFFFFFFFFF MUL NOT AND SWAP1 DUP4 PUSH8 0xFFFFFFFFFFFFFFFF AND MUL OR SWAP1 SSTORE POP DUP4 ISZERO PUSH2 0x1269 JUMPI PUSH1 0x1 DUP6 PUSH0 ADD PUSH1 0x8 PUSH2 0x100 EXP DUP2 SLOAD DUP2 PUSH1 0xFF MUL NOT AND SWAP1 DUP4 ISZERO ISZERO MUL OR SWAP1 SSTORE POP JUMPDEST PUSH0 DUP7 GT PUSH2 0x12AB JUMPI PUSH1 0x40 MLOAD PUSH32 0x8C379A000000000000000000000000000000000000000000000000000000000 DUP2 MSTORE PUSH1 0x4 ADD PUSH2 0x12A2 SWAP1 PUSH2 0x2821 JUMP JUMPDEST PUSH1 0x40 MLOAD DUP1 SWAP2 SUB SWAP1 REVERT JUMPDEST PUSH2 0x12B4 CALLER PUSH2 0x199E JUMP JUMPDEST PUSH2 0x12BC PUSH2 0x19B2 JUMP JUMPDEST PUSH2 0x12C4 PUSH2 0x19C4 JUMP JUMPDEST DUP6 PUSH1 0x32 DUP2 SWAP1 SSTORE POP DUP4 ISZERO PUSH2 0x1325 JUMPI PUSH0 DUP6 PUSH0 ADD PUSH1 0x8 PUSH2 0x100 EXP DUP2 SLOAD DUP2 PUSH1 0xFF MUL NOT AND SWAP1 DUP4 ISZERO ISZERO MUL OR SWAP1 SSTORE POP PUSH32 0xC7F505B2F371AE2175EE4913F4499E1F2633A7B5936321EED1CDAEB6115181D2 PUSH1 0x1 PUSH1 0x40 MLOAD PUSH2 0x131C SWAP2 SWAP1 PUSH2 0x2881 JUMP JUMPDEST PUSH1 0x40 MLOAD DUP1 SWAP2 SUB SWAP1 LOG1 JUMPDEST POP POP POP POP POP POP JUMP JUMPDEST PUSH1 0x2 PUSH0 SLOAD SUB PUSH2 0x1371 JUMPI PUSH1 0x40 MLOAD PUSH32 0x8C379A000000000000000000000000000000000000000000000000000000000 DUP2 MSTORE PUSH1 0x4 ADD PUSH2 0x1368 SWAP1 PUSH2 0x28E4 JUMP JUMPDEST PUSH1 0x40 MLOAD DUP1 SWAP2 SUB SWAP1 REVERT JUMPDEST PUSH1 0x2 PUSH0 DUP2 SWAP1 SSTORE POP JUMP JUMPDEST PUSH1 0x1 PUSH0 DUP2 SWAP1 SSTORE POP JUMP JUMPDEST PUSH32 0x0 PUSH20 0xFFFFFFFFFFFFFFFFFFFFFFFFFFFFFFFFFFFFFFFF AND ADDRESS PUSH20 0xFFFFFFFFFFFFFFFFFFFFFFFFFFFFFFFFFFFFFFFF AND EQ DUP1 PUSH2 0x1430 JUMPI POP PUSH32 0x0 PUSH20 0xFFFFFFFFFFFFFFFFFFFFFFFFFFFFFFFFFFFFFFFF AND PUSH2 0x1417 PUSH2 0x19CE JUMP JUMPDEST PUSH20 0xFFFFFFFFFFFFFFFFFFFFFFFFFFFFFFFFFFFFFFFF AND EQ ISZERO JUMPDEST ISZERO PUSH2 0x1467 JUMPI PUSH1 0x40 MLOAD PUSH32 0xE07C8DBA00000000000000000000000000000000000000000000000000000000 DUP2 MSTORE PUSH1 0x4 ADD PUSH1 0x40 MLOAD DUP1 SWAP2 SUB SWAP1 REVERT JUMPDEST JUMP JUMPDEST PUSH2 0x1471 PUSH2 0x1619 JUMP JUMPDEST POP JUMP JUMPDEST DUP2 PUSH20 0xFFFFFFFFFFFFFFFFFFFFFFFFFFFFFFFFFFFFFFFF AND PUSH4 0x52D1902D PUSH1 0x40 MLOAD DUP2 PUSH4 0xFFFFFFFF AND PUSH1 0xE0 SHL DUP2 MSTORE PUSH1 0x4 ADD PUSH1 0x20 PUSH1 0x40 MLOAD DUP1 DUP4 SUB DUP2 DUP7 GAS STATICCALL SWAP3 POP POP POP DUP1 ISZERO PUSH2 0x14DC JUMPI POP PUSH1 0x40 MLOAD RETURNDATASIZE PUSH1 0x1F NOT PUSH1 0x1F DUP3 ADD AND DUP3 ADD DUP1 PUSH1 0x40 MSTORE POP DUP2 ADD SWAP1 PUSH2 0x14D9 SWAP2 SWAP1 PUSH2 0x292C JUMP JUMPDEST PUSH1 0x1 JUMPDEST PUSH2 0x151D JUMPI DUP2 PUSH1 0x40 MLOAD PUSH32 0x4C9C8CE300000000000000000000000000000000000000000000000000000000 DUP2 MSTORE PUSH1 0x4 ADD PUSH2 0x1514 SWAP2 SWAP1 PUSH2 0x2154 JUMP JUMPDEST PUSH1 0x40 MLOAD DUP1 SWAP2 SUB SWAP1 REVERT JUMPDEST PUSH32 0x360894A13BA1A3210667C828492DB98DCA3E2076CC3735A920A3CA505D382BBC PUSH0 SHL DUP2 EQ PUSH2 0x1583 JUMPI DUP1 PUSH1 0x40 MLOAD PUSH32 0xAA1D49A400000000000000000000000000000000000000000000000000000000 DUP2 MSTORE PUSH1 0x4 ADD PUSH2 0x157A SWAP2 SWAP1 PUSH2 0x212C JUMP JUMPDEST PUSH1 0x40 MLOAD DUP1 SWAP2 SUB SWAP1 REVERT JUMPDEST PUSH2 0x158D DUP4 DUP4 PUSH2 0x1A21 JUMP JUMPDEST POP POP POP JUMP JUMPDEST PUSH32 0x0 PUSH20 0xFFFFFFFFFFFFFFFFFFFFFFFFFFFFFFFFFFFFFFFF AND ADDRESS PUSH20 0xFFFFFFFFFFFFFFFFFFFFFFFFFFFFFFFFFFFFFFFF AND EQ PUSH2 0x1617 JUMPI PUSH1 0x40 MLOAD PUSH32 0xE07C8DBA00000000000000000000000000000000000000000000000000000000 DUP2 MSTORE PUSH1 0x4 ADD PUSH1 0x40 MLOAD DUP1 SWAP2 SUB SWAP1 REVERT JUMPDEST JUMP JUMPDEST PUSH2 0x1621 PUSH2 0x1A93 JUMP JUMPDEST PUSH20 0xFFFFFFFFFFFFFFFFFFFFFFFFFFFFFFFFFFFFFFFF AND PUSH2 0x163F PUSH2 0xA27 JUMP JUMPDEST PUSH20 0xFFFFFFFFFFFFFFFFFFFFFFFFFFFFFFFFFFFFFFFF AND EQ PUSH2 0x169E JUMPI PUSH2 0x1662 PUSH2 0x1A93 JUMP JUMPDEST PUSH1 0x40 MLOAD PUSH32 0x118CDAA700000000000000000000000000000000000000000000000000000000 DUP2 MSTORE PUSH1 0x4 ADD PUSH2 0x1695 SWAP2 SWAP1 PUSH2 0x2154 JUMP JUMPDEST PUSH1 0x40 MLOAD DUP1 SWAP2 SUB SWAP1 REVERT JUMPDEST JUMP JUMPDEST PUSH0 PUSH2 0x16A9 PUSH2 0x1964 JUMP JUMPDEST SWAP1 POP PUSH0 DUP2 PUSH0 ADD PUSH0 SWAP1 SLOAD SWAP1 PUSH2 0x100 EXP SWAP1 DIV PUSH20 0xFFFFFFFFFFFFFFFFFFFFFFFFFFFFFFFFFFFFFFFF AND SWAP1 POP DUP3 DUP3 PUSH0 ADD PUSH0 PUSH2 0x100 EXP DUP2 SLOAD DUP2 PUSH20 0xFFFFFFFFFFFFFFFFFFFFFFFFFFFFFFFFFFFFFFFF MUL NOT AND SWAP1 DUP4 PUSH20 0xFFFFFFFFFFFFFFFFFFFFFFFFFFFFFFFFFFFFFFFF AND MUL OR SWAP1 SSTORE POP DUP3 PUSH20 0xFFFFFFFFFFFFFFFFFFFFFFFFFFFFFFFFFFFFFFFF AND DUP2 PUSH20 0xFFFFFFFFFFFFFFFFFFFFFFFFFFFFFFFFFFFFFFFF AND PUSH32 0x8BE0079C531659141344CD1FD0A4F28419497F9722A3DAAFE3B4186F6B6457E0 PUSH1 0x40 MLOAD PUSH1 0x40 MLOAD DUP1 SWAP2 SUB SWAP1 LOG3 POP POP POP JUMP JUMPDEST PUSH0 PUSH20 0xFFFFFFFFFFFFFFFFFFFFFFFFFFFFFFFFFFFFFFFF AND DUP2 PUSH20 0xFFFFFFFFFFFFFFFFFFFFFFFFFFFFFFFFFFFFFFFF AND SUB PUSH2 0x17DF JUMPI PUSH1 0x40 MLOAD PUSH32 0x8C379A000000000000000000000000000000000000000000000000000000000 DUP2 MSTORE PUSH1 0x4 ADD PUSH2 0x17D6 SWAP1 PUSH2 0x29A1 JUMP JUMPDEST PUSH1 0x40 MLOAD DUP1 SWAP2 SUB SWAP1 REVERT JUMPDEST PUSH1 0x35 PUSH0 DUP3 PUSH20 0xFFFFFFFFFFFFFFFFFFFFFFFFFFFFFFFFFFFFFFFF AND PUSH20 0xFFFFFFFFFFFFFFFFFFFFFFFFFFFFFFFFFFFFFFFF AND DUP2 MSTORE PUSH1 0x20 ADD SWAP1 DUP2 MSTORE PUSH1 0x20 ADD PUSH0 KECCAK256 PUSH0 SWAP1 SLOAD SWAP1 PUSH2 0x100 EXP SWAP1 DIV PUSH1 0xFF AND ISZERO PUSH2 0x1869 JUMPI PUSH1 0x40 MLOAD PUSH32 0x8C379A000000000000000000000000000000000000000000000000000000000 DUP2 MSTORE PUSH1 0x4 ADD PUSH2 0x1860 SWAP1 PUSH2 0x2A09 JUMP JUMPDEST PUSH1 0x40 MLOAD DUP1 SWAP2 SUB SWAP1 REVERT JUMPDEST PUSH1 0x1 PUSH1 0x35 PUSH0 DUP4 PUSH20 0xFFFFFFFFFFFFFFFFFFFFFFFFFFFFFFFFFFFFFFFF AND PUSH20 0xFFFFFFFFFFFFFFFFFFFFFFFFFFFFFFFFFFFFFFFF AND DUP2 MSTORE PUSH1 0x20 ADD SWAP1 DUP2 MSTORE PUSH1 0x20 ADD PUSH0 KECCAK256 PUSH0 PUSH2 0x100 EXP DUP2 SLOAD DUP2 PUSH1 0xFF MUL NOT AND SWAP1 DUP4 ISZERO ISZERO MUL OR SWAP1 SSTORE POP PUSH1 0x37 DUP2 SWAP1 DUP1 PUSH1 0x1 DUP2 SLOAD ADD DUP1 DUP3 SSTORE DUP1 SWAP2 POP POP PUSH1 0x1 SWAP1 SUB SWAP1 PUSH0 MSTORE PUSH1 0x20 PUSH0 KECCAK256 ADD PUSH0 SWAP1 SWAP2 SWAP1 SWAP2 SWAP1 SWAP2 PUSH2 0x100 EXP DUP2 SLOAD DUP2 PUSH20 0xFFFFFFFFFFFFFFFFFFFFFFFFFFFFFFFFFFFFFFFF MUL NOT AND SWAP1 DUP4 PUSH20 0xFFFFFFFFFFFFFFFFFFFFFFFFFFFFFFFFFFFFFFFF AND MUL OR SWAP1 SSTORE POP DUP1 PUSH20 0xFFFFFFFFFFFFFFFFFFFFFFFFFFFFFFFFFFFFFFFF AND PUSH32 0xC17DC19A503D796A336A016F10743118DB2BDADB16AC4C19AFF0160756098635 PUSH1 0x40 MLOAD PUSH1 0x40 MLOAD DUP1 SWAP2 SUB SWAP1 LOG2 POP JUMP JUMPDEST PUSH0 PUSH32 0x9016D09D72D40FDAE2FD8CEAC6B6234C7706214FD39C1CD1E609A0528C199300 SWAP1 POP SWAP1 JUMP JUMPDEST PUSH0 PUSH0 PUSH2 0x1995 PUSH2 0x1A9A JUMP JUMPDEST SWAP1 POP DUP1 SWAP2 POP POP SWAP1 JUMP JUMPDEST PUSH2 0x19A6 PUSH2 0x1AC3 JUMP JUMPDEST PUSH2 0x19AF DUP2 PUSH2 0x1B03 JUMP JUMPDEST POP JUMP JUMPDEST PUSH2 0x19BA PUSH2 0x1AC3 JUMP JUMPDEST PUSH2 0x19C2 PUSH2 0x1B87 JUMP JUMPDEST JUMP JUMPDEST PUSH2 0x19CC PUSH2 0x1AC3 JUMP JUMPDEST JUMP JUMPDEST PUSH0 PUSH2 0x19FA PUSH32 0x360894A13BA1A3210667C828492DB98DCA3E2076CC3735A920A3CA505D382BBC PUSH0 SHL PUSH2 0x1B98 JUMP JUMPDEST PUSH0 ADD PUSH0 SWAP1 SLOAD SWAP1 PUSH2 0x100 EXP SWAP1 DIV PUSH20 0xFFFFFFFFFFFFFFFFFFFFFFFFFFFFFFFFFFFFFFFF AND SWAP1 POP SWAP1 JUMP JUMPDEST PUSH2 0x1A2A DUP3 PUSH2 0x1BA1 JUMP JUMPDEST DUP2 PUSH20 0xFFFFFFFFFFFFFFFFFFFFFFFFFFFFFFFFFFFFFFFF AND PUSH32 0xBC7CD75A20EE27FD9ADEBAB32041F755214DBC6BFFA90CC0225B39DA2E5C2D3B PUSH1 0x40 MLOAD PUSH1 0x40 MLOAD DUP1 SWAP2 SUB SWAP1 LOG2 PUSH0 DUP2 MLOAD GT ISZERO PUSH2 0x1A86 JUMPI PUSH2 0x1A80 DUP3 DUP3 PUSH2 0x1C6A JUMP JUMPDEST POP PUSH2 0x1A8F JUMP JUMPDEST PUSH2 0x1A8E PUSH2 0x1CEA JUMP JUMPDEST JUMPDEST POP POP JUMP JUMPDEST PUSH0 CALLER SWAP1 POP SWAP1 JUMP JUMPDEST PUSH0 PUSH32 0xF0C57E16840DF040F15088DC2F81FE391C3923BEC73E23A9662EFC9C229C6A00 PUSH0 SHL SWAP1 POP SWAP1 JUMP JUMPDEST PUSH2 0x1ACB PUSH2 0x1D26 JUMP JUMPDEST PUSH2 0x1B01 JUMPI PUSH1 0x40 MLOAD PUSH32 0xD7E6BCF800000000000000000000000000000000000000000000000000000000 DUP2 MSTORE PUSH1 0x4 ADD PUSH1 0x40 MLOAD DUP1 SWAP2 SUB SWAP1 REVERT JUMPDEST JUMP JUMPDEST PUSH2 0x1B0B PUSH2 0x1AC3 JUMP JUMPDEST PUSH0 PUSH20 0xFFFFFFFFFFFFFFFFFFFFFFFFFFFFFFFFFFFFFFFF AND DUP2 PUSH20 0xFFFFFFFFFFFFFFFFFFFFFFFFFFFFFFFFFFFFFFFF AND SUB PUSH2 0x1B7B JUMPI PUSH0 PUSH1 0x40 MLOAD PUSH32 0x1E4FBDF700000000000000000000000000000000000000000000000000000000 DUP2 MSTORE PUSH1 0x4 ADD PUSH2 0x1B72 SWAP2 SWAP1 PUSH2 0x2154 JUMP JUMPDEST PUSH1 0x40 MLOAD DUP1 SWAP2 SUB SWAP1 REVERT JUMPDEST PUSH2 0x1B84 DUP2 PUSH2 0x16A0 JUMP JUMPDEST POP JUMP JUMPDEST PUSH2 0x1B8F PUSH2 0x1AC3 JUMP JUMPDEST PUSH1 0x1 PUSH0 DUP2 SWAP1 SSTORE POP JUMP JUMPDEST PUSH0 DUP2 SWAP1 POP SWAP2 SWAP1 POP JUMP JUMPDEST PUSH0 DUP2 PUSH20 0xFFFFFFFFFFFFFFFFFFFFFFFFFFFFFFFFFFFFFFFF AND EXTCODESIZE SUB PUSH2 0x1BFC JUMPI DUP1 PUSH1 0x40 MLOAD PUSH32 0x4C9C8CE300000000000000000000000000000000000000000000000000000000 DUP2 MSTORE PUSH1 0x4 ADD PUSH2 0x1BF3 SWAP2 SWAP1 PUSH2 0x2154 JUMP JUMPDEST PUSH1 0x40 MLOAD DUP1 SWAP2 SUB SWAP1 REVERT JUMPDEST DUP1 PUSH2 0x1C28 PUSH32 0x360894A13BA1A3210667C828492DB98DCA3E2076CC3735A920A3CA505D382BBC PUSH0 SHL PUSH2 0x1B98 JUMP JUMPDEST PUSH0 ADD PUSH0 PUSH2 0x100 EXP DUP2 SLOAD DUP2 PUSH20 0xFFFFFFFFFFFFFFFFFFFFFFFFFFFFFFFFFFFFFFFF MUL NOT AND SWAP1 DUP4 PUSH20 0xFFFFFFFFFFFFFFFFFFFFFFFFFFFFFFFFFFFFFFFF AND MUL OR SWAP1 SSTORE POP POP JUMP JUMPDEST PUSH1 0x60 PUSH0 PUSH0 DUP5 PUSH20 0xFFFFFFFFFFFFFFFFFFFFFFFFFFFFFFFFFFFFFFFF AND DUP5 PUSH1 0x40 MLOAD PUSH2 0x1C93 SWAP2 SWAP1 PUSH2 0x2A61 JUMP JUMPDEST PUSH0 PUSH1 0x40 MLOAD DUP1 DUP4 SUB DUP2 DUP6 GAS DELEGATECALL SWAP2 POP POP RETURNDATASIZE DUP1 PUSH0 DUP2 EQ PUSH2 0x1CCB JUMPI PUSH1 0x40 MLOAD SWAP2 POP PUSH1 0x1F NOT PUSH1 0x3F RETURNDATASIZE ADD AND DUP3 ADD PUSH1 0x40 MSTORE RETURNDATASIZE DUP3 MSTORE RETURNDATASIZE PUSH0 PUSH1 0x20 DUP5 ADD RETURNDATACOPY PUSH2 0x1CD0 JUMP JUMPDEST PUSH1 0x60 SWAP2 POP JUMPDEST POP SWAP2 POP SWAP2 POP PUSH2 0x1CE0 DUP6 DUP4 DUP4 PUSH2 0x1D44 JUMP JUMPDEST SWAP3 POP POP POP SWAP3 SWAP2 POP POP JUMP JUMPDEST PUSH0 CALLVALUE GT ISZERO PUSH2 0x1D24 JUMPI PUSH1 0x40 MLOAD PUSH32 0xB398979F00000000000000000000000000000000000000000000000000000000 DUP2 MSTORE PUSH1 0x4 ADD PUSH1 0x40 MLOAD DUP1 SWAP2 SUB SWAP1 REVERT JUMPDEST JUMP JUMPDEST PUSH0 PUSH2 0x1D2F PUSH2 0x198B JUMP JUMPDEST PUSH0 ADD PUSH1 0x8 SWAP1 SLOAD SWAP1 PUSH2 0x100 EXP SWAP1 DIV PUSH1 0xFF AND SWAP1 POP SWAP1 JUMP JUMPDEST PUSH1 0x60 DUP3 PUSH2 0x1D59 JUMPI PUSH2 0x1D54 DUP3 PUSH2 0x1DD1 JUMP JUMPDEST PUSH2 0x1DC9 JUMP JUMPDEST PUSH0 DUP3 MLOAD EQ DUP1 ISZERO PUSH2 0x1D7F JUMPI POP PUSH0 DUP5 PUSH20 0xFFFFFFFFFFFFFFFFFFFFFFFFFFFFFFFFFFFFFFFF AND EXTCODESIZE EQ JUMPDEST ISZERO PUSH2 0x1DC1 JUMPI DUP4 PUSH1 0x40 MLOAD PUSH32 0x9996B31500000000000000000000000000000000000000000000000000000000 DUP2 MSTORE PUSH1 0x4 ADD PUSH2 0x1DB8 SWAP2 SWAP1 PUSH2 0x2154 JUMP JUMPDEST PUSH1 0x40 MLOAD DUP1 SWAP2 SUB SWAP1 REVERT JUMPDEST DUP2 SWAP1 POP PUSH2 0x1DCA JUMP JUMPDEST JUMPDEST SWAP4 SWAP3 POP POP POP JUMP JUMPDEST PUSH0 DUP2 MLOAD GT ISZERO PUSH2 0x1DE2 JUMPI DUP1 MLOAD PUSH1 0x20 DUP3 ADD REVERT JUMPDEST PUSH1 0x40 MLOAD PUSH32 0xD6BDA27500000000000000000000000000000000000000000000000000000000 DUP2 MSTORE PUSH1 0x4 ADD PUSH1 0x40 MLOAD DUP1 SWAP2 SUB SWAP1 REVERT JUMPDEST PUSH0 DUP2 SWAP1 POP SWAP2 SWAP1 POP JUMP JUMPDEST PUSH2 0x1E26 DUP2 PUSH2 0x1E14 JUMP JUMPDEST DUP3 MSTORE POP POP JUMP JUMPDEST PUSH0 PUSH1 0x20 DUP3 ADD SWAP1 POP PUSH2 0x1E3F PUSH0 DUP4 ADD DUP5 PUSH2 0x1E1D JUMP JUMPDEST SWAP3 SWAP2 POP POP JUMP JUMPDEST PUSH0 PUSH1 0x40 MLOAD SWAP1 POP SWAP1 JUMP JUMPDEST PUSH0 PUSH0 REVERT JUMPDEST PUSH0 PUSH0 REVERT JUMPDEST PUSH0 PUSH20 0xFFFFFFFFFFFFFFFFFFFFFFFFFFFFFFFFFFFFFFFF DUP3 AND SWAP1 POP SWAP2 SWAP1 POP JUMP JUMPDEST PUSH0 PUSH2 0x1E7F DUP3 PUSH2 0x1E56 JUMP JUMPDEST SWAP1 POP SWAP2 SWAP1 POP JUMP JUMPDEST PUSH2 0x1E8F DUP2 PUSH2 0x1E75 JUMP JUMPDEST DUP2 EQ PUSH2 0x1E99 JUMPI PUSH0 PUSH0 REVERT JUMPDEST POP JUMP JUMPDEST PUSH0 DUP2 CALLDATALOAD SWAP1 POP PUSH2 0x1EAA DUP2 PUSH2 0x1E86 JUMP JUMPDEST SWAP3 SWAP2 POP POP JUMP JUMPDEST PUSH0 PUSH1 0x20 DUP3 DUP5 SUB SLT ISZERO PUSH2 0x1EC5 JUMPI PUSH2 0x1EC4 PUSH2 0x1E4E JUMP JUMPDEST JUMPDEST PUSH0 PUSH2 0x1ED2 DUP5 DUP3 DUP6 ADD PUSH2 0x1E9C JUMP JUMPDEST SWAP2 POP POP SWAP3 SWAP2 POP POP JUMP JUMPDEST PUSH0 PUSH2 0x1EE5 DUP3 PUSH2 0x1E56 JUMP JUMPDEST SWAP1 POP SWAP2 SWAP1 POP JUMP JUMPDEST PUSH2 0x1EF5 DUP2 PUSH2 0x1EDB JUMP JUMPDEST DUP2 EQ PUSH2 0x1EFF JUMPI PUSH0 PUSH0 REVERT JUMPDEST POP JUMP JUMPDEST PUSH0 DUP2 CALLDATALOAD SWAP1 POP PUSH2 0x1F10 DUP2 PUSH2 0x1EEC JUMP JUMPDEST SWAP3 SWAP2 POP POP JUMP JUMPDEST PUSH2 0x1F1F DUP2 PUSH2 0x1E14 JUMP JUMPDEST DUP2 EQ PUSH2 0x1F29 JUMPI PUSH0 PUSH0 REVERT JUMPDEST POP JUMP JUMPDEST PUSH0 DUP2 CALLDATALOAD SWAP1 POP PUSH2 0x1F3A DUP2 PUSH2 0x1F16 JUMP JUMPDEST SWAP3 SWAP2 POP POP JUMP JUMPDEST PUSH0 PUSH0 PUSH1 0x40 DUP4 DUP6 SUB SLT ISZERO PUSH2 0x1F56 JUMPI PUSH2 0x1F55 PUSH2 0x1E4E JUMP JUMPDEST JUMPDEST PUSH0 PUSH2 0x1F63 DUP6 DUP3 DUP7 ADD PUSH2 0x1F02 JUMP JUMPDEST SWAP3 POP POP PUSH1 0x20 PUSH2 0x1F74 DUP6 DUP3 DUP7 ADD PUSH2 0x1F2C JUMP JUMPDEST SWAP2 POP POP SWAP3 POP SWAP3 SWAP1 POP JUMP JUMPDEST PUSH0 PUSH0 REVERT JUMPDEST PUSH0 PUSH0 REVERT JUMPDEST PUSH0 PUSH1 0x1F NOT PUSH1 0x1F DUP4 ADD AND SWAP1 POP SWAP2 SWAP1 POP JUMP JUMPDEST PUSH32 0x4E487B7100000000000000000000000000000000000000000000000000000000 PUSH0 MSTORE PUSH1 0x41 PUSH1 0x4 MSTORE PUSH1 0x24 PUSH0 REVERT JUMPDEST PUSH2 0x1FCC DUP3 PUSH2 0x1F86 JUMP JUMPDEST DUP2 ADD DUP2 DUP2 LT PUSH8 0xFFFFFFFFFFFFFFFF DUP3 GT OR ISZERO PUSH2 0x1FEB JUMPI PUSH2 0x1FEA PUSH2 0x1F96 JUMP JUMPDEST JUMPDEST DUP1 PUSH1 0x40 MSTORE POP POP POP JUMP JUMPDEST PUSH0 PUSH2 0x1FFD PUSH2 0x1E45 JUMP JUMPDEST SWAP1 POP PUSH2 0x2009 DUP3 DUP3 PUSH2 0x1FC3 JUMP JUMPDEST SWAP2 SWAP1 POP JUMP JUMPDEST PUSH0 PUSH8 0xFFFFFFFFFFFFFFFF DUP3 GT ISZERO PUSH2 0x2028 JUMPI PUSH2 0x2027 PUSH2 0x1F96 JUMP JUMPDEST JUMPDEST PUSH2 0x2031 DUP3 PUSH2 0x1F86 JUMP JUMPDEST SWAP1 POP PUSH1 0x20 DUP2 ADD SWAP1 POP SWAP2 SWAP1 POP JUMP JUMPDEST DUP3 DUP2 DUP4 CALLDATACOPY PUSH0 DUP4 DUP4 ADD MSTORE POP POP POP JUMP JUMPDEST PUSH0 PUSH2 0x205E PUSH2 0x2059 DUP5 PUSH2 0x200E JUMP JUMPDEST PUSH2 0x1FF4 JUMP JUMPDEST SWAP1 POP DUP3 DUP2 MSTORE PUSH1 0x20 DUP2 ADD DUP5 DUP5 DUP5 ADD GT ISZERO PUSH2 0x207A JUMPI PUSH2 0x2079 PUSH2 0x1F82 JUMP JUMPDEST JUMPDEST PUSH2 0x2085 DUP5 DUP3 DUP6 PUSH2 0x203E JUMP JUMPDEST POP SWAP4 SWAP3 POP POP POP JUMP JUMPDEST PUSH0 DUP3 PUSH1 0x1F DUP4 ADD SLT PUSH2 0x20A1 JUMPI PUSH2 0x20A0 PUSH2 0x1F7E JUMP JUMPDEST JUMPDEST DUP2 CALLDATALOAD PUSH2 0x20B1 DUP5 DUP3 PUSH1 0x20 DUP7 ADD PUSH2 0x204C JUMP JUMPDEST SWAP2 POP POP SWAP3 SWAP2 POP POP JUMP JUMPDEST PUSH0 PUSH0 PUSH1 0x40 DUP4 DUP6 SUB SLT ISZERO PUSH2 0x20D0 JUMPI PUSH2 0x20CF PUSH2 0x1E4E JUMP JUMPDEST JUMPDEST PUSH0 PUSH2 0x20DD DUP6 DUP3 DUP7 ADD PUSH2 0x1E9C JUMP JUMPDEST SWAP3 POP POP PUSH1 0x20 DUP4 ADD CALLDATALOAD PUSH8 0xFFFFFFFFFFFFFFFF DUP2 GT ISZERO PUSH2 0x20FE JUMPI PUSH2 0x20FD PUSH2 0x1E52 JUMP JUMPDEST JUMPDEST PUSH2 0x210A DUP6 DUP3 DUP7 ADD PUSH2 0x208D JUMP JUMPDEST SWAP2 POP POP SWAP3 POP SWAP3 SWAP1 POP JUMP JUMPDEST PUSH0 DUP2 SWAP1 POP SWAP2 SWAP1 POP JUMP JUMPDEST PUSH2 0x2126 DUP2 PUSH2 0x2114 JUMP JUMPDEST DUP3 MSTORE POP POP JUMP JUMPDEST PUSH0 PUSH1 0x20 DUP3 ADD SWAP1 POP PUSH2 0x213F PUSH0 DUP4 ADD DUP5 PUSH2 0x211D JUMP JUMPDEST SWAP3 SWAP2 POP POP JUMP JUMPDEST PUSH2 0x214E DUP2 PUSH2 0x1E75 JUMP JUMPDEST DUP3 MSTORE POP POP JUMP JUMPDEST PUSH0 PUSH1 0x20 DUP3 ADD SWAP1 POP PUSH2 0x2167 PUSH0 DUP4 ADD DUP5 PUSH2 0x2145 JUMP JUMPDEST SWAP3 SWAP2 POP POP JUMP JUMPDEST PUSH0 DUP2 MLOAD SWAP1 POP SWAP2 SWAP1 POP JUMP JUMPDEST PUSH0 DUP3 DUP3 MSTORE PUSH1 0x20 DUP3 ADD SWAP1 POP SWAP3 SWAP2 POP POP JUMP JUMPDEST DUP3 DUP2 DUP4 MCOPY PUSH0 DUP4 DUP4 ADD MSTORE POP POP POP JUMP JUMPDEST PUSH0 PUSH2 0x219F DUP3 PUSH2 0x216D JUMP JUMPDEST PUSH2 0x21A9 DUP2 DUP6 PUSH2 0x2177 JUMP JUMPDEST SWAP4 POP PUSH2 0x21B9 DUP2 DUP6 PUSH1 0x20 DUP7 ADD PUSH2 0x2187 JUMP JUMPDEST PUSH2 0x21C2 DUP2 PUSH2 0x1F86 JUMP JUMPDEST DUP5 ADD SWAP2 POP POP SWAP3 SWAP2 POP POP JUMP JUMPDEST PUSH0 PUSH1 0x20 DUP3 ADD SWAP1 POP DUP2 DUP2 SUB PUSH0 DUP4 ADD MSTORE PUSH2 0x21E5 DUP2 DUP5 PUSH2 0x2195 JUMP JUMPDEST SWAP1 POP SWAP3 SWAP2 POP POP JUMP JUMPDEST PUSH0 PUSH0 REVERT JUMPDEST PUSH0 PUSH0 REVERT JUMPDEST PUSH0 PUSH0 DUP4 PUSH1 0x1F DUP5 ADD SLT PUSH2 0x220A JUMPI PUSH2 0x2209 PUSH2 0x1F7E JUMP JUMPDEST JUMPDEST DUP3 CALLDATALOAD SWAP1 POP PUSH8 0xFFFFFFFFFFFFFFFF DUP2 GT ISZERO PUSH2 0x2227 JUMPI PUSH2 0x2226 PUSH2 0x21ED JUMP JUMPDEST JUMPDEST PUSH1 0x20 DUP4 ADD SWAP2 POP DUP4 PUSH1 0x20 DUP3 MUL DUP4 ADD GT ISZERO PUSH2 0x2243 JUMPI PUSH2 0x2242 PUSH2 0x21F1 JUMP JUMPDEST JUMPDEST SWAP3 POP SWAP3 SWAP1 POP JUMP JUMPDEST PUSH0 PUSH0 PUSH1 0x20 DUP4 DUP6 SUB SLT ISZERO PUSH2 0x2260 JUMPI PUSH2 0x225F PUSH2 0x1E4E JUMP JUMPDEST JUMPDEST PUSH0 DUP4 ADD CALLDATALOAD PUSH8 0xFFFFFFFFFFFFFFFF DUP2 GT ISZERO PUSH2 0x227D JUMPI PUSH2 0x227C PUSH2 0x1E52 JUMP JUMPDEST JUMPDEST PUSH2 0x2289 DUP6 DUP3 DUP7 ADD PUSH2 0x21F5 JUMP JUMPDEST SWAP3 POP SWAP3 POP POP SWAP3 POP SWAP3 SWAP1 POP JUMP JUMPDEST PUSH0 DUP2 ISZERO ISZERO SWAP1 POP SWAP2 SWAP1 POP JUMP JUMPDEST PUSH2 0x22A9 DUP2 PUSH2 0x2295 JUMP JUMPDEST DUP3 MSTORE POP POP JUMP JUMPDEST PUSH0 PUSH1 0x20 DUP3 ADD SWAP1 POP PUSH2 0x22C2 PUSH0 DUP4 ADD DUP5 PUSH2 0x22A0 JUMP JUMPDEST SWAP3 SWAP2 POP POP JUMP JUMPDEST PUSH0 PUSH1 0x20 DUP3 DUP5 SUB SLT ISZERO PUSH2 0x22DD JUMPI PUSH2 0x22DC PUSH2 0x1E4E JUMP JUMPDEST JUMPDEST PUSH0 PUSH2 0x22EA DUP5 DUP3 DUP6 ADD PUSH2 0x1F2C JUMP JUMPDEST SWAP2 POP POP SWAP3 SWAP2 POP POP JUMP JUMPDEST PUSH32 0x43686172697479206E6F7420616C6C6F77656400000000000000000000000000 PUSH0 DUP3 ADD MSTORE POP JUMP JUMPDEST PUSH0 PUSH2 0x2327 PUSH1 0x13 DUP4 PUSH2 0x2177 JUMP JUMPDEST SWAP2 POP PUSH2 0x2332 DUP3 PUSH2 0x22F3 JUMP JUMPDEST PUSH1 0x20 DUP3 ADD SWAP1 POP SWAP2 SWAP1 POP JUMP JUMPDEST PUSH0 PUSH1 0x20 DUP3 ADD SWAP1 POP DUP2 DUP2 SUB PUSH0 DUP4 ADD MSTORE PUSH2 0x2354 DUP2 PUSH2 0x231B JUMP JUMPDEST SWAP1 POP SWAP2 SWAP1 POP JUMP JUMPDEST PUSH32 0x446F6E6174696F6E20746F6F20736D616C6C0000000000000000000000000000 PUSH0 DUP3 ADD MSTORE POP JUMP JUMPDEST PUSH0 PUSH2 0x238F PUSH1 0x12 DUP4 PUSH2 0x2177 JUMP JUMPDEST SWAP2 POP PUSH2 0x239A DUP3 PUSH2 0x235B JUMP JUMPDEST PUSH1 0x20 DUP3 ADD SWAP1 POP SWAP2 SWAP1 POP JUMP JUMPDEST PUSH0 PUSH1 0x20 DUP3 ADD SWAP1 POP DUP2 DUP2 SUB PUSH0 DUP4 ADD MSTORE PUSH2 0x23BC DUP2 PUSH2 0x2383 JUMP JUMPDEST SWAP1 POP SWAP2 SWAP1 POP JUMP JUMPDEST PUSH32 0x4E487B7100000000000000000000000000000000000000000000000000000000 PUSH0 MSTORE PUSH1 0x11 PUSH1 0x4 MSTORE PUSH1 0x24 PUSH0 REVERT JUMPDEST PUSH0 PUSH2 0x23FA DUP3 PUSH2 0x1E14 JUMP JUMPDEST SWAP2 POP PUSH2 0x2405 DUP4 PUSH2 0x1E14 JUMP JUMPDEST SWAP3 POP DUP3 DUP3 ADD SWAP1 POP DUP1 DUP3 GT ISZERO PUSH2 0x241D JUMPI PUSH2 0x241C PUSH2 0x23C3 JUMP JUMPDEST JUMPDEST SWAP3 SWAP2 POP POP JUMP JUMPDEST PUSH32 0x4F6E6C7920636861726974790000000000000000000000000000000000000000 PUSH0 DUP3 ADD MSTORE POP JUMP JUMPDEST PUSH0 PUSH2 0x2457 PUSH1 0xC DUP4 PUSH2 0x2177 JUMP JUMPDEST SWAP2 POP PUSH2 0x2462 DUP3 PUSH2 0x2423 JUMP JUMPDEST PUSH1 0x20 DUP3 ADD SWAP1 POP SWAP2 SWAP1 POP JUMP JUMPDEST PUSH0 PUSH1 0x20 DUP3 ADD SWAP1 POP DUP2 DUP2 SUB PUSH0 DUP4 ADD MSTORE PUSH2 0x2484 DUP2 PUSH2 0x244B JUMP JUMPDEST SWAP1 POP SWAP2 SWAP1 POP JUMP JUMPDEST PUSH32 0x496E76616C696420726563697069656E74000000000000000000000000000000 PUSH0 DUP3 ADD MSTORE POP JUMP JUMPDEST PUSH0 PUSH2 0x24BF PUSH1 0x11 DUP4 PUSH2 0x2177 JUMP JUMPDEST SWAP2 POP PUSH2 0x24CA DUP3 PUSH2 0x248B JUMP JUMPDEST PUSH1 0x20 DUP3 ADD SWAP1 POP SWAP2 SWAP1 POP JUMP JUMPDEST PUSH0 PUSH1 0x20 DUP3 ADD SWAP1 POP DUP2 DUP2 SUB PUSH0 DUP4 ADD MSTORE PUSH2 0x24EC DUP2 PUSH2 0x24B3 JUMP JUMPDEST SWAP1 POP SWAP2 SWAP1 POP JUMP JUMPDEST PUSH32 0x416D6F756E74206D757374206265203E20300000000000000000000000000000 PUSH0 DUP3 ADD MSTORE POP JUMP JUMPDEST PUSH0 PUSH2 0x2527 PUSH1 0x12 DUP4 PUSH2 0x2177 JUMP JUMPDEST SWAP2 POP PUSH2 0x2532 DUP3 PUSH2 0x24F3 JUMP JUMPDEST PUSH1 0x20 DUP3 ADD SWAP1 POP SWAP2 SWAP1 POP JUMP JUMPDEST PUSH0 PUSH1 0x20 DUP3 ADD SWAP1 POP DUP2 DUP2 SUB PUSH0 DUP4 ADD MSTORE PUSH2 0x2554 DUP2 PUSH2 0x251B JUMP JUMPDEST SWAP1 POP SWAP2 SWAP1 POP JUMP JUMPDEST PUSH32 0x4E6F7420656E6F75676820616C6C6F6361746564000000000000000000000000 PUSH0 DUP3 ADD MSTORE POP JUMP JUMPDEST PUSH0 PUSH2 0x258F PUSH1 0x14 DUP4 PUSH2 0x2177 JUMP JUMPDEST SWAP2 POP PUSH2 0x259A DUP3 PUSH2 0x255B JUMP JUMPDEST PUSH1 0x20 DUP3 ADD SWAP1 POP SWAP2 SWAP1 POP JUMP JUMPDEST PUSH0 PUSH1 0x20 DUP3 ADD SWAP1 POP DUP2 DUP2 SUB PUSH0 DUP4 ADD MSTORE PUSH2 0x25BC DUP2 PUSH2 0x2583 JUMP JUMPDEST SWAP1 POP SWAP2 SWAP1 POP JUMP JUMPDEST PUSH0 PUSH2 0x25CD DUP3 PUSH2 0x1E14 JUMP JUMPDEST SWAP2 POP PUSH2 0x25D8 DUP4 PUSH2 0x1E14 JUMP JUMPDEST SWAP3 POP DUP3 DUP3 SUB SWAP1 POP DUP2 DUP2 GT ISZERO PUSH2 0x25F0 JUMPI PUSH2 0x25EF PUSH2 0x23C3 JUMP JUMPDEST JUMPDEST SWAP3 SWAP2 POP POP JUMP JUMPDEST PUSH0 DUP2 SWAP1 POP SWAP3 SWAP2 POP POP JUMP JUMPDEST POP JUMP JUMPDEST PUSH0 PUSH2 0x260E PUSH0 DUP4 PUSH2 0x25F6 JUMP JUMPDEST SWAP2 POP PUSH2 0x2619 DUP3 PUSH2 0x2600 JUMP JUMPDEST PUSH0 DUP3 ADD SWAP1 POP SWAP2 SWAP1 POP JUMP JUMPDEST PUSH0 PUSH2 0x262D DUP3 PUSH2 0x2603 JUMP JUMPDEST SWAP2 POP DUP2 SWAP1 POP SWAP2 SWAP1 POP JUMP JUMPDEST PUSH32 0x5472616E73666572206661696C65640000000000000000000000000000000000 PUSH0 DUP3 ADD MSTORE POP JUMP JUMPDEST PUSH0 PUSH2 0x266B PUSH1 0xF DUP4 PUSH2 0x2177 JUMP JUMPDEST SWAP2 POP PUSH2 0x2676 DUP3 PUSH2 0x2637 JUMP JUMPDEST PUSH1 0x20 DUP3 ADD SWAP1 POP SWAP2 SWAP1 POP JUMP JUMPDEST PUSH0 PUSH1 0x20 DUP3 ADD SWAP1 POP DUP2 DUP2 SUB PUSH0 DUP4 ADD MSTORE PUSH2 0x2698 DUP2 PUSH2 0x265F JUMP JUMPDEST SWAP1 POP SWAP2 SWAP1 POP JUMP JUMPDEST PUSH32 0x4E6F742061206368617269747900000000000000000000000000000000000000 PUSH0 DUP3 ADD MSTORE POP JUMP JUMPDEST PUSH0 PUSH2 0x26D3 PUSH1 0xD DUP4 PUSH2 0x2177 JUMP JUMPDEST SWAP2 POP PUSH2 0x26DE DUP3 PUSH2 0x269F JUMP JUMPDEST PUSH1 0x20 DUP3 ADD SWAP1 POP SWAP2 SWAP1 POP JUMP JUMPDEST PUSH0 PUSH1 0x20 DUP3 ADD SWAP1 POP DUP2 DUP2 SUB PUSH0 DUP4 ADD MSTORE PUSH2 0x2700 DUP2 PUSH2 0x26C7 JUMP JUMPDEST SWAP1 POP SWAP2 SWAP1 POP JUMP JUMPDEST PUSH32 0x4E487B7100000000000000000000000000000000000000000000000000000000 PUSH0 MSTORE PUSH1 0x32 PUSH1 0x4 MSTORE PUSH1 0x24 PUSH0 REVERT JUMPDEST PUSH0 PUSH8 0xFFFFFFFFFFFFFFFF DUP3 AND SWAP1 POP SWAP2 SWAP1 POP JUMP JUMPDEST PUSH2 0x2750 DUP2 PUSH2 0x2734 JUMP JUMPDEST DUP3 MSTORE POP POP JUMP JUMPDEST PUSH0 PUSH1 0x20 DUP3 ADD SWAP1 POP PUSH2 0x2769 PUSH0 DUP4 ADD DUP5 PUSH2 0x2747 JUMP JUMPDEST SWAP3 SWAP2 POP POP JUMP JUMPDEST PUSH32 0x4E6F7420656E6F75676820455448000000000000000000000000000000000000 PUSH0 DUP3 ADD MSTORE POP JUMP JUMPDEST PUSH0 PUSH2 0x27A3 PUSH1 0xE DUP4 PUSH2 0x2177 JUMP JUMPDEST SWAP2 POP PUSH2 0x27AE DUP3 PUSH2 0x276F JUMP JUMPDEST PUSH1 0x20 DUP3 ADD SWAP1 POP SWAP2 SWAP1 POP JUMP JUMPDEST PUSH0 PUSH1 0x20 DUP3 ADD SWAP1 POP DUP2 DUP2 SUB PUSH0 DUP4 ADD MSTORE PUSH2 0x27D0 DUP2 PUSH2 0x2797 JUMP JUMPDEST SWAP1 POP SWAP2 SWAP1 POP JUMP JUMPDEST PUSH32 0x4D696E20646F6E6174696F6E206D757374206265203E20300000000000000000 PUSH0 DUP3 ADD MSTORE POP JUMP JUMPDEST PUSH0 PUSH2 0x280B PUSH1 0x18 DUP4 PUSH2 0x2177 JUMP JUMPDEST SWAP2 POP PUSH2 0x2816 DUP3 PUSH2 0x27D7 JUMP JUMPDEST PUSH1 0x20 DUP3 ADD SWAP1 POP SWAP2 SWAP1 POP JUMP JUMPDEST PUSH0 PUSH1 0x20 DUP3 ADD SWAP1 POP DUP2 DUP2 SUB PUSH0 DUP4 ADD MSTORE PUSH2 0x2838 DUP2 PUSH2 0x27FF JUMP JUMPDEST SWAP1 POP SWAP2 SWAP1 POP JUMP JUMPDEST PUSH0 DUP2 SWAP1 POP SWAP2 SWAP1 POP JUMP JUMPDEST PUSH0 DUP2 SWAP1 POP SWAP2 SWAP1 POP JUMP JUMPDEST PUSH0 PUSH2 0x286B PUSH2 0x2866 PUSH2 0x2861 DUP5 PUSH2 0x283F JUMP JUMPDEST PUSH2 0x2848 JUMP JUMPDEST PUSH2 0x2734 JUMP JUMPDEST SWAP1 POP SWAP2 SWAP1 POP JUMP JUMPDEST PUSH2 0x287B DUP2 PUSH2 0x2851 JUMP JUMPDEST DUP3 MSTORE POP POP JUMP JUMPDEST PUSH0 PUSH1 0x20 DUP3 ADD SWAP1 POP PUSH2 0x2894 PUSH0 DUP4 ADD DUP5 PUSH2 0x2872 JUMP JUMPDEST SWAP3 SWAP2 POP POP JUMP JUMPDEST PUSH32 0x5265656E7472616E637947756172643A207265656E7472616E742063616C6C00 PUSH0 DUP3 ADD MSTORE POP JUMP JUMPDEST PUSH0 PUSH2 0x28CE PUSH1 0x1F DUP4 PUSH2 0x2177 JUMP JUMPDEST SWAP2 POP PUSH2 0x28D9 DUP3 PUSH2 0x289A JUMP JUMPDEST PUSH1 0x20 DUP3 ADD SWAP1 POP SWAP2 SWAP1 POP JUMP JUMPDEST PUSH0 PUSH1 0x20 DUP3 ADD SWAP1 POP DUP2 DUP2 SUB PUSH0 DUP4 ADD MSTORE PUSH2 0x28FB DUP2 PUSH2 0x28C2 JUMP JUMPDEST SWAP1 POP SWAP2 SWAP1 POP JUMP JUMPDEST PUSH2 0x290B DUP2 PUSH2 0x2114 JUMP JUMPDEST DUP2 EQ PUSH2 0x2915 JUMPI PUSH0 PUSH0 REVERT JUMPDEST POP JUMP JUMPDEST PUSH0 DUP2 MLOAD SWAP1 POP PUSH2 0x2926 DUP2 PUSH2 0x2902 JUMP JUMPDEST SWAP3 SWAP2 POP POP JUMP JUMPDEST PUSH0 PUSH1 0x20 DUP3 DUP5 SUB SLT ISZERO PUSH2 0x2941 JUMPI PUSH2 0x2940 PUSH2 0x1E4E JUMP JUMPDEST JUMPDEST PUSH0 PUSH2 0x294E DUP5 DUP3 DUP6 ADD PUSH2 0x2918 JUMP JUMPDEST SWAP2 POP POP SWAP3 SWAP2 POP POP JUMP JUMPDEST PUSH32 0x496E76616C696420636861726974790000000000000000000000000000000000 PUSH0 DUP3 ADD MSTORE POP JUMP JUMPDEST PUSH0 PUSH2 0x298B PUSH1 0xF DUP4 PUSH2 0x2177 JUMP JUMPDEST SWAP2 POP PUSH2 0x2996 DUP3 PUSH2 0x2957 JUMP JUMPDEST PUSH1 0x20 DUP3 ADD SWAP1 POP SWAP2 SWAP1 POP JUMP JUMPDEST PUSH0 PUSH1 0x20 DUP3 ADD SWAP1 POP DUP2 DUP2 SUB PUSH0 DUP4 ADD MSTORE PUSH2 0x29B8 DUP2 PUSH2 0x297F JUMP JUMPDEST SWAP1 POP SWAP2 SWAP1 POP JUMP JUMPDEST PUSH32 0x416C726561647920636861726974790000000000000000000000000000000000 PUSH0 DUP3 ADD MSTORE POP JUMP JUMPDEST PUSH0 PUSH2 0x29F3 PUSH1 0xF DUP4 PUSH2 0x2177 JUMP JUMPDEST SWAP2 POP PUSH2 0x29FE DUP3 PUSH2 0x29BF JUMP JUMPDEST PUSH1 0x20 DUP3 ADD SWAP1 POP SWAP2 SWAP1 POP JUMP JUMPDEST PUSH0 PUSH1 0x20 DUP3 ADD SWAP1 POP DUP2 DUP2 SUB PUSH0 DUP4 ADD MSTORE PUSH2 0x2A20 DUP2 PUSH2 0x29E7 JUMP JUMPDEST SWAP1 POP SWAP2 SWAP1 POP JUMP JUMPDEST PUSH0 DUP2 MLOAD SWAP1 POP SWAP2 SWAP1 POP JUMP JUMPDEST PUSH0 PUSH2 0x2A3B DUP3 PUSH2 0x2A27 JUMP JUMPDEST PUSH2 0x2A45 DUP2 DUP6 PUSH2 0x25F6 JUMP JUMPDEST SWAP4 POP PUSH2 0x2A55 DUP2 DUP6 PUSH1 0x20 DUP7 ADD PUSH2 0x2187 JUMP JUMPDEST DUP1 DUP5 ADD SWAP2 POP POP SWAP3 SWAP2 POP POP JUMP JUMPDEST PUSH0 PUSH2 0x2A6C DUP3 DUP5 PUSH2 0x2A31 JUMP JUMPDEST SWAP2 POP DUP2 SWAP1 POP SWAP3 SWAP2 POP POP JUMP INVALID LOG2 PUSH5 0x6970667358 0x22 SLT KECCAK256 SWAP5 LOG1 0xC2 SLT EXP CALL SWAP1 0xDA ISZERO 0xCC 0xC 0xB3 0xB7 0xA9 0xD4 0xAC RETURN RJUMPI 0x8944 SSTORE SWAP14 0xE8 DUPN 0x26 SWAP11 SWAP3 OR RETURNCONTRACT 0x17 0xCC 0xA5 PUSH5 0x736F6C6343 STOP ADDMOD 0x1F STOP CALLER "
				},
				"gasEstimates": {
					"creation": {
						"codeDepositCost": "2185000",
						"executionCost": "infinite",
						"totalCost": "infinite"
					},
					"external": {
						"UPGRADE_INTERFACE_VERSION()": "infinite",
						"addCharity(address)": "infinite",
						"charities(uint256)": "5054",
						"charitiesCount()": "2463",
						"charityBalanceWei(address)": "2847",
						"donate()": "infinite",
						"donateToCharity(address)": "infinite",
						"donatedBy(address)": "2869",
						"initialize(uint256)": "infinite",
						"initializeV2(address[])": "infinite",
						"isCharity(address)": "2944",
						"minDonationWei()": "2447",
						"owner()": "2633",
						"proxiableUUID()": "infinite",
						"removeCharity(address)": "infinite",
						"renounceOwnership()": "infinite",
						"totalDonated()": "2449",
						"transferOwnership(address)": "infinite",
						"upgradeToAndCall(address,bytes)": "infinite",
						"withdraw(address,uint256)": "infinite",
						"withdrawMyFunds(address,uint256)": "infinite"
					},
					"internal": {
						"_addCharity(address)": "infinite"
					}
				},
				"methodIdentifiers": {
					"UPGRADE_INTERFACE_VERSION()": "ad3cb1cc",
					"addCharity(address)": "78b14f0a",
					"charities(uint256)": "fb709d2e",
					"charitiesCount()": "bc80b184",
					"charityBalanceWei(address)": "c91ddfc9",
					"donate()": "ed88c68e",
					"donateToCharity(address)": "128c8dce",
					"donatedBy(address)": "cdaa6b2c",
					"initialize(uint256)": "fe4b84df",
					"initializeV2(address[])": "dc1aa5fa",
					"isCharity(address)": "e81ffbef",
					"minDonationWei()": "ecf20921",
					"owner()": "8da5cb5b",
					"proxiableUUID()": "52d1902d",
					"removeCharity(address)": "abefe591",
					"renounceOwnership()": "715018a6",
					"totalDonated()": "00b37044",
					"transferOwnership(address)": "f2fde38b",
					"upgradeToAndCall(address,bytes)": "4f1ef286",
					"withdraw(address,uint256)": "f3fef3a3",
					"withdrawMyFunds(address,uint256)": "1d172245"
				}
			},
			"storageLayout": {
				"storage": [
					{
						"astId": 659,
						"contract": "contracts/DonationPlatformV2.sol:DonationPlatformV2",
						"label": "_status",
						"offset": 0,
						"slot": "0",
						"type": "t_uint256"
					},
					{
						"astId": 728,
						"contract": "contracts/DonationPlatformV2.sol:DonationPlatformV2",
						"label": "__gap",
						"offset": 0,
						"slot": "1",
						"type": "t_array(t_uint256)49_storage"
					},
					{
						"astId": 1533,
						"contract": "contracts/DonationPlatformV2.sol:DonationPlatformV2",
						"label": "minDonationWei",
						"offset": 0,
						"slot": "50",
						"type": "t_uint256"
					},
					{
						"astId": 1535,
						"contract": "contracts/DonationPlatformV2.sol:DonationPlatformV2",
						"label": "totalDonated",
						"offset": 0,
						"slot": "51",
						"type": "t_uint256"
					},
					{
						"astId": 1539,
						"contract": "contracts/DonationPlatformV2.sol:DonationPlatformV2",
						"label": "donatedBy",
						"offset": 0,
						"slot": "52",
						"type": "t_mapping(t_address,t_uint256)"
					},
					{
						"astId": 1691,
						"contract": "contracts/DonationPlatformV2.sol:DonationPlatformV2",
						"label": "isCharity",
						"offset": 0,
						"slot": "53",
						"type": "t_mapping(t_address,t_bool)"
					},
					{
						"astId": 1695,
						"contract": "contracts/DonationPlatformV2.sol:DonationPlatformV2",
						"label": "charityBalanceWei",
						"offset": 0,
						"slot": "54",
						"type": "t_mapping(t_address,t_uint256)"
					},
					{
						"astId": 1698,
						"contract": "contracts/DonationPlatformV2.sol:DonationPlatformV2",
						"label": "charities",
						"offset": 0,
						"slot": "55",
						"type": "t_array(t_address)dyn_storage"
					}
				],
				"types": {
					"t_address": {
						"encoding": "inplace",
						"label": "address",
						"numberOfBytes": "20"
					},
					"t_array(t_address)dyn_storage": {
						"base": "t_address",
						"encoding": "dynamic_array",
						"label": "address[]",
						"numberOfBytes": "32"
					},
					"t_array(t_uint256)49_storage": {
						"base": "t_uint256",
						"encoding": "inplace",
						"label": "uint256[49]",
						"numberOfBytes": "1568"
					},
					"t_bool": {
						"encoding": "inplace",
						"label": "bool",
						"numberOfBytes": "1"
					},
					"t_mapping(t_address,t_bool)": {
						"encoding": "mapping",
						"key": "t_address",
						"label": "mapping(address => bool)",
						"numberOfBytes": "32",
						"value": "t_bool"
					},
					"t_mapping(t_address,t_uint256)": {
						"encoding": "mapping",
						"key": "t_address",
						"label": "mapping(address => uint256)",
						"numberOfBytes": "32",
						"value": "t_uint256"
					},
					"t_uint256": {
						"encoding": "inplace",
						"label": "uint256",
						"numberOfBytes": "32"
					}
				}
			},
			"userdoc": {
				"kind": "user",
				"methods": {},
				"version": 1
			}
		}
	}
}