{
	"data": {
		"bytecode": {
			"linkReferences": {},
			"object": "60a06040523073ffffffffffffffffffffffffffffffffffffffff1660809073ffffffffffffffffffffffffffffffffffffffff168152503480156041575f5ffd5b50608051613a3f6100685f395f8181611991015281816119e60152611ba00152613a3f5ff3fe608060405260043610610164575f3560e01c8063b5604069116100d0578063ecf2092111610089578063f3bf531a11610063578063f3bf531a146104c4578063f3fef3a3146104ec578063fb709d2e14610514578063fe4b84df1461055057610164565b8063ecf2092114610468578063ed88c68e14610492578063f2fde38b1461049c57610164565b8063b560406914610326578063bc80b18414610362578063c91ddfc91461038c578063cdaa6b2c146103c8578063dc1aa5fa14610404578063e81ffbef1461042c57610164565b8063715018a611610122578063715018a614610244578063769a76911461025a57806378b14f0a146102825780638da5cb5b146102aa578063abefe591146102d4578063ad3cb1cc146102fc57610164565b8062b3704414610168578063128c8dce1461019257806316fab362146101ae5780631d172245146101d65780634f1ef286146101fe57806352d1902d1461021a575b5f5ffd5b348015610173575f5ffd5b5061017c610578565b6040516101899190612712565b60405180910390f35b6101ac60048036038101906101a79190612796565b61057e565b005b3480156101b9575f5ffd5b506101d460048036038101906101cf9190612822565b610772565b005b3480156101e1575f5ffd5b506101fc60048036038101906101f791906128e4565b61078a565b005b61021860048036038101906102139190612a5a565b610ab8565b005b348015610225575f5ffd5b5061022e610ad7565b60405161023b9190612acc565b60405180910390f35b34801561024f575f5ffd5b50610258610b08565b005b348015610265575f5ffd5b50610280600480360381019061027b9190612b8f565b610b1b565b005b34801561028d575f5ffd5b506102a860048036038101906102a39190612796565b610cff565b005b3480156102b5575f5ffd5b506102be610d13565b6040516102cb9190612c1c565b60405180910390f35b3480156102df575f5ffd5b506102fa60048036038101906102f59190612796565b610d48565b005b348015610307575f5ffd5b50610310610e73565b60405161031d9190612c95565b60405180910390f35b348015610331575f5ffd5b5061034c60048036038101906103479190612796565b610eac565b6040516103599190612c95565b60405180910390f35b34801561036d575f5ffd5b50610376610f47565b6040516103839190612712565b60405180910390f35b348015610397575f5ffd5b506103b260048036038101906103ad9190612796565b610f53565b6040516103bf9190612712565b60405180910390f35b3480156103d3575f5ffd5b506103ee60048036038101906103e99190612796565b610f68565b6040516103fb9190612712565b60405180910390f35b34801561040f575f5ffd5b5061042a60048036038101906104259190612cb5565b610f7d565b005b348015610437575f5ffd5b50610452600480360381019061044d9190612796565b6110f2565b60405161045f9190612d1a565b60405180910390f35b348015610473575f5ffd5b5061047c61110f565b6040516104899190612712565b60405180910390f35b61049a611115565b005b3480156104a7575f5ffd5b506104c260048036038101906104bd9190612796565b611215565b005b3480156104cf575f5ffd5b506104ea60048036038101906104e59190612b8f565b611299565b005b3480156104f7575f5ffd5b50610512600480360381019061050d91906128e4565b611362565b005b34801561051f575f5ffd5b5061053a60048036038101906105359190612d33565b611568565b6040516105479190612c1c565b60405180910390f35b34801561055b575f5ffd5b5061057660048036038101906105719190612d33565b6115a3565b005b60335481565b60355f8273ffffffffffffffffffffffffffffffffffffffff1673ffffffffffffffffffffffffffffffffffffffff1681526020019081526020015f205f9054906101000a900460ff16610607576040517f08c379a00000000000000000000000000000000000000000000000000000000081526004016105fe90612da8565b60405180910390fd5b60325434101561064c576040517f08c379a000000000000000000000000000000000000000000000000000000000815260040161064390612e10565b60405180910390fd5b3460345f3373ffffffffffffffffffffffffffffffffffffffff1673ffffffffffffffffffffffffffffffffffffffff1681526020019081526020015f205f8282546106989190612e5b565b925050819055503460335f8282546106b09190612e5b565b925050819055503460365f8373ffffffffffffffffffffffffffffffffffffffff1673ffffffffffffffffffffffffffffffffffffffff1681526020019081526020015f205f8282546107039190612e5b565b925050819055508073ffffffffffffffffffffffffffffffffffffffff163373ffffffffffffffffffffffffffffffffffffffff167fda80f1af1eb5747d371b21abdbc3f061b1f8f53bae262a8b1d91476cf5ec191d346040516107679190612712565b60405180910390a350565b61077a61177d565b610785838383611804565b505050565b610792611939565b60355f3373ffffffffffffffffffffffffffffffffffffffff1673ffffffffffffffffffffffffffffffffffffffff1681526020019081526020015f205f9054906101000a900460ff1661081b576040517f08c379a000000000000000000000000000000000000000000000000000000000815260040161081290612ed8565b60405180910390fd5b5f73ffffffffffffffffffffffffffffffffffffffff168273ffffffffffffffffffffffffffffffffffffffff1603610889576040517f08c379a000000000000000000000000000000000000000000000000000000000815260040161088090612f40565b60405180910390fd5b5f81116108cb576040517f08c379a00000000000000000000000000000000000000000000000000000000081526004016108c290612fa8565b60405180910390fd5b60365f3373ffffffffffffffffffffffffffffffffffffffff1673ffffffffffffffffffffffffffffffffffffffff1681526020019081526020015f205481111561094b576040517f08c379a000000000000000000000000000000000000000000000000000000000815260040161094290613010565b60405180910390fd5b8060365f3373ffffffffffffffffffffffffffffffffffffffff1673ffffffffffffffffffffffffffffffffffffffff1681526020019081526020015f205f828254610997919061302e565b925050819055505f8273ffffffffffffffffffffffffffffffffffffffff16826040516109c39061308e565b5f6040518083038185875af1925050503d805f81146109fd576040519150601f19603f3d011682016040523d82523d5f602084013e610a02565b606091505b5050905080610a46576040517f08c379a0000000000000000000000000000000000000000000000000000000008152600401610a3d906130ec565b60405180910390fd5b8273ffffffffffffffffffffffffffffffffffffffff163373ffffffffffffffffffffffffffffffffffffffff167fd12a7186f17f056536ce7208a6b27e2e22c25ed633727e9eb92cce0f018c47ae84604051610aa39190612712565b60405180910390a350610ab4611986565b5050565b610ac061198f565b610ac982611a75565b610ad38282611a80565b5050565b5f610ae0611b9e565b7f360894a13ba1a3210667c828492db98dca3e2076cc3735a920a3ca505d382bbc5f1b905090565b610b1061177d565b610b195f611c25565b565b60035f610b26611cf6565b9050805f0160089054906101000a900460ff1680610b6e57508167ffffffffffffffff16815f015f9054906101000a900467ffffffffffffffff1667ffffffffffffffff1610155b15610ba5576040517ff92ee8a900000000000000000000000000000000000000000000000000000000815260040160405180910390fd5b81815f015f6101000a81548167ffffffffffffffff021916908367ffffffffffffffff1602179055506001815f0160086101000a81548160ff021916908315150217905550838390508686905014610c32576040517f08c379a0000000000000000000000000000000000000000000000000000000008152600401610c2990613154565b60405180910390fd5b5f5f90505b86869050811015610ca457610c97878783818110610c5857610c57613172565b5b9050602002016020810190610c6d9190612796565b868684818110610c8057610c7f613172565b5b9050602002810190610c9291906131ab565b611804565b8080600101915050610c37565b505f815f0160086101000a81548160ff0219169083151502179055507fc7f505b2f371ae2175ee4913f4499e1f2633a7b5936321eed1cdaeb6115181d282604051610cef919061322f565b60405180910390a1505050505050565b610d0761177d565b610d1081611d09565b50565b5f5f610d1d611efc565b9050805f015f9054906101000a900473ffffffffffffffffffffffffffffffffffffffff1691505090565b610d5061177d565b60355f8273ffffffffffffffffffffffffffffffffffffffff1673ffffffffffffffffffffffffffffffffffffffff1681526020019081526020015f205f9054906101000a900460ff16610dd9576040517f08c379a0000000000000000000000000000000000000000000000000000000008152600401610dd090613292565b60405180910390fd5b5f60355f8373ffffffffffffffffffffffffffffffffffffffff1673ffffffffffffffffffffffffffffffffffffffff1681526020019081526020015f205f6101000a81548160ff0219169083151502179055508073ffffffffffffffffffffffffffffffffffffffff167f7db8df158d85e9475e8dd97a5e3e193c67dc6d977d2fc4f7321049b6c0b70e9360405160405180910390a250565b6040518060400160405280600581526020017f352e302e3000000000000000000000000000000000000000000000000000000081525081565b6038602052805f5260405f205f915090508054610ec8906132dd565b80601f0160208091040260200160405190810160405280929190818152602001828054610ef4906132dd565b8015610f3f5780601f10610f1657610100808354040283529160200191610f3f565b820191905f5260205f20905b815481529060010190602001808311610f2257829003601f168201915b505050505081565b5f603780549050905090565b6036602052805f5260405f205f915090505481565b6034602052805f5260405f205f915090505481565b60025f610f88611cf6565b9050805f0160089054906101000a900460ff1680610fd057508167ffffffffffffffff16815f015f9054906101000a900467ffffffffffffffff1667ffffffffffffffff1610155b15611007576040517ff92ee8a900000000000000000000000000000000000000000000000000000000815260040160405180910390fd5b81815f015f6101000a81548167ffffffffffffffff021916908367ffffffffffffffff1602179055506001815f0160086101000a81548160ff0219169083151502179055505f5f90505b848490508110156110995761108c85858381811061107257611071613172565b5b90506020020160208101906110879190612796565b611d09565b8080600101915050611051565b505f815f0160086101000a81548160ff0219169083151502179055507fc7f505b2f371ae2175ee4913f4499e1f2633a7b5936321eed1cdaeb6115181d2826040516110e4919061322f565b60405180910390a150505050565b6035602052805f5260405f205f915054906101000a900460ff1681565b60325481565b60325434101561115a576040517f08c379a000000000000000000000000000000000000000000000000000000000815260040161115190612e10565b60405180910390fd5b3460345f3373ffffffffffffffffffffffffffffffffffffffff1673ffffffffffffffffffffffffffffffffffffffff1681526020019081526020015f205f8282546111a69190612e5b565b925050819055503460335f8282546111be9190612e5b565b925050819055503373ffffffffffffffffffffffffffffffffffffffff167f2a01595cddf097c90216094025db714da3f4e5bd8877b56ba86a24ecead8e5433460405161120b9190612712565b60405180910390a2565b61121d61177d565b5f73ffffffffffffffffffffffffffffffffffffffff168173ffffffffffffffffffffffffffffffffffffffff160361128d575f6040517f1e4fbdf70000000000000000000000000000000000000000000000000000000081526004016112849190612c1c565b60405180910390fd5b61129681611c25565b50565b6112a161177d565b8181905084849050146112e9576040517f08c379a00000000000000000000000000000000000000000000000000000000081526004016112e090613154565b60405180910390fd5b5f5f90505b8484905081101561135b5761134e85858381811061130f5761130e613172565b5b90506020020160208101906113249190612796565b84848481811061133757611336613172565b5b905060200281019061134991906131ab565b611804565b80806001019150506112ee565b5050505050565b61136a61177d565b611372611939565b5f73ffffffffffffffffffffffffffffffffffffffff168273ffffffffffffffffffffffffffffffffffffffff16036113e0576040517f08c379a00000000000000000000000000000000000000000000000000000000081526004016113d790612f40565b60405180910390fd5b5f8111611422576040517f08c379a000000000000000000000000000000000000000000000000000000000815260040161141990612fa8565b60405180910390fd5b47811115611465576040517f08c379a000000000000000000000000000000000000000000000000000000000815260040161145c90613357565b60405180910390fd5b5f8273ffffffffffffffffffffffffffffffffffffffff168260405161148a9061308e565b5f6040518083038185875af1925050503d805f81146114c4576040519150601f19603f3d011682016040523d82523d5f602084013e6114c9565b606091505b505090508061150d576040517f08c379a0000000000000000000000000000000000000000000000000000000008152600401611504906130ec565b60405180910390fd5b8273ffffffffffffffffffffffffffffffffffffffff167f7084f5476618d8e60b11ef0d7d3f06914655adb8793e28ff7f018d4c76d505d5836040516115539190612712565b60405180910390a250611564611986565b5050565b60378181548110611577575f80fd5b905f5260205f20015f915054906101000a900473ffffffffffffffffffffffffffffffffffffffff1681565b5f6115ac611cf6565b90505f815f0160089054906101000a900460ff161590505f825f015f9054906101000a900467ffffffffffffffff1690505f5f8267ffffffffffffffff161480156115f45750825b90505f60018367ffffffffffffffff1614801561162757505f3073ffffffffffffffffffffffffffffffffffffffff163b145b905081158015611635575080155b1561166c576040517ff92ee8a900000000000000000000000000000000000000000000000000000000815260040160405180910390fd5b6001855f015f6101000a81548167ffffffffffffffff021916908367ffffffffffffffff16021790555083156116b9576001855f0160086101000a81548160ff0219169083151502179055505b5f86116116fb576040517f08c379a00000000000000000000000000000000000000000000000000000000081526004016116f2906133bf565b60405180910390fd5b61170433611f23565b61170c611f37565b611714611f49565b856032819055508315611775575f855f0160086101000a81548160ff0219169083151502179055507fc7f505b2f371ae2175ee4913f4499e1f2633a7b5936321eed1cdaeb6115181d2600160405161176c919061341f565b60405180910390a15b505050505050565b611785611f53565b73ffffffffffffffffffffffffffffffffffffffff166117a3610d13565b73ffffffffffffffffffffffffffffffffffffffff1614611802576117c6611f53565b6040517f118cdaa70000000000000000000000000000000000000000000000000000000081526004016117f99190612c1c565b60405180910390fd5b565b60355f8473ffffffffffffffffffffffffffffffffffffffff1673ffffffffffffffffffffffffffffffffffffffff1681526020019081526020015f205f9054906101000a900460ff1661188d576040517f08c379a000000000000000000000000000000000000000000000000000000000815260040161188490613292565b60405180910390fd5b6118978282611f5a565b818160385f8673ffffffffffffffffffffffffffffffffffffffff1673ffffffffffffffffffffffffffffffffffffffff1681526020019081526020015f2091826118e39291906135d9565b508273ffffffffffffffffffffffffffffffffffffffff167f36e847c5835bbc500f155c6baf617b3c282ec300768782717aedf39b4b91f554838360405161192c9291906136d2565b60405180910390a2505050565b60025f540361197d576040517f08c379a00000000000000000000000000000000000000000000000000000000081526004016119749061373e565b60405180910390fd5b60025f81905550565b60015f81905550565b7f000000000000000000000000000000000000000000000000000000000000000073ffffffffffffffffffffffffffffffffffffffff163073ffffffffffffffffffffffffffffffffffffffff161480611a3c57507f000000000000000000000000000000000000000000000000000000000000000073ffffffffffffffffffffffffffffffffffffffff16611a236122bb565b73ffffffffffffffffffffffffffffffffffffffff1614155b15611a73576040517fe07c8dba00000000000000000000000000000000000000000000000000000000815260040160405180910390fd5b565b611a7d61177d565b50565b8173ffffffffffffffffffffffffffffffffffffffff166352d1902d6040518163ffffffff1660e01b8152600401602060405180830381865afa925050508015611ae857506040513d601f19601f82011682018060405250810190611ae59190613786565b60015b611b2957816040517f4c9c8ce3000000000000000000000000000000000000000000000000000000008152600401611b209190612c1c565b60405180910390fd5b7f360894a13ba1a3210667c828492db98dca3e2076cc3735a920a3ca505d382bbc5f1b8114611b8f57806040517faa1d49a4000000000000000000000000000000000000000000000000000000008152600401611b869190612acc565b60405180910390fd5b611b99838361230e565b505050565b7f000000000000000000000000000000000000000000000000000000000000000073ffffffffffffffffffffffffffffffffffffffff163073ffffffffffffffffffffffffffffffffffffffff1614611c23576040517fe07c8dba00000000000000000000000000000000000000000000000000000000815260040160405180910390fd5b565b5f611c2e611efc565b90505f815f015f9054906101000a900473ffffffffffffffffffffffffffffffffffffffff16905082825f015f6101000a81548173ffffffffffffffffffffffffffffffffffffffff021916908373ffffffffffffffffffffffffffffffffffffffff1602179055508273ffffffffffffffffffffffffffffffffffffffff168173ffffffffffffffffffffffffffffffffffffffff167f8be0079c531659141344cd1fd0a4f28419497f9722a3daafe3b4186f6b6457e060405160405180910390a3505050565b5f5f611d00612380565b90508091505090565b5f73ffffffffffffffffffffffffffffffffffffffff168173ffffffffffffffffffffffffffffffffffffffff1603611d77576040517f08c379a0000000000000000000000000000000000000000000000000000000008152600401611d6e906137fb565b60405180910390fd5b60355f8273ffffffffffffffffffffffffffffffffffffffff1673ffffffffffffffffffffffffffffffffffffffff1681526020019081526020015f205f9054906101000a900460ff1615611e01576040517f08c379a0000000000000000000000000000000000000000000000000000000008152600401611df890613863565b60405180910390fd5b600160355f8373ffffffffffffffffffffffffffffffffffffffff1673ffffffffffffffffffffffffffffffffffffffff1681526020019081526020015f205f6101000a81548160ff021916908315150217905550603781908060018154018082558091505060019003905f5260205f20015f9091909190916101000a81548173ffffffffffffffffffffffffffffffffffffffff021916908373ffffffffffffffffffffffffffffffffffffffff1602179055508073ffffffffffffffffffffffffffffffffffffffff167fc17dc19a503d796a336a016f10743118db2bdadb16ac4c19aff016075609863560405160405180910390a250565b5f7f9016d09d72d40fdae2fd8ceac6b6234c7706214fd39c1cd1e609a0528c199300905090565b611f2b6123a9565b611f34816123e9565b50565b611f3f6123a9565b611f4761246d565b565b611f516123a9565b565b5f33905090565b365f8383915091506003828290501015611fa9576040517f08c379a0000000000000000000000000000000000000000000000000000000008152600401611fa0906138cb565b60405180910390fd5b6020828290501115611ff0576040517f08c379a0000000000000000000000000000000000000000000000000000000008152600401611fe790613933565b60405180910390fd5b5f5f90505b828290508110156122b4575f83838381811061201457612013613172565b5b9050013560f81c60f81b90505f603060f81b827effffffffffffffffffffffffffffffffffffffffffffffffffffffffffffff19161015801561207d5750603960f81b827effffffffffffffffffffffffffffffffffffffffffffffffffffffffffffff191611155b806120e05750604160f81b827effffffffffffffffffffffffffffffffffffffffffffffffffffffffffffff1916101580156120df5750605a60f81b827effffffffffffffffffffffffffffffffffffffffffffffffffffffffffffff191611155b5b806121435750606160f81b827effffffffffffffffffffffffffffffffffffffffffffffffffffffffffffff1916101580156121425750607a60f81b827effffffffffffffffffffffffffffffffffffffffffffffffffffffffffffff191611155b5b806121735750602060f81b827effffffffffffffffffffffffffffffffffffffffffffffffffffffffffffff1916145b806121a35750602e60f81b827effffffffffffffffffffffffffffffffffffffffffffffffffffffffffffff1916145b806121d35750602c60f81b827effffffffffffffffffffffffffffffffffffffffffffffffffffffffffffff1916145b806122035750602760f81b827effffffffffffffffffffffffffffffffffffffffffffffffffffffffffffff1916145b806122335750602d60f81b827effffffffffffffffffffffffffffffffffffffffffffffffffffffffffffff1916145b806122635750602660f81b827effffffffffffffffffffffffffffffffffffffffffffffffffffffffffffff1916145b9050806122a5576040517f08c379a000000000000000000000000000000000000000000000000000000000815260040161229c9061399b565b60405180910390fd5b50508080600101915050611ff5565b5050505050565b5f6122e77f360894a13ba1a3210667c828492db98dca3e2076cc3735a920a3ca505d382bbc5f1b61247e565b5f015f9054906101000a900473ffffffffffffffffffffffffffffffffffffffff16905090565b61231782612487565b8173ffffffffffffffffffffffffffffffffffffffff167fbc7cd75a20ee27fd9adebab32041f755214dbc6bffa90cc0225b39da2e5c2d3b60405160405180910390a25f815111156123735761236d8282612550565b5061237c565b61237b6125d0565b5b5050565b5f7ff0c57e16840df040f15088dc2f81fe391c3923bec73e23a9662efc9c229c6a005f1b905090565b6123b161260c565b6123e7576040517fd7e6bcf800000000000000000000000000000000000000000000000000000000815260040160405180910390fd5b565b6123f16123a9565b5f73ffffffffffffffffffffffffffffffffffffffff168173ffffffffffffffffffffffffffffffffffffffff1603612461575f6040517f1e4fbdf70000000000000000000000000000000000000000000000000000000081526004016124589190612c1c565b60405180910390fd5b61246a81611c25565b50565b6124756123a9565b60015f81905550565b5f819050919050565b5f8173ffffffffffffffffffffffffffffffffffffffff163b036124e257806040517f4c9c8ce30000000000000000000000000000000000000000000000000000000081526004016124d99190612c1c565b60405180910390fd5b8061250e7f360894a13ba1a3210667c828492db98dca3e2076cc3735a920a3ca505d382bbc5f1b61247e565b5f015f6101000a81548173ffffffffffffffffffffffffffffffffffffffff021916908373ffffffffffffffffffffffffffffffffffffffff16021790555050565b60605f5f8473ffffffffffffffffffffffffffffffffffffffff168460405161257991906139f3565b5f60405180830381855af49150503d805f81146125b1576040519150601f19603f3d011682016040523d82523d5f602084013e6125b6565b606091505b50915091506125c685838361262a565b9250505092915050565b5f34111561260a576040517fb398979f00000000000000000000000000000000000000000000000000000000815260040160405180910390fd5b565b5f612615611cf6565b5f0160089054906101000a900460ff16905090565b60608261263f5761263a826126b7565b6126af565b5f825114801561266557505f8473ffffffffffffffffffffffffffffffffffffffff163b145b156126a757836040517f9996b31500000000000000000000000000000000000000000000000000000000815260040161269e9190612c1c565b60405180910390fd5b8190506126b0565b5b9392505050565b5f815111156126c857805160208201fd5b6040517fd6bda27500000000000000000000000000000000000000000000000000000000815260040160405180910390fd5b5f819050919050565b61270c816126fa565b82525050565b5f6020820190506127255f830184612703565b92915050565b5f604051905090565b5f5ffd5b5f5ffd5b5f73ffffffffffffffffffffffffffffffffffffffff82169050919050565b5f6127658261273c565b9050919050565b6127758161275b565b811461277f575f5ffd5b50565b5f813590506127908161276c565b92915050565b5f602082840312156127ab576127aa612734565b5b5f6127b884828501612782565b91505092915050565b5f5ffd5b5f5ffd5b5f5ffd5b5f5f83601f8401126127e2576127e16127c1565b5b8235905067ffffffffffffffff8111156127ff576127fe6127c5565b5b60208301915083600182028301111561281b5761281a6127c9565b5b9250929050565b5f5f5f6040848603121561283957612838612734565b5b5f61284686828701612782565b935050602084013567ffffffffffffffff81111561286757612866612738565b5b612873868287016127cd565b92509250509250925092565b5f6128898261273c565b9050919050565b6128998161287f565b81146128a3575f5ffd5b50565b5f813590506128b481612890565b92915050565b6128c3816126fa565b81146128cd575f5ffd5b50565b5f813590506128de816128ba565b92915050565b5f5f604083850312156128fa576128f9612734565b5b5f612907858286016128a6565b9250506020612918858286016128d0565b9150509250929050565b5f5ffd5b5f601f19601f8301169050919050565b7f4e487b71000000000000000000000000000000000000000000000000000000005f52604160045260245ffd5b61296c82612926565b810181811067ffffffffffffffff8211171561298b5761298a612936565b5b80604052505050565b5f61299d61272b565b90506129a98282612963565b919050565b5f67ffffffffffffffff8211156129c8576129c7612936565b5b6129d182612926565b9050602081019050919050565b828183375f83830152505050565b5f6129fe6129f9846129ae565b612994565b905082815260208101848484011115612a1a57612a19612922565b5b612a258482856129de565b509392505050565b5f82601f830112612a4157612a406127c1565b5b8135612a518482602086016129ec565b91505092915050565b5f5f60408385031215612a7057612a6f612734565b5b5f612a7d85828601612782565b925050602083013567ffffffffffffffff811115612a9e57612a9d612738565b5b612aaa85828601612a2d565b9150509250929050565b5f819050919050565b612ac681612ab4565b82525050565b5f602082019050612adf5f830184612abd565b92915050565b5f5f83601f840112612afa57612af96127c1565b5b8235905067ffffffffffffffff811115612b1757612b166127c5565b5b602083019150836020820283011115612b3357612b326127c9565b5b9250929050565b5f5f83601f840112612b4f57612b4e6127c1565b5b8235905067ffffffffffffffff811115612b6c57612b6b6127c5565b5b602083019150836020820283011115612b8857612b876127c9565b5b9250929050565b5f5f5f5f60408587031215612ba757612ba6612734565b5b5f85013567ffffffffffffffff811115612bc457612bc3612738565b5b612bd087828801612ae5565b9450945050602085013567ffffffffffffffff811115612bf357612bf2612738565b5b612bff87828801612b3a565b925092505092959194509250565b612c168161275b565b82525050565b5f602082019050612c2f5f830184612c0d565b92915050565b5f81519050919050565b5f82825260208201905092915050565b8281835e5f83830152505050565b5f612c6782612c35565b612c718185612c3f565b9350612c81818560208601612c4f565b612c8a81612926565b840191505092915050565b5f6020820190508181035f830152612cad8184612c5d565b905092915050565b5f5f60208385031215612ccb57612cca612734565b5b5f83013567ffffffffffffffff811115612ce857612ce7612738565b5b612cf485828601612ae5565b92509250509250929050565b5f8115159050919050565b612d1481612d00565b82525050565b5f602082019050612d2d5f830184612d0b565b92915050565b5f60208284031215612d4857612d47612734565b5b5f612d55848285016128d0565b91505092915050565b7f43686172697479206e6f7420616c6c6f776564000000000000000000000000005f82015250565b5f612d92601383612c3f565b9150612d9d82612d5e565b602082019050919050565b5f6020820190508181035f830152612dbf81612d86565b9050919050565b7f446f6e6174696f6e20746f6f20736d616c6c00000000000000000000000000005f82015250565b5f612dfa601283612c3f565b9150612e0582612dc6565b602082019050919050565b5f6020820190508181035f830152612e2781612dee565b9050919050565b7f4e487b71000000000000000000000000000000000000000000000000000000005f52601160045260245ffd5b5f612e65826126fa565b9150612e70836126fa565b9250828201905080821115612e8857612e87612e2e565b5b92915050565b7f4f6e6c79206368617269747900000000000000000000000000000000000000005f82015250565b5f612ec2600c83612c3f565b9150612ecd82612e8e565b602082019050919050565b5f6020820190508181035f830152612eef81612eb6565b9050919050565b7f496e76616c696420726563697069656e740000000000000000000000000000005f82015250565b5f612f2a601183612c3f565b9150612f3582612ef6565b602082019050919050565b5f6020820190508181035f830152612f5781612f1e565b9050919050565b7f416d6f756e74206d757374206265203e203000000000000000000000000000005f82015250565b5f612f92601283612c3f565b9150612f9d82612f5e565b602082019050919050565b5f6020820190508181035f830152612fbf81612f86565b9050919050565b7f4e6f7420656e6f75676820616c6c6f63617465640000000000000000000000005f82015250565b5f612ffa601483612c3f565b915061300582612fc6565b602082019050919050565b5f6020820190508181035f83015261302781612fee565b9050919050565b5f613038826126fa565b9150613043836126fa565b925082820390508181111561305b5761305a612e2e565b5b92915050565b5f81905092915050565b50565b5f6130795f83613061565b91506130848261306b565b5f82019050919050565b5f6130988261306e565b9150819050919050565b7f5472616e73666572206661696c656400000000000000000000000000000000005f82015250565b5f6130d6600f83612c3f565b91506130e1826130a2565b602082019050919050565b5f6020820190508181035f830152613103816130ca565b9050919050565b7f4c656e677468206d69736d6174636800000000000000000000000000000000005f82015250565b5f61313e600f83612c3f565b91506131498261310a565b602082019050919050565b5f6020820190508181035f83015261316b81613132565b9050919050565b7f4e487b71000000000000000000000000000000000000000000000000000000005f52603260045260245ffd5b5f5ffd5b5f5ffd5b5f5ffd5b5f5f833560016020038436030381126131c7576131c661319f565b5b80840192508235915067ffffffffffffffff8211156131e9576131e86131a3565b5b602083019250600182023603831315613205576132046131a7565b5b509250929050565b5f67ffffffffffffffff82169050919050565b6132298161320d565b82525050565b5f6020820190506132425f830184613220565b92915050565b7f4e6f7420612063686172697479000000000000000000000000000000000000005f82015250565b5f61327c600d83612c3f565b915061328782613248565b602082019050919050565b5f6020820190508181035f8301526132a981613270565b9050919050565b7f4e487b71000000000000000000000000000000000000000000000000000000005f52602260045260245ffd5b5f60028204905060018216806132f457607f821691505b602082108103613307576133066132b0565b5b50919050565b7f4e6f7420656e6f756768204554480000000000000000000000000000000000005f82015250565b5f613341600e83612c3f565b915061334c8261330d565b602082019050919050565b5f6020820190508181035f83015261336e81613335565b9050919050565b7f4d696e20646f6e6174696f6e206d757374206265203e203000000000000000005f82015250565b5f6133a9601883612c3f565b91506133b482613375565b602082019050919050565b5f6020820190508181035f8301526133d68161339d565b9050919050565b5f819050919050565b5f819050919050565b5f6134096134046133ff846133dd565b6133e6565b61320d565b9050919050565b613419816133ef565b82525050565b5f6020820190506134325f830184613410565b92915050565b5f82905092915050565b5f819050815f5260205f209050919050565b5f6020601f8301049050919050565b5f82821b905092915050565b5f6008830261349e7fffffffffffffffffffffffffffffffffffffffffffffffffffffffffffffffff82613463565b6134a88683613463565b95508019841693508086168417925050509392505050565b5f6134da6134d56134d0846126fa565b6133e6565b6126fa565b9050919050565b5f819050919050565b6134f3836134c0565b6135076134ff826134e1565b84845461346f565b825550505050565b5f5f905090565b61351e61350f565b6135298184846134ea565b505050565b5b8181101561354c576135415f82613516565b60018101905061352f565b5050565b601f8211156135915761356281613442565b61356b84613454565b8101602085101561357a578190505b61358e61358685613454565b83018261352e565b50505b505050565b5f82821c905092915050565b5f6135b15f1984600802613596565b1980831691505092915050565b5f6135c983836135a2565b9150826002028217905092915050565b6135e38383613438565b67ffffffffffffffff8111156135fc576135fb612936565b5b61360682546132dd565b613611828285613550565b5f601f83116001811461363e575f841561362c578287013590505b61363685826135be565b86555061369d565b601f19841661364c86613442565b5f5b828110156136735784890135825560018201915060208501945060208101905061364e565b86831015613690578489013561368c601f8916826135a2565b8355505b6001600288020188555050505b50505050505050565b5f6136b18385612c3f565b93506136be8385846129de565b6136c783612926565b840190509392505050565b5f6020820190508181035f8301526136eb8184866136a6565b90509392505050565b7f5265656e7472616e637947756172643a207265656e7472616e742063616c6c005f82015250565b5f613728601f83612c3f565b9150613733826136f4565b602082019050919050565b5f6020820190508181035f8301526137558161371c565b9050919050565b61376581612ab4565b811461376f575f5ffd5b50565b5f815190506137808161375c565b92915050565b5f6020828403121561379b5761379a612734565b5b5f6137a884828501613772565b91505092915050565b7f496e76616c6964206368617269747900000000000000000000000000000000005f82015250565b5f6137e5600f83612c3f565b91506137f0826137b1565b602082019050919050565b5f6020820190508181035f830152613812816137d9565b9050919050565b7f416c7265616479206368617269747900000000000000000000000000000000005f82015250565b5f61384d600f83612c3f565b915061385882613819565b602082019050919050565b5f6020820190508181035f83015261387a81613841565b9050919050565b7f4e616d6520746f6f2073686f72740000000000000000000000000000000000005f82015250565b5f6138b5600e83612c3f565b91506138c082613881565b602082019050919050565b5f6020820190508181035f8301526138e2816138a9565b9050919050565b7f4e616d6520746f6f206c6f6e67000000000000000000000000000000000000005f82015250565b5f61391d600d83612c3f565b9150613928826138e9565b602082019050919050565b5f6020820190508181035f83015261394a81613911565b9050919050565b7f496e76616c6964206368617261637465720000000000000000000000000000005f82015250565b5f613985601183612c3f565b915061399082613951565b602082019050919050565b5f6020820190508181035f8301526139b281613979565b9050919050565b5f81519050919050565b5f6139cd826139b9565b6139d78185613061565b93506139e7818560208601612c4f565b80840191505092915050565b5f6139fe82846139c3565b91508190509291505056fea26469706673582212202bbebcaec29b695c8678588924383a5f1f6562a8088adf749031087a4aeb4bd564736f6c634300081f0033",
			"opcodes": "PUSH1 0xA0 PUSH1 0x40 MSTORE ADDRESS PUSH20 0xFFFFFFFFFFFFFFFFFFFFFFFFFFFFFFFFFFFFFFFF AND PUSH1 0x80 SWAP1 PUSH20 0xFFFFFFFFFFFFFFFFFFFFFFFFFFFFFFFFFFFFFFFF AND DUP2 MSTORE POP CALLVALUE DUP1 ISZERO PUSH1 0x41 JUMPI PUSH0 PUSH0 REVERT JUMPDEST POP PUSH1 0x80 MLOAD PUSH2 0x3A3F PUSH2 0x68 PUSH0 CODECOPY PUSH0 DUP2 DUP2 PUSH2 0x1991 ADD MSTORE DUP2 DUP2 PUSH2 0x19E6 ADD MSTORE PUSH2 0x1BA0 ADD MSTORE PUSH2 0x3A3F PUSH0 RETURN INVALID PUSH1 0x80 PUSH1 0x40 MSTORE PUSH1 0x4 CALLDATASIZE LT PUSH2 0x164 JUMPI PUSH0 CALLDATALOAD PUSH1 0xE0 SHR DUP1 PUSH4 0xB5604069 GT PUSH2 0xD0 JUMPI DUP1 PUSH4 0xECF20921 GT PUSH2 0x89 JUMPI DUP1 PUSH4 0xF3BF531A GT PUSH2 0x63 JUMPI DUP1 PUSH4 0xF3BF531A EQ PUSH2 0x4C4 JUMPI DUP1 PUSH4 0xF3FEF3A3 EQ PUSH2 0x4EC JUMPI DUP1 PUSH4 0xFB709D2E EQ PUSH2 0x514 JUMPI DUP1 PUSH4 0xFE4B84DF EQ PUSH2 0x550 JUMPI PUSH2 0x164 JUMP JUMPDEST DUP1 PUSH4 0xECF20921 EQ PUSH2 0x468 JUMPI DUP1 PUSH4 0xED88C68E EQ PUSH2 0x492 JUMPI DUP1 PUSH4 0xF2FDE38B EQ PUSH2 0x49C JUMPI PUSH2 0x164 JUMP JUMPDEST DUP1 PUSH4 0xB5604069 EQ PUSH2 0x326 JUMPI DUP1 PUSH4 0xBC80B184 EQ PUSH2 0x362 JUMPI DUP1 PUSH4 0xC91DDFC9 EQ PUSH2 0x38C JUMPI DUP1 PUSH4 0xCDAA6B2C EQ PUSH2 0x3C8 JUMPI DUP1 PUSH4 0xDC1AA5FA EQ PUSH2 0x404 JUMPI DUP1 PUSH4 0xE81FFBEF EQ PUSH2 0x42C JUMPI PUSH2 0x164 JUMP JUMPDEST DUP1 PUSH4 0x715018A6 GT PUSH2 0x122 JUMPI DUP1 PUSH4 0x715018A6 EQ PUSH2 0x244 JUMPI DUP1 PUSH4 0x769A7691 EQ PUSH2 0x25A JUMPI DUP1 PUSH4 0x78B14F0A EQ PUSH2 0x282 JUMPI DUP1 PUSH4 0x8DA5CB5B EQ PUSH2 0x2AA JUMPI DUP1 PUSH4 0xABEFE591 EQ PUSH2 0x2D4 JUMPI DUP1 PUSH4 0xAD3CB1CC EQ PUSH2 0x2FC JUMPI PUSH2 0x164 JUMP JUMPDEST DUP1 PUSH3 0xB37044 EQ PUSH2 0x168 JUMPI DUP1 PUSH4 0x128C8DCE EQ PUSH2 0x192 JUMPI DUP1 PUSH4 0x16FAB362 EQ PUSH2 0x1AE JUMPI DUP1 PUSH4 0x1D172245 EQ PUSH2 0x1D6 JUMPI DUP1 PUSH4 0x4F1EF286 EQ PUSH2 0x1FE JUMPI DUP1 PUSH4 0x52D1902D EQ PUSH2 0x21A JUMPI JUMPDEST PUSH0 PUSH0 REVERT JUMPDEST CALLVALUE DUP1 ISZERO PUSH2 0x173 JUMPI PUSH0 PUSH0 REVERT JUMPDEST POP PUSH2 0x17C PUSH2 0x578 JUMP JUMPDEST PUSH1 0x40 MLOAD PUSH2 0x189 SWAP2 SWAP1 PUSH2 0x2712 JUMP JUMPDEST PUSH1 0x40 MLOAD DUP1 SWAP2 SUB SWAP1 RETURN JUMPDEST PUSH2 0x1AC PUSH1 0x4 DUP1 CALLDATASIZE SUB DUP2 ADD SWAP1 PUSH2 0x1A7 SWAP2 SWAP1 PUSH2 0x2796 JUMP JUMPDEST PUSH2 0x57E JUMP JUMPDEST STOP JUMPDEST CALLVALUE DUP1 ISZERO PUSH2 0x1B9 JUMPI PUSH0 PUSH0 REVERT JUMPDEST POP PUSH2 0x1D4 PUSH1 0x4 DUP1 CALLDATASIZE SUB DUP2 ADD SWAP1 PUSH2 0x1CF SWAP2 SWAP1 PUSH2 0x2822 JUMP JUMPDEST PUSH2 0x772 JUMP JUMPDEST STOP JUMPDEST CALLVALUE DUP1 ISZERO PUSH2 0x1E1 JUMPI PUSH0 PUSH0 REVERT JUMPDEST POP PUSH2 0x1FC PUSH1 0x4 DUP1 CALLDATASIZE SUB DUP2 ADD SWAP1 PUSH2 0x1F7 SWAP2 SWAP1 PUSH2 0x28E4 JUMP JUMPDEST PUSH2 0x78A JUMP JUMPDEST STOP JUMPDEST PUSH2 0x218 PUSH1 0x4 DUP1 CALLDATASIZE SUB DUP2 ADD SWAP1 PUSH2 0x213 SWAP2 SWAP1 PUSH2 0x2A5A JUMP JUMPDEST PUSH2 0xAB8 JUMP JUMPDEST STOP JUMPDEST CALLVALUE DUP1 ISZERO PUSH2 0x225 JUMPI PUSH0 PUSH0 REVERT JUMPDEST POP PUSH2 0x22E PUSH2 0xAD7 JUMP JUMPDEST PUSH1 0x40 MLOAD PUSH2 0x23B SWAP2 SWAP1 PUSH2 0x2ACC JUMP JUMPDEST PUSH1 0x40 MLOAD DUP1 SWAP2 SUB SWAP1 RETURN JUMPDEST CALLVALUE DUP1 ISZERO PUSH2 0x24F JUMPI PUSH0 PUSH0 REVERT JUMPDEST POP PUSH2 0x258 PUSH2 0xB08 JUMP JUMPDEST STOP JUMPDEST CALLVALUE DUP1 ISZERO PUSH2 0x265 JUMPI PUSH0 PUSH0 REVERT JUMPDEST POP PUSH2 0x280 PUSH1 0x4 DUP1 CALLDATASIZE SUB DUP2 ADD SWAP1 PUSH2 0x27B SWAP2 SWAP1 PUSH2 0x2B8F JUMP JUMPDEST PUSH2 0xB1B JUMP JUMPDEST STOP JUMPDEST CALLVALUE DUP1 ISZERO PUSH2 0x28D JUMPI PUSH0 PUSH0 REVERT JUMPDEST POP PUSH2 0x2A8 PUSH1 0x4 DUP1 CALLDATASIZE SUB DUP2 ADD SWAP1 PUSH2 0x2A3 SWAP2 SWAP1 PUSH2 0x2796 JUMP JUMPDEST PUSH2 0xCFF JUMP JUMPDEST STOP JUMPDEST CALLVALUE DUP1 ISZERO PUSH2 0x2B5 JUMPI PUSH0 PUSH0 REVERT JUMPDEST POP PUSH2 0x2BE PUSH2 0xD13 JUMP JUMPDEST PUSH1 0x40 MLOAD PUSH2 0x2CB SWAP2 SWAP1 PUSH2 0x2C1C JUMP JUMPDEST PUSH1 0x40 MLOAD DUP1 SWAP2 SUB SWAP1 RETURN JUMPDEST CALLVALUE DUP1 ISZERO PUSH2 0x2DF JUMPI PUSH0 PUSH0 REVERT JUMPDEST POP PUSH2 0x2FA PUSH1 0x4 DUP1 CALLDATASIZE SUB DUP2 ADD SWAP1 PUSH2 0x2F5 SWAP2 SWAP1 PUSH2 0x2796 JUMP JUMPDEST PUSH2 0xD48 JUMP JUMPDEST STOP JUMPDEST CALLVALUE DUP1 ISZERO PUSH2 0x307 JUMPI PUSH0 PUSH0 REVERT JUMPDEST POP PUSH2 0x310 PUSH2 0xE73 JUMP JUMPDEST PUSH1 0x40 MLOAD PUSH2 0x31D SWAP2 SWAP1 PUSH2 0x2C95 JUMP JUMPDEST PUSH1 0x40 MLOAD DUP1 SWAP2 SUB SWAP1 RETURN JUMPDEST CALLVALUE DUP1 ISZERO PUSH2 0x331 JUMPI PUSH0 PUSH0 REVERT JUMPDEST POP PUSH2 0x34C PUSH1 0x4 DUP1 CALLDATASIZE SUB DUP2 ADD SWAP1 PUSH2 0x347 SWAP2 SWAP1 PUSH2 0x2796 JUMP JUMPDEST PUSH2 0xEAC JUMP JUMPDEST PUSH1 0x40 MLOAD PUSH2 0x359 SWAP2 SWAP1 PUSH2 0x2C95 JUMP JUMPDEST PUSH1 0x40 MLOAD DUP1 SWAP2 SUB SWAP1 RETURN JUMPDEST CALLVALUE DUP1 ISZERO PUSH2 0x36D JUMPI PUSH0 PUSH0 REVERT JUMPDEST POP PUSH2 0x376 PUSH2 0xF47 JUMP JUMPDEST PUSH1 0x40 MLOAD PUSH2 0x383 SWAP2 SWAP1 PUSH2 0x2712 JUMP JUMPDEST PUSH1 0x40 MLOAD DUP1 SWAP2 SUB SWAP1 RETURN JUMPDEST CALLVALUE DUP1 ISZERO PUSH2 0x397 JUMPI PUSH0 PUSH0 REVERT JUMPDEST POP PUSH2 0x3B2 PUSH1 0x4 DUP1 CALLDATASIZE SUB DUP2 ADD SWAP1 PUSH2 0x3AD SWAP2 SWAP1 PUSH2 0x2796 JUMP JUMPDEST PUSH2 0xF53 JUMP JUMPDEST PUSH1 0x40 MLOAD PUSH2 0x3BF SWAP2 SWAP1 PUSH2 0x2712 JUMP JUMPDEST PUSH1 0x40 MLOAD DUP1 SWAP2 SUB SWAP1 RETURN JUMPDEST CALLVALUE DUP1 ISZERO PUSH2 0x3D3 JUMPI PUSH0 PUSH0 REVERT JUMPDEST POP PUSH2 0x3EE PUSH1 0x4 DUP1 CALLDATASIZE SUB DUP2 ADD SWAP1 PUSH2 0x3E9 SWAP2 SWAP1 PUSH2 0x2796 JUMP JUMPDEST PUSH2 0xF68 JUMP JUMPDEST PUSH1 0x40 MLOAD PUSH2 0x3FB SWAP2 SWAP1 PUSH2 0x2712 JUMP JUMPDEST PUSH1 0x40 MLOAD DUP1 SWAP2 SUB SWAP1 RETURN JUMPDEST CALLVALUE DUP1 ISZERO PUSH2 0x40F JUMPI PUSH0 PUSH0 REVERT JUMPDEST POP PUSH2 0x42A PUSH1 0x4 DUP1 CALLDATASIZE SUB DUP2 ADD SWAP1 PUSH2 0x425 SWAP2 SWAP1 PUSH2 0x2CB5 JUMP JUMPDEST PUSH2 0xF7D JUMP JUMPDEST STOP JUMPDEST CALLVALUE DUP1 ISZERO PUSH2 0x437 JUMPI PUSH0 PUSH0 REVERT JUMPDEST POP PUSH2 0x452 PUSH1 0x4 DUP1 CALLDATASIZE SUB DUP2 ADD SWAP1 PUSH2 0x44D SWAP2 SWAP1 PUSH2 0x2796 JUMP JUMPDEST PUSH2 0x10F2 JUMP JUMPDEST PUSH1 0x40 MLOAD PUSH2 0x45F SWAP2 SWAP1 PUSH2 0x2D1A JUMP JUMPDEST PUSH1 0x40 MLOAD DUP1 SWAP2 SUB SWAP1 RETURN JUMPDEST CALLVALUE DUP1 ISZERO PUSH2 0x473 JUMPI PUSH0 PUSH0 REVERT JUMPDEST POP PUSH2 0x47C PUSH2 0x110F JUMP JUMPDEST PUSH1 0x40 MLOAD PUSH2 0x489 SWAP2 SWAP1 PUSH2 0x2712 JUMP JUMPDEST PUSH1 0x40 MLOAD DUP1 SWAP2 SUB SWAP1 RETURN JUMPDEST PUSH2 0x49A PUSH2 0x1115 JUMP JUMPDEST STOP JUMPDEST CALLVALUE DUP1 ISZERO PUSH2 0x4A7 JUMPI PUSH0 PUSH0 REVERT JUMPDEST POP PUSH2 0x4C2 PUSH1 0x4 DUP1 CALLDATASIZE SUB DUP2 ADD SWAP1 PUSH2 0x4BD SWAP2 SWAP1 PUSH2 0x2796 JUMP JUMPDEST PUSH2 0x1215 JUMP JUMPDEST STOP JUMPDEST CALLVALUE DUP1 ISZERO PUSH2 0x4CF JUMPI PUSH0 PUSH0 REVERT JUMPDEST POP PUSH2 0x4EA PUSH1 0x4 DUP1 CALLDATASIZE SUB DUP2 ADD SWAP1 PUSH2 0x4E5 SWAP2 SWAP1 PUSH2 0x2B8F JUMP JUMPDEST PUSH2 0x1299 JUMP JUMPDEST STOP JUMPDEST CALLVALUE DUP1 ISZERO PUSH2 0x4F7 JUMPI PUSH0 PUSH0 REVERT JUMPDEST POP PUSH2 0x512 PUSH1 0x4 DUP1 CALLDATASIZE SUB DUP2 ADD SWAP1 PUSH2 0x50D SWAP2 SWAP1 PUSH2 0x28E4 JUMP JUMPDEST PUSH2 0x1362 JUMP JUMPDEST STOP JUMPDEST CALLVALUE DUP1 ISZERO PUSH2 0x51F JUMPI PUSH0 PUSH0 REVERT JUMPDEST POP PUSH2 0x53A PUSH1 0x4 DUP1 CALLDATASIZE SUB DUP2 ADD SWAP1 PUSH2 0x535 SWAP2 SWAP1 PUSH2 0x2D33 JUMP JUMPDEST PUSH2 0x1568 JUMP JUMPDEST PUSH1 0x40 MLOAD PUSH2 0x547 SWAP2 SWAP1 PUSH2 0x2C1C JUMP JUMPDEST PUSH1 0x40 MLOAD DUP1 SWAP2 SUB SWAP1 RETURN JUMPDEST CALLVALUE DUP1 ISZERO PUSH2 0x55B JUMPI PUSH0 PUSH0 REVERT JUMPDEST POP PUSH2 0x576 PUSH1 0x4 DUP1 CALLDATASIZE SUB DUP2 ADD SWAP1 PUSH2 0x571 SWAP2 SWAP1 PUSH2 0x2D33 JUMP JUMPDEST PUSH2 0x15A3 JUMP JUMPDEST STOP JUMPDEST PUSH1 0x33 SLOAD DUP2 JUMP JUMPDEST PUSH1 0x35 PUSH0 DUP3 PUSH20 0xFFFFFFFFFFFFFFFFFFFFFFFFFFFFFFFFFFFFFFFF AND PUSH20 0xFFFFFFFFFFFFFFFFFFFFFFFFFFFFFFFFFFFFFFFF AND DUP2 MSTORE PUSH1 0x20 ADD SWAP1 DUP2 MSTORE PUSH1 0x20 ADD PUSH0 KECCAK256 PUSH0 SWAP1 SLOAD SWAP1 PUSH2 0x100 EXP SWAP1 DIV PUSH1 0xFF AND PUSH2 0x607 JUMPI PUSH1 0x40 MLOAD PUSH32 0x8C379A000000000000000000000000000000000000000000000000000000000 DUP2 MSTORE PUSH1 0x4 ADD PUSH2 0x5FE SWAP1 PUSH2 0x2DA8 JUMP JUMPDEST PUSH1 0x40 MLOAD DUP1 SWAP2 SUB SWAP1 REVERT JUMPDEST PUSH1 0x32 SLOAD CALLVALUE LT ISZERO PUSH2 0x64C JUMPI PUSH1 0x40 MLOAD PUSH32 0x8C379A000000000000000000000000000000000000000000000000000000000 DUP2 MSTORE PUSH1 0x4 ADD PUSH2 0x643 SWAP1 PUSH2 0x2E10 JUMP JUMPDEST PUSH1 0x40 MLOAD DUP1 SWAP2 SUB SWAP1 REVERT JUMPDEST CALLVALUE PUSH1 0x34 PUSH0 CALLER PUSH20 0xFFFFFFFFFFFFFFFFFFFFFFFFFFFFFFFFFFFFFFFF AND PUSH20 0xFFFFFFFFFFFFFFFFFFFFFFFFFFFFFFFFFFFFFFFF AND DUP2 MSTORE PUSH1 0x20 ADD SWAP1 DUP2 MSTORE PUSH1 0x20 ADD PUSH0 KECCAK256 PUSH0 DUP3 DUP3 SLOAD PUSH2 0x698 SWAP2 SWAP1 PUSH2 0x2E5B JUMP JUMPDEST SWAP3 POP POP DUP2 SWAP1 SSTORE POP CALLVALUE PUSH1 0x33 PUSH0 DUP3 DUP3 SLOAD PUSH2 0x6B0 SWAP2 SWAP1 PUSH2 0x2E5B JUMP JUMPDEST SWAP3 POP POP DUP2 SWAP1 SSTORE POP CALLVALUE PUSH1 0x36 PUSH0 DUP4 PUSH20 0xFFFFFFFFFFFFFFFFFFFFFFFFFFFFFFFFFFFFFFFF AND PUSH20 0xFFFFFFFFFFFFFFFFFFFFFFFFFFFFFFFFFFFFFFFF AND DUP2 MSTORE PUSH1 0x20 ADD SWAP1 DUP2 MSTORE PUSH1 0x20 ADD PUSH0 KECCAK256 PUSH0 DUP3 DUP3 SLOAD PUSH2 0x703 SWAP2 SWAP1 PUSH2 0x2E5B JUMP JUMPDEST SWAP3 POP POP DUP2 SWAP1 SSTORE POP DUP1 PUSH20 0xFFFFFFFFFFFFFFFFFFFFFFFFFFFFFFFFFFFFFFFF AND CALLER PUSH20 0xFFFFFFFFFFFFFFFFFFFFFFFFFFFFFFFFFFFFFFFF AND PUSH32 0xDA80F1AF1EB5747D371B21ABDBC3F061B1F8F53BAE262A8B1D91476CF5EC191D CALLVALUE PUSH1 0x40 MLOAD PUSH2 0x767 SWAP2 SWAP1 PUSH2 0x2712 JUMP JUMPDEST PUSH1 0x40 MLOAD DUP1 SWAP2 SUB SWAP1 LOG3 POP JUMP JUMPDEST PUSH2 0x77A PUSH2 0x177D JUMP JUMPDEST PUSH2 0x785 DUP4 DUP4 DUP4 PUSH2 0x1804 JUMP JUMPDEST POP POP POP JUMP JUMPDEST PUSH2 0x792 PUSH2 0x1939 JUMP JUMPDEST PUSH1 0x35 PUSH0 CALLER PUSH20 0xFFFFFFFFFFFFFFFFFFFFFFFFFFFFFFFFFFFFFFFF AND PUSH20 0xFFFFFFFFFFFFFFFFFFFFFFFFFFFFFFFFFFFFFFFF AND DUP2 MSTORE PUSH1 0x20 ADD SWAP1 DUP2 MSTORE PUSH1 0x20 ADD PUSH0 KECCAK256 PUSH0 SWAP1 SLOAD SWAP1 PUSH2 0x100 EXP SWAP1 DIV PUSH1 0xFF AND PUSH2 0x81B JUMPI PUSH1 0x40 MLOAD PUSH32 0x8C379A000000000000000000000000000000000000000000000000000000000 DUP2 MSTORE PUSH1 0x4 ADD PUSH2 0x812 SWAP1 PUSH2 0x2ED8 JUMP JUMPDEST PUSH1 0x40 MLOAD DUP1 SWAP2 SUB SWAP1 REVERT JUMPDEST PUSH0 PUSH20 0xFFFFFFFFFFFFFFFFFFFFFFFFFFFFFFFFFFFFFFFF AND DUP3 PUSH20 0xFFFFFFFFFFFFFFFFFFFFFFFFFFFFFFFFFFFFFFFF AND SUB PUSH2 0x889 JUMPI PUSH1 0x40 MLOAD PUSH32 0x8C379A000000000000000000000000000000000000000000000000000000000 DUP2 MSTORE PUSH1 0x4 ADD PUSH2 0x880 SWAP1 PUSH2 0x2F40 JUMP JUMPDEST PUSH1 0x40 MLOAD DUP1 SWAP2 SUB SWAP1 REVERT JUMPDEST PUSH0 DUP2 GT PUSH2 0x8CB JUMPI PUSH1 0x40 MLOAD PUSH32 0x8C379A000000000000000000000000000000000000000000000000000000000 DUP2 MSTORE PUSH1 0x4 ADD PUSH2 0x8C2 SWAP1 PUSH2 0x2FA8 JUMP JUMPDEST PUSH1 0x40 MLOAD DUP1 SWAP2 SUB SWAP1 REVERT JUMPDEST PUSH1 0x36 PUSH0 CALLER PUSH20 0xFFFFFFFFFFFFFFFFFFFFFFFFFFFFFFFFFFFFFFFF AND PUSH20 0xFFFFFFFFFFFFFFFFFFFFFFFFFFFFFFFFFFFFFFFF AND DUP2 MSTORE PUSH1 0x20 ADD SWAP1 DUP2 MSTORE PUSH1 0x20 ADD PUSH0 KECCAK256 SLOAD DUP2 GT ISZERO PUSH2 0x94B JUMPI PUSH1 0x40 MLOAD PUSH32 0x8C379A000000000000000000000000000000000000000000000000000000000 DUP2 MSTORE PUSH1 0x4 ADD PUSH2 0x942 SWAP1 PUSH2 0x3010 JUMP JUMPDEST PUSH1 0x40 MLOAD DUP1 SWAP2 SUB SWAP1 REVERT JUMPDEST DUP1 PUSH1 0x36 PUSH0 CALLER PUSH20 0xFFFFFFFFFFFFFFFFFFFFFFFFFFFFFFFFFFFFFFFF AND PUSH20 0xFFFFFFFFFFFFFFFFFFFFFFFFFFFFFFFFFFFFFFFF AND DUP2 MSTORE PUSH1 0x20 ADD SWAP1 DUP2 MSTORE PUSH1 0x20 ADD PUSH0 KECCAK256 PUSH0 DUP3 DUP3 SLOAD PUSH2 0x997 SWAP2 SWAP1 PUSH2 0x302E JUMP JUMPDEST SWAP3 POP POP DUP2 SWAP1 SSTORE POP PUSH0 DUP3 PUSH20 0xFFFFFFFFFFFFFFFFFFFFFFFFFFFFFFFFFFFFFFFF AND DUP3 PUSH1 0x40 MLOAD PUSH2 0x9C3 SWAP1 PUSH2 0x308E JUMP JUMPDEST PUSH0 PUSH1 0x40 MLOAD DUP1 DUP4 SUB DUP2 DUP6 DUP8 GAS CALL SWAP3 POP POP POP RETURNDATASIZE DUP1 PUSH0 DUP2 EQ PUSH2 0x9FD JUMPI PUSH1 0x40 MLOAD SWAP2 POP PUSH1 0x1F NOT PUSH1 0x3F RETURNDATASIZE ADD AND DUP3 ADD PUSH1 0x40 MSTORE RETURNDATASIZE DUP3 MSTORE RETURNDATASIZE PUSH0 PUSH1 0x20 DUP5 ADD RETURNDATACOPY PUSH2 0xA02 JUMP JUMPDEST PUSH1 0x60 SWAP2 POP JUMPDEST POP POP SWAP1 POP DUP1 PUSH2 0xA46 JUMPI PUSH1 0x40 MLOAD PUSH32 0x8C379A000000000000000000000000000000000000000000000000000000000 DUP2 MSTORE PUSH1 0x4 ADD PUSH2 0xA3D SWAP1 PUSH2 0x30EC JUMP JUMPDEST PUSH1 0x40 MLOAD DUP1 SWAP2 SUB SWAP1 REVERT JUMPDEST DUP3 PUSH20 0xFFFFFFFFFFFFFFFFFFFFFFFFFFFFFFFFFFFFFFFF AND CALLER PUSH20 0xFFFFFFFFFFFFFFFFFFFFFFFFFFFFFFFFFFFFFFFF AND PUSH32 0xD12A7186F17F056536CE7208A6B27E2E22C25ED633727E9EB92CCE0F018C47AE DUP5 PUSH1 0x40 MLOAD PUSH2 0xAA3 SWAP2 SWAP1 PUSH2 0x2712 JUMP JUMPDEST PUSH1 0x40 MLOAD DUP1 SWAP2 SUB SWAP1 LOG3 POP PUSH2 0xAB4 PUSH2 0x1986 JUMP JUMPDEST POP POP JUMP JUMPDEST PUSH2 0xAC0 PUSH2 0x198F JUMP JUMPDEST PUSH2 0xAC9 DUP3 PUSH2 0x1A75 JUMP JUMPDEST PUSH2 0xAD3 DUP3 DUP3 PUSH2 0x1A80 JUMP JUMPDEST POP POP JUMP JUMPDEST PUSH0 PUSH2 0xAE0 PUSH2 0x1B9E JUMP JUMPDEST PUSH32 0x360894A13BA1A3210667C828492DB98DCA3E2076CC3735A920A3CA505D382BBC PUSH0 SHL SWAP1 POP SWAP1 JUMP JUMPDEST PUSH2 0xB10 PUSH2 0x177D JUMP JUMPDEST PUSH2 0xB19 PUSH0 PUSH2 0x1C25 JUMP JUMPDEST JUMP JUMPDEST PUSH1 0x3 PUSH0 PUSH2 0xB26 PUSH2 0x1CF6 JUMP JUMPDEST SWAP1 POP DUP1 PUSH0 ADD PUSH1 0x8 SWAP1 SLOAD SWAP1 PUSH2 0x100 EXP SWAP1 DIV PUSH1 0xFF AND DUP1 PUSH2 0xB6E JUMPI POP DUP2 PUSH8 0xFFFFFFFFFFFFFFFF AND DUP2 PUSH0 ADD PUSH0 SWAP1 SLOAD SWAP1 PUSH2 0x100 EXP SWAP1 DIV PUSH8 0xFFFFFFFFFFFFFFFF AND PUSH8 0xFFFFFFFFFFFFFFFF AND LT ISZERO JUMPDEST ISZERO PUSH2 0xBA5 JUMPI PUSH1 0x40 MLOAD PUSH32 0xF92EE8A900000000000000000000000000000000000000000000000000000000 DUP2 MSTORE PUSH1 0x4 ADD PUSH1 0x40 MLOAD DUP1 SWAP2 SUB SWAP1 REVERT JUMPDEST DUP2 DUP2 PUSH0 ADD PUSH0 PUSH2 0x100 EXP DUP2 SLOAD DUP2 PUSH8 0xFFFFFFFFFFFFFFFF MUL NOT AND SWAP1 DUP4 PUSH8 0xFFFFFFFFFFFFFFFF AND MUL OR SWAP1 SSTORE POP PUSH1 0x1 DUP2 PUSH0 ADD PUSH1 0x8 PUSH2 0x100 EXP DUP2 SLOAD DUP2 PUSH1 0xFF MUL NOT AND SWAP1 DUP4 ISZERO ISZERO MUL OR SWAP1 SSTORE POP DUP4 DUP4 SWAP1 POP DUP7 DUP7 SWAP1 POP EQ PUSH2 0xC32 JUMPI PUSH1 0x40 MLOAD PUSH32 0x8C379A000000000000000000000000000000000000000000000000000000000 DUP2 MSTORE PUSH1 0x4 ADD PUSH2 0xC29 SWAP1 PUSH2 0x3154 JUMP JUMPDEST PUSH1 0x40 MLOAD DUP1 SWAP2 SUB SWAP1 REVERT JUMPDEST PUSH0 PUSH0 SWAP1 POP JUMPDEST DUP7 DUP7 SWAP1 POP DUP2 LT ISZERO PUSH2 0xCA4 JUMPI PUSH2 0xC97 DUP8 DUP8 DUP4 DUP2 DUP2 LT PUSH2 0xC58 JUMPI PUSH2 0xC57 PUSH2 0x3172 JUMP JUMPDEST JUMPDEST SWAP1 POP PUSH1 0x20 MUL ADD PUSH1 0x20 DUP2 ADD SWAP1 PUSH2 0xC6D SWAP2 SWAP1 PUSH2 0x2796 JUMP JUMPDEST DUP7 DUP7 DUP5 DUP2 DUP2 LT PUSH2 0xC80 JUMPI PUSH2 0xC7F PUSH2 0x3172 JUMP JUMPDEST JUMPDEST SWAP1 POP PUSH1 0x20 MUL DUP2 ADD SWAP1 PUSH2 0xC92 SWAP2 SWAP1 PUSH2 0x31AB JUMP JUMPDEST PUSH2 0x1804 JUMP JUMPDEST DUP1 DUP1 PUSH1 0x1 ADD SWAP2 POP POP PUSH2 0xC37 JUMP JUMPDEST POP PUSH0 DUP2 PUSH0 ADD PUSH1 0x8 PUSH2 0x100 EXP DUP2 SLOAD DUP2 PUSH1 0xFF MUL NOT AND SWAP1 DUP4 ISZERO ISZERO MUL OR SWAP1 SSTORE POP PUSH32 0xC7F505B2F371AE2175EE4913F4499E1F2633A7B5936321EED1CDAEB6115181D2 DUP3 PUSH1 0x40 MLOAD PUSH2 0xCEF SWAP2 SWAP1 PUSH2 0x322F JUMP JUMPDEST PUSH1 0x40 MLOAD DUP1 SWAP2 SUB SWAP1 LOG1 POP POP POP POP POP POP JUMP JUMPDEST PUSH2 0xD07 PUSH2 0x177D JUMP JUMPDEST PUSH2 0xD10 DUP2 PUSH2 0x1D09 JUMP JUMPDEST POP JUMP JUMPDEST PUSH0 PUSH0 PUSH2 0xD1D PUSH2 0x1EFC JUMP JUMPDEST SWAP1 POP DUP1 PUSH0 ADD PUSH0 SWAP1 SLOAD SWAP1 PUSH2 0x100 EXP SWAP1 DIV PUSH20 0xFFFFFFFFFFFFFFFFFFFFFFFFFFFFFFFFFFFFFFFF AND SWAP2 POP POP SWAP1 JUMP JUMPDEST PUSH2 0xD50 PUSH2 0x177D JUMP JUMPDEST PUSH1 0x35 PUSH0 DUP3 PUSH20 0xFFFFFFFFFFFFFFFFFFFFFFFFFFFFFFFFFFFFFFFF AND PUSH20 0xFFFFFFFFFFFFFFFFFFFFFFFFFFFFFFFFFFFFFFFF AND DUP2 MSTORE PUSH1 0x20 ADD SWAP1 DUP2 MSTORE PUSH1 0x20 ADD PUSH0 KECCAK256 PUSH0 SWAP1 SLOAD SWAP1 PUSH2 0x100 EXP SWAP1 DIV PUSH1 0xFF AND PUSH2 0xDD9 JUMPI PUSH1 0x40 MLOAD PUSH32 0x8C379A000000000000000000000000000000000000000000000000000000000 DUP2 MSTORE PUSH1 0x4 ADD PUSH2 0xDD0 SWAP1 PUSH2 0x3292 JUMP JUMPDEST PUSH1 0x40 MLOAD DUP1 SWAP2 SUB SWAP1 REVERT JUMPDEST PUSH0 PUSH1 0x35 PUSH0 DUP4 PUSH20 0xFFFFFFFFFFFFFFFFFFFFFFFFFFFFFFFFFFFFFFFF AND PUSH20 0xFFFFFFFFFFFFFFFFFFFFFFFFFFFFFFFFFFFFFFFF AND DUP2 MSTORE PUSH1 0x20 ADD SWAP1 DUP2 MSTORE PUSH1 0x20 ADD PUSH0 KECCAK256 PUSH0 PUSH2 0x100 EXP DUP2 SLOAD DUP2 PUSH1 0xFF MUL NOT AND SWAP1 DUP4 ISZERO ISZERO MUL OR SWAP1 SSTORE POP DUP1 PUSH20 0xFFFFFFFFFFFFFFFFFFFFFFFFFFFFFFFFFFFFFFFF AND PUSH32 0x7DB8DF158D85E9475E8DD97A5E3E193C67DC6D977D2FC4F7321049B6C0B70E93 PUSH1 0x40 MLOAD PUSH1 0x40 MLOAD DUP1 SWAP2 SUB SWAP1 LOG2 POP JUMP JUMPDEST PUSH1 0x40 MLOAD DUP1 PUSH1 0x40 ADD PUSH1 0x40 MSTORE DUP1 PUSH1 0x5 DUP2 MSTORE PUSH1 0x20 ADD PUSH32 0x352E302E30000000000000000000000000000000000000000000000000000000 DUP2 MSTORE POP DUP2 JUMP JUMPDEST PUSH1 0x38 PUSH1 0x20 MSTORE DUP1 PUSH0 MSTORE PUSH1 0x40 PUSH0 KECCAK256 PUSH0 SWAP2 POP SWAP1 POP DUP1 SLOAD PUSH2 0xEC8 SWAP1 PUSH2 0x32DD JUMP JUMPDEST DUP1 PUSH1 0x1F ADD PUSH1 0x20 DUP1 SWAP2 DIV MUL PUSH1 0x20 ADD PUSH1 0x40 MLOAD SWAP1 DUP2 ADD PUSH1 0x40 MSTORE DUP1 SWAP3 SWAP2 SWAP1 DUP2 DUP2 MSTORE PUSH1 0x20 ADD DUP3 DUP1 SLOAD PUSH2 0xEF4 SWAP1 PUSH2 0x32DD JUMP JUMPDEST DUP1 ISZERO PUSH2 0xF3F JUMPI DUP1 PUSH1 0x1F LT PUSH2 0xF16 JUMPI PUSH2 0x100 DUP1 DUP4 SLOAD DIV MUL DUP4 MSTORE SWAP2 PUSH1 0x20 ADD SWAP2 PUSH2 0xF3F JUMP JUMPDEST DUP3 ADD SWAP2 SWAP1 PUSH0 MSTORE PUSH1 0x20 PUSH0 KECCAK256 SWAP1 JUMPDEST DUP2 SLOAD DUP2 MSTORE SWAP1 PUSH1 0x1 ADD SWAP1 PUSH1 0x20 ADD DUP1 DUP4 GT PUSH2 0xF22 JUMPI DUP3 SWAP1 SUB PUSH1 0x1F AND DUP3 ADD SWAP2 JUMPDEST POP POP POP POP POP DUP2 JUMP JUMPDEST PUSH0 PUSH1 0x37 DUP1 SLOAD SWAP1 POP SWAP1 POP SWAP1 JUMP JUMPDEST PUSH1 0x36 PUSH1 0x20 MSTORE DUP1 PUSH0 MSTORE PUSH1 0x40 PUSH0 KECCAK256 PUSH0 SWAP2 POP SWAP1 POP SLOAD DUP2 JUMP JUMPDEST PUSH1 0x34 PUSH1 0x20 MSTORE DUP1 PUSH0 MSTORE PUSH1 0x40 PUSH0 KECCAK256 PUSH0 SWAP2 POP SWAP1 POP SLOAD DUP2 JUMP JUMPDEST PUSH1 0x2 PUSH0 PUSH2 0xF88 PUSH2 0x1CF6 JUMP JUMPDEST SWAP1 POP DUP1 PUSH0 ADD PUSH1 0x8 SWAP1 SLOAD SWAP1 PUSH2 0x100 EXP SWAP1 DIV PUSH1 0xFF AND DUP1 PUSH2 0xFD0 JUMPI POP DUP2 PUSH8 0xFFFFFFFFFFFFFFFF AND DUP2 PUSH0 ADD PUSH0 SWAP1 SLOAD SWAP1 PUSH2 0x100 EXP SWAP1 DIV PUSH8 0xFFFFFFFFFFFFFFFF AND PUSH8 0xFFFFFFFFFFFFFFFF AND LT ISZERO JUMPDEST ISZERO PUSH2 0x1007 JUMPI PUSH1 0x40 MLOAD PUSH32 0xF92EE8A900000000000000000000000000000000000000000000000000000000 DUP2 MSTORE PUSH1 0x4 ADD PUSH1 0x40 MLOAD DUP1 SWAP2 SUB SWAP1 REVERT JUMPDEST DUP2 DUP2 PUSH0 ADD PUSH0 PUSH2 0x100 EXP DUP2 SLOAD DUP2 PUSH8 0xFFFFFFFFFFFFFFFF MUL NOT AND SWAP1 DUP4 PUSH8 0xFFFFFFFFFFFFFFFF AND MUL OR SWAP1 SSTORE POP PUSH1 0x1 DUP2 PUSH0 ADD PUSH1 0x8 PUSH2 0x100 EXP DUP2 SLOAD DUP2 PUSH1 0xFF MUL NOT AND SWAP1 DUP4 ISZERO ISZERO MUL OR SWAP1 SSTORE POP PUSH0 PUSH0 SWAP1 POP JUMPDEST DUP5 DUP5 SWAP1 POP DUP2 LT ISZERO PUSH2 0x1099 JUMPI PUSH2 0x108C DUP6 DUP6 DUP4 DUP2 DUP2 LT PUSH2 0x1072 JUMPI PUSH2 0x1071 PUSH2 0x3172 JUMP JUMPDEST JUMPDEST SWAP1 POP PUSH1 0x20 MUL ADD PUSH1 0x20 DUP2 ADD SWAP1 PUSH2 0x1087 SWAP2 SWAP1 PUSH2 0x2796 JUMP JUMPDEST PUSH2 0x1D09 JUMP JUMPDEST DUP1 DUP1 PUSH1 0x1 ADD SWAP2 POP POP PUSH2 0x1051 JUMP JUMPDEST POP PUSH0 DUP2 PUSH0 ADD PUSH1 0x8 PUSH2 0x100 EXP DUP2 SLOAD DUP2 PUSH1 0xFF MUL NOT AND SWAP1 DUP4 ISZERO ISZERO MUL OR SWAP1 SSTORE POP PUSH32 0xC7F505B2F371AE2175EE4913F4499E1F2633A7B5936321EED1CDAEB6115181D2 DUP3 PUSH1 0x40 MLOAD PUSH2 0x10E4 SWAP2 SWAP1 PUSH2 0x322F JUMP JUMPDEST PUSH1 0x40 MLOAD DUP1 SWAP2 SUB SWAP1 LOG1 POP POP POP POP JUMP JUMPDEST PUSH1 0x35 PUSH1 0x20 MSTORE DUP1 PUSH0 MSTORE PUSH1 0x40 PUSH0 KECCAK256 PUSH0 SWAP2 POP SLOAD SWAP1 PUSH2 0x100 EXP SWAP1 DIV PUSH1 0xFF AND DUP2 JUMP JUMPDEST PUSH1 0x32 SLOAD DUP2 JUMP JUMPDEST PUSH1 0x32 SLOAD CALLVALUE LT ISZERO PUSH2 0x115A JUMPI PUSH1 0x40 MLOAD PUSH32 0x8C379A000000000000000000000000000000000000000000000000000000000 DUP2 MSTORE PUSH1 0x4 ADD PUSH2 0x1151 SWAP1 PUSH2 0x2E10 JUMP JUMPDEST PUSH1 0x40 MLOAD DUP1 SWAP2 SUB SWAP1 REVERT JUMPDEST CALLVALUE PUSH1 0x34 PUSH0 CALLER PUSH20 0xFFFFFFFFFFFFFFFFFFFFFFFFFFFFFFFFFFFFFFFF AND PUSH20 0xFFFFFFFFFFFFFFFFFFFFFFFFFFFFFFFFFFFFFFFF AND DUP2 MSTORE PUSH1 0x20 ADD SWAP1 DUP2 MSTORE PUSH1 0x20 ADD PUSH0 KECCAK256 PUSH0 DUP3 DUP3 SLOAD PUSH2 0x11A6 SWAP2 SWAP1 PUSH2 0x2E5B JUMP JUMPDEST SWAP3 POP POP DUP2 SWAP1 SSTORE POP CALLVALUE PUSH1 0x33 PUSH0 DUP3 DUP3 SLOAD PUSH2 0x11BE SWAP2 SWAP1 PUSH2 0x2E5B JUMP JUMPDEST SWAP3 POP POP DUP2 SWAP1 SSTORE POP CALLER PUSH20 0xFFFFFFFFFFFFFFFFFFFFFFFFFFFFFFFFFFFFFFFF AND PUSH32 0x2A01595CDDF097C90216094025DB714DA3F4E5BD8877B56BA86A24ECEAD8E543 CALLVALUE PUSH1 0x40 MLOAD PUSH2 0x120B SWAP2 SWAP1 PUSH2 0x2712 JUMP JUMPDEST PUSH1 0x40 MLOAD DUP1 SWAP2 SUB SWAP1 LOG2 JUMP JUMPDEST PUSH2 0x121D PUSH2 0x177D JUMP JUMPDEST PUSH0 PUSH20 0xFFFFFFFFFFFFFFFFFFFFFFFFFFFFFFFFFFFFFFFF AND DUP2 PUSH20 0xFFFFFFFFFFFFFFFFFFFFFFFFFFFFFFFFFFFFFFFF AND SUB PUSH2 0x128D JUMPI PUSH0 PUSH1 0x40 MLOAD PUSH32 0x1E4FBDF700000000000000000000000000000000000000000000000000000000 DUP2 MSTORE PUSH1 0x4 ADD PUSH2 0x1284 SWAP2 SWAP1 PUSH2 0x2C1C JUMP JUMPDEST PUSH1 0x40 MLOAD DUP1 SWAP2 SUB SWAP1 REVERT JUMPDEST PUSH2 0x1296 DUP2 PUSH2 0x1C25 JUMP JUMPDEST POP JUMP JUMPDEST PUSH2 0x12A1 PUSH2 0x177D JUMP JUMPDEST DUP2 DUP2 SWAP1 POP DUP5 DUP5 SWAP1 POP EQ PUSH2 0x12E9 JUMPI PUSH1 0x40 MLOAD PUSH32 0x8C379A000000000000000000000000000000000000000000000000000000000 DUP2 MSTORE PUSH1 0x4 ADD PUSH2 0x12E0 SWAP1 PUSH2 0x3154 JUMP JUMPDEST PUSH1 0x40 MLOAD DUP1 SWAP2 SUB SWAP1 REVERT JUMPDEST PUSH0 PUSH0 SWAP1 POP JUMPDEST DUP5 DUP5 SWAP1 POP DUP2 LT ISZERO PUSH2 0x135B JUMPI PUSH2 0x134E DUP6 DUP6 DUP4 DUP2 DUP2 LT PUSH2 0x130F JUMPI PUSH2 0x130E PUSH2 0x3172 JUMP JUMPDEST JUMPDEST SWAP1 POP PUSH1 0x20 MUL ADD PUSH1 0x20 DUP2 ADD SWAP1 PUSH2 0x1324 SWAP2 SWAP1 PUSH2 0x2796 JUMP JUMPDEST DUP5 DUP5 DUP5 DUP2 DUP2 LT PUSH2 0x1337 JUMPI PUSH2 0x1336 PUSH2 0x3172 JUMP JUMPDEST JUMPDEST SWAP1 POP PUSH1 0x20 MUL DUP2 ADD SWAP1 PUSH2 0x1349 SWAP2 SWAP1 PUSH2 0x31AB JUMP JUMPDEST PUSH2 0x1804 JUMP JUMPDEST DUP1 DUP1 PUSH1 0x1 ADD SWAP2 POP POP PUSH2 0x12EE JUMP JUMPDEST POP POP POP POP POP JUMP JUMPDEST PUSH2 0x136A PUSH2 0x177D JUMP JUMPDEST PUSH2 0x1372 PUSH2 0x1939 JUMP JUMPDEST PUSH0 PUSH20 0xFFFFFFFFFFFFFFFFFFFFFFFFFFFFFFFFFFFFFFFF AND DUP3 PUSH20 0xFFFFFFFFFFFFFFFFFFFFFFFFFFFFFFFFFFFFFFFF AND SUB PUSH2 0x13E0 JUMPI PUSH1 0x40 MLOAD PUSH32 0x8C379A000000000000000000000000000000000000000000000000000000000 DUP2 MSTORE PUSH1 0x4 ADD PUSH2 0x13D7 SWAP1 PUSH2 0x2F40 JUMP JUMPDEST PUSH1 0x40 MLOAD DUP1 SWAP2 SUB SWAP1 REVERT JUMPDEST PUSH0 DUP2 GT PUSH2 0x1422 JUMPI PUSH1 0x40 MLOAD PUSH32 0x8C379A000000000000000000000000000000000000000000000000000000000 DUP2 MSTORE PUSH1 0x4 ADD PUSH2 0x1419 SWAP1 PUSH2 0x2FA8 JUMP JUMPDEST PUSH1 0x40 MLOAD DUP1 SWAP2 SUB SWAP1 REVERT JUMPDEST SELFBALANCE DUP2 GT ISZERO PUSH2 0x1465 JUMPI PUSH1 0x40 MLOAD PUSH32 0x8C379A000000000000000000000000000000000000000000000000000000000 DUP2 MSTORE PUSH1 0x4 ADD PUSH2 0x145C SWAP1 PUSH2 0x3357 JUMP JUMPDEST PUSH1 0x40 MLOAD DUP1 SWAP2 SUB SWAP1 REVERT JUMPDEST PUSH0 DUP3 PUSH20 0xFFFFFFFFFFFFFFFFFFFFFFFFFFFFFFFFFFFFFFFF AND DUP3 PUSH1 0x40 MLOAD PUSH2 0x148A SWAP1 PUSH2 0x308E JUMP JUMPDEST PUSH0 PUSH1 0x40 MLOAD DUP1 DUP4 SUB DUP2 DUP6 DUP8 GAS CALL SWAP3 POP POP POP RETURNDATASIZE DUP1 PUSH0 DUP2 EQ PUSH2 0x14C4 JUMPI PUSH1 0x40 MLOAD SWAP2 POP PUSH1 0x1F NOT PUSH1 0x3F RETURNDATASIZE ADD AND DUP3 ADD PUSH1 0x40 MSTORE RETURNDATASIZE DUP3 MSTORE RETURNDATASIZE PUSH0 PUSH1 0x20 DUP5 ADD RETURNDATACOPY PUSH2 0x14C9 JUMP JUMPDEST PUSH1 0x60 SWAP2 POP JUMPDEST POP POP SWAP1 POP DUP1 PUSH2 0x150D JUMPI PUSH1 0x40 MLOAD PUSH32 0x8C379A000000000000000000000000000000000000000000000000000000000 DUP2 MSTORE PUSH1 0x4 ADD PUSH2 0x1504 SWAP1 PUSH2 0x30EC JUMP JUMPDEST PUSH1 0x40 MLOAD DUP1 SWAP2 SUB SWAP1 REVERT JUMPDEST DUP3 PUSH20 0xFFFFFFFFFFFFFFFFFFFFFFFFFFFFFFFFFFFFFFFF AND PUSH32 0x7084F5476618D8E60B11EF0D7D3F06914655ADB8793E28FF7F018D4C76D505D5 DUP4 PUSH1 0x40 MLOAD PUSH2 0x1553 SWAP2 SWAP1 PUSH2 0x2712 JUMP JUMPDEST PUSH1 0x40 MLOAD DUP1 SWAP2 SUB SWAP1 LOG2 POP PUSH2 0x1564 PUSH2 0x1986 JUMP JUMPDEST POP POP JUMP JUMPDEST PUSH1 0x37 DUP2 DUP2 SLOAD DUP2 LT PUSH2 0x1577 JUMPI PUSH0 DUP1 REVERT JUMPDEST SWAP1 PUSH0 MSTORE PUSH1 0x20 PUSH0 KECCAK256 ADD PUSH0 SWAP2 POP SLOAD SWAP1 PUSH2 0x100 EXP SWAP1 DIV PUSH20 0xFFFFFFFFFFFFFFFFFFFFFFFFFFFFFFFFFFFFFFFF AND DUP2 JUMP JUMPDEST PUSH0 PUSH2 0x15AC PUSH2 0x1CF6 JUMP JUMPDEST SWAP1 POP PUSH0 DUP2 PUSH0 ADD PUSH1 0x8 SWAP1 SLOAD SWAP1 PUSH2 0x100 EXP SWAP1 DIV PUSH1 0xFF AND ISZERO SWAP1 POP PUSH0 DUP3 PUSH0 ADD PUSH0 SWAP1 SLOAD SWAP1 PUSH2 0x100 EXP SWAP1 DIV PUSH8 0xFFFFFFFFFFFFFFFF AND SWAP1 POP PUSH0 PUSH0 DUP3 PUSH8 0xFFFFFFFFFFFFFFFF AND EQ DUP1 ISZERO PUSH2 0x15F4 JUMPI POP DUP3 JUMPDEST SWAP1 POP PUSH0 PUSH1 0x1 DUP4 PUSH8 0xFFFFFFFFFFFFFFFF AND EQ DUP1 ISZERO PUSH2 0x1627 JUMPI POP PUSH0 ADDRESS PUSH20 0xFFFFFFFFFFFFFFFFFFFFFFFFFFFFFFFFFFFFFFFF AND EXTCODESIZE EQ JUMPDEST SWAP1 POP DUP2 ISZERO DUP1 ISZERO PUSH2 0x1635 JUMPI POP DUP1 ISZERO JUMPDEST ISZERO PUSH2 0x166C JUMPI PUSH1 0x40 MLOAD PUSH32 0xF92EE8A900000000000000000000000000000000000000000000000000000000 DUP2 MSTORE PUSH1 0x4 ADD PUSH1 0x40 MLOAD DUP1 SWAP2 SUB SWAP1 REVERT JUMPDEST PUSH1 0x1 DUP6 PUSH0 ADD PUSH0 PUSH2 0x100 EXP DUP2 SLOAD DUP2 PUSH8 0xFFFFFFFFFFFFFFFF MUL NOT AND SWAP1 DUP4 PUSH8 0xFFFFFFFFFFFFFFFF AND MUL OR SWAP1 SSTORE POP DUP4 ISZERO PUSH2 0x16B9 JUMPI PUSH1 0x1 DUP6 PUSH0 ADD PUSH1 0x8 PUSH2 0x100 EXP DUP2 SLOAD DUP2 PUSH1 0xFF MUL NOT AND SWAP1 DUP4 ISZERO ISZERO MUL OR SWAP1 SSTORE POP JUMPDEST PUSH0 DUP7 GT PUSH2 0x16FB JUMPI PUSH1 0x40 MLOAD PUSH32 0x8C379A000000000000000000000000000000000000000000000000000000000 DUP2 MSTORE PUSH1 0x4 ADD PUSH2 0x16F2 SWAP1 PUSH2 0x33BF JUMP JUMPDEST PUSH1 0x40 MLOAD DUP1 SWAP2 SUB SWAP1 REVERT JUMPDEST PUSH2 0x1704 CALLER PUSH2 0x1F23 JUMP JUMPDEST PUSH2 0x170C PUSH2 0x1F37 JUMP JUMPDEST PUSH2 0x1714 PUSH2 0x1F49 JUMP JUMPDEST DUP6 PUSH1 0x32 DUP2 SWAP1 SSTORE POP DUP4 ISZERO PUSH2 0x1775 JUMPI PUSH0 DUP6 PUSH0 ADD PUSH1 0x8 PUSH2 0x100 EXP DUP2 SLOAD DUP2 PUSH1 0xFF MUL NOT AND SWAP1 DUP4 ISZERO ISZERO MUL OR SWAP1 SSTORE POP PUSH32 0xC7F505B2F371AE2175EE4913F4499E1F2633A7B5936321EED1CDAEB6115181D2 PUSH1 0x1 PUSH1 0x40 MLOAD PUSH2 0x176C SWAP2 SWAP1 PUSH2 0x341F JUMP JUMPDEST PUSH1 0x40 MLOAD DUP1 SWAP2 SUB SWAP1 LOG1 JUMPDEST POP POP POP POP POP POP JUMP JUMPDEST PUSH2 0x1785 PUSH2 0x1F53 JUMP JUMPDEST PUSH20 0xFFFFFFFFFFFFFFFFFFFFFFFFFFFFFFFFFFFFFFFF AND PUSH2 0x17A3 PUSH2 0xD13 JUMP JUMPDEST PUSH20 0xFFFFFFFFFFFFFFFFFFFFFFFFFFFFFFFFFFFFFFFF AND EQ PUSH2 0x1802 JUMPI PUSH2 0x17C6 PUSH2 0x1F53 JUMP JUMPDEST PUSH1 0x40 MLOAD PUSH32 0x118CDAA700000000000000000000000000000000000000000000000000000000 DUP2 MSTORE PUSH1 0x4 ADD PUSH2 0x17F9 SWAP2 SWAP1 PUSH2 0x2C1C JUMP JUMPDEST PUSH1 0x40 MLOAD DUP1 SWAP2 SUB SWAP1 REVERT JUMPDEST JUMP JUMPDEST PUSH1 0x35 PUSH0 DUP5 PUSH20 0xFFFFFFFFFFFFFFFFFFFFFFFFFFFFFFFFFFFFFFFF AND PUSH20 0xFFFFFFFFFFFFFFFFFFFFFFFFFFFFFFFFFFFFFFFF AND DUP2 MSTORE PUSH1 0x20 ADD SWAP1 DUP2 MSTORE PUSH1 0x20 ADD PUSH0 KECCAK256 PUSH0 SWAP1 SLOAD SWAP1 PUSH2 0x100 EXP SWAP1 DIV PUSH1 0xFF AND PUSH2 0x188D JUMPI PUSH1 0x40 MLOAD PUSH32 0x8C379A000000000000000000000000000000000000000000000000000000000 DUP2 MSTORE PUSH1 0x4 ADD PUSH2 0x1884 SWAP1 PUSH2 0x3292 JUMP JUMPDEST PUSH1 0x40 MLOAD DUP1 SWAP2 SUB SWAP1 REVERT JUMPDEST PUSH2 0x1897 DUP3 DUP3 PUSH2 0x1F5A JUMP JUMPDEST DUP2 DUP2 PUSH1 0x38 PUSH0 DUP7 PUSH20 0xFFFFFFFFFFFFFFFFFFFFFFFFFFFFFFFFFFFFFFFF AND PUSH20 0xFFFFFFFFFFFFFFFFFFFFFFFFFFFFFFFFFFFFFFFF AND DUP2 MSTORE PUSH1 0x20 ADD SWAP1 DUP2 MSTORE PUSH1 0x20 ADD PUSH0 KECCAK256 SWAP2 DUP3 PUSH2 0x18E3 SWAP3 SWAP2 SWAP1 PUSH2 0x35D9 JUMP JUMPDEST POP DUP3 PUSH20 0xFFFFFFFFFFFFFFFFFFFFFFFFFFFFFFFFFFFFFFFF AND PUSH32 0x36E847C5835BBC500F155C6BAF617B3C282EC300768782717AEDF39B4B91F554 DUP4 DUP4 PUSH1 0x40 MLOAD PUSH2 0x192C SWAP3 SWAP2 SWAP1 PUSH2 0x36D2 JUMP JUMPDEST PUSH1 0x40 MLOAD DUP1 SWAP2 SUB SWAP1 LOG2 POP POP POP JUMP JUMPDEST PUSH1 0x2 PUSH0 SLOAD SUB PUSH2 0x197D JUMPI PUSH1 0x40 MLOAD PUSH32 0x8C379A000000000000000000000000000000000000000000000000000000000 DUP2 MSTORE PUSH1 0x4 ADD PUSH2 0x1974 SWAP1 PUSH2 0x373E JUMP JUMPDEST PUSH1 0x40 MLOAD DUP1 SWAP2 SUB SWAP1 REVERT JUMPDEST PUSH1 0x2 PUSH0 DUP2 SWAP1 SSTORE POP JUMP JUMPDEST PUSH1 0x1 PUSH0 DUP2 SWAP1 SSTORE POP JUMP JUMPDEST PUSH32 0x0 PUSH20 0xFFFFFFFFFFFFFFFFFFFFFFFFFFFFFFFFFFFFFFFF AND ADDRESS PUSH20 0xFFFFFFFFFFFFFFFFFFFFFFFFFFFFFFFFFFFFFFFF AND EQ DUP1 PUSH2 0x1A3C JUMPI POP PUSH32 0x0 PUSH20 0xFFFFFFFFFFFFFFFFFFFFFFFFFFFFFFFFFFFFFFFF AND PUSH2 0x1A23 PUSH2 0x22BB JUMP JUMPDEST PUSH20 0xFFFFFFFFFFFFFFFFFFFFFFFFFFFFFFFFFFFFFFFF AND EQ ISZERO JUMPDEST ISZERO PUSH2 0x1A73 JUMPI PUSH1 0x40 MLOAD PUSH32 0xE07C8DBA00000000000000000000000000000000000000000000000000000000 DUP2 MSTORE PUSH1 0x4 ADD PUSH1 0x40 MLOAD DUP1 SWAP2 SUB SWAP1 REVERT JUMPDEST JUMP JUMPDEST PUSH2 0x1A7D PUSH2 0x177D JUMP JUMPDEST POP JUMP JUMPDEST DUP2 PUSH20 0xFFFFFFFFFFFFFFFFFFFFFFFFFFFFFFFFFFFFFFFF AND PUSH4 0x52D1902D PUSH1 0x40 MLOAD DUP2 PUSH4 0xFFFFFFFF AND PUSH1 0xE0 SHL DUP2 MSTORE PUSH1 0x4 ADD PUSH1 0x20 PUSH1 0x40 MLOAD DUP1 DUP4 SUB DUP2 DUP7 GAS STATICCALL SWAP3 POP POP POP DUP1 ISZERO PUSH2 0x1AE8 JUMPI POP PUSH1 0x40 MLOAD RETURNDATASIZE PUSH1 0x1F NOT PUSH1 0x1F DUP3 ADD AND DUP3 ADD DUP1 PUSH1 0x40 MSTORE POP DUP2 ADD SWAP1 PUSH2 0x1AE5 SWAP2 SWAP1 PUSH2 0x3786 JUMP JUMPDEST PUSH1 0x1 JUMPDEST PUSH2 0x1B29 JUMPI DUP2 PUSH1 0x40 MLOAD PUSH32 0x4C9C8CE300000000000000000000000000000000000000000000000000000000 DUP2 MSTORE PUSH1 0x4 ADD PUSH2 0x1B20 SWAP2 SWAP1 PUSH2 0x2C1C JUMP JUMPDEST PUSH1 0x40 MLOAD DUP1 SWAP2 SUB SWAP1 REVERT JUMPDEST PUSH32 0x360894A13BA1A3210667C828492DB98DCA3E2076CC3735A920A3CA505D382BBC PUSH0 SHL DUP2 EQ PUSH2 0x1B8F JUMPI DUP1 PUSH1 0x40 MLOAD PUSH32 0xAA1D49A400000000000000000000000000000000000000000000000000000000 DUP2 MSTORE PUSH1 0x4 ADD PUSH2 0x1B86 SWAP2 SWAP1 PUSH2 0x2ACC JUMP JUMPDEST PUSH1 0x40 MLOAD DUP1 SWAP2 SUB SWAP1 REVERT JUMPDEST PUSH2 0x1B99 DUP4 DUP4 PUSH2 0x230E JUMP JUMPDEST POP POP POP JUMP JUMPDEST PUSH32 0x0 PUSH20 0xFFFFFFFFFFFFFFFFFFFFFFFFFFFFFFFFFFFFFFFF AND ADDRESS PUSH20 0xFFFFFFFFFFFFFFFFFFFFFFFFFFFFFFFFFFFFFFFF AND EQ PUSH2 0x1C23 JUMPI PUSH1 0x40 MLOAD PUSH32 0xE07C8DBA00000000000000000000000000000000000000000000000000000000 DUP2 MSTORE PUSH1 0x4 ADD PUSH1 0x40 MLOAD DUP1 SWAP2 SUB SWAP1 REVERT JUMPDEST JUMP JUMPDEST PUSH0 PUSH2 0x1C2E PUSH2 0x1EFC JUMP JUMPDEST SWAP1 POP PUSH0 DUP2 PUSH0 ADD PUSH0 SWAP1 SLOAD SWAP1 PUSH2 0x100 EXP SWAP1 DIV PUSH20 0xFFFFFFFFFFFFFFFFFFFFFFFFFFFFFFFFFFFFFFFF AND SWAP1 POP DUP3 DUP3 PUSH0 ADD PUSH0 PUSH2 0x100 EXP DUP2 SLOAD DUP2 PUSH20 0xFFFFFFFFFFFFFFFFFFFFFFFFFFFFFFFFFFFFFFFF MUL NOT AND SWAP1 DUP4 PUSH20 0xFFFFFFFFFFFFFFFFFFFFFFFFFFFFFFFFFFFFFFFF AND MUL OR SWAP1 SSTORE POP DUP3 PUSH20 0xFFFFFFFFFFFFFFFFFFFFFFFFFFFFFFFFFFFFFFFF AND DUP2 PUSH20 0xFFFFFFFFFFFFFFFFFFFFFFFFFFFFFFFFFFFFFFFF AND PUSH32 0x8BE0079C531659141344CD1FD0A4F28419497F9722A3DAAFE3B4186F6B6457E0 PUSH1 0x40 MLOAD PUSH1 0x40 MLOAD DUP1 SWAP2 SUB SWAP1 LOG3 POP POP POP JUMP JUMPDEST PUSH0 PUSH0 PUSH2 0x1D00 PUSH2 0x2380 JUMP JUMPDEST SWAP1 POP DUP1 SWAP2 POP POP SWAP1 JUMP JUMPDEST PUSH0 PUSH20 0xFFFFFFFFFFFFFFFFFFFFFFFFFFFFFFFFFFFFFFFF AND DUP2 PUSH20 0xFFFFFFFFFFFFFFFFFFFFFFFFFFFFFFFFFFFFFFFF AND SUB PUSH2 0x1D77 JUMPI PUSH1 0x40 MLOAD PUSH32 0x8C379A000000000000000000000000000000000000000000000000000000000 DUP2 MSTORE PUSH1 0x4 ADD PUSH2 0x1D6E SWAP1 PUSH2 0x37FB JUMP JUMPDEST PUSH1 0x40 MLOAD DUP1 SWAP2 SUB SWAP1 REVERT JUMPDEST PUSH1 0x35 PUSH0 DUP3 PUSH20 0xFFFFFFFFFFFFFFFFFFFFFFFFFFFFFFFFFFFFFFFF AND PUSH20 0xFFFFFFFFFFFFFFFFFFFFFFFFFFFFFFFFFFFFFFFF AND DUP2 MSTORE PUSH1 0x20 ADD SWAP1 DUP2 MSTORE PUSH1 0x20 ADD PUSH0 KECCAK256 PUSH0 SWAP1 SLOAD SWAP1 PUSH2 0x100 EXP SWAP1 DIV PUSH1 0xFF AND ISZERO PUSH2 0x1E01 JUMPI PUSH1 0x40 MLOAD PUSH32 0x8C379A000000000000000000000000000000000000000000000000000000000 DUP2 MSTORE PUSH1 0x4 ADD PUSH2 0x1DF8 SWAP1 PUSH2 0x3863 JUMP JUMPDEST PUSH1 0x40 MLOAD DUP1 SWAP2 SUB SWAP1 REVERT JUMPDEST PUSH1 0x1 PUSH1 0x35 PUSH0 DUP4 PUSH20 0xFFFFFFFFFFFFFFFFFFFFFFFFFFFFFFFFFFFFFFFF AND PUSH20 0xFFFFFFFFFFFFFFFFFFFFFFFFFFFFFFFFFFFFFFFF AND DUP2 MSTORE PUSH1 0x20 ADD SWAP1 DUP2 MSTORE PUSH1 0x20 ADD PUSH0 KECCAK256 PUSH0 PUSH2 0x100 EXP DUP2 SLOAD DUP2 PUSH1 0xFF MUL NOT AND SWAP1 DUP4 ISZERO ISZERO MUL OR SWAP1 SSTORE POP PUSH1 0x37 DUP2 SWAP1 DUP1 PUSH1 0x1 DUP2 SLOAD ADD DUP1 DUP3 SSTORE DUP1 SWAP2 POP POP PUSH1 0x1 SWAP1 SUB SWAP1 PUSH0 MSTORE PUSH1 0x20 PUSH0 KECCAK256 ADD PUSH0 SWAP1 SWAP2 SWAP1 SWAP2 SWAP1 SWAP2 PUSH2 0x100 EXP DUP2 SLOAD DUP2 PUSH20 0xFFFFFFFFFFFFFFFFFFFFFFFFFFFFFFFFFFFFFFFF MUL NOT AND SWAP1 DUP4 PUSH20 0xFFFFFFFFFFFFFFFFFFFFFFFFFFFFFFFFFFFFFFFF AND MUL OR SWAP1 SSTORE POP DUP1 PUSH20 0xFFFFFFFFFFFFFFFFFFFFFFFFFFFFFFFFFFFFFFFF AND PUSH32 0xC17DC19A503D796A336A016F10743118DB2BDADB16AC4C19AFF0160756098635 PUSH1 0x40 MLOAD PUSH1 0x40 MLOAD DUP1 SWAP2 SUB SWAP1 LOG2 POP JUMP JUMPDEST PUSH0 PUSH32 0x9016D09D72D40FDAE2FD8CEAC6B6234C7706214FD39C1CD1E609A0528C199300 SWAP1 POP SWAP1 JUMP JUMPDEST PUSH2 0x1F2B PUSH2 0x23A9 JUMP JUMPDEST PUSH2 0x1F34 DUP2 PUSH2 0x23E9 JUMP JUMPDEST POP JUMP JUMPDEST PUSH2 0x1F3F PUSH2 0x23A9 JUMP JUMPDEST PUSH2 0x1F47 PUSH2 0x246D JUMP JUMPDEST JUMP JUMPDEST PUSH2 0x1F51 PUSH2 0x23A9 JUMP JUMPDEST JUMP JUMPDEST PUSH0 CALLER SWAP1 POP SWAP1 JUMP JUMPDEST CALLDATASIZE PUSH0 DUP4 DUP4 SWAP2 POP SWAP2 POP PUSH1 0x3 DUP3 DUP3 SWAP1 POP LT ISZERO PUSH2 0x1FA9 JUMPI PUSH1 0x40 MLOAD PUSH32 0x8C379A000000000000000000000000000000000000000000000000000000000 DUP2 MSTORE PUSH1 0x4 ADD PUSH2 0x1FA0 SWAP1 PUSH2 0x38CB JUMP JUMPDEST PUSH1 0x40 MLOAD DUP1 SWAP2 SUB SWAP1 REVERT JUMPDEST PUSH1 0x20 DUP3 DUP3 SWAP1 POP GT ISZERO PUSH2 0x1FF0 JUMPI PUSH1 0x40 MLOAD PUSH32 0x8C379A000000000000000000000000000000000000000000000000000000000 DUP2 MSTORE PUSH1 0x4 ADD PUSH2 0x1FE7 SWAP1 PUSH2 0x3933 JUMP JUMPDEST PUSH1 0x40 MLOAD DUP1 SWAP2 SUB SWAP1 REVERT JUMPDEST PUSH0 PUSH0 SWAP1 POP JUMPDEST DUP3 DUP3 SWAP1 POP DUP2 LT ISZERO PUSH2 0x22B4 JUMPI PUSH0 DUP4 DUP4 DUP4 DUP2 DUP2 LT PUSH2 0x2014 JUMPI PUSH2 0x2013 PUSH2 0x3172 JUMP JUMPDEST JUMPDEST SWAP1 POP ADD CALLDATALOAD PUSH1 0xF8 SHR PUSH1 0xF8 SHL SWAP1 POP PUSH0 PUSH1 0x30 PUSH1 0xF8 SHL DUP3 PUSH31 0xFFFFFFFFFFFFFFFFFFFFFFFFFFFFFFFFFFFFFFFFFFFFFFFFFFFFFFFFFFFFFF NOT AND LT ISZERO DUP1 ISZERO PUSH2 0x207D JUMPI POP PUSH1 0x39 PUSH1 0xF8 SHL DUP3 PUSH31 0xFFFFFFFFFFFFFFFFFFFFFFFFFFFFFFFFFFFFFFFFFFFFFFFFFFFFFFFFFFFFFF NOT AND GT ISZERO JUMPDEST DUP1 PUSH2 0x20E0 JUMPI POP PUSH1 0x41 PUSH1 0xF8 SHL DUP3 PUSH31 0xFFFFFFFFFFFFFFFFFFFFFFFFFFFFFFFFFFFFFFFFFFFFFFFFFFFFFFFFFFFFFF NOT AND LT ISZERO DUP1 ISZERO PUSH2 0x20DF JUMPI POP PUSH1 0x5A PUSH1 0xF8 SHL DUP3 PUSH31 0xFFFFFFFFFFFFFFFFFFFFFFFFFFFFFFFFFFFFFFFFFFFFFFFFFFFFFFFFFFFFFF NOT AND GT ISZERO JUMPDEST JUMPDEST DUP1 PUSH2 0x2143 JUMPI POP PUSH1 0x61 PUSH1 0xF8 SHL DUP3 PUSH31 0xFFFFFFFFFFFFFFFFFFFFFFFFFFFFFFFFFFFFFFFFFFFFFFFFFFFFFFFFFFFFFF NOT AND LT ISZERO DUP1 ISZERO PUSH2 0x2142 JUMPI POP PUSH1 0x7A PUSH1 0xF8 SHL DUP3 PUSH31 0xFFFFFFFFFFFFFFFFFFFFFFFFFFFFFFFFFFFFFFFFFFFFFFFFFFFFFFFFFFFFFF NOT AND GT ISZERO JUMPDEST JUMPDEST DUP1 PUSH2 0x2173 JUMPI POP PUSH1 0x20 PUSH1 0xF8 SHL DUP3 PUSH31 0xFFFFFFFFFFFFFFFFFFFFFFFFFFFFFFFFFFFFFFFFFFFFFFFFFFFFFFFFFFFFFF NOT AND EQ JUMPDEST DUP1 PUSH2 0x21A3 JUMPI POP PUSH1 0x2E PUSH1 0xF8 SHL DUP3 PUSH31 0xFFFFFFFFFFFFFFFFFFFFFFFFFFFFFFFFFFFFFFFFFFFFFFFFFFFFFFFFFFFFFF NOT AND EQ JUMPDEST DUP1 PUSH2 0x21D3 JUMPI POP PUSH1 0x2C PUSH1 0xF8 SHL DUP3 PUSH31 0xFFFFFFFFFFFFFFFFFFFFFFFFFFFFFFFFFFFFFFFFFFFFFFFFFFFFFFFFFFFFFF NOT AND EQ JUMPDEST DUP1 PUSH2 0x2203 JUMPI POP PUSH1 0x27 PUSH1 0xF8 SHL DUP3 PUSH31 0xFFFFFFFFFFFFFFFFFFFFFFFFFFFFFFFFFFFFFFFFFFFFFFFFFFFFFFFFFFFFFF NOT AND EQ JUMPDEST DUP1 PUSH2 0x2233 JUMPI POP PUSH1 0x2D PUSH1 0xF8 SHL DUP3 PUSH31 0xFFFFFFFFFFFFFFFFFFFFFFFFFFFFFFFFFFFFFFFFFFFFFFFFFFFFFFFFFFFFFF NOT AND EQ JUMPDEST DUP1 PUSH2 0x2263 JUMPI POP PUSH1 0x26 PUSH1 0xF8 SHL DUP3 PUSH31 0xFFFFFFFFFFFFFFFFFFFFFFFFFFFFFFFFFFFFFFFFFFFFFFFFFFFFFFFFFFFFFF NOT AND EQ JUMPDEST SWAP1 POP DUP1 PUSH2 0x22A5 JUMPI PUSH1 0x40 MLOAD PUSH32 0x8C379A000000000000000000000000000000000000000000000000000000000 DUP2 MSTORE PUSH1 0x4 ADD PUSH2 0x229C SWAP1 PUSH2 0x399B JUMP JUMPDEST PUSH1 0x40 MLOAD DUP1 SWAP2 SUB SWAP1 REVERT JUMPDEST POP POP DUP1 DUP1 PUSH1 0x1 ADD SWAP2 POP POP PUSH2 0x1FF5 JUMP JUMPDEST POP POP POP POP POP JUMP JUMPDEST PUSH0 PUSH2 0x22E7 PUSH32 0x360894A13BA1A3210667C828492DB98DCA3E2076CC3735A920A3CA505D382BBC PUSH0 SHL PUSH2 0x247E JUMP JUMPDEST PUSH0 ADD PUSH0 SWAP1 SLOAD SWAP1 PUSH2 0x100 EXP SWAP1 DIV PUSH20 0xFFFFFFFFFFFFFFFFFFFFFFFFFFFFFFFFFFFFFFFF AND SWAP1 POP SWAP1 JUMP JUMPDEST PUSH2 0x2317 DUP3 PUSH2 0x2487 JUMP JUMPDEST DUP2 PUSH20 0xFFFFFFFFFFFFFFFFFFFFFFFFFFFFFFFFFFFFFFFF AND PUSH32 0xBC7CD75A20EE27FD9ADEBAB32041F755214DBC6BFFA90CC0225B39DA2E5C2D3B PUSH1 0x40 MLOAD PUSH1 0x40 MLOAD DUP1 SWAP2 SUB SWAP1 LOG2 PUSH0 DUP2 MLOAD GT ISZERO PUSH2 0x2373 JUMPI PUSH2 0x236D DUP3 DUP3 PUSH2 0x2550 JUMP JUMPDEST POP PUSH2 0x237C JUMP JUMPDEST PUSH2 0x237B PUSH2 0x25D0 JUMP JUMPDEST JUMPDEST POP POP JUMP JUMPDEST PUSH0 PUSH32 0xF0C57E16840DF040F15088DC2F81FE391C3923BEC73E23A9662EFC9C229C6A00 PUSH0 SHL SWAP1 POP SWAP1 JUMP JUMPDEST PUSH2 0x23B1 PUSH2 0x260C JUMP JUMPDEST PUSH2 0x23E7 JUMPI PUSH1 0x40 MLOAD PUSH32 0xD7E6BCF800000000000000000000000000000000000000000000000000000000 DUP2 MSTORE PUSH1 0x4 ADD PUSH1 0x40 MLOAD DUP1 SWAP2 SUB SWAP1 REVERT JUMPDEST JUMP JUMPDEST PUSH2 0x23F1 PUSH2 0x23A9 JUMP JUMPDEST PUSH0 PUSH20 0xFFFFFFFFFFFFFFFFFFFFFFFFFFFFFFFFFFFFFFFF AND DUP2 PUSH20 0xFFFFFFFFFFFFFFFFFFFFFFFFFFFFFFFFFFFFFFFF AND SUB PUSH2 0x2461 JUMPI PUSH0 PUSH1 0x40 MLOAD PUSH32 0x1E4FBDF700000000000000000000000000000000000000000000000000000000 DUP2 MSTORE PUSH1 0x4 ADD PUSH2 0x2458 SWAP2 SWAP1 PUSH2 0x2C1C JUMP JUMPDEST PUSH1 0x40 MLOAD DUP1 SWAP2 SUB SWAP1 REVERT JUMPDEST PUSH2 0x246A DUP2 PUSH2 0x1C25 JUMP JUMPDEST POP JUMP JUMPDEST PUSH2 0x2475 PUSH2 0x23A9 JUMP JUMPDEST PUSH1 0x1 PUSH0 DUP2 SWAP1 SSTORE POP JUMP JUMPDEST PUSH0 DUP2 SWAP1 POP SWAP2 SWAP1 POP JUMP JUMPDEST PUSH0 DUP2 PUSH20 0xFFFFFFFFFFFFFFFFFFFFFFFFFFFFFFFFFFFFFFFF AND EXTCODESIZE SUB PUSH2 0x24E2 JUMPI DUP1 PUSH1 0x40 MLOAD PUSH32 0x4C9C8CE300000000000000000000000000000000000000000000000000000000 DUP2 MSTORE PUSH1 0x4 ADD PUSH2 0x24D9 SWAP2 SWAP1 PUSH2 0x2C1C JUMP JUMPDEST PUSH1 0x40 MLOAD DUP1 SWAP2 SUB SWAP1 REVERT JUMPDEST DUP1 PUSH2 0x250E PUSH32 0x360894A13BA1A3210667C828492DB98DCA3E2076CC3735A920A3CA505D382BBC PUSH0 SHL PUSH2 0x247E JUMP JUMPDEST PUSH0 ADD PUSH0 PUSH2 0x100 EXP DUP2 SLOAD DUP2 PUSH20 0xFFFFFFFFFFFFFFFFFFFFFFFFFFFFFFFFFFFFFFFF MUL NOT AND SWAP1 DUP4 PUSH20 0xFFFFFFFFFFFFFFFFFFFFFFFFFFFFFFFFFFFFFFFF AND MUL OR SWAP1 SSTORE POP POP JUMP JUMPDEST PUSH1 0x60 PUSH0 PUSH0 DUP5 PUSH20 0xFFFFFFFFFFFFFFFFFFFFFFFFFFFFFFFFFFFFFFFF AND DUP5 PUSH1 0x40 MLOAD PUSH2 0x2579 SWAP2 SWAP1 PUSH2 0x39F3 JUMP JUMPDEST PUSH0 PUSH1 0x40 MLOAD DUP1 DUP4 SUB DUP2 DUP6 GAS DELEGATECALL SWAP2 POP POP RETURNDATASIZE DUP1 PUSH0 DUP2 EQ PUSH2 0x25B1 JUMPI PUSH1 0x40 MLOAD SWAP2 POP PUSH1 0x1F NOT PUSH1 0x3F RETURNDATASIZE ADD AND DUP3 ADD PUSH1 0x40 MSTORE RETURNDATASIZE DUP3 MSTORE RETURNDATASIZE PUSH0 PUSH1 0x20 DUP5 ADD RETURNDATACOPY PUSH2 0x25B6 JUMP JUMPDEST PUSH1 0x60 SWAP2 POP JUMPDEST POP SWAP2 POP SWAP2 POP PUSH2 0x25C6 DUP6 DUP4 DUP4 PUSH2 0x262A JUMP JUMPDEST SWAP3 POP POP POP SWAP3 SWAP2 POP POP JUMP JUMPDEST PUSH0 CALLVALUE GT ISZERO PUSH2 0x260A JUMPI PUSH1 0x40 MLOAD PUSH32 0xB398979F00000000000000000000000000000000000000000000000000000000 DUP2 MSTORE PUSH1 0x4 ADD PUSH1 0x40 MLOAD DUP1 SWAP2 SUB SWAP1 REVERT JUMPDEST JUMP JUMPDEST PUSH0 PUSH2 0x2615 PUSH2 0x1CF6 JUMP JUMPDEST PUSH0 ADD PUSH1 0x8 SWAP1 SLOAD SWAP1 PUSH2 0x100 EXP SWAP1 DIV PUSH1 0xFF AND SWAP1 POP SWAP1 JUMP JUMPDEST PUSH1 0x60 DUP3 PUSH2 0x263F JUMPI PUSH2 0x263A DUP3 PUSH2 0x26B7 JUMP JUMPDEST PUSH2 0x26AF JUMP JUMPDEST PUSH0 DUP3 MLOAD EQ DUP1 ISZERO PUSH2 0x2665 JUMPI POP PUSH0 DUP5 PUSH20 0xFFFFFFFFFFFFFFFFFFFFFFFFFFFFFFFFFFFFFFFF AND EXTCODESIZE EQ JUMPDEST ISZERO PUSH2 0x26A7 JUMPI DUP4 PUSH1 0x40 MLOAD PUSH32 0x9996B31500000000000000000000000000000000000000000000000000000000 DUP2 MSTORE PUSH1 0x4 ADD PUSH2 0x269E SWAP2 SWAP1 PUSH2 0x2C1C JUMP JUMPDEST PUSH1 0x40 MLOAD DUP1 SWAP2 SUB SWAP1 REVERT JUMPDEST DUP2 SWAP1 POP PUSH2 0x26B0 JUMP JUMPDEST JUMPDEST SWAP4 SWAP3 POP POP POP JUMP JUMPDEST PUSH0 DUP2 MLOAD GT ISZERO PUSH2 0x26C8 JUMPI DUP1 MLOAD PUSH1 0x20 DUP3 ADD REVERT JUMPDEST PUSH1 0x40 MLOAD PUSH32 0xD6BDA27500000000000000000000000000000000000000000000000000000000 DUP2 MSTORE PUSH1 0x4 ADD PUSH1 0x40 MLOAD DUP1 SWAP2 SUB SWAP1 REVERT JUMPDEST PUSH0 DUP2 SWAP1 POP SWAP2 SWAP1 POP JUMP JUMPDEST PUSH2 0x270C DUP2 PUSH2 0x26FA JUMP JUMPDEST DUP3 MSTORE POP POP JUMP JUMPDEST PUSH0 PUSH1 0x20 DUP3 ADD SWAP1 POP PUSH2 0x2725 PUSH0 DUP4 ADD DUP5 PUSH2 0x2703 JUMP JUMPDEST SWAP3 SWAP2 POP POP JUMP JUMPDEST PUSH0 PUSH1 0x40 MLOAD SWAP1 POP SWAP1 JUMP JUMPDEST PUSH0 PUSH0 REVERT JUMPDEST PUSH0 PUSH0 REVERT JUMPDEST PUSH0 PUSH20 0xFFFFFFFFFFFFFFFFFFFFFFFFFFFFFFFFFFFFFFFF DUP3 AND SWAP1 POP SWAP2 SWAP1 POP JUMP JUMPDEST PUSH0 PUSH2 0x2765 DUP3 PUSH2 0x273C JUMP JUMPDEST SWAP1 POP SWAP2 SWAP1 POP JUMP JUMPDEST PUSH2 0x2775 DUP2 PUSH2 0x275B JUMP JUMPDEST DUP2 EQ PUSH2 0x277F JUMPI PUSH0 PUSH0 REVERT JUMPDEST POP JUMP JUMPDEST PUSH0 DUP2 CALLDATALOAD SWAP1 POP PUSH2 0x2790 DUP2 PUSH2 0x276C JUMP JUMPDEST SWAP3 SWAP2 POP POP JUMP JUMPDEST PUSH0 PUSH1 0x20 DUP3 DUP5 SUB SLT ISZERO PUSH2 0x27AB JUMPI PUSH2 0x27AA PUSH2 0x2734 JUMP JUMPDEST JUMPDEST PUSH0 PUSH2 0x27B8 DUP5 DUP3 DUP6 ADD PUSH2 0x2782 JUMP JUMPDEST SWAP2 POP POP SWAP3 SWAP2 POP POP JUMP JUMPDEST PUSH0 PUSH0 REVERT JUMPDEST PUSH0 PUSH0 REVERT JUMPDEST PUSH0 PUSH0 REVERT JUMPDEST PUSH0 PUSH0 DUP4 PUSH1 0x1F DUP5 ADD SLT PUSH2 0x27E2 JUMPI PUSH2 0x27E1 PUSH2 0x27C1 JUMP JUMPDEST JUMPDEST DUP3 CALLDATALOAD SWAP1 POP PUSH8 0xFFFFFFFFFFFFFFFF DUP2 GT ISZERO PUSH2 0x27FF JUMPI PUSH2 0x27FE PUSH2 0x27C5 JUMP JUMPDEST JUMPDEST PUSH1 0x20 DUP4 ADD SWAP2 POP DUP4 PUSH1 0x1 DUP3 MUL DUP4 ADD GT ISZERO PUSH2 0x281B JUMPI PUSH2 0x281A PUSH2 0x27C9 JUMP JUMPDEST JUMPDEST SWAP3 POP SWAP3 SWAP1 POP JUMP JUMPDEST PUSH0 PUSH0 PUSH0 PUSH1 0x40 DUP5 DUP7 SUB SLT ISZERO PUSH2 0x2839 JUMPI PUSH2 0x2838 PUSH2 0x2734 JUMP JUMPDEST JUMPDEST PUSH0 PUSH2 0x2846 DUP7 DUP3 DUP8 ADD PUSH2 0x2782 JUMP JUMPDEST SWAP4 POP POP PUSH1 0x20 DUP5 ADD CALLDATALOAD PUSH8 0xFFFFFFFFFFFFFFFF DUP2 GT ISZERO PUSH2 0x2867 JUMPI PUSH2 0x2866 PUSH2 0x2738 JUMP JUMPDEST JUMPDEST PUSH2 0x2873 DUP7 DUP3 DUP8 ADD PUSH2 0x27CD JUMP JUMPDEST SWAP3 POP SWAP3 POP POP SWAP3 POP SWAP3 POP SWAP3 JUMP JUMPDEST PUSH0 PUSH2 0x2889 DUP3 PUSH2 0x273C JUMP JUMPDEST SWAP1 POP SWAP2 SWAP1 POP JUMP JUMPDEST PUSH2 0x2899 DUP2 PUSH2 0x287F JUMP JUMPDEST DUP2 EQ PUSH2 0x28A3 JUMPI PUSH0 PUSH0 REVERT JUMPDEST POP JUMP JUMPDEST PUSH0 DUP2 CALLDATALOAD SWAP1 POP PUSH2 0x28B4 DUP2 PUSH2 0x2890 JUMP JUMPDEST SWAP3 SWAP2 POP POP JUMP JUMPDEST PUSH2 0x28C3 DUP2 PUSH2 0x26FA JUMP JUMPDEST DUP2 EQ PUSH2 0x28CD JUMPI PUSH0 PUSH0 REVERT JUMPDEST POP JUMP JUMPDEST PUSH0 DUP2 CALLDATALOAD SWAP1 POP PUSH2 0x28DE DUP2 PUSH2 0x28BA JUMP JUMPDEST SWAP3 SWAP2 POP POP JUMP JUMPDEST PUSH0 PUSH0 PUSH1 0x40 DUP4 DUP6 SUB SLT ISZERO PUSH2 0x28FA JUMPI PUSH2 0x28F9 PUSH2 0x2734 JUMP JUMPDEST JUMPDEST PUSH0 PUSH2 0x2907 DUP6 DUP3 DUP7 ADD PUSH2 0x28A6 JUMP JUMPDEST SWAP3 POP POP PUSH1 0x20 PUSH2 0x2918 DUP6 DUP3 DUP7 ADD PUSH2 0x28D0 JUMP JUMPDEST SWAP2 POP POP SWAP3 POP SWAP3 SWAP1 POP JUMP JUMPDEST PUSH0 PUSH0 REVERT JUMPDEST PUSH0 PUSH1 0x1F NOT PUSH1 0x1F DUP4 ADD AND SWAP1 POP SWAP2 SWAP1 POP JUMP JUMPDEST PUSH32 0x4E487B7100000000000000000000000000000000000000000000000000000000 PUSH0 MSTORE PUSH1 0x41 PUSH1 0x4 MSTORE PUSH1 0x24 PUSH0 REVERT JUMPDEST PUSH2 0x296C DUP3 PUSH2 0x2926 JUMP JUMPDEST DUP2 ADD DUP2 DUP2 LT PUSH8 0xFFFFFFFFFFFFFFFF DUP3 GT OR ISZERO PUSH2 0x298B JUMPI PUSH2 0x298A PUSH2 0x2936 JUMP JUMPDEST JUMPDEST DUP1 PUSH1 0x40 MSTORE POP POP POP JUMP JUMPDEST PUSH0 PUSH2 0x299D PUSH2 0x272B JUMP JUMPDEST SWAP1 POP PUSH2 0x29A9 DUP3 DUP3 PUSH2 0x2963 JUMP JUMPDEST SWAP2 SWAP1 POP JUMP JUMPDEST PUSH0 PUSH8 0xFFFFFFFFFFFFFFFF DUP3 GT ISZERO PUSH2 0x29C8 JUMPI PUSH2 0x29C7 PUSH2 0x2936 JUMP JUMPDEST JUMPDEST PUSH2 0x29D1 DUP3 PUSH2 0x2926 JUMP JUMPDEST SWAP1 POP PUSH1 0x20 DUP2 ADD SWAP1 POP SWAP2 SWAP1 POP JUMP JUMPDEST DUP3 DUP2 DUP4 CALLDATACOPY PUSH0 DUP4 DUP4 ADD MSTORE POP POP POP JUMP JUMPDEST PUSH0 PUSH2 0x29FE PUSH2 0x29F9 DUP5 PUSH2 0x29AE JUMP JUMPDEST PUSH2 0x2994 JUMP JUMPDEST SWAP1 POP DUP3 DUP2 MSTORE PUSH1 0x20 DUP2 ADD DUP5 DUP5 DUP5 ADD GT ISZERO PUSH2 0x2A1A JUMPI PUSH2 0x2A19 PUSH2 0x2922 JUMP JUMPDEST JUMPDEST PUSH2 0x2A25 DUP5 DUP3 DUP6 PUSH2 0x29DE JUMP JUMPDEST POP SWAP4 SWAP3 POP POP POP JUMP JUMPDEST PUSH0 DUP3 PUSH1 0x1F DUP4 ADD SLT PUSH2 0x2A41 JUMPI PUSH2 0x2A40 PUSH2 0x27C1 JUMP JUMPDEST JUMPDEST DUP2 CALLDATALOAD PUSH2 0x2A51 DUP5 DUP3 PUSH1 0x20 DUP7 ADD PUSH2 0x29EC JUMP JUMPDEST SWAP2 POP POP SWAP3 SWAP2 POP POP JUMP JUMPDEST PUSH0 PUSH0 PUSH1 0x40 DUP4 DUP6 SUB SLT ISZERO PUSH2 0x2A70 JUMPI PUSH2 0x2A6F PUSH2 0x2734 JUMP JUMPDEST JUMPDEST PUSH0 PUSH2 0x2A7D DUP6 DUP3 DUP7 ADD PUSH2 0x2782 JUMP JUMPDEST SWAP3 POP POP PUSH1 0x20 DUP4 ADD CALLDATALOAD PUSH8 0xFFFFFFFFFFFFFFFF DUP2 GT ISZERO PUSH2 0x2A9E JUMPI PUSH2 0x2A9D PUSH2 0x2738 JUMP JUMPDEST JUMPDEST PUSH2 0x2AAA DUP6 DUP3 DUP7 ADD PUSH2 0x2A2D JUMP JUMPDEST SWAP2 POP POP SWAP3 POP SWAP3 SWAP1 POP JUMP JUMPDEST PUSH0 DUP2 SWAP1 POP SWAP2 SWAP1 POP JUMP JUMPDEST PUSH2 0x2AC6 DUP2 PUSH2 0x2AB4 JUMP JUMPDEST DUP3 MSTORE POP POP JUMP JUMPDEST PUSH0 PUSH1 0x20 DUP3 ADD SWAP1 POP PUSH2 0x2ADF PUSH0 DUP4 ADD DUP5 PUSH2 0x2ABD JUMP JUMPDEST SWAP3 SWAP2 POP POP JUMP JUMPDEST PUSH0 PUSH0 DUP4 PUSH1 0x1F DUP5 ADD SLT PUSH2 0x2AFA JUMPI PUSH2 0x2AF9 PUSH2 0x27C1 JUMP JUMPDEST JUMPDEST DUP3 CALLDATALOAD SWAP1 POP PUSH8 0xFFFFFFFFFFFFFFFF DUP2 GT ISZERO PUSH2 0x2B17 JUMPI PUSH2 0x2B16 PUSH2 0x27C5 JUMP JUMPDEST JUMPDEST PUSH1 0x20 DUP4 ADD SWAP2 POP DUP4 PUSH1 0x20 DUP3 MUL DUP4 ADD GT ISZERO PUSH2 0x2B33 JUMPI PUSH2 0x2B32 PUSH2 0x27C9 JUMP JUMPDEST JUMPDEST SWAP3 POP SWAP3 SWAP1 POP JUMP JUMPDEST PUSH0 PUSH0 DUP4 PUSH1 0x1F DUP5 ADD SLT PUSH2 0x2B4F JUMPI PUSH2 0x2B4E PUSH2 0x27C1 JUMP JUMPDEST JUMPDEST DUP3 CALLDATALOAD SWAP1 POP PUSH8 0xFFFFFFFFFFFFFFFF DUP2 GT ISZERO PUSH2 0x2B6C JUMPI PUSH2 0x2B6B PUSH2 0x27C5 JUMP JUMPDEST JUMPDEST PUSH1 0x20 DUP4 ADD SWAP2 POP DUP4 PUSH1 0x20 DUP3 MUL DUP4 ADD GT ISZERO PUSH2 0x2B88 JUMPI PUSH2 0x2B87 PUSH2 0x27C9 JUMP JUMPDEST JUMPDEST SWAP3 POP SWAP3 SWAP1 POP JUMP JUMPDEST PUSH0 PUSH0 PUSH0 PUSH0 PUSH1 0x40 DUP6 DUP8 SUB SLT ISZERO PUSH2 0x2BA7 JUMPI PUSH2 0x2BA6 PUSH2 0x2734 JUMP JUMPDEST JUMPDEST PUSH0 DUP6 ADD CALLDATALOAD PUSH8 0xFFFFFFFFFFFFFFFF DUP2 GT ISZERO PUSH2 0x2BC4 JUMPI PUSH2 0x2BC3 PUSH2 0x2738 JUMP JUMPDEST JUMPDEST PUSH2 0x2BD0 DUP8 DUP3 DUP9 ADD PUSH2 0x2AE5 JUMP JUMPDEST SWAP5 POP SWAP5 POP POP PUSH1 0x20 DUP6 ADD CALLDATALOAD PUSH8 0xFFFFFFFFFFFFFFFF DUP2 GT ISZERO PUSH2 0x2BF3 JUMPI PUSH2 0x2BF2 PUSH2 0x2738 JUMP JUMPDEST JUMPDEST PUSH2 0x2BFF DUP8 DUP3 DUP9 ADD PUSH2 0x2B3A JUMP JUMPDEST SWAP3 POP SWAP3 POP POP SWAP3 SWAP6 SWAP2 SWAP5 POP SWAP3 POP JUMP JUMPDEST PUSH2 0x2C16 DUP2 PUSH2 0x275B JUMP JUMPDEST DUP3 MSTORE POP POP JUMP JUMPDEST PUSH0 PUSH1 0x20 DUP3 ADD SWAP1 POP PUSH2 0x2C2F PUSH0 DUP4 ADD DUP5 PUSH2 0x2C0D JUMP JUMPDEST SWAP3 SWAP2 POP POP JUMP JUMPDEST PUSH0 DUP2 MLOAD SWAP1 POP SWAP2 SWAP1 POP JUMP JUMPDEST PUSH0 DUP3 DUP3 MSTORE PUSH1 0x20 DUP3 ADD SWAP1 POP SWAP3 SWAP2 POP POP JUMP JUMPDEST DUP3 DUP2 DUP4 MCOPY PUSH0 DUP4 DUP4 ADD MSTORE POP POP POP JUMP JUMPDEST PUSH0 PUSH2 0x2C67 DUP3 PUSH2 0x2C35 JUMP JUMPDEST PUSH2 0x2C71 DUP2 DUP6 PUSH2 0x2C3F JUMP JUMPDEST SWAP4 POP PUSH2 0x2C81 DUP2 DUP6 PUSH1 0x20 DUP7 ADD PUSH2 0x2C4F JUMP JUMPDEST PUSH2 0x2C8A DUP2 PUSH2 0x2926 JUMP JUMPDEST DUP5 ADD SWAP2 POP POP SWAP3 SWAP2 POP POP JUMP JUMPDEST PUSH0 PUSH1 0x20 DUP3 ADD SWAP1 POP DUP2 DUP2 SUB PUSH0 DUP4 ADD MSTORE PUSH2 0x2CAD DUP2 DUP5 PUSH2 0x2C5D JUMP JUMPDEST SWAP1 POP SWAP3 SWAP2 POP POP JUMP JUMPDEST PUSH0 PUSH0 PUSH1 0x20 DUP4 DUP6 SUB SLT ISZERO PUSH2 0x2CCB JUMPI PUSH2 0x2CCA PUSH2 0x2734 JUMP JUMPDEST JUMPDEST PUSH0 DUP4 ADD CALLDATALOAD PUSH8 0xFFFFFFFFFFFFFFFF DUP2 GT ISZERO PUSH2 0x2CE8 JUMPI PUSH2 0x2CE7 PUSH2 0x2738 JUMP JUMPDEST JUMPDEST PUSH2 0x2CF4 DUP6 DUP3 DUP7 ADD PUSH2 0x2AE5 JUMP JUMPDEST SWAP3 POP SWAP3 POP POP SWAP3 POP SWAP3 SWAP1 POP JUMP JUMPDEST PUSH0 DUP2 ISZERO ISZERO SWAP1 POP SWAP2 SWAP1 POP JUMP JUMPDEST PUSH2 0x2D14 DUP2 PUSH2 0x2D00 JUMP JUMPDEST DUP3 MSTORE POP POP JUMP JUMPDEST PUSH0 PUSH1 0x20 DUP3 ADD SWAP1 POP PUSH2 0x2D2D PUSH0 DUP4 ADD DUP5 PUSH2 0x2D0B JUMP JUMPDEST SWAP3 SWAP2 POP POP JUMP JUMPDEST PUSH0 PUSH1 0x20 DUP3 DUP5 SUB SLT ISZERO PUSH2 0x2D48 JUMPI PUSH2 0x2D47 PUSH2 0x2734 JUMP JUMPDEST JUMPDEST PUSH0 PUSH2 0x2D55 DUP5 DUP3 DUP6 ADD PUSH2 0x28D0 JUMP JUMPDEST SWAP2 POP POP SWAP3 SWAP2 POP POP JUMP JUMPDEST PUSH32 0x43686172697479206E6F7420616C6C6F77656400000000000000000000000000 PUSH0 DUP3 ADD MSTORE POP JUMP JUMPDEST PUSH0 PUSH2 0x2D92 PUSH1 0x13 DUP4 PUSH2 0x2C3F JUMP JUMPDEST SWAP2 POP PUSH2 0x2D9D DUP3 PUSH2 0x2D5E JUMP JUMPDEST PUSH1 0x20 DUP3 ADD SWAP1 POP SWAP2 SWAP1 POP JUMP JUMPDEST PUSH0 PUSH1 0x20 DUP3 ADD SWAP1 POP DUP2 DUP2 SUB PUSH0 DUP4 ADD MSTORE PUSH2 0x2DBF DUP2 PUSH2 0x2D86 JUMP JUMPDEST SWAP1 POP SWAP2 SWAP1 POP JUMP JUMPDEST PUSH32 0x446F6E6174696F6E20746F6F20736D616C6C0000000000000000000000000000 PUSH0 DUP3 ADD MSTORE POP JUMP JUMPDEST PUSH0 PUSH2 0x2DFA PUSH1 0x12 DUP4 PUSH2 0x2C3F JUMP JUMPDEST SWAP2 POP PUSH2 0x2E05 DUP3 PUSH2 0x2DC6 JUMP JUMPDEST PUSH1 0x20 DUP3 ADD SWAP1 POP SWAP2 SWAP1 POP JUMP JUMPDEST PUSH0 PUSH1 0x20 DUP3 ADD SWAP1 POP DUP2 DUP2 SUB PUSH0 DUP4 ADD MSTORE PUSH2 0x2E27 DUP2 PUSH2 0x2DEE JUMP JUMPDEST SWAP1 POP SWAP2 SWAP1 POP JUMP JUMPDEST PUSH32 0x4E487B7100000000000000000000000000000000000000000000000000000000 PUSH0 MSTORE PUSH1 0x11 PUSH1 0x4 MSTORE PUSH1 0x24 PUSH0 REVERT JUMPDEST PUSH0 PUSH2 0x2E65 DUP3 PUSH2 0x26FA JUMP JUMPDEST SWAP2 POP PUSH2 0x2E70 DUP4 PUSH2 0x26FA JUMP JUMPDEST SWAP3 POP DUP3 DUP3 ADD SWAP1 POP DUP1 DUP3 GT ISZERO PUSH2 0x2E88 JUMPI PUSH2 0x2E87 PUSH2 0x2E2E JUMP JUMPDEST JUMPDEST SWAP3 SWAP2 POP POP JUMP JUMPDEST PUSH32 0x4F6E6C7920636861726974790000000000000000000000000000000000000000 PUSH0 DUP3 ADD MSTORE POP JUMP JUMPDEST PUSH0 PUSH2 0x2EC2 PUSH1 0xC DUP4 PUSH2 0x2C3F JUMP JUMPDEST SWAP2 POP PUSH2 0x2ECD DUP3 PUSH2 0x2E8E JUMP JUMPDEST PUSH1 0x20 DUP3 ADD SWAP1 POP SWAP2 SWAP1 POP JUMP JUMPDEST PUSH0 PUSH1 0x20 DUP3 ADD SWAP1 POP DUP2 DUP2 SUB PUSH0 DUP4 ADD MSTORE PUSH2 0x2EEF DUP2 PUSH2 0x2EB6 JUMP JUMPDEST SWAP1 POP SWAP2 SWAP1 POP JUMP JUMPDEST PUSH32 0x496E76616C696420726563697069656E74000000000000000000000000000000 PUSH0 DUP3 ADD MSTORE POP JUMP JUMPDEST PUSH0 PUSH2 0x2F2A PUSH1 0x11 DUP4 PUSH2 0x2C3F JUMP JUMPDEST SWAP2 POP PUSH2 0x2F35 DUP3 PUSH2 0x2EF6 JUMP JUMPDEST PUSH1 0x20 DUP3 ADD SWAP1 POP SWAP2 SWAP1 POP JUMP JUMPDEST PUSH0 PUSH1 0x20 DUP3 ADD SWAP1 POP DUP2 DUP2 SUB PUSH0 DUP4 ADD MSTORE PUSH2 0x2F57 DUP2 PUSH2 0x2F1E JUMP JUMPDEST SWAP1 POP SWAP2 SWAP1 POP JUMP JUMPDEST PUSH32 0x416D6F756E74206D757374206265203E20300000000000000000000000000000 PUSH0 DUP3 ADD MSTORE POP JUMP JUMPDEST PUSH0 PUSH2 0x2F92 PUSH1 0x12 DUP4 PUSH2 0x2C3F JUMP JUMPDEST SWAP2 POP PUSH2 0x2F9D DUP3 PUSH2 0x2F5E JUMP JUMPDEST PUSH1 0x20 DUP3 ADD SWAP1 POP SWAP2 SWAP1 POP JUMP JUMPDEST PUSH0 PUSH1 0x20 DUP3 ADD SWAP1 POP DUP2 DUP2 SUB PUSH0 DUP4 ADD MSTORE PUSH2 0x2FBF DUP2 PUSH2 0x2F86 JUMP JUMPDEST SWAP1 POP SWAP2 SWAP1 POP JUMP JUMPDEST PUSH32 0x4E6F7420656E6F75676820616C6C6F6361746564000000000000000000000000 PUSH0 DUP3 ADD MSTORE POP JUMP JUMPDEST PUSH0 PUSH2 0x2FFA PUSH1 0x14 DUP4 PUSH2 0x2C3F JUMP JUMPDEST SWAP2 POP PUSH2 0x3005 DUP3 PUSH2 0x2FC6 JUMP JUMPDEST PUSH1 0x20 DUP3 ADD SWAP1 POP SWAP2 SWAP1 POP JUMP JUMPDEST PUSH0 PUSH1 0x20 DUP3 ADD SWAP1 POP DUP2 DUP2 SUB PUSH0 DUP4 ADD MSTORE PUSH2 0x3027 DUP2 PUSH2 0x2FEE JUMP JUMPDEST SWAP1 POP SWAP2 SWAP1 POP JUMP JUMPDEST PUSH0 PUSH2 0x3038 DUP3 PUSH2 0x26FA JUMP JUMPDEST SWAP2 POP PUSH2 0x3043 DUP4 PUSH2 0x26FA JUMP JUMPDEST SWAP3 POP DUP3 DUP3 SUB SWAP1 POP DUP2 DUP2 GT ISZERO PUSH2 0x305B JUMPI PUSH2 0x305A PUSH2 0x2E2E JUMP JUMPDEST JUMPDEST SWAP3 SWAP2 POP POP JUMP JUMPDEST PUSH0 DUP2 SWAP1 POP SWAP3 SWAP2 POP POP JUMP JUMPDEST POP JUMP JUMPDEST PUSH0 PUSH2 0x3079 PUSH0 DUP4 PUSH2 0x3061 JUMP JUMPDEST SWAP2 POP PUSH2 0x3084 DUP3 PUSH2 0x306B JUMP JUMPDEST PUSH0 DUP3 ADD SWAP1 POP SWAP2 SWAP1 POP JUMP JUMPDEST PUSH0 PUSH2 0x3098 DUP3 PUSH2 0x306E JUMP JUMPDEST SWAP2 POP DUP2 SWAP1 POP SWAP2 SWAP1 POP JUMP JUMPDEST PUSH32 0x5472616E73666572206661696C65640000000000000000000000000000000000 PUSH0 DUP3 ADD MSTORE POP JUMP JUMPDEST PUSH0 PUSH2 0x30D6 PUSH1 0xF DUP4 PUSH2 0x2C3F JUMP JUMPDEST SWAP2 POP PUSH2 0x30E1 DUP3 PUSH2 0x30A2 JUMP JUMPDEST PUSH1 0x20 DUP3 ADD SWAP1 POP SWAP2 SWAP1 POP JUMP JUMPDEST PUSH0 PUSH1 0x20 DUP3 ADD SWAP1 POP DUP2 DUP2 SUB PUSH0 DUP4 ADD MSTORE PUSH2 0x3103 DUP2 PUSH2 0x30CA JUMP JUMPDEST SWAP1 POP SWAP2 SWAP1 POP JUMP JUMPDEST PUSH32 0x4C656E677468206D69736D617463680000000000000000000000000000000000 PUSH0 DUP3 ADD MSTORE POP JUMP JUMPDEST PUSH0 PUSH2 0x313E PUSH1 0xF DUP4 PUSH2 0x2C3F JUMP JUMPDEST SWAP2 POP PUSH2 0x3149 DUP3 PUSH2 0x310A JUMP JUMPDEST PUSH1 0x20 DUP3 ADD SWAP1 POP SWAP2 SWAP1 POP JUMP JUMPDEST PUSH0 PUSH1 0x20 DUP3 ADD SWAP1 POP DUP2 DUP2 SUB PUSH0 DUP4 ADD MSTORE PUSH2 0x316B DUP2 PUSH2 0x3132 JUMP JUMPDEST SWAP1 POP SWAP2 SWAP1 POP JUMP JUMPDEST PUSH32 0x4E487B7100000000000000000000000000000000000000000000000000000000 PUSH0 MSTORE PUSH1 0x32 PUSH1 0x4 MSTORE PUSH1 0x24 PUSH0 REVERT JUMPDEST PUSH0 PUSH0 REVERT JUMPDEST PUSH0 PUSH0 REVERT JUMPDEST PUSH0 PUSH0 REVERT JUMPDEST PUSH0 PUSH0 DUP4 CALLDATALOAD PUSH1 0x1 PUSH1 0x20 SUB DUP5 CALLDATASIZE SUB SUB DUP2 SLT PUSH2 0x31C7 JUMPI PUSH2 0x31C6 PUSH2 0x319F JUMP JUMPDEST JUMPDEST DUP1 DUP5 ADD SWAP3 POP DUP3 CALLDATALOAD SWAP2 POP PUSH8 0xFFFFFFFFFFFFFFFF DUP3 GT ISZERO PUSH2 0x31E9 JUMPI PUSH2 0x31E8 PUSH2 0x31A3 JUMP JUMPDEST JUMPDEST PUSH1 0x20 DUP4 ADD SWAP3 POP PUSH1 0x1 DUP3 MUL CALLDATASIZE SUB DUP4 SGT ISZERO PUSH2 0x3205 JUMPI PUSH2 0x3204 PUSH2 0x31A7 JUMP JUMPDEST JUMPDEST POP SWAP3 POP SWAP3 SWAP1 POP JUMP JUMPDEST PUSH0 PUSH8 0xFFFFFFFFFFFFFFFF DUP3 AND SWAP1 POP SWAP2 SWAP1 POP JUMP JUMPDEST PUSH2 0x3229 DUP2 PUSH2 0x320D JUMP JUMPDEST DUP3 MSTORE POP POP JUMP JUMPDEST PUSH0 PUSH1 0x20 DUP3 ADD SWAP1 POP PUSH2 0x3242 PUSH0 DUP4 ADD DUP5 PUSH2 0x3220 JUMP JUMPDEST SWAP3 SWAP2 POP POP JUMP JUMPDEST PUSH32 0x4E6F742061206368617269747900000000000000000000000000000000000000 PUSH0 DUP3 ADD MSTORE POP JUMP JUMPDEST PUSH0 PUSH2 0x327C PUSH1 0xD DUP4 PUSH2 0x2C3F JUMP JUMPDEST SWAP2 POP PUSH2 0x3287 DUP3 PUSH2 0x3248 JUMP JUMPDEST PUSH1 0x20 DUP3 ADD SWAP1 POP SWAP2 SWAP1 POP JUMP JUMPDEST PUSH0 PUSH1 0x20 DUP3 ADD SWAP1 POP DUP2 DUP2 SUB PUSH0 DUP4 ADD MSTORE PUSH2 0x32A9 DUP2 PUSH2 0x3270 JUMP JUMPDEST SWAP1 POP SWAP2 SWAP1 POP JUMP JUMPDEST PUSH32 0x4E487B7100000000000000000000000000000000000000000000000000000000 PUSH0 MSTORE PUSH1 0x22 PUSH1 0x4 MSTORE PUSH1 0x24 PUSH0 REVERT JUMPDEST PUSH0 PUSH1 0x2 DUP3 DIV SWAP1 POP PUSH1 0x1 DUP3 AND DUP1 PUSH2 0x32F4 JUMPI PUSH1 0x7F DUP3 AND SWAP2 POP JUMPDEST PUSH1 0x20 DUP3 LT DUP2 SUB PUSH2 0x3307 JUMPI PUSH2 0x3306 PUSH2 0x32B0 JUMP JUMPDEST JUMPDEST POP SWAP2 SWAP1 POP JUMP JUMPDEST PUSH32 0x4E6F7420656E6F75676820455448000000000000000000000000000000000000 PUSH0 DUP3 ADD MSTORE POP JUMP JUMPDEST PUSH0 PUSH2 0x3341 PUSH1 0xE DUP4 PUSH2 0x2C3F JUMP JUMPDEST SWAP2 POP PUSH2 0x334C DUP3 PUSH2 0x330D JUMP JUMPDEST PUSH1 0x20 DUP3 ADD SWAP1 POP SWAP2 SWAP1 POP JUMP JUMPDEST PUSH0 PUSH1 0x20 DUP3 ADD SWAP1 POP DUP2 DUP2 SUB PUSH0 DUP4 ADD MSTORE PUSH2 0x336E DUP2 PUSH2 0x3335 JUMP JUMPDEST SWAP1 POP SWAP2 SWAP1 POP JUMP JUMPDEST PUSH32 0x4D696E20646F6E6174696F6E206D757374206265203E20300000000000000000 PUSH0 DUP3 ADD MSTORE POP JUMP JUMPDEST PUSH0 PUSH2 0x33A9 PUSH1 0x18 DUP4 PUSH2 0x2C3F JUMP JUMPDEST SWAP2 POP PUSH2 0x33B4 DUP3 PUSH2 0x3375 JUMP JUMPDEST PUSH1 0x20 DUP3 ADD SWAP1 POP SWAP2 SWAP1 POP JUMP JUMPDEST PUSH0 PUSH1 0x20 DUP3 ADD SWAP1 POP DUP2 DUP2 SUB PUSH0 DUP4 ADD MSTORE PUSH2 0x33D6 DUP2 PUSH2 0x339D JUMP JUMPDEST SWAP1 POP SWAP2 SWAP1 POP JUMP JUMPDEST PUSH0 DUP2 SWAP1 POP SWAP2 SWAP1 POP JUMP JUMPDEST PUSH0 DUP2 SWAP1 POP SWAP2 SWAP1 POP JUMP JUMPDEST PUSH0 PUSH2 0x3409 PUSH2 0x3404 PUSH2 0x33FF DUP5 PUSH2 0x33DD JUMP JUMPDEST PUSH2 0x33E6 JUMP JUMPDEST PUSH2 0x320D JUMP JUMPDEST SWAP1 POP SWAP2 SWAP1 POP JUMP JUMPDEST PUSH2 0x3419 DUP2 PUSH2 0x33EF JUMP JUMPDEST DUP3 MSTORE POP POP JUMP JUMPDEST PUSH0 PUSH1 0x20 DUP3 ADD SWAP1 POP PUSH2 0x3432 PUSH0 DUP4 ADD DUP5 PUSH2 0x3410 JUMP JUMPDEST SWAP3 SWAP2 POP POP JUMP JUMPDEST PUSH0 DUP3 SWAP1 POP SWAP3 SWAP2 POP POP JUMP JUMPDEST PUSH0 DUP2 SWAP1 POP DUP2 PUSH0 MSTORE PUSH1 0x20 PUSH0 KECCAK256 SWAP1 POP SWAP2 SWAP1 POP JUMP JUMPDEST PUSH0 PUSH1 0x20 PUSH1 0x1F DUP4 ADD DIV SWAP1 POP SWAP2 SWAP1 POP JUMP JUMPDEST PUSH0 DUP3 DUP3 SHL SWAP1 POP SWAP3 SWAP2 POP POP JUMP JUMPDEST PUSH0 PUSH1 0x8 DUP4 MUL PUSH2 0x349E PUSH32 0xFFFFFFFFFFFFFFFFFFFFFFFFFFFFFFFFFFFFFFFFFFFFFFFFFFFFFFFFFFFFFFFF DUP3 PUSH2 0x3463 JUMP JUMPDEST PUSH2 0x34A8 DUP7 DUP4 PUSH2 0x3463 JUMP JUMPDEST SWAP6 POP DUP1 NOT DUP5 AND SWAP4 POP DUP1 DUP7 AND DUP5 OR SWAP3 POP POP POP SWAP4 SWAP3 POP POP POP JUMP JUMPDEST PUSH0 PUSH2 0x34DA PUSH2 0x34D5 PUSH2 0x34D0 DUP5 PUSH2 0x26FA JUMP JUMPDEST PUSH2 0x33E6 JUMP JUMPDEST PUSH2 0x26FA JUMP JUMPDEST SWAP1 POP SWAP2 SWAP1 POP JUMP JUMPDEST PUSH0 DUP2 SWAP1 POP SWAP2 SWAP1 POP JUMP JUMPDEST PUSH2 0x34F3 DUP4 PUSH2 0x34C0 JUMP JUMPDEST PUSH2 0x3507 PUSH2 0x34FF DUP3 PUSH2 0x34E1 JUMP JUMPDEST DUP5 DUP5 SLOAD PUSH2 0x346F JUMP JUMPDEST DUP3 SSTORE POP POP POP POP JUMP JUMPDEST PUSH0 PUSH0 SWAP1 POP SWAP1 JUMP JUMPDEST PUSH2 0x351E PUSH2 0x350F JUMP JUMPDEST PUSH2 0x3529 DUP2 DUP5 DUP5 PUSH2 0x34EA JUMP JUMPDEST POP POP POP JUMP JUMPDEST JUMPDEST DUP2 DUP2 LT ISZERO PUSH2 0x354C JUMPI PUSH2 0x3541 PUSH0 DUP3 PUSH2 0x3516 JUMP JUMPDEST PUSH1 0x1 DUP2 ADD SWAP1 POP PUSH2 0x352F JUMP JUMPDEST POP POP JUMP JUMPDEST PUSH1 0x1F DUP3 GT ISZERO PUSH2 0x3591 JUMPI PUSH2 0x3562 DUP2 PUSH2 0x3442 JUMP JUMPDEST PUSH2 0x356B DUP5 PUSH2 0x3454 JUMP JUMPDEST DUP2 ADD PUSH1 0x20 DUP6 LT ISZERO PUSH2 0x357A JUMPI DUP2 SWAP1 POP JUMPDEST PUSH2 0x358E PUSH2 0x3586 DUP6 PUSH2 0x3454 JUMP JUMPDEST DUP4 ADD DUP3 PUSH2 0x352E JUMP JUMPDEST POP POP JUMPDEST POP POP POP JUMP JUMPDEST PUSH0 DUP3 DUP3 SHR SWAP1 POP SWAP3 SWAP2 POP POP JUMP JUMPDEST PUSH0 PUSH2 0x35B1 PUSH0 NOT DUP5 PUSH1 0x8 MUL PUSH2 0x3596 JUMP JUMPDEST NOT DUP1 DUP4 AND SWAP2 POP POP SWAP3 SWAP2 POP POP JUMP JUMPDEST PUSH0 PUSH2 0x35C9 DUP4 DUP4 PUSH2 0x35A2 JUMP JUMPDEST SWAP2 POP DUP3 PUSH1 0x2 MUL DUP3 OR SWAP1 POP SWAP3 SWAP2 POP POP JUMP JUMPDEST PUSH2 0x35E3 DUP4 DUP4 PUSH2 0x3438 JUMP JUMPDEST PUSH8 0xFFFFFFFFFFFFFFFF DUP2 GT ISZERO PUSH2 0x35FC JUMPI PUSH2 0x35FB PUSH2 0x2936 JUMP JUMPDEST JUMPDEST PUSH2 0x3606 DUP3 SLOAD PUSH2 0x32DD JUMP JUMPDEST PUSH2 0x3611 DUP3 DUP3 DUP6 PUSH2 0x3550 JUMP JUMPDEST PUSH0 PUSH1 0x1F DUP4 GT PUSH1 0x1 DUP2 EQ PUSH2 0x363E JUMPI PUSH0 DUP5 ISZERO PUSH2 0x362C JUMPI DUP3 DUP8 ADD CALLDATALOAD SWAP1 POP JUMPDEST PUSH2 0x3636 DUP6 DUP3 PUSH2 0x35BE JUMP JUMPDEST DUP7 SSTORE POP PUSH2 0x369D JUMP JUMPDEST PUSH1 0x1F NOT DUP5 AND PUSH2 0x364C DUP7 PUSH2 0x3442 JUMP JUMPDEST PUSH0 JUMPDEST DUP3 DUP2 LT ISZERO PUSH2 0x3673 JUMPI DUP5 DUP10 ADD CALLDATALOAD DUP3 SSTORE PUSH1 0x1 DUP3 ADD SWAP2 POP PUSH1 0x20 DUP6 ADD SWAP5 POP PUSH1 0x20 DUP2 ADD SWAP1 POP PUSH2 0x364E JUMP JUMPDEST DUP7 DUP4 LT ISZERO PUSH2 0x3690 JUMPI DUP5 DUP10 ADD CALLDATALOAD PUSH2 0x368C PUSH1 0x1F DUP10 AND DUP3 PUSH2 0x35A2 JUMP JUMPDEST DUP4 SSTORE POP JUMPDEST PUSH1 0x1 PUSH1 0x2 DUP9 MUL ADD DUP9 SSTORE POP POP POP JUMPDEST POP POP POP POP POP POP POP JUMP JUMPDEST PUSH0 PUSH2 0x36B1 DUP4 DUP6 PUSH2 0x2C3F JUMP JUMPDEST SWAP4 POP PUSH2 0x36BE DUP4 DUP6 DUP5 PUSH2 0x29DE JUMP JUMPDEST PUSH2 0x36C7 DUP4 PUSH2 0x2926 JUMP JUMPDEST DUP5 ADD SWAP1 POP SWAP4 SWAP3 POP POP POP JUMP JUMPDEST PUSH0 PUSH1 0x20 DUP3 ADD SWAP1 POP DUP2 DUP2 SUB PUSH0 DUP4 ADD MSTORE PUSH2 0x36EB DUP2 DUP5 DUP7 PUSH2 0x36A6 JUMP JUMPDEST SWAP1 POP SWAP4 SWAP3 POP POP POP JUMP JUMPDEST PUSH32 0x5265656E7472616E637947756172643A207265656E7472616E742063616C6C00 PUSH0 DUP3 ADD MSTORE POP JUMP JUMPDEST PUSH0 PUSH2 0x3728 PUSH1 0x1F DUP4 PUSH2 0x2C3F JUMP JUMPDEST SWAP2 POP PUSH2 0x3733 DUP3 PUSH2 0x36F4 JUMP JUMPDEST PUSH1 0x20 DUP3 ADD SWAP1 POP SWAP2 SWAP1 POP JUMP JUMPDEST PUSH0 PUSH1 0x20 DUP3 ADD SWAP1 POP DUP2 DUP2 SUB PUSH0 DUP4 ADD MSTORE PUSH2 0x3755 DUP2 PUSH2 0x371C JUMP JUMPDEST SWAP1 POP SWAP2 SWAP1 POP JUMP JUMPDEST PUSH2 0x3765 DUP2 PUSH2 0x2AB4 JUMP JUMPDEST DUP2 EQ PUSH2 0x376F JUMPI PUSH0 PUSH0 REVERT JUMPDEST POP JUMP JUMPDEST PUSH0 DUP2 MLOAD SWAP1 POP PUSH2 0x3780 DUP2 PUSH2 0x375C JUMP JUMPDEST SWAP3 SWAP2 POP POP JUMP JUMPDEST PUSH0 PUSH1 0x20 DUP3 DUP5 SUB SLT ISZERO PUSH2 0x379B JUMPI PUSH2 0x379A PUSH2 0x2734 JUMP JUMPDEST JUMPDEST PUSH0 PUSH2 0x37A8 DUP5 DUP3 DUP6 ADD PUSH2 0x3772 JUMP JUMPDEST SWAP2 POP POP SWAP3 SWAP2 POP POP JUMP JUMPDEST PUSH32 0x496E76616C696420636861726974790000000000000000000000000000000000 PUSH0 DUP3 ADD MSTORE POP JUMP JUMPDEST PUSH0 PUSH2 0x37E5 PUSH1 0xF DUP4 PUSH2 0x2C3F JUMP JUMPDEST SWAP2 POP PUSH2 0x37F0 DUP3 PUSH2 0x37B1 JUMP JUMPDEST PUSH1 0x20 DUP3 ADD SWAP1 POP SWAP2 SWAP1 POP JUMP JUMPDEST PUSH0 PUSH1 0x20 DUP3 ADD SWAP1 POP DUP2 DUP2 SUB PUSH0 DUP4 ADD MSTORE PUSH2 0x3812 DUP2 PUSH2 0x37D9 JUMP JUMPDEST SWAP1 POP SWAP2 SWAP1 POP JUMP JUMPDEST PUSH32 0x416C726561647920636861726974790000000000000000000000000000000000 PUSH0 DUP3 ADD MSTORE POP JUMP JUMPDEST PUSH0 PUSH2 0x384D PUSH1 0xF DUP4 PUSH2 0x2C3F JUMP JUMPDEST SWAP2 POP PUSH2 0x3858 DUP3 PUSH2 0x3819 JUMP JUMPDEST PUSH1 0x20 DUP3 ADD SWAP1 POP SWAP2 SWAP1 POP JUMP JUMPDEST PUSH0 PUSH1 0x20 DUP3 ADD SWAP1 POP DUP2 DUP2 SUB PUSH0 DUP4 ADD MSTORE PUSH2 0x387A DUP2 PUSH2 0x3841 JUMP JUMPDEST SWAP1 POP SWAP2 SWAP1 POP JUMP JUMPDEST PUSH32 0x4E616D6520746F6F2073686F7274000000000000000000000000000000000000 PUSH0 DUP3 ADD MSTORE POP JUMP JUMPDEST PUSH0 PUSH2 0x38B5 PUSH1 0xE DUP4 PUSH2 0x2C3F JUMP JUMPDEST SWAP2 POP PUSH2 0x38C0 DUP3 PUSH2 0x3881 JUMP JUMPDEST PUSH1 0x20 DUP3 ADD SWAP1 POP SWAP2 SWAP1 POP JUMP JUMPDEST PUSH0 PUSH1 0x20 DUP3 ADD SWAP1 POP DUP2 DUP2 SUB PUSH0 DUP4 ADD MSTORE PUSH2 0x38E2 DUP2 PUSH2 0x38A9 JUMP JUMPDEST SWAP1 POP SWAP2 SWAP1 POP JUMP JUMPDEST PUSH32 0x4E616D6520746F6F206C6F6E6700000000000000000000000000000000000000 PUSH0 DUP3 ADD MSTORE POP JUMP JUMPDEST PUSH0 PUSH2 0x391D PUSH1 0xD DUP4 PUSH2 0x2C3F JUMP JUMPDEST SWAP2 POP PUSH2 0x3928 DUP3 PUSH2 0x38E9 JUMP JUMPDEST PUSH1 0x20 DUP3 ADD SWAP1 POP SWAP2 SWAP1 POP JUMP JUMPDEST PUSH0 PUSH1 0x20 DUP3 ADD SWAP1 POP DUP2 DUP2 SUB PUSH0 DUP4 ADD MSTORE PUSH2 0x394A DUP2 PUSH2 0x3911 JUMP JUMPDEST SWAP1 POP SWAP2 SWAP1 POP JUMP JUMPDEST PUSH32 0x496E76616C696420636861726163746572000000000000000000000000000000 PUSH0 DUP3 ADD MSTORE POP JUMP JUMPDEST PUSH0 PUSH2 0x3985 PUSH1 0x11 DUP4 PUSH2 0x2C3F JUMP JUMPDEST SWAP2 POP PUSH2 0x3990 DUP3 PUSH2 0x3951 JUMP JUMPDEST PUSH1 0x20 DUP3 ADD SWAP1 POP SWAP2 SWAP1 POP JUMP JUMPDEST PUSH0 PUSH1 0x20 DUP3 ADD SWAP1 POP DUP2 DUP2 SUB PUSH0 DUP4 ADD MSTORE PUSH2 0x39B2 DUP2 PUSH2 0x3979 JUMP JUMPDEST SWAP1 POP SWAP2 SWAP1 POP JUMP JUMPDEST PUSH0 DUP2 MLOAD SWAP1 POP SWAP2 SWAP1 POP JUMP JUMPDEST PUSH0 PUSH2 0x39CD DUP3 PUSH2 0x39B9 JUMP JUMPDEST PUSH2 0x39D7 DUP2 DUP6 PUSH2 0x3061 JUMP JUMPDEST SWAP4 POP PUSH2 0x39E7 DUP2 DUP6 PUSH1 0x20 DUP7 ADD PUSH2 0x2C4F JUMP JUMPDEST DUP1 DUP5 ADD SWAP2 POP POP SWAP3 SWAP2 POP POP JUMP JUMPDEST PUSH0 PUSH2 0x39FE DUP3 DUP5 PUSH2 0x39C3 JUMP JUMPDEST SWAP2 POP DUP2 SWAP1 POP SWAP3 SWAP2 POP POP JUMP INVALID LOG2 PUSH5 0x6970667358 0x22 SLT KECCAK256 0x2B 0xBE 0xBC 0xAE 0xC2 SWAP12 PUSH10 0x5C8678588924383A5F1F PUSH6 0x62A8088ADF74 SWAP1 BALANCE ADDMOD PUSH27 0x4AEB4BD564736F6C634300081F0033000000000000000000000000 "
		},
		"gasEstimates": {
			"creation": {
				"codeDepositCost": "2982200",
				"executionCost": "infinite",
				"totalCost": "infinite"
			},
			"external": {
				"UPGRADE_INTERFACE_VERSION()": "infinite",
				"addCharity(address)": "infinite",
				"charities(uint256)": "5032",
				"charitiesCount()": "2485",
				"charityBalanceWei(address)": "2869",
				"charityName(address)": "infinite",
				"donate()": "infinite",
				"donateToCharity(address)": "infinite",
				"donatedBy(address)": "2891",
				"initialize(uint256)": "infinite",
				"initializeV2(address[])": "infinite",
				"initializeV3(address[],string[])": "infinite",
				"isCharity(address)": "2966",
				"minDonationWei()": "2470",
				"owner()": "2655",
				"proxiableUUID()": "infinite",
				"removeCharity(address)": "infinite",
				"renounceOwnership()": "infinite",
				"setCharityName(address,string)": "infinite",
				"setCharityNames(address[],string[])": "infinite",
				"totalDonated()": "2449",
				"transferOwnership(address)": "infinite",
				"upgradeToAndCall(address,bytes)": "infinite",
				"withdraw(address,uint256)": "infinite",
				"withdrawMyFunds(address,uint256)": "infinite"
			},
			"internal": {
				"_setCharityName(address,string calldata)": "infinite",
				"_validateName(string calldata)": "infinite"
			}
		},
		"methodIdentifiers": {
			"UPGRADE_INTERFACE_VERSION()": "ad3cb1cc",
			"addCharity(address)": "78b14f0a",
			"charities(uint256)": "fb709d2e",
			"charitiesCount()": "bc80b184",
			"charityBalanceWei(address)": "c91ddfc9",
			"charityName(address)": "b5604069",
			"donate()": "ed88c68e",
			"donateToCharity(address)": "128c8dce",
			"donatedBy(address)": "cdaa6b2c",
			"initialize(uint256)": "fe4b84df",
			"initializeV2(address[])": "dc1aa5fa",
			"initializeV3(address[],string[])": "769a7691",
			"isCharity(address)": "e81ffbef",
			"minDonationWei()": "ecf20921",
			"owner()": "8da5cb5b",
			"proxiableUUID()": "52d1902d",
			"removeCharity(address)": "abefe591",
			"renounceOwnership()": "715018a6",
			"setCharityName(address,string)": "16fab362",
			"setCharityNames(address[],string[])": "f3bf531a",
			"totalDonated()": "00b37044",
			"transferOwnership(address)": "f2fde38b",
			"upgradeToAndCall(address,bytes)": "4f1ef286",
			"withdraw(address,uint256)": "f3fef3a3",
			"withdrawMyFunds(address,uint256)": "1d172245"
		}
	},
	"abi": [
		{
			"inputs": [
				{
					"internalType": "address",
					"name": "target",
					"type": "address"
				}
			],
			"name": "AddressEmptyCode",
			"type": "error"
		},
		{
			"inputs": [
				{
					"internalType": "address",
					"name": "implementation",
					"type": "address"
				}
			],
			"name": "ERC1967InvalidImplementation",
			"type": "error"
		},
		{
			"inputs": [],
			"name": "ERC1967NonPayable",
			"type": "error"
		},
		{
			"inputs": [],
			"name": "FailedCall",
			"type": "error"
		},
		{
			"inputs": [],
			"name": "InvalidInitialization",
			"type": "error"
		},
		{
			"inputs": [],
			"name": "NotInitializing",
			"type": "error"
		},
		{
			"inputs": [
				{
					"internalType": "address",
					"name": "owner",
					"type": "address"
				}
			],
			"name": "OwnableInvalidOwner",
			"type": "error"
		},
		{
			"inputs": [
				{
					"internalType": "address",
					"name": "account",
					"type": "address"
				}
			],
			"name": "OwnableUnauthorizedAccount",
			"type": "error"
		},
		{
			"inputs": [],
			"name": "UUPSUnauthorizedCallContext",
			"type": "error"
		},
		{
			"inputs": [
				{
					"internalType": "bytes32",
					"name": "slot",
					"type": "bytes32"
				}
			],
			"name": "UUPSUnsupportedProxiableUUID",
			"type": "error"
		},
		{
			"anonymous": false,
			"inputs": [
				{
					"indexed": true,
					"internalType": "address",
					"name": "charity",
					"type": "address"
				}
			],
			"name": "CharityAdded",
			"type": "event"
		},
		{
			"anonymous": false,
			"inputs": [
				{
					"indexed": true,
					"internalType": "address",
					"name": "charity",
					"type": "address"
				},
				{
					"indexed": false,
					"internalType": "string",
					"name": "name",
					"type": "string"
				}
			],
			"name": "CharityNameSet",
			"type": "event"
		},
		{
			"anonymous": false,
			"inputs": [
				{
					"indexed": true,
					"internalType": "address",
					"name": "charity",
					"type": "address"
				}
			],
			"name": "CharityRemoved",
			"type": "event"
		},
		{
			"anonymous": false,
			"inputs": [
				{
					"indexed": true,
					"internalType": "address",
					"name": "charity",
					"type": "address"
				},
				{
					"indexed": true,
					"internalType": "address",
					"name": "to",
					"type": "address"
				},
				{
					"indexed": false,
					"internalType": "uint256",
					"name": "amountWei",
					"type": "uint256"
				}
			],
			"name": "CharityWithdrawn",
			"type": "event"
		},
		{
			"anonymous": false,
			"inputs": [
				{
					"indexed": true,
					"internalType": "address",
					"name": "donor",
					"type": "address"
				},
				{
					"indexed": false,
					"internalType": "uint256",
					"name": "amountWei",
					"type": "uint256"
				}
			],
			"name": "Donated",
			"type": "event"
		},
		{
			"anonymous": false,
			"inputs": [
				{
					"indexed": true,
					"internalType": "address",
					"name": "donor",
					"type": "address"
				},
				{
					"indexed": true,
					"internalType": "address",
					"name": "charity",
					"type": "address"
				},
				{
					"indexed": false,
					"internalType": "uint256",
					"name": "amountWei",
					"type": "uint256"
				}
			],
			"name": "DonationToCharity",
			"type": "event"
		},
		{
			"anonymous": false,
			"inputs": [
				{
					"indexed": false,
					"internalType": "uint64",
					"name": "version",
					"type": "uint64"
				}
			],
			"name": "Initialized",
			"type": "event"
		},
		{
			"anonymous": false,
			"inputs": [
				{
					"indexed": true,
					"internalType": "address",
					"name": "previousOwner",
					"type": "address"
				},
				{
					"indexed": true,
					"internalType": "address",
					"name": "newOwner",
					"type": "address"
				}
			],
			"name": "OwnershipTransferred",
			"type": "event"
		},
		{
			"anonymous": false,
			"inputs": [
				{
					"indexed": true,
					"internalType": "address",
					"name": "implementation",
					"type": "address"
				}
			],
			"name": "Upgraded",
			"type": "event"
		},
		{
			"anonymous": false,
			"inputs": [
				{
					"indexed": true,
					"internalType": "address",
					"name": "to",
					"type": "address"
				},
				{
					"indexed": false,
					"internalType": "uint256",
					"name": "amountWei",
					"type": "uint256"
				}
			],
			"name": "Withdrawn",
			"type": "event"
		},
		{
			"inputs": [],
			"name": "UPGRADE_INTERFACE_VERSION",
			"outputs": [
				{
					"internalType": "string",
					"name": "",
					"type": "string"
				}
			],
			"stateMutability": "view",
			"type": "function"
		},
		{
			"inputs": [
				{
					"internalType": "address",
					"name": "charity",
					"type": "address"
				}
			],
			"name": "addCharity",
			"outputs": [],
			"stateMutability": "nonpayable",
			"type": "function"
		},
		{
			"inputs": [
				{
					"internalType": "uint256",
					"name": "",
					"type": "uint256"
				}
			],
			"name": "charities",
			"outputs": [
				{
					"internalType": "address",
					"name": "",
					"type": "address"
				}
			],
			"stateMutability": "view",
			"type": "function"
		},
		{
			"inputs": [],
			"name": "charitiesCount",
			"outputs": [
				{
					"internalType": "uint256",
					"name": "",
					"type": "uint256"
				}
			],
			"stateMutability": "view",
			"type": "function"
		},
		{
			"inputs": [
				{
					"internalType": "address",
					"name": "",
					"type": "address"
				}
			],
			"name": "charityBalanceWei",
			"outputs": [
				{
					"internalType": "uint256",
					"name": "",
					"type": "uint256"
				}
			],
			"stateMutability": "view",
			"type": "function"
		},
		{
			"inputs": [
				{
					"internalType": "address",
					"name": "",
					"type": "address"
				}
			],
			"name": "charityName",
			"outputs": [
				{
					"internalType": "string",
					"name": "",
					"type": "string"
				}
			],
			"stateMutability": "view",
			"type": "function"
		},
		{
			"inputs": [],
			"name": "donate",
			"outputs": [],
			"stateMutability": "payable",
			"type": "function"
		},
		{
			"inputs": [
				{
					"internalType": "address",
					"name": "charity",
					"type": "address"
				}
			],
			"name": "donateToCharity",
			"outputs": [],
			"stateMutability": "payable",
			"type": "function"
		},
		{
			"inputs": [
				{
					"internalType": "address",
					"name": "",
					"type": "address"
				}
			],
			"name": "donatedBy",
			"outputs": [
				{
					"internalType": "uint256",
					"name": "",
					"type": "uint256"
				}
			],
			"stateMutability": "view",
			"type": "function"
		},
		{
			"inputs": [
				{
					"internalType": "uint256",
					"name": "_minDonationWei",
					"type": "uint256"
				}
			],
			"name": "initialize",
			"outputs": [],
			"stateMutability": "nonpayable",
			"type": "function"
		},
		{
			"inputs": [
				{
					"internalType": "address[]",
					"name": "initialCharities",
					"type": "address[]"
				}
			],
			"name": "initializeV2",
			"outputs": [],
			"stateMutability": "nonpayable",
			"type": "function"
		},
		{
			"inputs": [
				{
					"internalType": "address[]",
					"name": "addrs",
					"type": "address[]"
				},
				{
					"internalType": "string[]",
					"name": "names",
					"type": "string[]"
				}
			],
			"name": "initializeV3",
			"outputs": [],
			"stateMutability": "nonpayable",
			"type": "function"
		},
		{
			"inputs": [
				{
					"internalType": "address",
					"name": "",
					"type": "address"
				}
			],
			"name": "isCharity",
			"outputs": [
				{
					"internalType": "bool",
					"name": "",
					"type": "bool"
				}
			],
			"stateMutability": "view",
			"type": "function"
		},
		{
			"inputs": [],
			"name": "minDonationWei",
			"outputs": [
				{
					"internalType": "uint256",
					"name": "",
					"type": "uint256"
				}
			],
			"stateMutability": "view",
			"type": "function"
		},
		{
			"inputs": [],
			"name": "owner",
			"outputs": [
				{
					"internalType": "address",
					"name": "",
					"type": "address"
				}
			],
			"stateMutability": "view",
			"type": "function"
		},
		{
			"inputs": [],
			"name": "proxiableUUID",
			"outputs": [
				{
					"internalType": "bytes32",
					"name": "",
					"type": "bytes32"
				}
			],
			"stateMutability": "view",
			"type": "function"
		},
		{
			"inputs": [
				{
					"internalType": "address",
					"name": "charity",
					"type": "address"
				}
			],
			"name": "removeCharity",
			"outputs": [],
			"stateMutability": "nonpayable",
			"type": "function"
		},
		{
			"inputs": [],
			"name": "renounceOwnership",
			"outputs": [],
			"stateMutability": "nonpayable",
			"type": "function"
		},
		{
			"inputs": [
				{
					"internalType": "address",
					"name": "charity",
					"type": "address"
				},
				{
					"internalType": "string",
					"name": "name",
					"type": "string"
				}
			],
			"name": "setCharityName",
			"outputs": [],
			"stateMutability": "nonpayable",
			"type": "function"
		},
		{
			"inputs": [
				{
					"internalType": "address[]",
					"name": "addrs",
					"type": "address[]"
				},
				{
					"internalType": "string[]",
					"name": "names",
					"type": "string[]"
				}
			],
			"name": "setCharityNames",
			"outputs": [],
			"stateMutability": "nonpayable",
			"type": "function"
		},
		{
			"inputs": [],
			"name": "totalDonated",
			"outputs": [
				{
					"internalType": "uint256",
					"name": "",
					"type": "uint256"
				}
			],
			"stateMutability": "view",
			"type": "function"
		},
		{
			"inputs": [
				{
					"internalType": "address",
					"name": "newOwner",
					"type": "address"
				}
			],
			"name": "transferOwnership",
			"outputs": [],
			"stateMutability": "nonpayable",
			"type": "function"
		},
		{
			"inputs": [
				{
					"internalType": "address",
					"name": "newImplementation",
					"type": "address"
				},
				{
					"internalType": "bytes",
					"name": "data",
					"type": "bytes"
				}
			],
			"name": "upgradeToAndCall",
			"outputs": [],
			"stateMutability": "payable",
			"type": "function"
		},
		{
			"inputs": [
				{
					"internalType": "address payable",
					"name": "to",
					"type": "address"
				},
				{
					"internalType": "uint256",
					"name": "amountWei",
					"type": "uint256"
				}
			],
			"name": "withdraw",
			"outputs": [],
			"stateMutability": "nonpayable",
			"type": "function"
		},
		{
			"inputs": [
				{
					"internalType": "address payable",
					"name": "to",
					"type": "address"
				},
				{
					"internalType": "uint256",
					"name": "amountWei",
					"type": "uint256"
				}
			],
			"name": "withdrawMyFunds",
			"outputs": [],
			"stateMutability": "nonpayable",
			"type": "function"
		}
	]
}